{
  "_format": "hh-sol-artifact-1",
  "contractName": "MerkleTree",
  "sourceName": "contracts/MerkleTree.sol",
  "abi": [
    {
      "inputs": [
        {
          "internalType": "address",
          "name": "_hubAddress",
          "type": "address"
        }
      ],
      "stateMutability": "nonpayable",
      "type": "constructor"
    },
    {
      "anonymous": false,
      "inputs": [
        {
          "indexed": false,
          "internalType": "uint256",
          "name": "leaf",
          "type": "uint256"
        },
        {
          "indexed": false,
          "internalType": "uint256",
          "name": "root",
          "type": "uint256"
        }
      ],
      "name": "LeafInserted",
      "type": "event"
    },
    {
      "anonymous": false,
      "inputs": [
        {
          "indexed": true,
          "internalType": "address",
          "name": "previousOwner",
          "type": "address"
        },
        {
          "indexed": true,
          "internalType": "address",
          "name": "newOwner",
          "type": "address"
        }
      ],
      "name": "OwnershipTransferred",
      "type": "event"
    },
    {
      "inputs": [],
      "name": "DEPTH",
      "outputs": [
        {
          "internalType": "uint8",
          "name": "",
          "type": "uint8"
        }
      ],
      "stateMutability": "view",
      "type": "function"
    },
    {
      "inputs": [],
      "name": "ROOT_HISTORY_SIZE",
      "outputs": [
        {
          "internalType": "uint8",
          "name": "",
          "type": "uint8"
        }
      ],
      "stateMutability": "view",
      "type": "function"
    },
    {
      "inputs": [],
      "name": "getLeaves",
      "outputs": [
        {
          "internalType": "uint256[]",
          "name": "",
          "type": "uint256[]"
        }
      ],
      "stateMutability": "view",
      "type": "function"
    },
    {
      "inputs": [
        {
          "internalType": "uint256",
          "name": "idx",
          "type": "uint256"
        }
      ],
      "name": "getLeavesFrom",
      "outputs": [
        {
          "internalType": "uint256[]",
          "name": "",
          "type": "uint256[]"
        }
      ],
      "stateMutability": "view",
      "type": "function"
    },
    {
      "inputs": [],
      "name": "hubAddress",
      "outputs": [
        {
          "internalType": "address",
          "name": "",
          "type": "address"
        }
      ],
      "stateMutability": "view",
      "type": "function"
    },
    {
      "inputs": [
        {
          "internalType": "uint256",
          "name": "_leaf",
          "type": "uint256"
        }
      ],
      "name": "insertLeaf",
      "outputs": [],
      "stateMutability": "nonpayable",
      "type": "function"
    },
    {
      "inputs": [
        {
          "internalType": "uint256",
          "name": "",
          "type": "uint256"
        }
      ],
      "name": "leafExists",
      "outputs": [
        {
          "internalType": "bool",
          "name": "",
          "type": "bool"
        }
      ],
      "stateMutability": "view",
      "type": "function"
    },
    {
      "inputs": [
        {
          "internalType": "uint256",
          "name": "",
          "type": "uint256"
        }
      ],
      "name": "leaves",
      "outputs": [
        {
          "internalType": "uint256",
          "name": "",
          "type": "uint256"
        }
      ],
      "stateMutability": "view",
      "type": "function"
    },
    {
      "inputs": [],
      "name": "mostRecentRoot",
      "outputs": [
        {
          "internalType": "uint256",
          "name": "",
          "type": "uint256"
        }
      ],
      "stateMutability": "view",
      "type": "function"
    },
    {
      "inputs": [],
      "name": "owner",
      "outputs": [
        {
          "internalType": "address",
          "name": "",
          "type": "address"
        }
      ],
      "stateMutability": "view",
      "type": "function"
    },
    {
      "inputs": [
        {
          "internalType": "uint256",
          "name": "",
          "type": "uint256"
        }
      ],
      "name": "recentRootsList",
      "outputs": [
        {
          "internalType": "uint256",
          "name": "",
          "type": "uint256"
        }
      ],
      "stateMutability": "view",
      "type": "function"
    },
    {
      "inputs": [
        {
          "internalType": "uint256",
          "name": "",
          "type": "uint256"
        }
      ],
      "name": "recentRootsMap",
      "outputs": [
        {
          "internalType": "bool",
          "name": "",
          "type": "bool"
        }
      ],
      "stateMutability": "view",
      "type": "function"
    },
    {
      "inputs": [],
      "name": "renounceOwnership",
      "outputs": [],
      "stateMutability": "nonpayable",
      "type": "function"
    },
    {
      "inputs": [],
      "name": "root",
      "outputs": [
        {
          "internalType": "uint256",
          "name": "",
          "type": "uint256"
        }
      ],
      "stateMutability": "view",
      "type": "function"
    },
    {
      "inputs": [
        {
          "internalType": "uint256",
          "name": "r",
          "type": "uint256"
        }
      ],
      "name": "rootIsRecent",
      "outputs": [
        {
          "internalType": "bool",
          "name": "",
          "type": "bool"
        }
      ],
      "stateMutability": "view",
      "type": "function"
    },
    {
      "inputs": [
        {
          "internalType": "address",
          "name": "newHubAddress",
          "type": "address"
        }
      ],
      "name": "setHubAddress",
      "outputs": [],
      "stateMutability": "nonpayable",
      "type": "function"
    },
    {
      "inputs": [
        {
          "internalType": "address",
          "name": "newOwner",
          "type": "address"
        }
      ],
      "name": "transferOwnership",
      "outputs": [],
      "stateMutability": "nonpayable",
      "type": "function"
    },
    {
      "inputs": [],
      "name": "tree",
      "outputs": [
        {
          "internalType": "uint256",
          "name": "depth",
          "type": "uint256"
        },
        {
          "internalType": "uint256",
          "name": "root",
          "type": "uint256"
        },
        {
          "internalType": "uint256",
          "name": "numberOfLeaves",
          "type": "uint256"
        }
      ],
      "stateMutability": "view",
      "type": "function"
    }
  ],
  "bytecode": "0x60806040523480156200001157600080fd5b506040516200182638038062001826833981810160405281019062000037919062000344565b620000576200004b6200014260201b60201c565b6200014a60201b60201c565b620000866040518060a0016040528060638152602001620017c3606391396200020e60201b6200097e1760201c565b600c73__$a19418b46e8afa291aed5cbf8ab9750b7c$__631095fbb49091600e60006040518463ffffffff1660e01b8152600401620000c8939291906200041a565b60006040518083038186803b158015620000e157600080fd5b505af4158015620000f6573d6000803e3d6000fd5b5050505080601460006101000a81548173ffffffffffffffffffffffffffffffffffffffff021916908373ffffffffffffffffffffffffffffffffffffffff1602179055505062000515565b600033905090565b60008060009054906101000a900473ffffffffffffffffffffffffffffffffffffffff169050816000806101000a81548173ffffffffffffffffffffffffffffffffffffffff021916908373ffffffffffffffffffffffffffffffffffffffff1602179055508173ffffffffffffffffffffffffffffffffffffffff168173ffffffffffffffffffffffffffffffffffffffff167f8be0079c531659141344cd1fd0a4f28419497f9722a3daafe3b4186f6b6457e060405160405180910390a35050565b620002ae81604051602401620002259190620004f1565b6040516020818303038152906040527f41304fac000000000000000000000000000000000000000000000000000000007bffffffffffffffffffffffffffffffffffffffffffffffffffffffff19166020820180517bffffffffffffffffffffffffffffffffffffffffffffffffffffffff8381831617835250505050620002b160201b60201c565b50565b60008151905060006a636f6e736f6c652e6c6f679050602083016000808483855afa5050505050565b600080fd5b600073ffffffffffffffffffffffffffffffffffffffff82169050919050565b60006200030c82620002df565b9050919050565b6200031e81620002ff565b81146200032a57600080fd5b50565b6000815190506200033e8162000313565b92915050565b6000602082840312156200035d576200035c620002da565b5b60006200036d848285016200032d565b91505092915050565b8082525050565b600060ff82169050919050565b6000819050919050565b6000819050919050565b6000620003bf620003b9620003b3846200037d565b62000394565b6200038a565b9050919050565b620003d1816200039e565b82525050565b6000819050919050565b600062000402620003fc620003f684620003d7565b62000394565b6200038a565b9050919050565b6200041481620003e1565b82525050565b600060608201905062000431600083018662000376565b620004406020830185620003c6565b6200044f604083018462000409565b949350505050565b600081519050919050565b600082825260208201905092915050565b60005b838110156200049357808201518184015260208101905062000476565b60008484015250505050565b6000601f19601f8301169050919050565b6000620004bd8262000457565b620004c9818562000462565b9350620004db81856020860162000473565b620004e6816200049f565b840191505092915050565b600060208201905081810360008301526200050d8184620004b0565b905092915050565b61129e80620005256000396000f3fe608060405234801561001057600080fd5b50600436106101165760003560e01c8063b7202434116100a2578063e74e65fa11610071578063e74e65fa146102e3578063ebf0c71714610313578063f2fde38b14610331578063f69b1b291461034d578063fd54b2281461036b57610116565b8063b72024341461025d578063c7eb452214610279578063cd87a3b414610295578063d455a79d146102b357610116565b80636d61af5c116100e95780636d61af5c146101c9578063715018a6146101f95780638da5cb5b1461020357806398366e3514610221578063ad2b30371461023f57610116565b8063395505951461011b5780634cd072f6146101395780634df81bb814610169578063596a631b14610199575b600080fd5b61012361038b565b6040516101309190610ba3565b60405180910390f35b610153600480360381019061014e9190610bef565b610398565b6040516101609190610c37565b60405180910390f35b610183600480360381019061017e9190610bef565b6103b8565b6040516101909190610c37565b60405180910390f35b6101b360048036038101906101ae9190610bef565b6103d8565b6040516101c09190610ba3565b60405180910390f35b6101e360048036038101906101de9190610bef565b6103f3565b6040516101f09190610c37565b60405180910390f35b61020161041d565b005b61020b610431565b6040516102189190610c93565b60405180910390f35b61022961045a565b6040516102369190610cca565b60405180910390f35b61024761045f565b6040516102549190610da3565b60405180910390f35b61027760048036038101906102729190610bef565b6104b7565b005b610293600480360381019061028e9190610df1565b610700565b005b61029d61074c565b6040516102aa9190610cca565b60405180910390f35b6102cd60048036038101906102c89190610bef565b610751565b6040516102da9190610ba3565b60405180910390f35b6102fd60048036038101906102f89190610bef565b610775565b60405161030a9190610da3565b60405180910390f35b61031b6108b7565b6040516103289190610ba3565b60405180910390f35b61034b60048036038101906103469190610df1565b6108bd565b005b610355610940565b6040516103629190610c93565b60405180910390f35b610373610966565b60405161038293929190610e1e565b60405180910390f35b6000600c60010154905090565b60136020528060005260406000206000915054906101000a900460ff1681565b600b6020528060005260406000206000915054906101000a900460ff1681565b600181600a81106103e857600080fd5b016000915090505481565b6000600b600083815260200190815260200160002060009054906101000a900460ff169050919050565b610425610a17565b61042f6000610a95565b565b60008060009054906101000a900473ffffffffffffffffffffffffffffffffffffffff16905090565b600e81565b606060128054806020026020016040519081016040528092919081815260200182805480156104ad57602002820191906000526020600020905b815481526020019060010190808311610499575b5050505050905090565b601460009054906101000a900473ffffffffffffffffffffffffffffffffffffffff1673ffffffffffffffffffffffffffffffffffffffff163373ffffffffffffffffffffffffffffffffffffffff1614610547576040517f08c379a000000000000000000000000000000000000000000000000000000000815260040161053e90610ed8565b60405180910390fd5b600c73__$a19418b46e8afa291aed5cbf8ab9750b7c$__63168703fa9091836040518363ffffffff1660e01b8152600401610583929190610f0e565b60006040518083038186803b15801561059b57600080fd5b505af41580156105af573d6000803e3d6000fd5b50505050601281908060018154018082558091505060019003906000526020600020016000909190919091505560016013600083815260200190815260200160002060006101000a81548160ff0219169083151502179055506000600a60ff166001600c600201546106219190610f66565b61062b9190610fc9565b90506000600b6000600184600a811061064757610646610ffa565b5b0154815260200190815260200160002060006101000a81548160ff0219169083151502179055506001600b6000600c60010154815260200190815260200160002060006101000a81548160ff021916908315150217905550600c60010154600182600a81106106b9576106b8610ffa565b5b01819055507f604f5a492f8c1622a2e239876074a13b33ec11384fe2b310339ece35e8eecac782600c600101546040516106f4929190611029565b60405180910390a15050565b610708610a17565b80601460006101000a81548173ffffffffffffffffffffffffffffffffffffffff021916908373ffffffffffffffffffffffffffffffffffffffff16021790555050565b600a81565b6012818154811061076157600080fd5b906000526020600020016000915090505481565b606081601280549050116107db5760158054806020026020016040519081016040528092919081815260200182805480156107cf57602002820191906000526020600020905b8154815260200190600101908083116107bb575b505050505090506108b2565b6000826012805490506107ee9190610f66565b67ffffffffffffffff81111561080757610806611052565b5b6040519080825280602002602001820160405280156108355781602001602082028036833780820191505090505b5090506000808490505b6012805490508110156108ab57601281815481106108605761085f610ffa565b5b906000526020600020015483838151811061087e5761087d610ffa565b5b602002602001018181525050818061089590611081565b92505080806108a390611081565b91505061083f565b5081925050505b919050565b60115481565b6108c5610a17565b600073ffffffffffffffffffffffffffffffffffffffff168173ffffffffffffffffffffffffffffffffffffffff1603610934576040517f08c379a000000000000000000000000000000000000000000000000000000000815260040161092b9061113b565b60405180910390fd5b61093d81610a95565b50565b601460009054906101000a900473ffffffffffffffffffffffffffffffffffffffff1681565b600c8060000154908060010154908060020154905083565b610a148160405160240161099291906111da565b6040516020818303038152906040527f41304fac000000000000000000000000000000000000000000000000000000007bffffffffffffffffffffffffffffffffffffffffffffffffffffffff19166020820180517bffffffffffffffffffffffffffffffffffffffffffffffffffffffff8381831617835250505050610b59565b50565b610a1f610b82565b73ffffffffffffffffffffffffffffffffffffffff16610a3d610431565b73ffffffffffffffffffffffffffffffffffffffff1614610a93576040517f08c379a0000000000000000000000000000000000000000000000000000000008152600401610a8a90611248565b60405180910390fd5b565b60008060009054906101000a900473ffffffffffffffffffffffffffffffffffffffff169050816000806101000a81548173ffffffffffffffffffffffffffffffffffffffff021916908373ffffffffffffffffffffffffffffffffffffffff1602179055508173ffffffffffffffffffffffffffffffffffffffff168173ffffffffffffffffffffffffffffffffffffffff167f8be0079c531659141344cd1fd0a4f28419497f9722a3daafe3b4186f6b6457e060405160405180910390a35050565b60008151905060006a636f6e736f6c652e6c6f679050602083016000808483855afa5050505050565b600033905090565b6000819050919050565b610b9d81610b8a565b82525050565b6000602082019050610bb86000830184610b94565b92915050565b600080fd5b610bcc81610b8a565b8114610bd757600080fd5b50565b600081359050610be981610bc3565b92915050565b600060208284031215610c0557610c04610bbe565b5b6000610c1384828501610bda565b91505092915050565b60008115159050919050565b610c3181610c1c565b82525050565b6000602082019050610c4c6000830184610c28565b92915050565b600073ffffffffffffffffffffffffffffffffffffffff82169050919050565b6000610c7d82610c52565b9050919050565b610c8d81610c72565b82525050565b6000602082019050610ca86000830184610c84565b92915050565b600060ff82169050919050565b610cc481610cae565b82525050565b6000602082019050610cdf6000830184610cbb565b92915050565b600081519050919050565b600082825260208201905092915050565b6000819050602082019050919050565b610d1a81610b8a565b82525050565b6000610d2c8383610d11565b60208301905092915050565b6000602082019050919050565b6000610d5082610ce5565b610d5a8185610cf0565b9350610d6583610d01565b8060005b83811015610d96578151610d7d8882610d20565b9750610d8883610d38565b925050600181019050610d69565b5085935050505092915050565b60006020820190508181036000830152610dbd8184610d45565b905092915050565b610dce81610c72565b8114610dd957600080fd5b50565b600081359050610deb81610dc5565b92915050565b600060208284031215610e0757610e06610bbe565b5b6000610e1584828501610ddc565b91505092915050565b6000606082019050610e336000830186610b94565b610e406020830185610b94565b610e4d6040830184610b94565b949350505050565b600082825260208201905092915050565b7f4f6e6c79207468652048756220636f6e74726163742063616e2063616c6c207460008201527f6869732066756e6374696f6e2e00000000000000000000000000000000000000602082015250565b6000610ec2602d83610e55565b9150610ecd82610e66565b604082019050919050565b60006020820190508181036000830152610ef181610eb5565b9050919050565b8082525050565b610f0881610b8a565b82525050565b6000604082019050610f236000830185610ef8565b610f306020830184610eff565b9392505050565b7f4e487b7100000000000000000000000000000000000000000000000000000000600052601160045260246000fd5b6000610f7182610b8a565b9150610f7c83610b8a565b9250828203905081811115610f9457610f93610f37565b5b92915050565b7f4e487b7100000000000000000000000000000000000000000000000000000000600052601260045260246000fd5b6000610fd482610b8a565b9150610fdf83610b8a565b925082610fef57610fee610f9a565b5b828206905092915050565b7f4e487b7100000000000000000000000000000000000000000000000000000000600052603260045260246000fd5b600060408201905061103e6000830185610b94565b61104b6020830184610b94565b9392505050565b7f4e487b7100000000000000000000000000000000000000000000000000000000600052604160045260246000fd5b600061108c82610b8a565b91507fffffffffffffffffffffffffffffffffffffffffffffffffffffffffffffffff82036110be576110bd610f37565b5b600182019050919050565b7f4f776e61626c653a206e6577206f776e657220697320746865207a65726f206160008201527f6464726573730000000000000000000000000000000000000000000000000000602082015250565b6000611125602683610e55565b9150611130826110c9565b604082019050919050565b6000602082019050818103600083015261115481611118565b9050919050565b600081519050919050565b60005b83811015611184578082015181840152602081019050611169565b60008484015250505050565b6000601f19601f8301169050919050565b60006111ac8261115b565b6111b68185610e55565b93506111c6818560208601611166565b6111cf81611190565b840191505092915050565b600060208201905081810360008301526111f481846111a1565b905092915050565b7f4f776e61626c653a2063616c6c6572206973206e6f7420746865206f776e6572600082015250565b6000611232602083610e55565b915061123d826111fc565b602082019050919050565b6000602082019050818103600083015261126181611225565b905091905056fea264697066735822122095c0e6a68df869cdae78982a17955a0ef7c68e480d391cf9cf77c6d3f4815b6e64736f6c634300081100335741524e494e473a20494e435241534520524f4f545f484953544f52595f53495a4520544f204154204c45415354203330204245464f52452050524f44554354494f4e2c20414e442052454d4f564520484152444841542f434f4e534f4c452e534f4c",
  "linkReferences": {
    "@zk-kit/incremental-merkle-tree.sol/IncrementalQuinTree.sol": {
      "IncrementalQuinTree": [
        {
          "length": 20,
          "start": 138
        },
        {
          "length": 20,
          "start": 2672
        }
      ]
    }
  },
  "deployedLinkReferences": {
    "@zk-kit/incremental-merkle-tree.sol/IncrementalQuinTree.sol": {
      "IncrementalQuinTree": [
        {
          "length": 20,
          "start": 1355
        }
      ]
    }
  }
}