{"contracts/antiSybil.verifier.sol":{"AntiSybilVerifier":{"abi":[{"inputs":[{"components":[{"components":[{"internalType":"uint256","name":"X","type":"uint256"},{"internalType":"uint256","name":"Y","type":"uint256"}],"internalType":"struct Pairing.G1Point","name":"a","type":"tuple"},{"components":[{"internalType":"uint256[2]","name":"X","type":"uint256[2]"},{"internalType":"uint256[2]","name":"Y","type":"uint256[2]"}],"internalType":"struct Pairing.G2Point","name":"b","type":"tuple"},{"components":[{"internalType":"uint256","name":"X","type":"uint256"},{"internalType":"uint256","name":"Y","type":"uint256"}],"internalType":"struct Pairing.G1Point","name":"c","type":"tuple"}],"internalType":"struct Proof","name":"proof","type":"tuple"},{"internalType":"uint256[]","name":"input_","type":"uint256[]"}],"name":"verifyEncoded","outputs":[{"internalType":"bool","name":"r","type":"bool"}],"stateMutability":"view","type":"function"},{"inputs":[{"components":[{"components":[{"internalType":"uint256","name":"X","type":"uint256"},{"internalType":"uint256","name":"Y","type":"uint256"}],"internalType":"struct Pairing.G1Point","name":"a","type":"tuple"},{"components":[{"internalType":"uint256[2]","name":"X","type":"uint256[2]"},{"internalType":"uint256[2]","name":"Y","type":"uint256[2]"}],"internalType":"struct Pairing.G2Point","name":"b","type":"tuple"},{"components":[{"internalType":"uint256","name":"X","type":"uint256"},{"internalType":"uint256","name":"Y","type":"uint256"}],"internalType":"struct Pairing.G1Point","name":"c","type":"tuple"}],"internalType":"struct Proof","name":"proof","type":"tuple"},{"internalType":"uint256[5]","name":"input","type":"uint256[5]"}],"name":"verifyTx","outputs":[{"internalType":"bool","name":"r","type":"bool"}],"stateMutability":"view","type":"function"}],"evm":{"bytecode":{"linkReferences":{},"object":"608060405234801561001057600080fd5b50611883806100206000396000f3fe608060405234801561001057600080fd5b50600436106100365760003560e01c8063ba21f38e1461003b578063bcb998861461006b575b600080fd5b61005560048036038101906100509190611267565b61009b565b60405161006291906112e4565b60405180910390f35b6100856004803603810190610080919061162d565b61011f565b60405161009291906112e4565b60405180910390f35b60006100a5611098565b60005b60058110156100fa578484828181106100c4576100c361166f565b5b905060200201358282600581106100de576100dd61166f565b5b60200201818152505080806100f2906116cd565b9150506100a8565b506101158580360381019061010f9190611715565b8261011f565b9150509392505050565b600080600567ffffffffffffffff81111561013d5761013c611315565b5b60405190808252806020026020018201604052801561016b5781602001602082028036833780820191505090505b50905060005b60058110156101c45783816005811061018d5761018c61166f565b5b60200201518282815181106101a5576101a461166f565b5b60200260200101818152505080806101bc906116cd565b915050610171565b5060006101d182866101ec565b036101e05760019150506101e6565b60009150505b92915050565b6000807f30644e72e131a029b85045b68181585d2833e84879b9709143e1f593f00000019050600061021c610383565b9050806080015151600186516102329190611743565b1461023c57600080fd5b60006040518060400160405280600081526020016000815250905060005b86518110156102f557838782815181106102775761027661166f565b5b60200260200101511061028957600080fd5b6102e0826102db85608001516001856102a29190611743565b815181106102b3576102b261166f565b5b60200260200101518a85815181106102ce576102cd61166f565b5b6020026020010151610966565b610a08565b915080806102ed906116cd565b91505061025a565b5061031f8183608001516000815181106103125761031161166f565b5b6020026020010151610a08565b90506103658560000151866020015161033784610ad0565b85604001516103498a60400151610ad0565b876060015161035b8960000151610ad0565b8960200151610b75565b610375576001935050505061037d565b600093505050505b92915050565b61038b6110ba565b60405180604001604052807f07cf3ea35ce89bd47ae7884ed63e681cdd2bcc9b1522c8513995b2efe1424bbc81526020017f0175240658c74aefc5d7e5f9298254ac527b06a541c5745375d8be7f6618f80a8152508160000181905250604051806040016040528060405180604001604052807f05b2d5f21d70e3e463cf78c09b6791c65b5a4e220a8e9f598a1eb07db21455fa81526020017f2f9e034fc8cd01282b990581a71b3c539a9e8b7670c9c4a7def9ed865c3254be815250815260200160405180604001604052807e49736bfe2b83a68f14c7ac8df40ed448eb85344f2116539497062b9628a01481526020017f1e49966ae8c5ad615d4f804a1a0733a0f9e0ec802e1102297d1aa89e545cc8b58152508152508160200181905250604051806040016040528060405180604001604052807f09b8b9280d1a535c41cd655d52beb176de2c75c7eaa27f683edc5c3b23fd4d2381526020017f2483cc62f2f655231a041c2efe3c0acf8ec228c662367e7643dde9486566083e815250815260200160405180604001604052807f2acd04fbd40b56b330ae9b7fae61de45078063eef9dc2efa85ac07670c9a871081526020017f289242c611532eb565c01dda2af7fdace4e181b429b1c522f09e2c45a41ec9868152508152508160400181905250604051806040016040528060405180604001604052807f1fb55ccd4e42f62ea22ec3f2343c6963503de5d52a5886e2de5600bdd6045edf81526020017f1a62735f741101477afc183dd602246d45a685556369fa8a3b59e23b3d6bb9b3815250815260200160405180604001604052807f2d72c8f7af207f2456102b5714d78986ed97f6a1859ff03b808cd1bbafa0ff7d81526020017f1a4dacd7a48f92c49b9a0c1e764a70b254ce3f61b2fa138e095237293ce7c3b58152508152508160600181905250600667ffffffffffffffff81111561065157610650611315565b5b60405190808252806020026020018201604052801561068a57816020015b610677611101565b81526020019060019003908161066f5790505b50816080018190525060405180604001604052807f2fbf2edc978f739425e24af07b701b0252aa5ed5fe6d0c1fa93f4e4e762b204381526020017f234cf92ca5acb62d3ca271ef6aa2ca4bb011886016a4fbb38bd78bfd3a3b05ee8152508160800151600081518110610700576106ff61166f565b5b602002602001018190525060405180604001604052807f1cdeace3919620bbdf2c821ff7a5067d36ec9b3e3b291c5871447e675f72dd8881526020017f255816c023276c902fb1b59789fc4ff19b23cf0e63cdc34fbd9202e5947a502081525081608001516001815181106107785761077761166f565b5b602002602001018190525060405180604001604052807f18e3ec6edb610ebaaec15f751bf8173d6336d2c5b09b288b9c8a9d478798393581526020017f272e548acd302e7fbda87612c1d68d737f1d816586e2a236b71e80cdd4cc3e0781525081608001516002815181106107f0576107ef61166f565b5b602002602001018190525060405180604001604052807f2998028f89a5496e4adb5332b22a054b9c843c4f54dcdca0951444157f0c8db081526020017f11faaa550f3ab63790adb6594e6bd9017e8253e416a4380ab7b8565acfcb82db81525081608001516003815181106108685761086761166f565b5b602002602001018190525060405180604001604052807f09a638226cfc46ac9661a3b62870302d3ff62a958ae2b5d141cba275a59932f381526020017f0d46745c05f8ece61658144223e895c54f087cad3923b5e7e3cf44353ab3504681525081608001516004815181106108e0576108df61166f565b5b602002602001018190525060405180604001604052807f26b78e89f8c6fad685ff502edc6d501adf0fff4ca04439412ca7c40a71543df881526020017f0eca22c5c5523eb363bb9df6a48421816aec29029d3d88ce2f4eeb595bf5887081525081608001516005815181106109585761095761166f565b5b602002602001018190525090565b61096e611101565b61097661111b565b83600001518160006003811061098f5761098e61166f565b5b6020020181815250508360200151816001600381106109b1576109b061166f565b5b60200201818152505082816002600381106109cf576109ce61166f565b5b602002018181525050600060608360808460076107d05a03fa905080600081036109f557fe5b5080610a0057600080fd5b505092915050565b610a10611101565b610a1861113d565b836000015181600060048110610a3157610a3061166f565b5b602002018181525050836020015181600160048110610a5357610a5261166f565b5b602002018181525050826000015181600260048110610a7557610a7461166f565b5b602002018181525050826020015181600360048110610a9757610a9661166f565b5b602002018181525050600060608360c08460066107d05a03fa90508060008103610abd57fe5b5080610ac857600080fd5b505092915050565b610ad8611101565b60007f30644e72e131a029b85045b68181585d97816a916871ca8d3c208c16d87cfd47905060008360000151148015610b15575060008360200151145b15610b39576040518060400160405280600081526020016000815250915050610b70565b604051806040016040528084600001518152602001828560200151610b5e91906117a6565b83610b6991906117d7565b8152509150505b919050565b600080600467ffffffffffffffff811115610b9357610b92611315565b5b604051908082528060200260200182016040528015610bcc57816020015b610bb9611101565b815260200190600190039081610bb15790505b5090506000600467ffffffffffffffff811115610bec57610beb611315565b5b604051908082528060200260200182016040528015610c2557816020015b610c1261115f565b815260200190600190039081610c0a5790505b5090508a82600081518110610c3d57610c3c61166f565b5b60200260200101819052508882600181518110610c5d57610c5c61166f565b5b60200260200101819052508682600281518110610c7d57610c7c61166f565b5b60200260200101819052508482600381518110610c9d57610c9c61166f565b5b60200260200101819052508981600081518110610cbd57610cbc61166f565b5b60200260200101819052508781600181518110610cdd57610cdc61166f565b5b60200260200101819052508581600281518110610cfd57610cfc61166f565b5b60200260200101819052508381600381518110610d1d57610d1c61166f565b5b6020026020010181905250610d328282610d42565b9250505098975050505050505050565b60008151835114610d5257600080fd5b6000835190506000600682610d67919061180b565b905060008167ffffffffffffffff811115610d8557610d84611315565b5b604051908082528060200260200182016040528015610db35781602001602082028036833780820191505090505b50905060005b8381101561103857868181518110610dd457610dd361166f565b5b602002602001015160000151826000600684610df0919061180b565b610dfa9190611743565b81518110610e0b57610e0a61166f565b5b602002602001018181525050868181518110610e2a57610e2961166f565b5b602002602001015160200151826001600684610e46919061180b565b610e509190611743565b81518110610e6157610e6061166f565b5b602002602001018181525050858181518110610e8057610e7f61166f565b5b602002602001015160000151600160028110610e9f57610e9e61166f565b5b6020020151826002600684610eb4919061180b565b610ebe9190611743565b81518110610ecf57610ece61166f565b5b602002602001018181525050858181518110610eee57610eed61166f565b5b602002602001015160000151600060028110610f0d57610f0c61166f565b5b6020020151826003600684610f22919061180b565b610f2c9190611743565b81518110610f3d57610f3c61166f565b5b602002602001018181525050858181518110610f5c57610f5b61166f565b5b602002602001015160200151600160028110610f7b57610f7a61166f565b5b6020020151826004600684610f90919061180b565b610f9a9190611743565b81518110610fab57610faa61166f565b5b602002602001018181525050858181518110610fca57610fc961166f565b5b602002602001015160200151600060028110610fe957610fe861166f565b5b6020020151826005600684610ffe919061180b565b6110089190611743565b815181106110195761101861166f565b5b6020026020010181815250508080611030906116cd565b915050610db9565b50611041611185565b6000602082602086026020860160086107d05a03fa9050806000810361106357fe5b508061106e57600080fd5b6000826000600181106110845761108361166f565b5b602002015114159550505050505092915050565b6040518060a00160405280600590602082028036833780820191505090505090565b6040518060a001604052806110cd611101565b81526020016110da61115f565b81526020016110e761115f565b81526020016110f461115f565b8152602001606081525090565b604051806040016040528060008152602001600081525090565b6040518060600160405280600390602082028036833780820191505090505090565b6040518060800160405280600490602082028036833780820191505090505090565b60405180604001604052806111726111a7565b815260200161117f6111a7565b81525090565b6040518060200160405280600190602082028036833780820191505090505090565b6040518060400160405280600290602082028036833780820191505090505090565b6000604051905090565b600080fd5b600080fd5b600080fd5b600061010082840312156111f9576111f86111dd565b5b81905092915050565b600080fd5b600080fd5b600080fd5b60008083601f84011261122757611226611202565b5b8235905067ffffffffffffffff81111561124457611243611207565b5b6020830191508360208202830111156112605761125f61120c565b5b9250929050565b60008060006101208486031215611281576112806111d3565b5b600061128f868287016111e2565b93505061010084013567ffffffffffffffff8111156112b1576112b06111d8565b5b6112bd86828701611211565b92509250509250925092565b60008115159050919050565b6112de816112c9565b82525050565b60006020820190506112f960008301846112d5565b92915050565b600080fd5b6000601f19601f8301169050919050565b7f4e487b7100000000000000000000000000000000000000000000000000000000600052604160045260246000fd5b61134d82611304565b810181811067ffffffffffffffff8211171561136c5761136b611315565b5b80604052505050565b600061137f6111c9565b905061138b8282611344565b919050565b6000819050919050565b6113a381611390565b81146113ae57600080fd5b50565b6000813590506113c08161139a565b92915050565b6000604082840312156113dc576113db6112ff565b5b6113e66040611375565b905060006113f6848285016113b1565b600083015250602061140a848285016113b1565b60208301525092915050565b600067ffffffffffffffff82111561143157611430611315565b5b602082029050919050565b600061144f61144a84611416565b611375565b905080602084028301858111156114695761146861120c565b5b835b81811015611492578061147e88826113b1565b84526020840193505060208101905061146b565b5050509392505050565b600082601f8301126114b1576114b0611202565b5b60026114be84828561143c565b91505092915050565b6000608082840312156114dd576114dc6112ff565b5b6114e76040611375565b905060006114f78482850161149c565b600083015250604061150b8482850161149c565b60208301525092915050565b6000610100828403121561152e5761152d6112ff565b5b6115386060611375565b90506000611548848285016113c6565b600083015250604061155c848285016114c7565b60208301525060c0611570848285016113c6565b60408301525092915050565b600067ffffffffffffffff82111561159757611596611315565b5b602082029050919050565b60006115b56115b08461157c565b611375565b905080602084028301858111156115cf576115ce61120c565b5b835b818110156115f857806115e488826113b1565b8452602084019350506020810190506115d1565b5050509392505050565b600082601f83011261161757611616611202565b5b60056116248482856115a2565b91505092915050565b6000806101a08385031215611645576116446111d3565b5b600061165385828601611517565b92505061010061166585828601611602565b9150509250929050565b7f4e487b7100000000000000000000000000000000000000000000000000000000600052603260045260246000fd5b7f4e487b7100000000000000000000000000000000000000000000000000000000600052601160045260246000fd5b60006116d882611390565b91507fffffffffffffffffffffffffffffffffffffffffffffffffffffffffffffffff820361170a5761170961169e565b5b600182019050919050565b6000610100828403121561172c5761172b6111d3565b5b600061173a84828501611517565b91505092915050565b600061174e82611390565b915061175983611390565b92508282019050808211156117715761177061169e565b5b92915050565b7f4e487b7100000000000000000000000000000000000000000000000000000000600052601260045260246000fd5b60006117b182611390565b91506117bc83611390565b9250826117cc576117cb611777565b5b828206905092915050565b60006117e282611390565b91506117ed83611390565b92508282039050818111156118055761180461169e565b5b92915050565b600061181682611390565b915061182183611390565b925082820261182f81611390565b915082820484148315176118465761184561169e565b5b509291505056fea2646970667358221220b559062750778ec788c11d92677781caffa077cd2581ba7de2be80adc4f5540d64736f6c63430008110033","opcodes":"PUSH1 0x80 PUSH1 0x40 MSTORE CALLVALUE DUP1 ISZERO PUSH2 0x10 JUMPI PUSH1 0x0 DUP1 REVERT JUMPDEST POP PUSH2 0x1883 DUP1 PUSH2 0x20 PUSH1 0x0 CODECOPY PUSH1 0x0 RETURN INVALID PUSH1 0x80 PUSH1 0x40 MSTORE CALLVALUE DUP1 ISZERO PUSH2 0x10 JUMPI PUSH1 0x0 DUP1 REVERT JUMPDEST POP PUSH1 0x4 CALLDATASIZE LT PUSH2 0x36 JUMPI PUSH1 0x0 CALLDATALOAD PUSH1 0xE0 SHR DUP1 PUSH4 0xBA21F38E EQ PUSH2 0x3B JUMPI DUP1 PUSH4 0xBCB99886 EQ PUSH2 0x6B JUMPI JUMPDEST PUSH1 0x0 DUP1 REVERT JUMPDEST PUSH2 0x55 PUSH1 0x4 DUP1 CALLDATASIZE SUB DUP2 ADD SWAP1 PUSH2 0x50 SWAP2 SWAP1 PUSH2 0x1267 JUMP JUMPDEST PUSH2 0x9B JUMP JUMPDEST PUSH1 0x40 MLOAD PUSH2 0x62 SWAP2 SWAP1 PUSH2 0x12E4 JUMP JUMPDEST PUSH1 0x40 MLOAD DUP1 SWAP2 SUB SWAP1 RETURN JUMPDEST PUSH2 0x85 PUSH1 0x4 DUP1 CALLDATASIZE SUB DUP2 ADD SWAP1 PUSH2 0x80 SWAP2 SWAP1 PUSH2 0x162D JUMP JUMPDEST PUSH2 0x11F JUMP JUMPDEST PUSH1 0x40 MLOAD PUSH2 0x92 SWAP2 SWAP1 PUSH2 0x12E4 JUMP JUMPDEST PUSH1 0x40 MLOAD DUP1 SWAP2 SUB SWAP1 RETURN JUMPDEST PUSH1 0x0 PUSH2 0xA5 PUSH2 0x1098 JUMP JUMPDEST PUSH1 0x0 JUMPDEST PUSH1 0x5 DUP2 LT ISZERO PUSH2 0xFA JUMPI DUP5 DUP5 DUP3 DUP2 DUP2 LT PUSH2 0xC4 JUMPI PUSH2 0xC3 PUSH2 0x166F JUMP JUMPDEST JUMPDEST SWAP1 POP PUSH1 0x20 MUL ADD CALLDATALOAD DUP3 DUP3 PUSH1 0x5 DUP2 LT PUSH2 0xDE JUMPI PUSH2 0xDD PUSH2 0x166F JUMP JUMPDEST JUMPDEST PUSH1 0x20 MUL ADD DUP2 DUP2 MSTORE POP POP DUP1 DUP1 PUSH2 0xF2 SWAP1 PUSH2 0x16CD JUMP JUMPDEST SWAP2 POP POP PUSH2 0xA8 JUMP JUMPDEST POP PUSH2 0x115 DUP6 DUP1 CALLDATASIZE SUB DUP2 ADD SWAP1 PUSH2 0x10F SWAP2 SWAP1 PUSH2 0x1715 JUMP JUMPDEST DUP3 PUSH2 0x11F JUMP JUMPDEST SWAP2 POP POP SWAP4 SWAP3 POP POP POP JUMP JUMPDEST PUSH1 0x0 DUP1 PUSH1 0x5 PUSH8 0xFFFFFFFFFFFFFFFF DUP2 GT ISZERO PUSH2 0x13D JUMPI PUSH2 0x13C PUSH2 0x1315 JUMP JUMPDEST JUMPDEST PUSH1 0x40 MLOAD SWAP1 DUP1 DUP3 MSTORE DUP1 PUSH1 0x20 MUL PUSH1 0x20 ADD DUP3 ADD PUSH1 0x40 MSTORE DUP1 ISZERO PUSH2 0x16B JUMPI DUP2 PUSH1 0x20 ADD PUSH1 0x20 DUP3 MUL DUP1 CALLDATASIZE DUP4 CALLDATACOPY DUP1 DUP3 ADD SWAP2 POP POP SWAP1 POP JUMPDEST POP SWAP1 POP PUSH1 0x0 JUMPDEST PUSH1 0x5 DUP2 LT ISZERO PUSH2 0x1C4 JUMPI DUP4 DUP2 PUSH1 0x5 DUP2 LT PUSH2 0x18D JUMPI PUSH2 0x18C PUSH2 0x166F JUMP JUMPDEST JUMPDEST PUSH1 0x20 MUL ADD MLOAD DUP3 DUP3 DUP2 MLOAD DUP2 LT PUSH2 0x1A5 JUMPI PUSH2 0x1A4 PUSH2 0x166F JUMP JUMPDEST JUMPDEST PUSH1 0x20 MUL PUSH1 0x20 ADD ADD DUP2 DUP2 MSTORE POP POP DUP1 DUP1 PUSH2 0x1BC SWAP1 PUSH2 0x16CD JUMP JUMPDEST SWAP2 POP POP PUSH2 0x171 JUMP JUMPDEST POP PUSH1 0x0 PUSH2 0x1D1 DUP3 DUP7 PUSH2 0x1EC JUMP JUMPDEST SUB PUSH2 0x1E0 JUMPI PUSH1 0x1 SWAP2 POP POP PUSH2 0x1E6 JUMP JUMPDEST PUSH1 0x0 SWAP2 POP POP JUMPDEST SWAP3 SWAP2 POP POP JUMP JUMPDEST PUSH1 0x0 DUP1 PUSH32 0x30644E72E131A029B85045B68181585D2833E84879B9709143E1F593F0000001 SWAP1 POP PUSH1 0x0 PUSH2 0x21C PUSH2 0x383 JUMP JUMPDEST SWAP1 POP DUP1 PUSH1 0x80 ADD MLOAD MLOAD PUSH1 0x1 DUP7 MLOAD PUSH2 0x232 SWAP2 SWAP1 PUSH2 0x1743 JUMP JUMPDEST EQ PUSH2 0x23C JUMPI PUSH1 0x0 DUP1 REVERT JUMPDEST PUSH1 0x0 PUSH1 0x40 MLOAD DUP1 PUSH1 0x40 ADD PUSH1 0x40 MSTORE DUP1 PUSH1 0x0 DUP2 MSTORE PUSH1 0x20 ADD PUSH1 0x0 DUP2 MSTORE POP SWAP1 POP PUSH1 0x0 JUMPDEST DUP7 MLOAD DUP2 LT ISZERO PUSH2 0x2F5 JUMPI DUP4 DUP8 DUP3 DUP2 MLOAD DUP2 LT PUSH2 0x277 JUMPI PUSH2 0x276 PUSH2 0x166F JUMP JUMPDEST JUMPDEST PUSH1 0x20 MUL PUSH1 0x20 ADD ADD MLOAD LT PUSH2 0x289 JUMPI PUSH1 0x0 DUP1 REVERT JUMPDEST PUSH2 0x2E0 DUP3 PUSH2 0x2DB DUP6 PUSH1 0x80 ADD MLOAD PUSH1 0x1 DUP6 PUSH2 0x2A2 SWAP2 SWAP1 PUSH2 0x1743 JUMP JUMPDEST DUP2 MLOAD DUP2 LT PUSH2 0x2B3 JUMPI PUSH2 0x2B2 PUSH2 0x166F JUMP JUMPDEST JUMPDEST PUSH1 0x20 MUL PUSH1 0x20 ADD ADD MLOAD DUP11 DUP6 DUP2 MLOAD DUP2 LT PUSH2 0x2CE JUMPI PUSH2 0x2CD PUSH2 0x166F JUMP JUMPDEST JUMPDEST PUSH1 0x20 MUL PUSH1 0x20 ADD ADD MLOAD PUSH2 0x966 JUMP JUMPDEST PUSH2 0xA08 JUMP JUMPDEST SWAP2 POP DUP1 DUP1 PUSH2 0x2ED SWAP1 PUSH2 0x16CD JUMP JUMPDEST SWAP2 POP POP PUSH2 0x25A JUMP JUMPDEST POP PUSH2 0x31F DUP2 DUP4 PUSH1 0x80 ADD MLOAD PUSH1 0x0 DUP2 MLOAD DUP2 LT PUSH2 0x312 JUMPI PUSH2 0x311 PUSH2 0x166F JUMP JUMPDEST JUMPDEST PUSH1 0x20 MUL PUSH1 0x20 ADD ADD MLOAD PUSH2 0xA08 JUMP JUMPDEST SWAP1 POP PUSH2 0x365 DUP6 PUSH1 0x0 ADD MLOAD DUP7 PUSH1 0x20 ADD MLOAD PUSH2 0x337 DUP5 PUSH2 0xAD0 JUMP JUMPDEST DUP6 PUSH1 0x40 ADD MLOAD PUSH2 0x349 DUP11 PUSH1 0x40 ADD MLOAD PUSH2 0xAD0 JUMP JUMPDEST DUP8 PUSH1 0x60 ADD MLOAD PUSH2 0x35B DUP10 PUSH1 0x0 ADD MLOAD PUSH2 0xAD0 JUMP JUMPDEST DUP10 PUSH1 0x20 ADD MLOAD PUSH2 0xB75 JUMP JUMPDEST PUSH2 0x375 JUMPI PUSH1 0x1 SWAP4 POP POP POP POP PUSH2 0x37D JUMP JUMPDEST PUSH1 0x0 SWAP4 POP POP POP POP JUMPDEST SWAP3 SWAP2 POP POP JUMP JUMPDEST PUSH2 0x38B PUSH2 0x10BA JUMP JUMPDEST PUSH1 0x40 MLOAD DUP1 PUSH1 0x40 ADD PUSH1 0x40 MSTORE DUP1 PUSH32 0x7CF3EA35CE89BD47AE7884ED63E681CDD2BCC9B1522C8513995B2EFE1424BBC DUP2 MSTORE PUSH1 0x20 ADD PUSH32 0x175240658C74AEFC5D7E5F9298254AC527B06A541C5745375D8BE7F6618F80A DUP2 MSTORE POP DUP2 PUSH1 0x0 ADD DUP2 SWAP1 MSTORE POP PUSH1 0x40 MLOAD DUP1 PUSH1 0x40 ADD PUSH1 0x40 MSTORE DUP1 PUSH1 0x40 MLOAD DUP1 PUSH1 0x40 ADD PUSH1 0x40 MSTORE DUP1 PUSH32 0x5B2D5F21D70E3E463CF78C09B6791C65B5A4E220A8E9F598A1EB07DB21455FA DUP2 MSTORE PUSH1 0x20 ADD PUSH32 0x2F9E034FC8CD01282B990581A71B3C539A9E8B7670C9C4A7DEF9ED865C3254BE DUP2 MSTORE POP DUP2 MSTORE PUSH1 0x20 ADD PUSH1 0x40 MLOAD DUP1 PUSH1 0x40 ADD PUSH1 0x40 MSTORE DUP1 PUSH31 0x49736BFE2B83A68F14C7AC8DF40ED448EB85344F2116539497062B9628A014 DUP2 MSTORE PUSH1 0x20 ADD PUSH32 0x1E49966AE8C5AD615D4F804A1A0733A0F9E0EC802E1102297D1AA89E545CC8B5 DUP2 MSTORE POP DUP2 MSTORE POP DUP2 PUSH1 0x20 ADD DUP2 SWAP1 MSTORE POP PUSH1 0x40 MLOAD DUP1 PUSH1 0x40 ADD PUSH1 0x40 MSTORE DUP1 PUSH1 0x40 MLOAD DUP1 PUSH1 0x40 ADD PUSH1 0x40 MSTORE DUP1 PUSH32 0x9B8B9280D1A535C41CD655D52BEB176DE2C75C7EAA27F683EDC5C3B23FD4D23 DUP2 MSTORE PUSH1 0x20 ADD PUSH32 0x2483CC62F2F655231A041C2EFE3C0ACF8EC228C662367E7643DDE9486566083E DUP2 MSTORE POP DUP2 MSTORE PUSH1 0x20 ADD PUSH1 0x40 MLOAD DUP1 PUSH1 0x40 ADD PUSH1 0x40 MSTORE DUP1 PUSH32 0x2ACD04FBD40B56B330AE9B7FAE61DE45078063EEF9DC2EFA85AC07670C9A8710 DUP2 MSTORE PUSH1 0x20 ADD PUSH32 0x289242C611532EB565C01DDA2AF7FDACE4E181B429B1C522F09E2C45A41EC986 DUP2 MSTORE POP DUP2 MSTORE POP DUP2 PUSH1 0x40 ADD DUP2 SWAP1 MSTORE POP PUSH1 0x40 MLOAD DUP1 PUSH1 0x40 ADD PUSH1 0x40 MSTORE DUP1 PUSH1 0x40 MLOAD DUP1 PUSH1 0x40 ADD PUSH1 0x40 MSTORE DUP1 PUSH32 0x1FB55CCD4E42F62EA22EC3F2343C6963503DE5D52A5886E2DE5600BDD6045EDF DUP2 MSTORE PUSH1 0x20 ADD PUSH32 0x1A62735F741101477AFC183DD602246D45A685556369FA8A3B59E23B3D6BB9B3 DUP2 MSTORE POP DUP2 MSTORE PUSH1 0x20 ADD PUSH1 0x40 MLOAD DUP1 PUSH1 0x40 ADD PUSH1 0x40 MSTORE DUP1 PUSH32 0x2D72C8F7AF207F2456102B5714D78986ED97F6A1859FF03B808CD1BBAFA0FF7D DUP2 MSTORE PUSH1 0x20 ADD PUSH32 0x1A4DACD7A48F92C49B9A0C1E764A70B254CE3F61B2FA138E095237293CE7C3B5 DUP2 MSTORE POP DUP2 MSTORE POP DUP2 PUSH1 0x60 ADD DUP2 SWAP1 MSTORE POP PUSH1 0x6 PUSH8 0xFFFFFFFFFFFFFFFF DUP2 GT ISZERO PUSH2 0x651 JUMPI PUSH2 0x650 PUSH2 0x1315 JUMP JUMPDEST JUMPDEST PUSH1 0x40 MLOAD SWAP1 DUP1 DUP3 MSTORE DUP1 PUSH1 0x20 MUL PUSH1 0x20 ADD DUP3 ADD PUSH1 0x40 MSTORE DUP1 ISZERO PUSH2 0x68A JUMPI DUP2 PUSH1 0x20 ADD JUMPDEST PUSH2 0x677 PUSH2 0x1101 JUMP JUMPDEST DUP2 MSTORE PUSH1 0x20 ADD SWAP1 PUSH1 0x1 SWAP1 SUB SWAP1 DUP2 PUSH2 0x66F JUMPI SWAP1 POP JUMPDEST POP DUP2 PUSH1 0x80 ADD DUP2 SWAP1 MSTORE POP PUSH1 0x40 MLOAD DUP1 PUSH1 0x40 ADD PUSH1 0x40 MSTORE DUP1 PUSH32 0x2FBF2EDC978F739425E24AF07B701B0252AA5ED5FE6D0C1FA93F4E4E762B2043 DUP2 MSTORE PUSH1 0x20 ADD PUSH32 0x234CF92CA5ACB62D3CA271EF6AA2CA4BB011886016A4FBB38BD78BFD3A3B05EE DUP2 MSTORE POP DUP2 PUSH1 0x80 ADD MLOAD PUSH1 0x0 DUP2 MLOAD DUP2 LT PUSH2 0x700 JUMPI PUSH2 0x6FF PUSH2 0x166F JUMP JUMPDEST JUMPDEST PUSH1 0x20 MUL PUSH1 0x20 ADD ADD DUP2 SWAP1 MSTORE POP PUSH1 0x40 MLOAD DUP1 PUSH1 0x40 ADD PUSH1 0x40 MSTORE DUP1 PUSH32 0x1CDEACE3919620BBDF2C821FF7A5067D36EC9B3E3B291C5871447E675F72DD88 DUP2 MSTORE PUSH1 0x20 ADD PUSH32 0x255816C023276C902FB1B59789FC4FF19B23CF0E63CDC34FBD9202E5947A5020 DUP2 MSTORE POP DUP2 PUSH1 0x80 ADD MLOAD PUSH1 0x1 DUP2 MLOAD DUP2 LT PUSH2 0x778 JUMPI PUSH2 0x777 PUSH2 0x166F JUMP JUMPDEST JUMPDEST PUSH1 0x20 MUL PUSH1 0x20 ADD ADD DUP2 SWAP1 MSTORE POP PUSH1 0x40 MLOAD DUP1 PUSH1 0x40 ADD PUSH1 0x40 MSTORE DUP1 PUSH32 0x18E3EC6EDB610EBAAEC15F751BF8173D6336D2C5B09B288B9C8A9D4787983935 DUP2 MSTORE PUSH1 0x20 ADD PUSH32 0x272E548ACD302E7FBDA87612C1D68D737F1D816586E2A236B71E80CDD4CC3E07 DUP2 MSTORE POP DUP2 PUSH1 0x80 ADD MLOAD PUSH1 0x2 DUP2 MLOAD DUP2 LT PUSH2 0x7F0 JUMPI PUSH2 0x7EF PUSH2 0x166F JUMP JUMPDEST JUMPDEST PUSH1 0x20 MUL PUSH1 0x20 ADD ADD DUP2 SWAP1 MSTORE POP PUSH1 0x40 MLOAD DUP1 PUSH1 0x40 ADD PUSH1 0x40 MSTORE DUP1 PUSH32 0x2998028F89A5496E4ADB5332B22A054B9C843C4F54DCDCA0951444157F0C8DB0 DUP2 MSTORE PUSH1 0x20 ADD PUSH32 0x11FAAA550F3AB63790ADB6594E6BD9017E8253E416A4380AB7B8565ACFCB82DB DUP2 MSTORE POP DUP2 PUSH1 0x80 ADD MLOAD PUSH1 0x3 DUP2 MLOAD DUP2 LT PUSH2 0x868 JUMPI PUSH2 0x867 PUSH2 0x166F JUMP JUMPDEST JUMPDEST PUSH1 0x20 MUL PUSH1 0x20 ADD ADD DUP2 SWAP1 MSTORE POP PUSH1 0x40 MLOAD DUP1 PUSH1 0x40 ADD PUSH1 0x40 MSTORE DUP1 PUSH32 0x9A638226CFC46AC9661A3B62870302D3FF62A958AE2B5D141CBA275A59932F3 DUP2 MSTORE PUSH1 0x20 ADD PUSH32 0xD46745C05F8ECE61658144223E895C54F087CAD3923B5E7E3CF44353AB35046 DUP2 MSTORE POP DUP2 PUSH1 0x80 ADD MLOAD PUSH1 0x4 DUP2 MLOAD DUP2 LT PUSH2 0x8E0 JUMPI PUSH2 0x8DF PUSH2 0x166F JUMP JUMPDEST JUMPDEST PUSH1 0x20 MUL PUSH1 0x20 ADD ADD DUP2 SWAP1 MSTORE POP PUSH1 0x40 MLOAD DUP1 PUSH1 0x40 ADD PUSH1 0x40 MSTORE DUP1 PUSH32 0x26B78E89F8C6FAD685FF502EDC6D501ADF0FFF4CA04439412CA7C40A71543DF8 DUP2 MSTORE PUSH1 0x20 ADD PUSH32 0xECA22C5C5523EB363BB9DF6A48421816AEC29029D3D88CE2F4EEB595BF58870 DUP2 MSTORE POP DUP2 PUSH1 0x80 ADD MLOAD PUSH1 0x5 DUP2 MLOAD DUP2 LT PUSH2 0x958 JUMPI PUSH2 0x957 PUSH2 0x166F JUMP JUMPDEST JUMPDEST PUSH1 0x20 MUL PUSH1 0x20 ADD ADD DUP2 SWAP1 MSTORE POP SWAP1 JUMP JUMPDEST PUSH2 0x96E PUSH2 0x1101 JUMP JUMPDEST PUSH2 0x976 PUSH2 0x111B JUMP JUMPDEST DUP4 PUSH1 0x0 ADD MLOAD DUP2 PUSH1 0x0 PUSH1 0x3 DUP2 LT PUSH2 0x98F JUMPI PUSH2 0x98E PUSH2 0x166F JUMP JUMPDEST JUMPDEST PUSH1 0x20 MUL ADD DUP2 DUP2 MSTORE POP POP DUP4 PUSH1 0x20 ADD MLOAD DUP2 PUSH1 0x1 PUSH1 0x3 DUP2 LT PUSH2 0x9B1 JUMPI PUSH2 0x9B0 PUSH2 0x166F JUMP JUMPDEST JUMPDEST PUSH1 0x20 MUL ADD DUP2 DUP2 MSTORE POP POP DUP3 DUP2 PUSH1 0x2 PUSH1 0x3 DUP2 LT PUSH2 0x9CF JUMPI PUSH2 0x9CE PUSH2 0x166F JUMP JUMPDEST JUMPDEST PUSH1 0x20 MUL ADD DUP2 DUP2 MSTORE POP POP PUSH1 0x0 PUSH1 0x60 DUP4 PUSH1 0x80 DUP5 PUSH1 0x7 PUSH2 0x7D0 GAS SUB STATICCALL SWAP1 POP DUP1 PUSH1 0x0 DUP2 SUB PUSH2 0x9F5 JUMPI INVALID JUMPDEST POP DUP1 PUSH2 0xA00 JUMPI PUSH1 0x0 DUP1 REVERT JUMPDEST POP POP SWAP3 SWAP2 POP POP JUMP JUMPDEST PUSH2 0xA10 PUSH2 0x1101 JUMP JUMPDEST PUSH2 0xA18 PUSH2 0x113D JUMP JUMPDEST DUP4 PUSH1 0x0 ADD MLOAD DUP2 PUSH1 0x0 PUSH1 0x4 DUP2 LT PUSH2 0xA31 JUMPI PUSH2 0xA30 PUSH2 0x166F JUMP JUMPDEST JUMPDEST PUSH1 0x20 MUL ADD DUP2 DUP2 MSTORE POP POP DUP4 PUSH1 0x20 ADD MLOAD DUP2 PUSH1 0x1 PUSH1 0x4 DUP2 LT PUSH2 0xA53 JUMPI PUSH2 0xA52 PUSH2 0x166F JUMP JUMPDEST JUMPDEST PUSH1 0x20 MUL ADD DUP2 DUP2 MSTORE POP POP DUP3 PUSH1 0x0 ADD MLOAD DUP2 PUSH1 0x2 PUSH1 0x4 DUP2 LT PUSH2 0xA75 JUMPI PUSH2 0xA74 PUSH2 0x166F JUMP JUMPDEST JUMPDEST PUSH1 0x20 MUL ADD DUP2 DUP2 MSTORE POP POP DUP3 PUSH1 0x20 ADD MLOAD DUP2 PUSH1 0x3 PUSH1 0x4 DUP2 LT PUSH2 0xA97 JUMPI PUSH2 0xA96 PUSH2 0x166F JUMP JUMPDEST JUMPDEST PUSH1 0x20 MUL ADD DUP2 DUP2 MSTORE POP POP PUSH1 0x0 PUSH1 0x60 DUP4 PUSH1 0xC0 DUP5 PUSH1 0x6 PUSH2 0x7D0 GAS SUB STATICCALL SWAP1 POP DUP1 PUSH1 0x0 DUP2 SUB PUSH2 0xABD JUMPI INVALID JUMPDEST POP DUP1 PUSH2 0xAC8 JUMPI PUSH1 0x0 DUP1 REVERT JUMPDEST POP POP SWAP3 SWAP2 POP POP JUMP JUMPDEST PUSH2 0xAD8 PUSH2 0x1101 JUMP JUMPDEST PUSH1 0x0 PUSH32 0x30644E72E131A029B85045B68181585D97816A916871CA8D3C208C16D87CFD47 SWAP1 POP PUSH1 0x0 DUP4 PUSH1 0x0 ADD MLOAD EQ DUP1 ISZERO PUSH2 0xB15 JUMPI POP PUSH1 0x0 DUP4 PUSH1 0x20 ADD MLOAD EQ JUMPDEST ISZERO PUSH2 0xB39 JUMPI PUSH1 0x40 MLOAD DUP1 PUSH1 0x40 ADD PUSH1 0x40 MSTORE DUP1 PUSH1 0x0 DUP2 MSTORE PUSH1 0x20 ADD PUSH1 0x0 DUP2 MSTORE POP SWAP2 POP POP PUSH2 0xB70 JUMP JUMPDEST PUSH1 0x40 MLOAD DUP1 PUSH1 0x40 ADD PUSH1 0x40 MSTORE DUP1 DUP5 PUSH1 0x0 ADD MLOAD DUP2 MSTORE PUSH1 0x20 ADD DUP3 DUP6 PUSH1 0x20 ADD MLOAD PUSH2 0xB5E SWAP2 SWAP1 PUSH2 0x17A6 JUMP JUMPDEST DUP4 PUSH2 0xB69 SWAP2 SWAP1 PUSH2 0x17D7 JUMP JUMPDEST DUP2 MSTORE POP SWAP2 POP POP JUMPDEST SWAP2 SWAP1 POP JUMP JUMPDEST PUSH1 0x0 DUP1 PUSH1 0x4 PUSH8 0xFFFFFFFFFFFFFFFF DUP2 GT ISZERO PUSH2 0xB93 JUMPI PUSH2 0xB92 PUSH2 0x1315 JUMP JUMPDEST JUMPDEST PUSH1 0x40 MLOAD SWAP1 DUP1 DUP3 MSTORE DUP1 PUSH1 0x20 MUL PUSH1 0x20 ADD DUP3 ADD PUSH1 0x40 MSTORE DUP1 ISZERO PUSH2 0xBCC JUMPI DUP2 PUSH1 0x20 ADD JUMPDEST PUSH2 0xBB9 PUSH2 0x1101 JUMP JUMPDEST DUP2 MSTORE PUSH1 0x20 ADD SWAP1 PUSH1 0x1 SWAP1 SUB SWAP1 DUP2 PUSH2 0xBB1 JUMPI SWAP1 POP JUMPDEST POP SWAP1 POP PUSH1 0x0 PUSH1 0x4 PUSH8 0xFFFFFFFFFFFFFFFF DUP2 GT ISZERO PUSH2 0xBEC JUMPI PUSH2 0xBEB PUSH2 0x1315 JUMP JUMPDEST JUMPDEST PUSH1 0x40 MLOAD SWAP1 DUP1 DUP3 MSTORE DUP1 PUSH1 0x20 MUL PUSH1 0x20 ADD DUP3 ADD PUSH1 0x40 MSTORE DUP1 ISZERO PUSH2 0xC25 JUMPI DUP2 PUSH1 0x20 ADD JUMPDEST PUSH2 0xC12 PUSH2 0x115F JUMP JUMPDEST DUP2 MSTORE PUSH1 0x20 ADD SWAP1 PUSH1 0x1 SWAP1 SUB SWAP1 DUP2 PUSH2 0xC0A JUMPI SWAP1 POP JUMPDEST POP SWAP1 POP DUP11 DUP3 PUSH1 0x0 DUP2 MLOAD DUP2 LT PUSH2 0xC3D JUMPI PUSH2 0xC3C PUSH2 0x166F JUMP JUMPDEST JUMPDEST PUSH1 0x20 MUL PUSH1 0x20 ADD ADD DUP2 SWAP1 MSTORE POP DUP9 DUP3 PUSH1 0x1 DUP2 MLOAD DUP2 LT PUSH2 0xC5D JUMPI PUSH2 0xC5C PUSH2 0x166F JUMP JUMPDEST JUMPDEST PUSH1 0x20 MUL PUSH1 0x20 ADD ADD DUP2 SWAP1 MSTORE POP DUP7 DUP3 PUSH1 0x2 DUP2 MLOAD DUP2 LT PUSH2 0xC7D JUMPI PUSH2 0xC7C PUSH2 0x166F JUMP JUMPDEST JUMPDEST PUSH1 0x20 MUL PUSH1 0x20 ADD ADD DUP2 SWAP1 MSTORE POP DUP5 DUP3 PUSH1 0x3 DUP2 MLOAD DUP2 LT PUSH2 0xC9D JUMPI PUSH2 0xC9C PUSH2 0x166F JUMP JUMPDEST JUMPDEST PUSH1 0x20 MUL PUSH1 0x20 ADD ADD DUP2 SWAP1 MSTORE POP DUP10 DUP2 PUSH1 0x0 DUP2 MLOAD DUP2 LT PUSH2 0xCBD JUMPI PUSH2 0xCBC PUSH2 0x166F JUMP JUMPDEST JUMPDEST PUSH1 0x20 MUL PUSH1 0x20 ADD ADD DUP2 SWAP1 MSTORE POP DUP8 DUP2 PUSH1 0x1 DUP2 MLOAD DUP2 LT PUSH2 0xCDD JUMPI PUSH2 0xCDC PUSH2 0x166F JUMP JUMPDEST JUMPDEST PUSH1 0x20 MUL PUSH1 0x20 ADD ADD DUP2 SWAP1 MSTORE POP DUP6 DUP2 PUSH1 0x2 DUP2 MLOAD DUP2 LT PUSH2 0xCFD JUMPI PUSH2 0xCFC PUSH2 0x166F JUMP JUMPDEST JUMPDEST PUSH1 0x20 MUL PUSH1 0x20 ADD ADD DUP2 SWAP1 MSTORE POP DUP4 DUP2 PUSH1 0x3 DUP2 MLOAD DUP2 LT PUSH2 0xD1D JUMPI PUSH2 0xD1C PUSH2 0x166F JUMP JUMPDEST JUMPDEST PUSH1 0x20 MUL PUSH1 0x20 ADD ADD DUP2 SWAP1 MSTORE POP PUSH2 0xD32 DUP3 DUP3 PUSH2 0xD42 JUMP JUMPDEST SWAP3 POP POP POP SWAP9 SWAP8 POP POP POP POP POP POP POP POP JUMP JUMPDEST PUSH1 0x0 DUP2 MLOAD DUP4 MLOAD EQ PUSH2 0xD52 JUMPI PUSH1 0x0 DUP1 REVERT JUMPDEST PUSH1 0x0 DUP4 MLOAD SWAP1 POP PUSH1 0x0 PUSH1 0x6 DUP3 PUSH2 0xD67 SWAP2 SWAP1 PUSH2 0x180B JUMP JUMPDEST SWAP1 POP PUSH1 0x0 DUP2 PUSH8 0xFFFFFFFFFFFFFFFF DUP2 GT ISZERO PUSH2 0xD85 JUMPI PUSH2 0xD84 PUSH2 0x1315 JUMP JUMPDEST JUMPDEST PUSH1 0x40 MLOAD SWAP1 DUP1 DUP3 MSTORE DUP1 PUSH1 0x20 MUL PUSH1 0x20 ADD DUP3 ADD PUSH1 0x40 MSTORE DUP1 ISZERO PUSH2 0xDB3 JUMPI DUP2 PUSH1 0x20 ADD PUSH1 0x20 DUP3 MUL DUP1 CALLDATASIZE DUP4 CALLDATACOPY DUP1 DUP3 ADD SWAP2 POP POP SWAP1 POP JUMPDEST POP SWAP1 POP PUSH1 0x0 JUMPDEST DUP4 DUP2 LT ISZERO PUSH2 0x1038 JUMPI DUP7 DUP2 DUP2 MLOAD DUP2 LT PUSH2 0xDD4 JUMPI PUSH2 0xDD3 PUSH2 0x166F JUMP JUMPDEST JUMPDEST PUSH1 0x20 MUL PUSH1 0x20 ADD ADD MLOAD PUSH1 0x0 ADD MLOAD DUP3 PUSH1 0x0 PUSH1 0x6 DUP5 PUSH2 0xDF0 SWAP2 SWAP1 PUSH2 0x180B JUMP JUMPDEST PUSH2 0xDFA SWAP2 SWAP1 PUSH2 0x1743 JUMP JUMPDEST DUP2 MLOAD DUP2 LT PUSH2 0xE0B JUMPI PUSH2 0xE0A PUSH2 0x166F JUMP JUMPDEST JUMPDEST PUSH1 0x20 MUL PUSH1 0x20 ADD ADD DUP2 DUP2 MSTORE POP POP DUP7 DUP2 DUP2 MLOAD DUP2 LT PUSH2 0xE2A JUMPI PUSH2 0xE29 PUSH2 0x166F JUMP JUMPDEST JUMPDEST PUSH1 0x20 MUL PUSH1 0x20 ADD ADD MLOAD PUSH1 0x20 ADD MLOAD DUP3 PUSH1 0x1 PUSH1 0x6 DUP5 PUSH2 0xE46 SWAP2 SWAP1 PUSH2 0x180B JUMP JUMPDEST PUSH2 0xE50 SWAP2 SWAP1 PUSH2 0x1743 JUMP JUMPDEST DUP2 MLOAD DUP2 LT PUSH2 0xE61 JUMPI PUSH2 0xE60 PUSH2 0x166F JUMP JUMPDEST JUMPDEST PUSH1 0x20 MUL PUSH1 0x20 ADD ADD DUP2 DUP2 MSTORE POP POP DUP6 DUP2 DUP2 MLOAD DUP2 LT PUSH2 0xE80 JUMPI PUSH2 0xE7F PUSH2 0x166F JUMP JUMPDEST JUMPDEST PUSH1 0x20 MUL PUSH1 0x20 ADD ADD MLOAD PUSH1 0x0 ADD MLOAD PUSH1 0x1 PUSH1 0x2 DUP2 LT PUSH2 0xE9F JUMPI PUSH2 0xE9E PUSH2 0x166F JUMP JUMPDEST JUMPDEST PUSH1 0x20 MUL ADD MLOAD DUP3 PUSH1 0x2 PUSH1 0x6 DUP5 PUSH2 0xEB4 SWAP2 SWAP1 PUSH2 0x180B JUMP JUMPDEST PUSH2 0xEBE SWAP2 SWAP1 PUSH2 0x1743 JUMP JUMPDEST DUP2 MLOAD DUP2 LT PUSH2 0xECF JUMPI PUSH2 0xECE PUSH2 0x166F JUMP JUMPDEST JUMPDEST PUSH1 0x20 MUL PUSH1 0x20 ADD ADD DUP2 DUP2 MSTORE POP POP DUP6 DUP2 DUP2 MLOAD DUP2 LT PUSH2 0xEEE JUMPI PUSH2 0xEED PUSH2 0x166F JUMP JUMPDEST JUMPDEST PUSH1 0x20 MUL PUSH1 0x20 ADD ADD MLOAD PUSH1 0x0 ADD MLOAD PUSH1 0x0 PUSH1 0x2 DUP2 LT PUSH2 0xF0D JUMPI PUSH2 0xF0C PUSH2 0x166F JUMP JUMPDEST JUMPDEST PUSH1 0x20 MUL ADD MLOAD DUP3 PUSH1 0x3 PUSH1 0x6 DUP5 PUSH2 0xF22 SWAP2 SWAP1 PUSH2 0x180B JUMP JUMPDEST PUSH2 0xF2C SWAP2 SWAP1 PUSH2 0x1743 JUMP JUMPDEST DUP2 MLOAD DUP2 LT PUSH2 0xF3D JUMPI PUSH2 0xF3C PUSH2 0x166F JUMP JUMPDEST JUMPDEST PUSH1 0x20 MUL PUSH1 0x20 ADD ADD DUP2 DUP2 MSTORE POP POP DUP6 DUP2 DUP2 MLOAD DUP2 LT PUSH2 0xF5C JUMPI PUSH2 0xF5B PUSH2 0x166F JUMP JUMPDEST JUMPDEST PUSH1 0x20 MUL PUSH1 0x20 ADD ADD MLOAD PUSH1 0x20 ADD MLOAD PUSH1 0x1 PUSH1 0x2 DUP2 LT PUSH2 0xF7B JUMPI PUSH2 0xF7A PUSH2 0x166F JUMP JUMPDEST JUMPDEST PUSH1 0x20 MUL ADD MLOAD DUP3 PUSH1 0x4 PUSH1 0x6 DUP5 PUSH2 0xF90 SWAP2 SWAP1 PUSH2 0x180B JUMP JUMPDEST PUSH2 0xF9A SWAP2 SWAP1 PUSH2 0x1743 JUMP JUMPDEST DUP2 MLOAD DUP2 LT PUSH2 0xFAB JUMPI PUSH2 0xFAA PUSH2 0x166F JUMP JUMPDEST JUMPDEST PUSH1 0x20 MUL PUSH1 0x20 ADD ADD DUP2 DUP2 MSTORE POP POP DUP6 DUP2 DUP2 MLOAD DUP2 LT PUSH2 0xFCA JUMPI PUSH2 0xFC9 PUSH2 0x166F JUMP JUMPDEST JUMPDEST PUSH1 0x20 MUL PUSH1 0x20 ADD ADD MLOAD PUSH1 0x20 ADD MLOAD PUSH1 0x0 PUSH1 0x2 DUP2 LT PUSH2 0xFE9 JUMPI PUSH2 0xFE8 PUSH2 0x166F JUMP JUMPDEST JUMPDEST PUSH1 0x20 MUL ADD MLOAD DUP3 PUSH1 0x5 PUSH1 0x6 DUP5 PUSH2 0xFFE SWAP2 SWAP1 PUSH2 0x180B JUMP JUMPDEST PUSH2 0x1008 SWAP2 SWAP1 PUSH2 0x1743 JUMP JUMPDEST DUP2 MLOAD DUP2 LT PUSH2 0x1019 JUMPI PUSH2 0x1018 PUSH2 0x166F JUMP JUMPDEST JUMPDEST PUSH1 0x20 MUL PUSH1 0x20 ADD ADD DUP2 DUP2 MSTORE POP POP DUP1 DUP1 PUSH2 0x1030 SWAP1 PUSH2 0x16CD JUMP JUMPDEST SWAP2 POP POP PUSH2 0xDB9 JUMP JUMPDEST POP PUSH2 0x1041 PUSH2 0x1185 JUMP JUMPDEST PUSH1 0x0 PUSH1 0x20 DUP3 PUSH1 0x20 DUP7 MUL PUSH1 0x20 DUP7 ADD PUSH1 0x8 PUSH2 0x7D0 GAS SUB STATICCALL SWAP1 POP DUP1 PUSH1 0x0 DUP2 SUB PUSH2 0x1063 JUMPI INVALID JUMPDEST POP DUP1 PUSH2 0x106E JUMPI PUSH1 0x0 DUP1 REVERT JUMPDEST PUSH1 0x0 DUP3 PUSH1 0x0 PUSH1 0x1 DUP2 LT PUSH2 0x1084 JUMPI PUSH2 0x1083 PUSH2 0x166F JUMP JUMPDEST JUMPDEST PUSH1 0x20 MUL ADD MLOAD EQ ISZERO SWAP6 POP POP POP POP POP POP SWAP3 SWAP2 POP POP JUMP JUMPDEST PUSH1 0x40 MLOAD DUP1 PUSH1 0xA0 ADD PUSH1 0x40 MSTORE DUP1 PUSH1 0x5 SWAP1 PUSH1 0x20 DUP3 MUL DUP1 CALLDATASIZE DUP4 CALLDATACOPY DUP1 DUP3 ADD SWAP2 POP POP SWAP1 POP POP SWAP1 JUMP JUMPDEST PUSH1 0x40 MLOAD DUP1 PUSH1 0xA0 ADD PUSH1 0x40 MSTORE DUP1 PUSH2 0x10CD PUSH2 0x1101 JUMP JUMPDEST DUP2 MSTORE PUSH1 0x20 ADD PUSH2 0x10DA PUSH2 0x115F JUMP JUMPDEST DUP2 MSTORE PUSH1 0x20 ADD PUSH2 0x10E7 PUSH2 0x115F JUMP JUMPDEST DUP2 MSTORE PUSH1 0x20 ADD PUSH2 0x10F4 PUSH2 0x115F JUMP JUMPDEST DUP2 MSTORE PUSH1 0x20 ADD PUSH1 0x60 DUP2 MSTORE POP SWAP1 JUMP JUMPDEST PUSH1 0x40 MLOAD DUP1 PUSH1 0x40 ADD PUSH1 0x40 MSTORE DUP1 PUSH1 0x0 DUP2 MSTORE PUSH1 0x20 ADD PUSH1 0x0 DUP2 MSTORE POP SWAP1 JUMP JUMPDEST PUSH1 0x40 MLOAD DUP1 PUSH1 0x60 ADD PUSH1 0x40 MSTORE DUP1 PUSH1 0x3 SWAP1 PUSH1 0x20 DUP3 MUL DUP1 CALLDATASIZE DUP4 CALLDATACOPY DUP1 DUP3 ADD SWAP2 POP POP SWAP1 POP POP SWAP1 JUMP JUMPDEST PUSH1 0x40 MLOAD DUP1 PUSH1 0x80 ADD PUSH1 0x40 MSTORE DUP1 PUSH1 0x4 SWAP1 PUSH1 0x20 DUP3 MUL DUP1 CALLDATASIZE DUP4 CALLDATACOPY DUP1 DUP3 ADD SWAP2 POP POP SWAP1 POP POP SWAP1 JUMP JUMPDEST PUSH1 0x40 MLOAD DUP1 PUSH1 0x40 ADD PUSH1 0x40 MSTORE DUP1 PUSH2 0x1172 PUSH2 0x11A7 JUMP JUMPDEST DUP2 MSTORE PUSH1 0x20 ADD PUSH2 0x117F PUSH2 0x11A7 JUMP JUMPDEST DUP2 MSTORE POP SWAP1 JUMP JUMPDEST PUSH1 0x40 MLOAD DUP1 PUSH1 0x20 ADD PUSH1 0x40 MSTORE DUP1 PUSH1 0x1 SWAP1 PUSH1 0x20 DUP3 MUL DUP1 CALLDATASIZE DUP4 CALLDATACOPY DUP1 DUP3 ADD SWAP2 POP POP SWAP1 POP POP SWAP1 JUMP JUMPDEST PUSH1 0x40 MLOAD DUP1 PUSH1 0x40 ADD PUSH1 0x40 MSTORE DUP1 PUSH1 0x2 SWAP1 PUSH1 0x20 DUP3 MUL DUP1 CALLDATASIZE DUP4 CALLDATACOPY DUP1 DUP3 ADD SWAP2 POP POP SWAP1 POP POP SWAP1 JUMP JUMPDEST PUSH1 0x0 PUSH1 0x40 MLOAD SWAP1 POP SWAP1 JUMP JUMPDEST PUSH1 0x0 DUP1 REVERT JUMPDEST PUSH1 0x0 DUP1 REVERT JUMPDEST PUSH1 0x0 DUP1 REVERT JUMPDEST PUSH1 0x0 PUSH2 0x100 DUP3 DUP5 SUB SLT ISZERO PUSH2 0x11F9 JUMPI PUSH2 0x11F8 PUSH2 0x11DD JUMP JUMPDEST JUMPDEST DUP2 SWAP1 POP SWAP3 SWAP2 POP POP JUMP JUMPDEST PUSH1 0x0 DUP1 REVERT JUMPDEST PUSH1 0x0 DUP1 REVERT JUMPDEST PUSH1 0x0 DUP1 REVERT JUMPDEST PUSH1 0x0 DUP1 DUP4 PUSH1 0x1F DUP5 ADD SLT PUSH2 0x1227 JUMPI PUSH2 0x1226 PUSH2 0x1202 JUMP JUMPDEST JUMPDEST DUP3 CALLDATALOAD SWAP1 POP PUSH8 0xFFFFFFFFFFFFFFFF DUP2 GT ISZERO PUSH2 0x1244 JUMPI PUSH2 0x1243 PUSH2 0x1207 JUMP JUMPDEST JUMPDEST PUSH1 0x20 DUP4 ADD SWAP2 POP DUP4 PUSH1 0x20 DUP3 MUL DUP4 ADD GT ISZERO PUSH2 0x1260 JUMPI PUSH2 0x125F PUSH2 0x120C JUMP JUMPDEST JUMPDEST SWAP3 POP SWAP3 SWAP1 POP JUMP JUMPDEST PUSH1 0x0 DUP1 PUSH1 0x0 PUSH2 0x120 DUP5 DUP7 SUB SLT ISZERO PUSH2 0x1281 JUMPI PUSH2 0x1280 PUSH2 0x11D3 JUMP JUMPDEST JUMPDEST PUSH1 0x0 PUSH2 0x128F DUP7 DUP3 DUP8 ADD PUSH2 0x11E2 JUMP JUMPDEST SWAP4 POP POP PUSH2 0x100 DUP5 ADD CALLDATALOAD PUSH8 0xFFFFFFFFFFFFFFFF DUP2 GT ISZERO PUSH2 0x12B1 JUMPI PUSH2 0x12B0 PUSH2 0x11D8 JUMP JUMPDEST JUMPDEST PUSH2 0x12BD DUP7 DUP3 DUP8 ADD PUSH2 0x1211 JUMP JUMPDEST SWAP3 POP SWAP3 POP POP SWAP3 POP SWAP3 POP SWAP3 JUMP JUMPDEST PUSH1 0x0 DUP2 ISZERO ISZERO SWAP1 POP SWAP2 SWAP1 POP JUMP JUMPDEST PUSH2 0x12DE DUP2 PUSH2 0x12C9 JUMP JUMPDEST DUP3 MSTORE POP POP JUMP JUMPDEST PUSH1 0x0 PUSH1 0x20 DUP3 ADD SWAP1 POP PUSH2 0x12F9 PUSH1 0x0 DUP4 ADD DUP5 PUSH2 0x12D5 JUMP JUMPDEST SWAP3 SWAP2 POP POP JUMP JUMPDEST PUSH1 0x0 DUP1 REVERT JUMPDEST PUSH1 0x0 PUSH1 0x1F NOT PUSH1 0x1F DUP4 ADD AND SWAP1 POP SWAP2 SWAP1 POP JUMP JUMPDEST PUSH32 0x4E487B7100000000000000000000000000000000000000000000000000000000 PUSH1 0x0 MSTORE PUSH1 0x41 PUSH1 0x4 MSTORE PUSH1 0x24 PUSH1 0x0 REVERT JUMPDEST PUSH2 0x134D DUP3 PUSH2 0x1304 JUMP JUMPDEST DUP2 ADD DUP2 DUP2 LT PUSH8 0xFFFFFFFFFFFFFFFF DUP3 GT OR ISZERO PUSH2 0x136C JUMPI PUSH2 0x136B PUSH2 0x1315 JUMP JUMPDEST JUMPDEST DUP1 PUSH1 0x40 MSTORE POP POP POP JUMP JUMPDEST PUSH1 0x0 PUSH2 0x137F PUSH2 0x11C9 JUMP JUMPDEST SWAP1 POP PUSH2 0x138B DUP3 DUP3 PUSH2 0x1344 JUMP JUMPDEST SWAP2 SWAP1 POP JUMP JUMPDEST PUSH1 0x0 DUP2 SWAP1 POP SWAP2 SWAP1 POP JUMP JUMPDEST PUSH2 0x13A3 DUP2 PUSH2 0x1390 JUMP JUMPDEST DUP2 EQ PUSH2 0x13AE JUMPI PUSH1 0x0 DUP1 REVERT JUMPDEST POP JUMP JUMPDEST PUSH1 0x0 DUP2 CALLDATALOAD SWAP1 POP PUSH2 0x13C0 DUP2 PUSH2 0x139A JUMP JUMPDEST SWAP3 SWAP2 POP POP JUMP JUMPDEST PUSH1 0x0 PUSH1 0x40 DUP3 DUP5 SUB SLT ISZERO PUSH2 0x13DC JUMPI PUSH2 0x13DB PUSH2 0x12FF JUMP JUMPDEST JUMPDEST PUSH2 0x13E6 PUSH1 0x40 PUSH2 0x1375 JUMP JUMPDEST SWAP1 POP PUSH1 0x0 PUSH2 0x13F6 DUP5 DUP3 DUP6 ADD PUSH2 0x13B1 JUMP JUMPDEST PUSH1 0x0 DUP4 ADD MSTORE POP PUSH1 0x20 PUSH2 0x140A DUP5 DUP3 DUP6 ADD PUSH2 0x13B1 JUMP JUMPDEST PUSH1 0x20 DUP4 ADD MSTORE POP SWAP3 SWAP2 POP POP JUMP JUMPDEST PUSH1 0x0 PUSH8 0xFFFFFFFFFFFFFFFF DUP3 GT ISZERO PUSH2 0x1431 JUMPI PUSH2 0x1430 PUSH2 0x1315 JUMP JUMPDEST JUMPDEST PUSH1 0x20 DUP3 MUL SWAP1 POP SWAP2 SWAP1 POP JUMP JUMPDEST PUSH1 0x0 PUSH2 0x144F PUSH2 0x144A DUP5 PUSH2 0x1416 JUMP JUMPDEST PUSH2 0x1375 JUMP JUMPDEST SWAP1 POP DUP1 PUSH1 0x20 DUP5 MUL DUP4 ADD DUP6 DUP2 GT ISZERO PUSH2 0x1469 JUMPI PUSH2 0x1468 PUSH2 0x120C JUMP JUMPDEST JUMPDEST DUP4 JUMPDEST DUP2 DUP2 LT ISZERO PUSH2 0x1492 JUMPI DUP1 PUSH2 0x147E DUP9 DUP3 PUSH2 0x13B1 JUMP JUMPDEST DUP5 MSTORE PUSH1 0x20 DUP5 ADD SWAP4 POP POP PUSH1 0x20 DUP2 ADD SWAP1 POP PUSH2 0x146B JUMP JUMPDEST POP POP POP SWAP4 SWAP3 POP POP POP JUMP JUMPDEST PUSH1 0x0 DUP3 PUSH1 0x1F DUP4 ADD SLT PUSH2 0x14B1 JUMPI PUSH2 0x14B0 PUSH2 0x1202 JUMP JUMPDEST JUMPDEST PUSH1 0x2 PUSH2 0x14BE DUP5 DUP3 DUP6 PUSH2 0x143C JUMP JUMPDEST SWAP2 POP POP SWAP3 SWAP2 POP POP JUMP JUMPDEST PUSH1 0x0 PUSH1 0x80 DUP3 DUP5 SUB SLT ISZERO PUSH2 0x14DD JUMPI PUSH2 0x14DC PUSH2 0x12FF JUMP JUMPDEST JUMPDEST PUSH2 0x14E7 PUSH1 0x40 PUSH2 0x1375 JUMP JUMPDEST SWAP1 POP PUSH1 0x0 PUSH2 0x14F7 DUP5 DUP3 DUP6 ADD PUSH2 0x149C JUMP JUMPDEST PUSH1 0x0 DUP4 ADD MSTORE POP PUSH1 0x40 PUSH2 0x150B DUP5 DUP3 DUP6 ADD PUSH2 0x149C JUMP JUMPDEST PUSH1 0x20 DUP4 ADD MSTORE POP SWAP3 SWAP2 POP POP JUMP JUMPDEST PUSH1 0x0 PUSH2 0x100 DUP3 DUP5 SUB SLT ISZERO PUSH2 0x152E JUMPI PUSH2 0x152D PUSH2 0x12FF JUMP JUMPDEST JUMPDEST PUSH2 0x1538 PUSH1 0x60 PUSH2 0x1375 JUMP JUMPDEST SWAP1 POP PUSH1 0x0 PUSH2 0x1548 DUP5 DUP3 DUP6 ADD PUSH2 0x13C6 JUMP JUMPDEST PUSH1 0x0 DUP4 ADD MSTORE POP PUSH1 0x40 PUSH2 0x155C DUP5 DUP3 DUP6 ADD PUSH2 0x14C7 JUMP JUMPDEST PUSH1 0x20 DUP4 ADD MSTORE POP PUSH1 0xC0 PUSH2 0x1570 DUP5 DUP3 DUP6 ADD PUSH2 0x13C6 JUMP JUMPDEST PUSH1 0x40 DUP4 ADD MSTORE POP SWAP3 SWAP2 POP POP JUMP JUMPDEST PUSH1 0x0 PUSH8 0xFFFFFFFFFFFFFFFF DUP3 GT ISZERO PUSH2 0x1597 JUMPI PUSH2 0x1596 PUSH2 0x1315 JUMP JUMPDEST JUMPDEST PUSH1 0x20 DUP3 MUL SWAP1 POP SWAP2 SWAP1 POP JUMP JUMPDEST PUSH1 0x0 PUSH2 0x15B5 PUSH2 0x15B0 DUP5 PUSH2 0x157C JUMP JUMPDEST PUSH2 0x1375 JUMP JUMPDEST SWAP1 POP DUP1 PUSH1 0x20 DUP5 MUL DUP4 ADD DUP6 DUP2 GT ISZERO PUSH2 0x15CF JUMPI PUSH2 0x15CE PUSH2 0x120C JUMP JUMPDEST JUMPDEST DUP4 JUMPDEST DUP2 DUP2 LT ISZERO PUSH2 0x15F8 JUMPI DUP1 PUSH2 0x15E4 DUP9 DUP3 PUSH2 0x13B1 JUMP JUMPDEST DUP5 MSTORE PUSH1 0x20 DUP5 ADD SWAP4 POP POP PUSH1 0x20 DUP2 ADD SWAP1 POP PUSH2 0x15D1 JUMP JUMPDEST POP POP POP SWAP4 SWAP3 POP POP POP JUMP JUMPDEST PUSH1 0x0 DUP3 PUSH1 0x1F DUP4 ADD SLT PUSH2 0x1617 JUMPI PUSH2 0x1616 PUSH2 0x1202 JUMP JUMPDEST JUMPDEST PUSH1 0x5 PUSH2 0x1624 DUP5 DUP3 DUP6 PUSH2 0x15A2 JUMP JUMPDEST SWAP2 POP POP SWAP3 SWAP2 POP POP JUMP JUMPDEST PUSH1 0x0 DUP1 PUSH2 0x1A0 DUP4 DUP6 SUB SLT ISZERO PUSH2 0x1645 JUMPI PUSH2 0x1644 PUSH2 0x11D3 JUMP JUMPDEST JUMPDEST PUSH1 0x0 PUSH2 0x1653 DUP6 DUP3 DUP7 ADD PUSH2 0x1517 JUMP JUMPDEST SWAP3 POP POP PUSH2 0x100 PUSH2 0x1665 DUP6 DUP3 DUP7 ADD PUSH2 0x1602 JUMP JUMPDEST SWAP2 POP POP SWAP3 POP SWAP3 SWAP1 POP JUMP JUMPDEST PUSH32 0x4E487B7100000000000000000000000000000000000000000000000000000000 PUSH1 0x0 MSTORE PUSH1 0x32 PUSH1 0x4 MSTORE PUSH1 0x24 PUSH1 0x0 REVERT JUMPDEST PUSH32 0x4E487B7100000000000000000000000000000000000000000000000000000000 PUSH1 0x0 MSTORE PUSH1 0x11 PUSH1 0x4 MSTORE PUSH1 0x24 PUSH1 0x0 REVERT JUMPDEST PUSH1 0x0 PUSH2 0x16D8 DUP3 PUSH2 0x1390 JUMP JUMPDEST SWAP2 POP PUSH32 0xFFFFFFFFFFFFFFFFFFFFFFFFFFFFFFFFFFFFFFFFFFFFFFFFFFFFFFFFFFFFFFFF DUP3 SUB PUSH2 0x170A JUMPI PUSH2 0x1709 PUSH2 0x169E JUMP JUMPDEST JUMPDEST PUSH1 0x1 DUP3 ADD SWAP1 POP SWAP2 SWAP1 POP JUMP JUMPDEST PUSH1 0x0 PUSH2 0x100 DUP3 DUP5 SUB SLT ISZERO PUSH2 0x172C JUMPI PUSH2 0x172B PUSH2 0x11D3 JUMP JUMPDEST JUMPDEST PUSH1 0x0 PUSH2 0x173A DUP5 DUP3 DUP6 ADD PUSH2 0x1517 JUMP JUMPDEST SWAP2 POP POP SWAP3 SWAP2 POP POP JUMP JUMPDEST PUSH1 0x0 PUSH2 0x174E DUP3 PUSH2 0x1390 JUMP JUMPDEST SWAP2 POP PUSH2 0x1759 DUP4 PUSH2 0x1390 JUMP JUMPDEST SWAP3 POP DUP3 DUP3 ADD SWAP1 POP DUP1 DUP3 GT ISZERO PUSH2 0x1771 JUMPI PUSH2 0x1770 PUSH2 0x169E JUMP JUMPDEST JUMPDEST SWAP3 SWAP2 POP POP JUMP JUMPDEST PUSH32 0x4E487B7100000000000000000000000000000000000000000000000000000000 PUSH1 0x0 MSTORE PUSH1 0x12 PUSH1 0x4 MSTORE PUSH1 0x24 PUSH1 0x0 REVERT JUMPDEST PUSH1 0x0 PUSH2 0x17B1 DUP3 PUSH2 0x1390 JUMP JUMPDEST SWAP2 POP PUSH2 0x17BC DUP4 PUSH2 0x1390 JUMP JUMPDEST SWAP3 POP DUP3 PUSH2 0x17CC JUMPI PUSH2 0x17CB PUSH2 0x1777 JUMP JUMPDEST JUMPDEST DUP3 DUP3 MOD SWAP1 POP SWAP3 SWAP2 POP POP JUMP JUMPDEST PUSH1 0x0 PUSH2 0x17E2 DUP3 PUSH2 0x1390 JUMP JUMPDEST SWAP2 POP PUSH2 0x17ED DUP4 PUSH2 0x1390 JUMP JUMPDEST SWAP3 POP DUP3 DUP3 SUB SWAP1 POP DUP2 DUP2 GT ISZERO PUSH2 0x1805 JUMPI PUSH2 0x1804 PUSH2 0x169E JUMP JUMPDEST JUMPDEST SWAP3 SWAP2 POP POP JUMP JUMPDEST PUSH1 0x0 PUSH2 0x1816 DUP3 PUSH2 0x1390 JUMP JUMPDEST SWAP2 POP PUSH2 0x1821 DUP4 PUSH2 0x1390 JUMP JUMPDEST SWAP3 POP DUP3 DUP3 MUL PUSH2 0x182F DUP2 PUSH2 0x1390 JUMP JUMPDEST SWAP2 POP DUP3 DUP3 DIV DUP5 EQ DUP4 ISZERO OR PUSH2 0x1846 JUMPI PUSH2 0x1845 PUSH2 0x169E JUMP JUMPDEST JUMPDEST POP SWAP3 SWAP2 POP POP JUMP INVALID LOG2 PUSH5 0x6970667358 0x22 SLT KECCAK256 0xB5 MSIZE MOD 0x27 POP PUSH24 0x8EC788C11D92677781CAFFA077CD2581BA7DE2BE80ADC4F5 SLOAD 0xD PUSH5 0x736F6C6343 STOP ADDMOD GT STOP CALLER "},"methodIdentifiers":{"verifyEncoded(((uint256,uint256),(uint256[2],uint256[2]),(uint256,uint256)),uint256[])":"ba21f38e","verifyTx(((uint256,uint256),(uint256[2],uint256[2]),(uint256,uint256)),uint256[5])":"bcb99886"}}}}}