{"contracts/AddLeafBig.sol":{"AddLeafBig":{"abi":[{"inputs":[{"components":[{"components":[{"internalType":"uint256","name":"X","type":"uint256"},{"internalType":"uint256","name":"Y","type":"uint256"}],"internalType":"struct Pairing.G1Point","name":"a","type":"tuple"},{"components":[{"internalType":"uint256[2]","name":"X","type":"uint256[2]"},{"internalType":"uint256[2]","name":"Y","type":"uint256[2]"}],"internalType":"struct Pairing.G2Point","name":"b","type":"tuple"},{"components":[{"internalType":"uint256","name":"X","type":"uint256"},{"internalType":"uint256","name":"Y","type":"uint256"}],"internalType":"struct Pairing.G1Point","name":"c","type":"tuple"}],"internalType":"struct Proof","name":"proof","type":"tuple"},{"internalType":"uint256[21]","name":"input","type":"uint256[21]"}],"name":"verifyTx","outputs":[{"internalType":"bool","name":"r","type":"bool"}],"stateMutability":"view","type":"function"}],"evm":{"bytecode":{"linkReferences":{},"object":"608060405234801561001057600080fd5b50611e0c806100206000396000f3fe608060405234801561001057600080fd5b506004361061002b5760003560e01c8063c7f0213014610030575b600080fd5b61004a60048036038101906100459190611bae565b610060565b6040516100579190611c0b565b60405180910390f35b600080601567ffffffffffffffff81111561007e5761007d61188c565b5b6040519080825280602002602001820160405280156100ac5781602001602082028036833780820191505090505b50905060005b6015811015610105578381601581106100ce576100cd611c26565b5b60200201518282815181106100e6576100e5611c26565b5b60200260200101818152505080806100fd90611c84565b9150506100b2565b506000610112828661012d565b03610121576001915050610127565b60009150505b92915050565b6000807f30644e72e131a029b85045b68181585d2833e84879b9709143e1f593f00000019050600061015d6102c4565b9050806080015151600186516101739190611ccc565b1461017d57600080fd5b60006040518060400160405280600081526020016000815250905060005b865181101561023657838782815181106101b8576101b7611c26565b5b6020026020010151106101ca57600080fd5b6102218261021c85608001516001856101e39190611ccc565b815181106101f4576101f3611c26565b5b60200260200101518a858151811061020f5761020e611c26565b5b6020026020010151611026565b6110c8565b9150808061022e90611c84565b91505061019b565b5061026081836080015160008151811061025357610252611c26565b5b60200260200101516110c8565b90506102a68560000151866020015161027884611190565b856040015161028a8a60400151611190565b876060015161029c8960000151611190565b8960200151611235565b6102b657600193505050506102be565b600093505050505b92915050565b6102cc611758565b60405180604001604052807f07cfa603bd6141fe26cc32c60a2526305ee1316902806ddffd1bc3f80e4c841a81526020017f2116003ed77cfa8a89c157542dce881990096102a1a31d024edcfaa0af4f26fe8152508160000181905250604051806040016040528060405180604001604052807f26159c93eab75a858d7a030e916a27681953a4a808610834dec2ac213d738cad81526020017f2bfe6f19134a077dd8b8fa1d5891062c7b743d6fdef6ff6985e722f81e1265ad815250815260200160405180604001604052807f1d3fe0902afcc25421e56fa344869d55c41e39896dc412d90494b239d7f3e98e81526020017f2ee0d188f280f0122b52c4d4ad794106272f431bb6bb0796d295be5623dc2cd48152508152508160200181905250604051806040016040528060405180604001604052807f06d7355bbfee5ef500d0fe544198c338d187bc61c3791977d09ff9bcde44841181526020017f1afcab3ac7c221b3c0ff2fafc116bfe24e22adf48ccc379314e5df3cdce9a50e815250815260200160405180604001604052807f26895fff2ed8ef83f6945a0ce48b71bc2032124bcb37d03c43af3a706ae8625c81526020017f25039e1b9679c2e63f89e4e687d5d4f1e7d9ba902ce9e50c18a99adf9ee73fbe8152508152508160400181905250604051806040016040528060405180604001604052807f201656780adc9e835eaab6c18c430ef48862ea7d05d712a132b83b92d594580381526020017f08ec55c1d58aff764e98fa21c435f5762d8058bc2894a2c6c89db2f08682345c815250815260200160405180604001604052807f1e8c6c8826fc51940cdc3f88d278905509437214e91365c6ab574e07ec703c3181526020017f2b7a9abdc49abdd7b6076aac7b2b9fd9e9c7cbc1670f96ab4a45ee760f3904c38152508152508160600181905250601667ffffffffffffffff8111156105935761059261188c565b5b6040519080825280602002602001820160405280156105cc57816020015b6105b961179f565b8152602001906001900390816105b15790505b50816080018190525060405180604001604052807f06e2490f32a3e39c93c52702e2369a76cc94e6f2e2831254fa71d069e2ad999781526020017f01a4b181a5bffdbdd7c1e31a70bd78745f7839a6c456826728cb294ab0629c6a815250816080015160008151811061064257610641611c26565b5b602002602001018190525060405180604001604052807f19af63df3bec2ef22258f678ad9b676ac0750b987ecf158d5e734d3e722f31cf81526020017f16de00b1b72deb248a7f4fd2cd3e4db10a1a31a21f33898a081230e0140e488481525081608001516001815181106106ba576106b9611c26565b5b602002602001018190525060405180604001604052807f2490576dd6de052dd249a80677d20292599267a86f0b7d17c41d3961f27b7de881526020017f23c754537b62f70fa01c798d20e7e1a868e5111f69c40b1d053274d80f4d559e815250816080015160028151811061073257610731611c26565b5b602002602001018190525060405180604001604052807f0e456e6dfb6de26a0272b8df96ff432674ef307f76f18053df4621c17c2c2c5b81526020017f0d605ccf1b2688ae19a625106affb35f8270ecce75cc928b958d7dcfadbe411f81525081608001516003815181106107aa576107a9611c26565b5b602002602001018190525060405180604001604052807f1af8e3a32098f2d30a7eb645ce9ac05080f63150fd8069e04850db539114875681526020017f1ae985de9d21677f84554cf272b3a6ccd5f1eeced6bd54e611ea740b0fa560dd815250816080015160048151811061082257610821611c26565b5b602002602001018190525060405180604001604052807f1b48b7235dcc82d86cf4d9fb0cc14bca6c7c075c1cf7bfd9e4a8505a5e6530be81526020017f15d6de12a1e87ed388a2c9e8d57a205fb60ce032daee474eec60b25f30aaf663815250816080015160058151811061089a57610899611c26565b5b602002602001018190525060405180604001604052807f19a7f7c12d0bdaf5649d659b5b536e751d751e810d9798897910c71f51bd0fa581526020017e3bb5685be5999afddc19371ff886f85bf2afe08f5f801617326ea802c713b3815250816080015160068151811061091157610910611c26565b5b602002602001018190525060405180604001604052807f1ff64c90e504b5b496debd9b8e44d50cc67f9d7801a263fde20e384171c5341781526020017f02e1284887c7f4bad745ba0a7d07dc2aa1a62345f45eaac4bab97b2b7cdbc23f815250816080015160078151811061098957610988611c26565b5b602002602001018190525060405180604001604052807f05d5e5683fb1a791cd493aef14a773bce81183221230bd860c73ea386054f50e81526020017f0519033bff21c2935a13c30fdaf1684d8a70897ca401d78767924d5274f551348152508160800151600881518110610a0157610a00611c26565b5b602002602001018190525060405180604001604052807f017377d6c227abc662c03686803d401759ca7fd4d123f4440787f0354ccbf25781526020017f0f01ba877346284102db4f6d30c3f65a5c57b17985c48a7b3cd77edf2e547c768152508160800151600981518110610a7957610a78611c26565b5b602002602001018190525060405180604001604052807f20e4a5b7d89eb23a0a88289fc02fe0eb5166afa5517ae26a424986f3bb62672481526020017f2f95b13d66dd4125adac74a154e6748e365e99a0266a4ade5ed7ed2167f767078152508160800151600a81518110610af157610af0611c26565b5b602002602001018190525060405180604001604052807f1107458663d52c578825daf478c132ed5a63b0023916bbcda29ff095c2196b6c81526020017f2a426ceae4dded03d24ec2b635bca506b0355bb918ba7798131ea012b7bc9aac8152508160800151600b81518110610b6957610b68611c26565b5b602002602001018190525060405180604001604052807f091b5524725376fef4718873424df555107059546daf81a576d5feff5415a6c681526020017f111e1196bf9bab1250ad53c630ea604103b04b5142acc0365971e2d2561442598152508160800151600c81518110610be157610be0611c26565b5b602002602001018190525060405180604001604052807f27e34b06d0254c4c7cc6004d292865621d240e08746743b110a9f4d1c6a6d8cc81526020017f1ba0f87a1c9ee9865692763b1238553218a0bb62461a12447fa2ba46c68ef0208152508160800151600d81518110610c5957610c58611c26565b5b602002602001018190525060405180604001604052807f241107df0658adf300fabb0a6da899f7b19f009ccb4ef1790f8eeac1cc4a7f1d81526020017f11cdd9ab5ea878ca124ada0ceb334557cd71c1802903fe3d50758db24ac43a128152508160800151600e81518110610cd157610cd0611c26565b5b602002602001018190525060405180604001604052807f0ae6669f0385caedf48604f384c376253d1afd9491d27d2ec4c531790a2ec5aa81526020017f0c9334d63f46b8461d2cadc035a6a001b95da0e4376b48805f9f870c70ec38618152508160800151600f81518110610d4957610d48611c26565b5b602002602001018190525060405180604001604052807f1199ca6ec34326b1c4dd0daf2d024c7852e033f041494490330f7a793e28641d81526020017f0bef8a45894fdbcbe73e391e14a91b4a828accd0ab5b2a1b85cbb51b3ee5b7708152508160800151601081518110610dc157610dc0611c26565b5b602002602001018190525060405180604001604052807f1271023c00b2904f9715173933099a34f9a3c7bd6f1fd30b88572e29d75d689381526020017f1c3eb7c8c5b6eca1c400a37a7988600f04f9440e3971d1e824cb2363de552b698152508160800151601181518110610e3957610e38611c26565b5b602002602001018190525060405180604001604052807f035ce2a5ad1d062e5291f9e183e6cf4752313661fdd3f341ae42a2707539eebd81526020017f2fe1c7035e957d607eee11425bc50d61bd915ff69448ae647964ee246b4b98da8152508160800151601281518110610eb157610eb0611c26565b5b602002602001018190525060405180604001604052807f27f7c7e5c55d017d1c4a0f22cf300a04dda1f548d33d33d48fa93ac531d9ec4a81526020017f22b870cecbd749f145a9e857c99761cb7d048553c7a528038b61982474130a188152508160800151601381518110610f2957610f28611c26565b5b602002602001018190525060405180604001604052807e1bd3705ebc5044c703a7b3bb8d0bde74064f699fc67822812093cfd7849fd681526020017f05e2fbf4427af633c8d7f4e4311b52377c0e210381e02a18a9b29377d583885d8152508160800151601481518110610fa057610f9f611c26565b5b602002602001018190525060405180604001604052807f14d53b0a977b8a903b7b1c023085328b0b23cff3b29e5ee5802e4a24f9e6412881526020017f2fb3d871462d433e0c7d06ac24e3f700078d55b02ec98e3f0cade960a5f0c787815250816080015160158151811061101857611017611c26565b5b602002602001018190525090565b61102e61179f565b6110366117b9565b83600001518160006003811061104f5761104e611c26565b5b60200201818152505083602001518160016003811061107157611070611c26565b5b602002018181525050828160026003811061108f5761108e611c26565b5b602002018181525050600060608360808460076107d05a03fa905080600081036110b557fe5b50806110c057600080fd5b505092915050565b6110d061179f565b6110d86117db565b8360000151816000600481106110f1576110f0611c26565b5b60200201818152505083602001518160016004811061111357611112611c26565b5b60200201818152505082600001518160026004811061113557611134611c26565b5b60200201818152505082602001518160036004811061115757611156611c26565b5b602002018181525050600060608360c08460066107d05a03fa9050806000810361117d57fe5b508061118857600080fd5b505092915050565b61119861179f565b60007f30644e72e131a029b85045b68181585d97816a916871ca8d3c208c16d87cfd479050600083600001511480156111d5575060008360200151145b156111f9576040518060400160405280600081526020016000815250915050611230565b60405180604001604052808460000151815260200182856020015161121e9190611d2f565b836112299190611d60565b8152509150505b919050565b600080600467ffffffffffffffff8111156112535761125261188c565b5b60405190808252806020026020018201604052801561128c57816020015b61127961179f565b8152602001906001900390816112715790505b5090506000600467ffffffffffffffff8111156112ac576112ab61188c565b5b6040519080825280602002602001820160405280156112e557816020015b6112d26117fd565b8152602001906001900390816112ca5790505b5090508a826000815181106112fd576112fc611c26565b5b6020026020010181905250888260018151811061131d5761131c611c26565b5b6020026020010181905250868260028151811061133d5761133c611c26565b5b6020026020010181905250848260038151811061135d5761135c611c26565b5b6020026020010181905250898160008151811061137d5761137c611c26565b5b6020026020010181905250878160018151811061139d5761139c611c26565b5b602002602001018190525085816002815181106113bd576113bc611c26565b5b602002602001018190525083816003815181106113dd576113dc611c26565b5b60200260200101819052506113f28282611402565b9250505098975050505050505050565b6000815183511461141257600080fd5b60008351905060006006826114279190611d94565b905060008167ffffffffffffffff8111156114455761144461188c565b5b6040519080825280602002602001820160405280156114735781602001602082028036833780820191505090505b50905060005b838110156116f85786818151811061149457611493611c26565b5b6020026020010151600001518260006006846114b09190611d94565b6114ba9190611ccc565b815181106114cb576114ca611c26565b5b6020026020010181815250508681815181106114ea576114e9611c26565b5b6020026020010151602001518260016006846115069190611d94565b6115109190611ccc565b8151811061152157611520611c26565b5b6020026020010181815250508581815181106115405761153f611c26565b5b60200260200101516000015160016002811061155f5761155e611c26565b5b60200201518260026006846115749190611d94565b61157e9190611ccc565b8151811061158f5761158e611c26565b5b6020026020010181815250508581815181106115ae576115ad611c26565b5b6020026020010151600001516000600281106115cd576115cc611c26565b5b60200201518260036006846115e29190611d94565b6115ec9190611ccc565b815181106115fd576115fc611c26565b5b60200260200101818152505085818151811061161c5761161b611c26565b5b60200260200101516020015160016002811061163b5761163a611c26565b5b60200201518260046006846116509190611d94565b61165a9190611ccc565b8151811061166b5761166a611c26565b5b60200260200101818152505085818151811061168a57611689611c26565b5b6020026020010151602001516000600281106116a9576116a8611c26565b5b60200201518260056006846116be9190611d94565b6116c89190611ccc565b815181106116d9576116d8611c26565b5b60200260200101818152505080806116f090611c84565b915050611479565b50611701611823565b6000602082602086026020860160086107d05a03fa9050806000810361172357fe5b508061172e57600080fd5b60008260006001811061174457611743611c26565b5b602002015114159550505050505092915050565b6040518060a0016040528061176b61179f565b81526020016117786117fd565b81526020016117856117fd565b81526020016117926117fd565b8152602001606081525090565b604051806040016040528060008152602001600081525090565b6040518060600160405280600390602082028036833780820191505090505090565b6040518060800160405280600490602082028036833780820191505090505090565b6040518060400160405280611810611845565b815260200161181d611845565b81525090565b6040518060200160405280600190602082028036833780820191505090505090565b6040518060400160405280600290602082028036833780820191505090505090565b6000604051905090565b600080fd5b600080fd5b6000601f19601f8301169050919050565b7f4e487b7100000000000000000000000000000000000000000000000000000000600052604160045260246000fd5b6118c48261187b565b810181811067ffffffffffffffff821117156118e3576118e261188c565b5b80604052505050565b60006118f6611867565b905061190282826118bb565b919050565b6000819050919050565b61191a81611907565b811461192557600080fd5b50565b60008135905061193781611911565b92915050565b60006040828403121561195357611952611876565b5b61195d60406118ec565b9050600061196d84828501611928565b600083015250602061198184828501611928565b60208301525092915050565b600080fd5b600067ffffffffffffffff8211156119ad576119ac61188c565b5b602082029050919050565b600080fd5b60006119d06119cb84611992565b6118ec565b905080602084028301858111156119ea576119e96119b8565b5b835b81811015611a1357806119ff8882611928565b8452602084019350506020810190506119ec565b5050509392505050565b600082601f830112611a3257611a3161198d565b5b6002611a3f8482856119bd565b91505092915050565b600060808284031215611a5e57611a5d611876565b5b611a6860406118ec565b90506000611a7884828501611a1d565b6000830152506040611a8c84828501611a1d565b60208301525092915050565b60006101008284031215611aaf57611aae611876565b5b611ab960606118ec565b90506000611ac98482850161193d565b6000830152506040611add84828501611a48565b60208301525060c0611af18482850161193d565b60408301525092915050565b600067ffffffffffffffff821115611b1857611b1761188c565b5b602082029050919050565b6000611b36611b3184611afd565b6118ec565b90508060208402830185811115611b5057611b4f6119b8565b5b835b81811015611b795780611b658882611928565b845260208401935050602081019050611b52565b5050509392505050565b600082601f830112611b9857611b9761198d565b5b6015611ba5848285611b23565b91505092915050565b6000806103a08385031215611bc657611bc5611871565b5b6000611bd485828601611a98565b925050610100611be685828601611b83565b9150509250929050565b60008115159050919050565b611c0581611bf0565b82525050565b6000602082019050611c206000830184611bfc565b92915050565b7f4e487b7100000000000000000000000000000000000000000000000000000000600052603260045260246000fd5b7f4e487b7100000000000000000000000000000000000000000000000000000000600052601160045260246000fd5b6000611c8f82611907565b91507fffffffffffffffffffffffffffffffffffffffffffffffffffffffffffffffff8203611cc157611cc0611c55565b5b600182019050919050565b6000611cd782611907565b9150611ce283611907565b9250828201905080821115611cfa57611cf9611c55565b5b92915050565b7f4e487b7100000000000000000000000000000000000000000000000000000000600052601260045260246000fd5b6000611d3a82611907565b9150611d4583611907565b925082611d5557611d54611d00565b5b828206905092915050565b6000611d6b82611907565b9150611d7683611907565b9250828203905081811115611d8e57611d8d611c55565b5b92915050565b6000611d9f82611907565b9150611daa83611907565b9250828202611db881611907565b91508282048414831517611dcf57611dce611c55565b5b509291505056fea264697066735822122040f28272f7e17121b0b4c783c8ba60cbe92e55cbf1f0632fbe5184999f03de7164736f6c63430008110033","opcodes":"PUSH1 0x80 PUSH1 0x40 MSTORE CALLVALUE DUP1 ISZERO PUSH2 0x10 JUMPI PUSH1 0x0 DUP1 REVERT JUMPDEST POP PUSH2 0x1E0C DUP1 PUSH2 0x20 PUSH1 0x0 CODECOPY PUSH1 0x0 RETURN INVALID PUSH1 0x80 PUSH1 0x40 MSTORE CALLVALUE DUP1 ISZERO PUSH2 0x10 JUMPI PUSH1 0x0 DUP1 REVERT JUMPDEST POP PUSH1 0x4 CALLDATASIZE LT PUSH2 0x2B JUMPI PUSH1 0x0 CALLDATALOAD PUSH1 0xE0 SHR DUP1 PUSH4 0xC7F02130 EQ PUSH2 0x30 JUMPI JUMPDEST PUSH1 0x0 DUP1 REVERT JUMPDEST PUSH2 0x4A PUSH1 0x4 DUP1 CALLDATASIZE SUB DUP2 ADD SWAP1 PUSH2 0x45 SWAP2 SWAP1 PUSH2 0x1BAE JUMP JUMPDEST PUSH2 0x60 JUMP JUMPDEST PUSH1 0x40 MLOAD PUSH2 0x57 SWAP2 SWAP1 PUSH2 0x1C0B JUMP JUMPDEST PUSH1 0x40 MLOAD DUP1 SWAP2 SUB SWAP1 RETURN JUMPDEST PUSH1 0x0 DUP1 PUSH1 0x15 PUSH8 0xFFFFFFFFFFFFFFFF DUP2 GT ISZERO PUSH2 0x7E JUMPI PUSH2 0x7D PUSH2 0x188C JUMP JUMPDEST JUMPDEST PUSH1 0x40 MLOAD SWAP1 DUP1 DUP3 MSTORE DUP1 PUSH1 0x20 MUL PUSH1 0x20 ADD DUP3 ADD PUSH1 0x40 MSTORE DUP1 ISZERO PUSH2 0xAC JUMPI DUP2 PUSH1 0x20 ADD PUSH1 0x20 DUP3 MUL DUP1 CALLDATASIZE DUP4 CALLDATACOPY DUP1 DUP3 ADD SWAP2 POP POP SWAP1 POP JUMPDEST POP SWAP1 POP PUSH1 0x0 JUMPDEST PUSH1 0x15 DUP2 LT ISZERO PUSH2 0x105 JUMPI DUP4 DUP2 PUSH1 0x15 DUP2 LT PUSH2 0xCE JUMPI PUSH2 0xCD PUSH2 0x1C26 JUMP JUMPDEST JUMPDEST PUSH1 0x20 MUL ADD MLOAD DUP3 DUP3 DUP2 MLOAD DUP2 LT PUSH2 0xE6 JUMPI PUSH2 0xE5 PUSH2 0x1C26 JUMP JUMPDEST JUMPDEST PUSH1 0x20 MUL PUSH1 0x20 ADD ADD DUP2 DUP2 MSTORE POP POP DUP1 DUP1 PUSH2 0xFD SWAP1 PUSH2 0x1C84 JUMP JUMPDEST SWAP2 POP POP PUSH2 0xB2 JUMP JUMPDEST POP PUSH1 0x0 PUSH2 0x112 DUP3 DUP7 PUSH2 0x12D JUMP JUMPDEST SUB PUSH2 0x121 JUMPI PUSH1 0x1 SWAP2 POP POP PUSH2 0x127 JUMP JUMPDEST PUSH1 0x0 SWAP2 POP POP JUMPDEST SWAP3 SWAP2 POP POP JUMP JUMPDEST PUSH1 0x0 DUP1 PUSH32 0x30644E72E131A029B85045B68181585D2833E84879B9709143E1F593F0000001 SWAP1 POP PUSH1 0x0 PUSH2 0x15D PUSH2 0x2C4 JUMP JUMPDEST SWAP1 POP DUP1 PUSH1 0x80 ADD MLOAD MLOAD PUSH1 0x1 DUP7 MLOAD PUSH2 0x173 SWAP2 SWAP1 PUSH2 0x1CCC JUMP JUMPDEST EQ PUSH2 0x17D JUMPI PUSH1 0x0 DUP1 REVERT JUMPDEST PUSH1 0x0 PUSH1 0x40 MLOAD DUP1 PUSH1 0x40 ADD PUSH1 0x40 MSTORE DUP1 PUSH1 0x0 DUP2 MSTORE PUSH1 0x20 ADD PUSH1 0x0 DUP2 MSTORE POP SWAP1 POP PUSH1 0x0 JUMPDEST DUP7 MLOAD DUP2 LT ISZERO PUSH2 0x236 JUMPI DUP4 DUP8 DUP3 DUP2 MLOAD DUP2 LT PUSH2 0x1B8 JUMPI PUSH2 0x1B7 PUSH2 0x1C26 JUMP JUMPDEST JUMPDEST PUSH1 0x20 MUL PUSH1 0x20 ADD ADD MLOAD LT PUSH2 0x1CA JUMPI PUSH1 0x0 DUP1 REVERT JUMPDEST PUSH2 0x221 DUP3 PUSH2 0x21C DUP6 PUSH1 0x80 ADD MLOAD PUSH1 0x1 DUP6 PUSH2 0x1E3 SWAP2 SWAP1 PUSH2 0x1CCC JUMP JUMPDEST DUP2 MLOAD DUP2 LT PUSH2 0x1F4 JUMPI PUSH2 0x1F3 PUSH2 0x1C26 JUMP JUMPDEST JUMPDEST PUSH1 0x20 MUL PUSH1 0x20 ADD ADD MLOAD DUP11 DUP6 DUP2 MLOAD DUP2 LT PUSH2 0x20F JUMPI PUSH2 0x20E PUSH2 0x1C26 JUMP JUMPDEST JUMPDEST PUSH1 0x20 MUL PUSH1 0x20 ADD ADD MLOAD PUSH2 0x1026 JUMP JUMPDEST PUSH2 0x10C8 JUMP JUMPDEST SWAP2 POP DUP1 DUP1 PUSH2 0x22E SWAP1 PUSH2 0x1C84 JUMP JUMPDEST SWAP2 POP POP PUSH2 0x19B JUMP JUMPDEST POP PUSH2 0x260 DUP2 DUP4 PUSH1 0x80 ADD MLOAD PUSH1 0x0 DUP2 MLOAD DUP2 LT PUSH2 0x253 JUMPI PUSH2 0x252 PUSH2 0x1C26 JUMP JUMPDEST JUMPDEST PUSH1 0x20 MUL PUSH1 0x20 ADD ADD MLOAD PUSH2 0x10C8 JUMP JUMPDEST SWAP1 POP PUSH2 0x2A6 DUP6 PUSH1 0x0 ADD MLOAD DUP7 PUSH1 0x20 ADD MLOAD PUSH2 0x278 DUP5 PUSH2 0x1190 JUMP JUMPDEST DUP6 PUSH1 0x40 ADD MLOAD PUSH2 0x28A DUP11 PUSH1 0x40 ADD MLOAD PUSH2 0x1190 JUMP JUMPDEST DUP8 PUSH1 0x60 ADD MLOAD PUSH2 0x29C DUP10 PUSH1 0x0 ADD MLOAD PUSH2 0x1190 JUMP JUMPDEST DUP10 PUSH1 0x20 ADD MLOAD PUSH2 0x1235 JUMP JUMPDEST PUSH2 0x2B6 JUMPI PUSH1 0x1 SWAP4 POP POP POP POP PUSH2 0x2BE JUMP JUMPDEST PUSH1 0x0 SWAP4 POP POP POP POP JUMPDEST SWAP3 SWAP2 POP POP JUMP JUMPDEST PUSH2 0x2CC PUSH2 0x1758 JUMP JUMPDEST PUSH1 0x40 MLOAD DUP1 PUSH1 0x40 ADD PUSH1 0x40 MSTORE DUP1 PUSH32 0x7CFA603BD6141FE26CC32C60A2526305EE1316902806DDFFD1BC3F80E4C841A DUP2 MSTORE PUSH1 0x20 ADD PUSH32 0x2116003ED77CFA8A89C157542DCE881990096102A1A31D024EDCFAA0AF4F26FE DUP2 MSTORE POP DUP2 PUSH1 0x0 ADD DUP2 SWAP1 MSTORE POP PUSH1 0x40 MLOAD DUP1 PUSH1 0x40 ADD PUSH1 0x40 MSTORE DUP1 PUSH1 0x40 MLOAD DUP1 PUSH1 0x40 ADD PUSH1 0x40 MSTORE DUP1 PUSH32 0x26159C93EAB75A858D7A030E916A27681953A4A808610834DEC2AC213D738CAD DUP2 MSTORE PUSH1 0x20 ADD PUSH32 0x2BFE6F19134A077DD8B8FA1D5891062C7B743D6FDEF6FF6985E722F81E1265AD DUP2 MSTORE POP DUP2 MSTORE PUSH1 0x20 ADD PUSH1 0x40 MLOAD DUP1 PUSH1 0x40 ADD PUSH1 0x40 MSTORE DUP1 PUSH32 0x1D3FE0902AFCC25421E56FA344869D55C41E39896DC412D90494B239D7F3E98E DUP2 MSTORE PUSH1 0x20 ADD PUSH32 0x2EE0D188F280F0122B52C4D4AD794106272F431BB6BB0796D295BE5623DC2CD4 DUP2 MSTORE POP DUP2 MSTORE POP DUP2 PUSH1 0x20 ADD DUP2 SWAP1 MSTORE POP PUSH1 0x40 MLOAD DUP1 PUSH1 0x40 ADD PUSH1 0x40 MSTORE DUP1 PUSH1 0x40 MLOAD DUP1 PUSH1 0x40 ADD PUSH1 0x40 MSTORE DUP1 PUSH32 0x6D7355BBFEE5EF500D0FE544198C338D187BC61C3791977D09FF9BCDE448411 DUP2 MSTORE PUSH1 0x20 ADD PUSH32 0x1AFCAB3AC7C221B3C0FF2FAFC116BFE24E22ADF48CCC379314E5DF3CDCE9A50E DUP2 MSTORE POP DUP2 MSTORE PUSH1 0x20 ADD PUSH1 0x40 MLOAD DUP1 PUSH1 0x40 ADD PUSH1 0x40 MSTORE DUP1 PUSH32 0x26895FFF2ED8EF83F6945A0CE48B71BC2032124BCB37D03C43AF3A706AE8625C DUP2 MSTORE PUSH1 0x20 ADD PUSH32 0x25039E1B9679C2E63F89E4E687D5D4F1E7D9BA902CE9E50C18A99ADF9EE73FBE DUP2 MSTORE POP DUP2 MSTORE POP DUP2 PUSH1 0x40 ADD DUP2 SWAP1 MSTORE POP PUSH1 0x40 MLOAD DUP1 PUSH1 0x40 ADD PUSH1 0x40 MSTORE DUP1 PUSH1 0x40 MLOAD DUP1 PUSH1 0x40 ADD PUSH1 0x40 MSTORE DUP1 PUSH32 0x201656780ADC9E835EAAB6C18C430EF48862EA7D05D712A132B83B92D5945803 DUP2 MSTORE PUSH1 0x20 ADD PUSH32 0x8EC55C1D58AFF764E98FA21C435F5762D8058BC2894A2C6C89DB2F08682345C DUP2 MSTORE POP DUP2 MSTORE PUSH1 0x20 ADD PUSH1 0x40 MLOAD DUP1 PUSH1 0x40 ADD PUSH1 0x40 MSTORE DUP1 PUSH32 0x1E8C6C8826FC51940CDC3F88D278905509437214E91365C6AB574E07EC703C31 DUP2 MSTORE PUSH1 0x20 ADD PUSH32 0x2B7A9ABDC49ABDD7B6076AAC7B2B9FD9E9C7CBC1670F96AB4A45EE760F3904C3 DUP2 MSTORE POP DUP2 MSTORE POP DUP2 PUSH1 0x60 ADD DUP2 SWAP1 MSTORE POP PUSH1 0x16 PUSH8 0xFFFFFFFFFFFFFFFF DUP2 GT ISZERO PUSH2 0x593 JUMPI PUSH2 0x592 PUSH2 0x188C JUMP JUMPDEST JUMPDEST PUSH1 0x40 MLOAD SWAP1 DUP1 DUP3 MSTORE DUP1 PUSH1 0x20 MUL PUSH1 0x20 ADD DUP3 ADD PUSH1 0x40 MSTORE DUP1 ISZERO PUSH2 0x5CC JUMPI DUP2 PUSH1 0x20 ADD JUMPDEST PUSH2 0x5B9 PUSH2 0x179F JUMP JUMPDEST DUP2 MSTORE PUSH1 0x20 ADD SWAP1 PUSH1 0x1 SWAP1 SUB SWAP1 DUP2 PUSH2 0x5B1 JUMPI SWAP1 POP JUMPDEST POP DUP2 PUSH1 0x80 ADD DUP2 SWAP1 MSTORE POP PUSH1 0x40 MLOAD DUP1 PUSH1 0x40 ADD PUSH1 0x40 MSTORE DUP1 PUSH32 0x6E2490F32A3E39C93C52702E2369A76CC94E6F2E2831254FA71D069E2AD9997 DUP2 MSTORE PUSH1 0x20 ADD PUSH32 0x1A4B181A5BFFDBDD7C1E31A70BD78745F7839A6C456826728CB294AB0629C6A DUP2 MSTORE POP DUP2 PUSH1 0x80 ADD MLOAD PUSH1 0x0 DUP2 MLOAD DUP2 LT PUSH2 0x642 JUMPI PUSH2 0x641 PUSH2 0x1C26 JUMP JUMPDEST JUMPDEST PUSH1 0x20 MUL PUSH1 0x20 ADD ADD DUP2 SWAP1 MSTORE POP PUSH1 0x40 MLOAD DUP1 PUSH1 0x40 ADD PUSH1 0x40 MSTORE DUP1 PUSH32 0x19AF63DF3BEC2EF22258F678AD9B676AC0750B987ECF158D5E734D3E722F31CF DUP2 MSTORE PUSH1 0x20 ADD PUSH32 0x16DE00B1B72DEB248A7F4FD2CD3E4DB10A1A31A21F33898A081230E0140E4884 DUP2 MSTORE POP DUP2 PUSH1 0x80 ADD MLOAD PUSH1 0x1 DUP2 MLOAD DUP2 LT PUSH2 0x6BA JUMPI PUSH2 0x6B9 PUSH2 0x1C26 JUMP JUMPDEST JUMPDEST PUSH1 0x20 MUL PUSH1 0x20 ADD ADD DUP2 SWAP1 MSTORE POP PUSH1 0x40 MLOAD DUP1 PUSH1 0x40 ADD PUSH1 0x40 MSTORE DUP1 PUSH32 0x2490576DD6DE052DD249A80677D20292599267A86F0B7D17C41D3961F27B7DE8 DUP2 MSTORE PUSH1 0x20 ADD PUSH32 0x23C754537B62F70FA01C798D20E7E1A868E5111F69C40B1D053274D80F4D559E DUP2 MSTORE POP DUP2 PUSH1 0x80 ADD MLOAD PUSH1 0x2 DUP2 MLOAD DUP2 LT PUSH2 0x732 JUMPI PUSH2 0x731 PUSH2 0x1C26 JUMP JUMPDEST JUMPDEST PUSH1 0x20 MUL PUSH1 0x20 ADD ADD DUP2 SWAP1 MSTORE POP PUSH1 0x40 MLOAD DUP1 PUSH1 0x40 ADD PUSH1 0x40 MSTORE DUP1 PUSH32 0xE456E6DFB6DE26A0272B8DF96FF432674EF307F76F18053DF4621C17C2C2C5B DUP2 MSTORE PUSH1 0x20 ADD PUSH32 0xD605CCF1B2688AE19A625106AFFB35F8270ECCE75CC928B958D7DCFADBE411F DUP2 MSTORE POP DUP2 PUSH1 0x80 ADD MLOAD PUSH1 0x3 DUP2 MLOAD DUP2 LT PUSH2 0x7AA JUMPI PUSH2 0x7A9 PUSH2 0x1C26 JUMP JUMPDEST JUMPDEST PUSH1 0x20 MUL PUSH1 0x20 ADD ADD DUP2 SWAP1 MSTORE POP PUSH1 0x40 MLOAD DUP1 PUSH1 0x40 ADD PUSH1 0x40 MSTORE DUP1 PUSH32 0x1AF8E3A32098F2D30A7EB645CE9AC05080F63150FD8069E04850DB5391148756 DUP2 MSTORE PUSH1 0x20 ADD PUSH32 0x1AE985DE9D21677F84554CF272B3A6CCD5F1EECED6BD54E611EA740B0FA560DD DUP2 MSTORE POP DUP2 PUSH1 0x80 ADD MLOAD PUSH1 0x4 DUP2 MLOAD DUP2 LT PUSH2 0x822 JUMPI PUSH2 0x821 PUSH2 0x1C26 JUMP JUMPDEST JUMPDEST PUSH1 0x20 MUL PUSH1 0x20 ADD ADD DUP2 SWAP1 MSTORE POP PUSH1 0x40 MLOAD DUP1 PUSH1 0x40 ADD PUSH1 0x40 MSTORE DUP1 PUSH32 0x1B48B7235DCC82D86CF4D9FB0CC14BCA6C7C075C1CF7BFD9E4A8505A5E6530BE DUP2 MSTORE PUSH1 0x20 ADD PUSH32 0x15D6DE12A1E87ED388A2C9E8D57A205FB60CE032DAEE474EEC60B25F30AAF663 DUP2 MSTORE POP DUP2 PUSH1 0x80 ADD MLOAD PUSH1 0x5 DUP2 MLOAD DUP2 LT PUSH2 0x89A JUMPI PUSH2 0x899 PUSH2 0x1C26 JUMP JUMPDEST JUMPDEST PUSH1 0x20 MUL PUSH1 0x20 ADD ADD DUP2 SWAP1 MSTORE POP PUSH1 0x40 MLOAD DUP1 PUSH1 0x40 ADD PUSH1 0x40 MSTORE DUP1 PUSH32 0x19A7F7C12D0BDAF5649D659B5B536E751D751E810D9798897910C71F51BD0FA5 DUP2 MSTORE PUSH1 0x20 ADD PUSH31 0x3BB5685BE5999AFDDC19371FF886F85BF2AFE08F5F801617326EA802C713B3 DUP2 MSTORE POP DUP2 PUSH1 0x80 ADD MLOAD PUSH1 0x6 DUP2 MLOAD DUP2 LT PUSH2 0x911 JUMPI PUSH2 0x910 PUSH2 0x1C26 JUMP JUMPDEST JUMPDEST PUSH1 0x20 MUL PUSH1 0x20 ADD ADD DUP2 SWAP1 MSTORE POP PUSH1 0x40 MLOAD DUP1 PUSH1 0x40 ADD PUSH1 0x40 MSTORE DUP1 PUSH32 0x1FF64C90E504B5B496DEBD9B8E44D50CC67F9D7801A263FDE20E384171C53417 DUP2 MSTORE PUSH1 0x20 ADD PUSH32 0x2E1284887C7F4BAD745BA0A7D07DC2AA1A62345F45EAAC4BAB97B2B7CDBC23F DUP2 MSTORE POP DUP2 PUSH1 0x80 ADD MLOAD PUSH1 0x7 DUP2 MLOAD DUP2 LT PUSH2 0x989 JUMPI PUSH2 0x988 PUSH2 0x1C26 JUMP JUMPDEST JUMPDEST PUSH1 0x20 MUL PUSH1 0x20 ADD ADD DUP2 SWAP1 MSTORE POP PUSH1 0x40 MLOAD DUP1 PUSH1 0x40 ADD PUSH1 0x40 MSTORE DUP1 PUSH32 0x5D5E5683FB1A791CD493AEF14A773BCE81183221230BD860C73EA386054F50E DUP2 MSTORE PUSH1 0x20 ADD PUSH32 0x519033BFF21C2935A13C30FDAF1684D8A70897CA401D78767924D5274F55134 DUP2 MSTORE POP DUP2 PUSH1 0x80 ADD MLOAD PUSH1 0x8 DUP2 MLOAD DUP2 LT PUSH2 0xA01 JUMPI PUSH2 0xA00 PUSH2 0x1C26 JUMP JUMPDEST JUMPDEST PUSH1 0x20 MUL PUSH1 0x20 ADD ADD DUP2 SWAP1 MSTORE POP PUSH1 0x40 MLOAD DUP1 PUSH1 0x40 ADD PUSH1 0x40 MSTORE DUP1 PUSH32 0x17377D6C227ABC662C03686803D401759CA7FD4D123F4440787F0354CCBF257 DUP2 MSTORE PUSH1 0x20 ADD PUSH32 0xF01BA877346284102DB4F6D30C3F65A5C57B17985C48A7B3CD77EDF2E547C76 DUP2 MSTORE POP DUP2 PUSH1 0x80 ADD MLOAD PUSH1 0x9 DUP2 MLOAD DUP2 LT PUSH2 0xA79 JUMPI PUSH2 0xA78 PUSH2 0x1C26 JUMP JUMPDEST JUMPDEST PUSH1 0x20 MUL PUSH1 0x20 ADD ADD DUP2 SWAP1 MSTORE POP PUSH1 0x40 MLOAD DUP1 PUSH1 0x40 ADD PUSH1 0x40 MSTORE DUP1 PUSH32 0x20E4A5B7D89EB23A0A88289FC02FE0EB5166AFA5517AE26A424986F3BB626724 DUP2 MSTORE PUSH1 0x20 ADD PUSH32 0x2F95B13D66DD4125ADAC74A154E6748E365E99A0266A4ADE5ED7ED2167F76707 DUP2 MSTORE POP DUP2 PUSH1 0x80 ADD MLOAD PUSH1 0xA DUP2 MLOAD DUP2 LT PUSH2 0xAF1 JUMPI PUSH2 0xAF0 PUSH2 0x1C26 JUMP JUMPDEST JUMPDEST PUSH1 0x20 MUL PUSH1 0x20 ADD ADD DUP2 SWAP1 MSTORE POP PUSH1 0x40 MLOAD DUP1 PUSH1 0x40 ADD PUSH1 0x40 MSTORE DUP1 PUSH32 0x1107458663D52C578825DAF478C132ED5A63B0023916BBCDA29FF095C2196B6C DUP2 MSTORE PUSH1 0x20 ADD PUSH32 0x2A426CEAE4DDED03D24EC2B635BCA506B0355BB918BA7798131EA012B7BC9AAC DUP2 MSTORE POP DUP2 PUSH1 0x80 ADD MLOAD PUSH1 0xB DUP2 MLOAD DUP2 LT PUSH2 0xB69 JUMPI PUSH2 0xB68 PUSH2 0x1C26 JUMP JUMPDEST JUMPDEST PUSH1 0x20 MUL PUSH1 0x20 ADD ADD DUP2 SWAP1 MSTORE POP PUSH1 0x40 MLOAD DUP1 PUSH1 0x40 ADD PUSH1 0x40 MSTORE DUP1 PUSH32 0x91B5524725376FEF4718873424DF555107059546DAF81A576D5FEFF5415A6C6 DUP2 MSTORE PUSH1 0x20 ADD PUSH32 0x111E1196BF9BAB1250AD53C630EA604103B04B5142ACC0365971E2D256144259 DUP2 MSTORE POP DUP2 PUSH1 0x80 ADD MLOAD PUSH1 0xC DUP2 MLOAD DUP2 LT PUSH2 0xBE1 JUMPI PUSH2 0xBE0 PUSH2 0x1C26 JUMP JUMPDEST JUMPDEST PUSH1 0x20 MUL PUSH1 0x20 ADD ADD DUP2 SWAP1 MSTORE POP PUSH1 0x40 MLOAD DUP1 PUSH1 0x40 ADD PUSH1 0x40 MSTORE DUP1 PUSH32 0x27E34B06D0254C4C7CC6004D292865621D240E08746743B110A9F4D1C6A6D8CC DUP2 MSTORE PUSH1 0x20 ADD PUSH32 0x1BA0F87A1C9EE9865692763B1238553218A0BB62461A12447FA2BA46C68EF020 DUP2 MSTORE POP DUP2 PUSH1 0x80 ADD MLOAD PUSH1 0xD DUP2 MLOAD DUP2 LT PUSH2 0xC59 JUMPI PUSH2 0xC58 PUSH2 0x1C26 JUMP JUMPDEST JUMPDEST PUSH1 0x20 MUL PUSH1 0x20 ADD ADD DUP2 SWAP1 MSTORE POP PUSH1 0x40 MLOAD DUP1 PUSH1 0x40 ADD PUSH1 0x40 MSTORE DUP1 PUSH32 0x241107DF0658ADF300FABB0A6DA899F7B19F009CCB4EF1790F8EEAC1CC4A7F1D DUP2 MSTORE PUSH1 0x20 ADD PUSH32 0x11CDD9AB5EA878CA124ADA0CEB334557CD71C1802903FE3D50758DB24AC43A12 DUP2 MSTORE POP DUP2 PUSH1 0x80 ADD MLOAD PUSH1 0xE DUP2 MLOAD DUP2 LT PUSH2 0xCD1 JUMPI PUSH2 0xCD0 PUSH2 0x1C26 JUMP JUMPDEST JUMPDEST PUSH1 0x20 MUL PUSH1 0x20 ADD ADD DUP2 SWAP1 MSTORE POP PUSH1 0x40 MLOAD DUP1 PUSH1 0x40 ADD PUSH1 0x40 MSTORE DUP1 PUSH32 0xAE6669F0385CAEDF48604F384C376253D1AFD9491D27D2EC4C531790A2EC5AA DUP2 MSTORE PUSH1 0x20 ADD PUSH32 0xC9334D63F46B8461D2CADC035A6A001B95DA0E4376B48805F9F870C70EC3861 DUP2 MSTORE POP DUP2 PUSH1 0x80 ADD MLOAD PUSH1 0xF DUP2 MLOAD DUP2 LT PUSH2 0xD49 JUMPI PUSH2 0xD48 PUSH2 0x1C26 JUMP JUMPDEST JUMPDEST PUSH1 0x20 MUL PUSH1 0x20 ADD ADD DUP2 SWAP1 MSTORE POP PUSH1 0x40 MLOAD DUP1 PUSH1 0x40 ADD PUSH1 0x40 MSTORE DUP1 PUSH32 0x1199CA6EC34326B1C4DD0DAF2D024C7852E033F041494490330F7A793E28641D DUP2 MSTORE PUSH1 0x20 ADD PUSH32 0xBEF8A45894FDBCBE73E391E14A91B4A828ACCD0AB5B2A1B85CBB51B3EE5B770 DUP2 MSTORE POP DUP2 PUSH1 0x80 ADD MLOAD PUSH1 0x10 DUP2 MLOAD DUP2 LT PUSH2 0xDC1 JUMPI PUSH2 0xDC0 PUSH2 0x1C26 JUMP JUMPDEST JUMPDEST PUSH1 0x20 MUL PUSH1 0x20 ADD ADD DUP2 SWAP1 MSTORE POP PUSH1 0x40 MLOAD DUP1 PUSH1 0x40 ADD PUSH1 0x40 MSTORE DUP1 PUSH32 0x1271023C00B2904F9715173933099A34F9A3C7BD6F1FD30B88572E29D75D6893 DUP2 MSTORE PUSH1 0x20 ADD PUSH32 0x1C3EB7C8C5B6ECA1C400A37A7988600F04F9440E3971D1E824CB2363DE552B69 DUP2 MSTORE POP DUP2 PUSH1 0x80 ADD MLOAD PUSH1 0x11 DUP2 MLOAD DUP2 LT PUSH2 0xE39 JUMPI PUSH2 0xE38 PUSH2 0x1C26 JUMP JUMPDEST JUMPDEST PUSH1 0x20 MUL PUSH1 0x20 ADD ADD DUP2 SWAP1 MSTORE POP PUSH1 0x40 MLOAD DUP1 PUSH1 0x40 ADD PUSH1 0x40 MSTORE DUP1 PUSH32 0x35CE2A5AD1D062E5291F9E183E6CF4752313661FDD3F341AE42A2707539EEBD DUP2 MSTORE PUSH1 0x20 ADD PUSH32 0x2FE1C7035E957D607EEE11425BC50D61BD915FF69448AE647964EE246B4B98DA DUP2 MSTORE POP DUP2 PUSH1 0x80 ADD MLOAD PUSH1 0x12 DUP2 MLOAD DUP2 LT PUSH2 0xEB1 JUMPI PUSH2 0xEB0 PUSH2 0x1C26 JUMP JUMPDEST JUMPDEST PUSH1 0x20 MUL PUSH1 0x20 ADD ADD DUP2 SWAP1 MSTORE POP PUSH1 0x40 MLOAD DUP1 PUSH1 0x40 ADD PUSH1 0x40 MSTORE DUP1 PUSH32 0x27F7C7E5C55D017D1C4A0F22CF300A04DDA1F548D33D33D48FA93AC531D9EC4A DUP2 MSTORE PUSH1 0x20 ADD PUSH32 0x22B870CECBD749F145A9E857C99761CB7D048553C7A528038B61982474130A18 DUP2 MSTORE POP DUP2 PUSH1 0x80 ADD MLOAD PUSH1 0x13 DUP2 MLOAD DUP2 LT PUSH2 0xF29 JUMPI PUSH2 0xF28 PUSH2 0x1C26 JUMP JUMPDEST JUMPDEST PUSH1 0x20 MUL PUSH1 0x20 ADD ADD DUP2 SWAP1 MSTORE POP PUSH1 0x40 MLOAD DUP1 PUSH1 0x40 ADD PUSH1 0x40 MSTORE DUP1 PUSH31 0x1BD3705EBC5044C703A7B3BB8D0BDE74064F699FC67822812093CFD7849FD6 DUP2 MSTORE PUSH1 0x20 ADD PUSH32 0x5E2FBF4427AF633C8D7F4E4311B52377C0E210381E02A18A9B29377D583885D DUP2 MSTORE POP DUP2 PUSH1 0x80 ADD MLOAD PUSH1 0x14 DUP2 MLOAD DUP2 LT PUSH2 0xFA0 JUMPI PUSH2 0xF9F PUSH2 0x1C26 JUMP JUMPDEST JUMPDEST PUSH1 0x20 MUL PUSH1 0x20 ADD ADD DUP2 SWAP1 MSTORE POP PUSH1 0x40 MLOAD DUP1 PUSH1 0x40 ADD PUSH1 0x40 MSTORE DUP1 PUSH32 0x14D53B0A977B8A903B7B1C023085328B0B23CFF3B29E5EE5802E4A24F9E64128 DUP2 MSTORE PUSH1 0x20 ADD PUSH32 0x2FB3D871462D433E0C7D06AC24E3F700078D55B02EC98E3F0CADE960A5F0C787 DUP2 MSTORE POP DUP2 PUSH1 0x80 ADD MLOAD PUSH1 0x15 DUP2 MLOAD DUP2 LT PUSH2 0x1018 JUMPI PUSH2 0x1017 PUSH2 0x1C26 JUMP JUMPDEST JUMPDEST PUSH1 0x20 MUL PUSH1 0x20 ADD ADD DUP2 SWAP1 MSTORE POP SWAP1 JUMP JUMPDEST PUSH2 0x102E PUSH2 0x179F JUMP JUMPDEST PUSH2 0x1036 PUSH2 0x17B9 JUMP JUMPDEST DUP4 PUSH1 0x0 ADD MLOAD DUP2 PUSH1 0x0 PUSH1 0x3 DUP2 LT PUSH2 0x104F JUMPI PUSH2 0x104E PUSH2 0x1C26 JUMP JUMPDEST JUMPDEST PUSH1 0x20 MUL ADD DUP2 DUP2 MSTORE POP POP DUP4 PUSH1 0x20 ADD MLOAD DUP2 PUSH1 0x1 PUSH1 0x3 DUP2 LT PUSH2 0x1071 JUMPI PUSH2 0x1070 PUSH2 0x1C26 JUMP JUMPDEST JUMPDEST PUSH1 0x20 MUL ADD DUP2 DUP2 MSTORE POP POP DUP3 DUP2 PUSH1 0x2 PUSH1 0x3 DUP2 LT PUSH2 0x108F JUMPI PUSH2 0x108E PUSH2 0x1C26 JUMP JUMPDEST JUMPDEST PUSH1 0x20 MUL ADD DUP2 DUP2 MSTORE POP POP PUSH1 0x0 PUSH1 0x60 DUP4 PUSH1 0x80 DUP5 PUSH1 0x7 PUSH2 0x7D0 GAS SUB STATICCALL SWAP1 POP DUP1 PUSH1 0x0 DUP2 SUB PUSH2 0x10B5 JUMPI INVALID JUMPDEST POP DUP1 PUSH2 0x10C0 JUMPI PUSH1 0x0 DUP1 REVERT JUMPDEST POP POP SWAP3 SWAP2 POP POP JUMP JUMPDEST PUSH2 0x10D0 PUSH2 0x179F JUMP JUMPDEST PUSH2 0x10D8 PUSH2 0x17DB JUMP JUMPDEST DUP4 PUSH1 0x0 ADD MLOAD DUP2 PUSH1 0x0 PUSH1 0x4 DUP2 LT PUSH2 0x10F1 JUMPI PUSH2 0x10F0 PUSH2 0x1C26 JUMP JUMPDEST JUMPDEST PUSH1 0x20 MUL ADD DUP2 DUP2 MSTORE POP POP DUP4 PUSH1 0x20 ADD MLOAD DUP2 PUSH1 0x1 PUSH1 0x4 DUP2 LT PUSH2 0x1113 JUMPI PUSH2 0x1112 PUSH2 0x1C26 JUMP JUMPDEST JUMPDEST PUSH1 0x20 MUL ADD DUP2 DUP2 MSTORE POP POP DUP3 PUSH1 0x0 ADD MLOAD DUP2 PUSH1 0x2 PUSH1 0x4 DUP2 LT PUSH2 0x1135 JUMPI PUSH2 0x1134 PUSH2 0x1C26 JUMP JUMPDEST JUMPDEST PUSH1 0x20 MUL ADD DUP2 DUP2 MSTORE POP POP DUP3 PUSH1 0x20 ADD MLOAD DUP2 PUSH1 0x3 PUSH1 0x4 DUP2 LT PUSH2 0x1157 JUMPI PUSH2 0x1156 PUSH2 0x1C26 JUMP JUMPDEST JUMPDEST PUSH1 0x20 MUL ADD DUP2 DUP2 MSTORE POP POP PUSH1 0x0 PUSH1 0x60 DUP4 PUSH1 0xC0 DUP5 PUSH1 0x6 PUSH2 0x7D0 GAS SUB STATICCALL SWAP1 POP DUP1 PUSH1 0x0 DUP2 SUB PUSH2 0x117D JUMPI INVALID JUMPDEST POP DUP1 PUSH2 0x1188 JUMPI PUSH1 0x0 DUP1 REVERT JUMPDEST POP POP SWAP3 SWAP2 POP POP JUMP JUMPDEST PUSH2 0x1198 PUSH2 0x179F JUMP JUMPDEST PUSH1 0x0 PUSH32 0x30644E72E131A029B85045B68181585D97816A916871CA8D3C208C16D87CFD47 SWAP1 POP PUSH1 0x0 DUP4 PUSH1 0x0 ADD MLOAD EQ DUP1 ISZERO PUSH2 0x11D5 JUMPI POP PUSH1 0x0 DUP4 PUSH1 0x20 ADD MLOAD EQ JUMPDEST ISZERO PUSH2 0x11F9 JUMPI PUSH1 0x40 MLOAD DUP1 PUSH1 0x40 ADD PUSH1 0x40 MSTORE DUP1 PUSH1 0x0 DUP2 MSTORE PUSH1 0x20 ADD PUSH1 0x0 DUP2 MSTORE POP SWAP2 POP POP PUSH2 0x1230 JUMP JUMPDEST PUSH1 0x40 MLOAD DUP1 PUSH1 0x40 ADD PUSH1 0x40 MSTORE DUP1 DUP5 PUSH1 0x0 ADD MLOAD DUP2 MSTORE PUSH1 0x20 ADD DUP3 DUP6 PUSH1 0x20 ADD MLOAD PUSH2 0x121E SWAP2 SWAP1 PUSH2 0x1D2F JUMP JUMPDEST DUP4 PUSH2 0x1229 SWAP2 SWAP1 PUSH2 0x1D60 JUMP JUMPDEST DUP2 MSTORE POP SWAP2 POP POP JUMPDEST SWAP2 SWAP1 POP JUMP JUMPDEST PUSH1 0x0 DUP1 PUSH1 0x4 PUSH8 0xFFFFFFFFFFFFFFFF DUP2 GT ISZERO PUSH2 0x1253 JUMPI PUSH2 0x1252 PUSH2 0x188C JUMP JUMPDEST JUMPDEST PUSH1 0x40 MLOAD SWAP1 DUP1 DUP3 MSTORE DUP1 PUSH1 0x20 MUL PUSH1 0x20 ADD DUP3 ADD PUSH1 0x40 MSTORE DUP1 ISZERO PUSH2 0x128C JUMPI DUP2 PUSH1 0x20 ADD JUMPDEST PUSH2 0x1279 PUSH2 0x179F JUMP JUMPDEST DUP2 MSTORE PUSH1 0x20 ADD SWAP1 PUSH1 0x1 SWAP1 SUB SWAP1 DUP2 PUSH2 0x1271 JUMPI SWAP1 POP JUMPDEST POP SWAP1 POP PUSH1 0x0 PUSH1 0x4 PUSH8 0xFFFFFFFFFFFFFFFF DUP2 GT ISZERO PUSH2 0x12AC JUMPI PUSH2 0x12AB PUSH2 0x188C JUMP JUMPDEST JUMPDEST PUSH1 0x40 MLOAD SWAP1 DUP1 DUP3 MSTORE DUP1 PUSH1 0x20 MUL PUSH1 0x20 ADD DUP3 ADD PUSH1 0x40 MSTORE DUP1 ISZERO PUSH2 0x12E5 JUMPI DUP2 PUSH1 0x20 ADD JUMPDEST PUSH2 0x12D2 PUSH2 0x17FD JUMP JUMPDEST DUP2 MSTORE PUSH1 0x20 ADD SWAP1 PUSH1 0x1 SWAP1 SUB SWAP1 DUP2 PUSH2 0x12CA JUMPI SWAP1 POP JUMPDEST POP SWAP1 POP DUP11 DUP3 PUSH1 0x0 DUP2 MLOAD DUP2 LT PUSH2 0x12FD JUMPI PUSH2 0x12FC PUSH2 0x1C26 JUMP JUMPDEST JUMPDEST PUSH1 0x20 MUL PUSH1 0x20 ADD ADD DUP2 SWAP1 MSTORE POP DUP9 DUP3 PUSH1 0x1 DUP2 MLOAD DUP2 LT PUSH2 0x131D JUMPI PUSH2 0x131C PUSH2 0x1C26 JUMP JUMPDEST JUMPDEST PUSH1 0x20 MUL PUSH1 0x20 ADD ADD DUP2 SWAP1 MSTORE POP DUP7 DUP3 PUSH1 0x2 DUP2 MLOAD DUP2 LT PUSH2 0x133D JUMPI PUSH2 0x133C PUSH2 0x1C26 JUMP JUMPDEST JUMPDEST PUSH1 0x20 MUL PUSH1 0x20 ADD ADD DUP2 SWAP1 MSTORE POP DUP5 DUP3 PUSH1 0x3 DUP2 MLOAD DUP2 LT PUSH2 0x135D JUMPI PUSH2 0x135C PUSH2 0x1C26 JUMP JUMPDEST JUMPDEST PUSH1 0x20 MUL PUSH1 0x20 ADD ADD DUP2 SWAP1 MSTORE POP DUP10 DUP2 PUSH1 0x0 DUP2 MLOAD DUP2 LT PUSH2 0x137D JUMPI PUSH2 0x137C PUSH2 0x1C26 JUMP JUMPDEST JUMPDEST PUSH1 0x20 MUL PUSH1 0x20 ADD ADD DUP2 SWAP1 MSTORE POP DUP8 DUP2 PUSH1 0x1 DUP2 MLOAD DUP2 LT PUSH2 0x139D JUMPI PUSH2 0x139C PUSH2 0x1C26 JUMP JUMPDEST JUMPDEST PUSH1 0x20 MUL PUSH1 0x20 ADD ADD DUP2 SWAP1 MSTORE POP DUP6 DUP2 PUSH1 0x2 DUP2 MLOAD DUP2 LT PUSH2 0x13BD JUMPI PUSH2 0x13BC PUSH2 0x1C26 JUMP JUMPDEST JUMPDEST PUSH1 0x20 MUL PUSH1 0x20 ADD ADD DUP2 SWAP1 MSTORE POP DUP4 DUP2 PUSH1 0x3 DUP2 MLOAD DUP2 LT PUSH2 0x13DD JUMPI PUSH2 0x13DC PUSH2 0x1C26 JUMP JUMPDEST JUMPDEST PUSH1 0x20 MUL PUSH1 0x20 ADD ADD DUP2 SWAP1 MSTORE POP PUSH2 0x13F2 DUP3 DUP3 PUSH2 0x1402 JUMP JUMPDEST SWAP3 POP POP POP SWAP9 SWAP8 POP POP POP POP POP POP POP POP JUMP JUMPDEST PUSH1 0x0 DUP2 MLOAD DUP4 MLOAD EQ PUSH2 0x1412 JUMPI PUSH1 0x0 DUP1 REVERT JUMPDEST PUSH1 0x0 DUP4 MLOAD SWAP1 POP PUSH1 0x0 PUSH1 0x6 DUP3 PUSH2 0x1427 SWAP2 SWAP1 PUSH2 0x1D94 JUMP JUMPDEST SWAP1 POP PUSH1 0x0 DUP2 PUSH8 0xFFFFFFFFFFFFFFFF DUP2 GT ISZERO PUSH2 0x1445 JUMPI PUSH2 0x1444 PUSH2 0x188C JUMP JUMPDEST JUMPDEST PUSH1 0x40 MLOAD SWAP1 DUP1 DUP3 MSTORE DUP1 PUSH1 0x20 MUL PUSH1 0x20 ADD DUP3 ADD PUSH1 0x40 MSTORE DUP1 ISZERO PUSH2 0x1473 JUMPI DUP2 PUSH1 0x20 ADD PUSH1 0x20 DUP3 MUL DUP1 CALLDATASIZE DUP4 CALLDATACOPY DUP1 DUP3 ADD SWAP2 POP POP SWAP1 POP JUMPDEST POP SWAP1 POP PUSH1 0x0 JUMPDEST DUP4 DUP2 LT ISZERO PUSH2 0x16F8 JUMPI DUP7 DUP2 DUP2 MLOAD DUP2 LT PUSH2 0x1494 JUMPI PUSH2 0x1493 PUSH2 0x1C26 JUMP JUMPDEST JUMPDEST PUSH1 0x20 MUL PUSH1 0x20 ADD ADD MLOAD PUSH1 0x0 ADD MLOAD DUP3 PUSH1 0x0 PUSH1 0x6 DUP5 PUSH2 0x14B0 SWAP2 SWAP1 PUSH2 0x1D94 JUMP JUMPDEST PUSH2 0x14BA SWAP2 SWAP1 PUSH2 0x1CCC JUMP JUMPDEST DUP2 MLOAD DUP2 LT PUSH2 0x14CB JUMPI PUSH2 0x14CA PUSH2 0x1C26 JUMP JUMPDEST JUMPDEST PUSH1 0x20 MUL PUSH1 0x20 ADD ADD DUP2 DUP2 MSTORE POP POP DUP7 DUP2 DUP2 MLOAD DUP2 LT PUSH2 0x14EA JUMPI PUSH2 0x14E9 PUSH2 0x1C26 JUMP JUMPDEST JUMPDEST PUSH1 0x20 MUL PUSH1 0x20 ADD ADD MLOAD PUSH1 0x20 ADD MLOAD DUP3 PUSH1 0x1 PUSH1 0x6 DUP5 PUSH2 0x1506 SWAP2 SWAP1 PUSH2 0x1D94 JUMP JUMPDEST PUSH2 0x1510 SWAP2 SWAP1 PUSH2 0x1CCC JUMP JUMPDEST DUP2 MLOAD DUP2 LT PUSH2 0x1521 JUMPI PUSH2 0x1520 PUSH2 0x1C26 JUMP JUMPDEST JUMPDEST PUSH1 0x20 MUL PUSH1 0x20 ADD ADD DUP2 DUP2 MSTORE POP POP DUP6 DUP2 DUP2 MLOAD DUP2 LT PUSH2 0x1540 JUMPI PUSH2 0x153F PUSH2 0x1C26 JUMP JUMPDEST JUMPDEST PUSH1 0x20 MUL PUSH1 0x20 ADD ADD MLOAD PUSH1 0x0 ADD MLOAD PUSH1 0x1 PUSH1 0x2 DUP2 LT PUSH2 0x155F JUMPI PUSH2 0x155E PUSH2 0x1C26 JUMP JUMPDEST JUMPDEST PUSH1 0x20 MUL ADD MLOAD DUP3 PUSH1 0x2 PUSH1 0x6 DUP5 PUSH2 0x1574 SWAP2 SWAP1 PUSH2 0x1D94 JUMP JUMPDEST PUSH2 0x157E SWAP2 SWAP1 PUSH2 0x1CCC JUMP JUMPDEST DUP2 MLOAD DUP2 LT PUSH2 0x158F JUMPI PUSH2 0x158E PUSH2 0x1C26 JUMP JUMPDEST JUMPDEST PUSH1 0x20 MUL PUSH1 0x20 ADD ADD DUP2 DUP2 MSTORE POP POP DUP6 DUP2 DUP2 MLOAD DUP2 LT PUSH2 0x15AE JUMPI PUSH2 0x15AD PUSH2 0x1C26 JUMP JUMPDEST JUMPDEST PUSH1 0x20 MUL PUSH1 0x20 ADD ADD MLOAD PUSH1 0x0 ADD MLOAD PUSH1 0x0 PUSH1 0x2 DUP2 LT PUSH2 0x15CD JUMPI PUSH2 0x15CC PUSH2 0x1C26 JUMP JUMPDEST JUMPDEST PUSH1 0x20 MUL ADD MLOAD DUP3 PUSH1 0x3 PUSH1 0x6 DUP5 PUSH2 0x15E2 SWAP2 SWAP1 PUSH2 0x1D94 JUMP JUMPDEST PUSH2 0x15EC SWAP2 SWAP1 PUSH2 0x1CCC JUMP JUMPDEST DUP2 MLOAD DUP2 LT PUSH2 0x15FD JUMPI PUSH2 0x15FC PUSH2 0x1C26 JUMP JUMPDEST JUMPDEST PUSH1 0x20 MUL PUSH1 0x20 ADD ADD DUP2 DUP2 MSTORE POP POP DUP6 DUP2 DUP2 MLOAD DUP2 LT PUSH2 0x161C JUMPI PUSH2 0x161B PUSH2 0x1C26 JUMP JUMPDEST JUMPDEST PUSH1 0x20 MUL PUSH1 0x20 ADD ADD MLOAD PUSH1 0x20 ADD MLOAD PUSH1 0x1 PUSH1 0x2 DUP2 LT PUSH2 0x163B JUMPI PUSH2 0x163A PUSH2 0x1C26 JUMP JUMPDEST JUMPDEST PUSH1 0x20 MUL ADD MLOAD DUP3 PUSH1 0x4 PUSH1 0x6 DUP5 PUSH2 0x1650 SWAP2 SWAP1 PUSH2 0x1D94 JUMP JUMPDEST PUSH2 0x165A SWAP2 SWAP1 PUSH2 0x1CCC JUMP JUMPDEST DUP2 MLOAD DUP2 LT PUSH2 0x166B JUMPI PUSH2 0x166A PUSH2 0x1C26 JUMP JUMPDEST JUMPDEST PUSH1 0x20 MUL PUSH1 0x20 ADD ADD DUP2 DUP2 MSTORE POP POP DUP6 DUP2 DUP2 MLOAD DUP2 LT PUSH2 0x168A JUMPI PUSH2 0x1689 PUSH2 0x1C26 JUMP JUMPDEST JUMPDEST PUSH1 0x20 MUL PUSH1 0x20 ADD ADD MLOAD PUSH1 0x20 ADD MLOAD PUSH1 0x0 PUSH1 0x2 DUP2 LT PUSH2 0x16A9 JUMPI PUSH2 0x16A8 PUSH2 0x1C26 JUMP JUMPDEST JUMPDEST PUSH1 0x20 MUL ADD MLOAD DUP3 PUSH1 0x5 PUSH1 0x6 DUP5 PUSH2 0x16BE SWAP2 SWAP1 PUSH2 0x1D94 JUMP JUMPDEST PUSH2 0x16C8 SWAP2 SWAP1 PUSH2 0x1CCC JUMP JUMPDEST DUP2 MLOAD DUP2 LT PUSH2 0x16D9 JUMPI PUSH2 0x16D8 PUSH2 0x1C26 JUMP JUMPDEST JUMPDEST PUSH1 0x20 MUL PUSH1 0x20 ADD ADD DUP2 DUP2 MSTORE POP POP DUP1 DUP1 PUSH2 0x16F0 SWAP1 PUSH2 0x1C84 JUMP JUMPDEST SWAP2 POP POP PUSH2 0x1479 JUMP JUMPDEST POP PUSH2 0x1701 PUSH2 0x1823 JUMP JUMPDEST PUSH1 0x0 PUSH1 0x20 DUP3 PUSH1 0x20 DUP7 MUL PUSH1 0x20 DUP7 ADD PUSH1 0x8 PUSH2 0x7D0 GAS SUB STATICCALL SWAP1 POP DUP1 PUSH1 0x0 DUP2 SUB PUSH2 0x1723 JUMPI INVALID JUMPDEST POP DUP1 PUSH2 0x172E JUMPI PUSH1 0x0 DUP1 REVERT JUMPDEST PUSH1 0x0 DUP3 PUSH1 0x0 PUSH1 0x1 DUP2 LT PUSH2 0x1744 JUMPI PUSH2 0x1743 PUSH2 0x1C26 JUMP JUMPDEST JUMPDEST PUSH1 0x20 MUL ADD MLOAD EQ ISZERO SWAP6 POP POP POP POP POP POP SWAP3 SWAP2 POP POP JUMP JUMPDEST PUSH1 0x40 MLOAD DUP1 PUSH1 0xA0 ADD PUSH1 0x40 MSTORE DUP1 PUSH2 0x176B PUSH2 0x179F JUMP JUMPDEST DUP2 MSTORE PUSH1 0x20 ADD PUSH2 0x1778 PUSH2 0x17FD JUMP JUMPDEST DUP2 MSTORE PUSH1 0x20 ADD PUSH2 0x1785 PUSH2 0x17FD JUMP JUMPDEST DUP2 MSTORE PUSH1 0x20 ADD PUSH2 0x1792 PUSH2 0x17FD JUMP JUMPDEST DUP2 MSTORE PUSH1 0x20 ADD PUSH1 0x60 DUP2 MSTORE POP SWAP1 JUMP JUMPDEST PUSH1 0x40 MLOAD DUP1 PUSH1 0x40 ADD PUSH1 0x40 MSTORE DUP1 PUSH1 0x0 DUP2 MSTORE PUSH1 0x20 ADD PUSH1 0x0 DUP2 MSTORE POP SWAP1 JUMP JUMPDEST PUSH1 0x40 MLOAD DUP1 PUSH1 0x60 ADD PUSH1 0x40 MSTORE DUP1 PUSH1 0x3 SWAP1 PUSH1 0x20 DUP3 MUL DUP1 CALLDATASIZE DUP4 CALLDATACOPY DUP1 DUP3 ADD SWAP2 POP POP SWAP1 POP POP SWAP1 JUMP JUMPDEST PUSH1 0x40 MLOAD DUP1 PUSH1 0x80 ADD PUSH1 0x40 MSTORE DUP1 PUSH1 0x4 SWAP1 PUSH1 0x20 DUP3 MUL DUP1 CALLDATASIZE DUP4 CALLDATACOPY DUP1 DUP3 ADD SWAP2 POP POP SWAP1 POP POP SWAP1 JUMP JUMPDEST PUSH1 0x40 MLOAD DUP1 PUSH1 0x40 ADD PUSH1 0x40 MSTORE DUP1 PUSH2 0x1810 PUSH2 0x1845 JUMP JUMPDEST DUP2 MSTORE PUSH1 0x20 ADD PUSH2 0x181D PUSH2 0x1845 JUMP JUMPDEST DUP2 MSTORE POP SWAP1 JUMP JUMPDEST PUSH1 0x40 MLOAD DUP1 PUSH1 0x20 ADD PUSH1 0x40 MSTORE DUP1 PUSH1 0x1 SWAP1 PUSH1 0x20 DUP3 MUL DUP1 CALLDATASIZE DUP4 CALLDATACOPY DUP1 DUP3 ADD SWAP2 POP POP SWAP1 POP POP SWAP1 JUMP JUMPDEST PUSH1 0x40 MLOAD DUP1 PUSH1 0x40 ADD PUSH1 0x40 MSTORE DUP1 PUSH1 0x2 SWAP1 PUSH1 0x20 DUP3 MUL DUP1 CALLDATASIZE DUP4 CALLDATACOPY DUP1 DUP3 ADD SWAP2 POP POP SWAP1 POP POP SWAP1 JUMP JUMPDEST PUSH1 0x0 PUSH1 0x40 MLOAD SWAP1 POP SWAP1 JUMP JUMPDEST PUSH1 0x0 DUP1 REVERT JUMPDEST PUSH1 0x0 DUP1 REVERT JUMPDEST PUSH1 0x0 PUSH1 0x1F NOT PUSH1 0x1F DUP4 ADD AND SWAP1 POP SWAP2 SWAP1 POP JUMP JUMPDEST PUSH32 0x4E487B7100000000000000000000000000000000000000000000000000000000 PUSH1 0x0 MSTORE PUSH1 0x41 PUSH1 0x4 MSTORE PUSH1 0x24 PUSH1 0x0 REVERT JUMPDEST PUSH2 0x18C4 DUP3 PUSH2 0x187B JUMP JUMPDEST DUP2 ADD DUP2 DUP2 LT PUSH8 0xFFFFFFFFFFFFFFFF DUP3 GT OR ISZERO PUSH2 0x18E3 JUMPI PUSH2 0x18E2 PUSH2 0x188C JUMP JUMPDEST JUMPDEST DUP1 PUSH1 0x40 MSTORE POP POP POP JUMP JUMPDEST PUSH1 0x0 PUSH2 0x18F6 PUSH2 0x1867 JUMP JUMPDEST SWAP1 POP PUSH2 0x1902 DUP3 DUP3 PUSH2 0x18BB JUMP JUMPDEST SWAP2 SWAP1 POP JUMP JUMPDEST PUSH1 0x0 DUP2 SWAP1 POP SWAP2 SWAP1 POP JUMP JUMPDEST PUSH2 0x191A DUP2 PUSH2 0x1907 JUMP JUMPDEST DUP2 EQ PUSH2 0x1925 JUMPI PUSH1 0x0 DUP1 REVERT JUMPDEST POP JUMP JUMPDEST PUSH1 0x0 DUP2 CALLDATALOAD SWAP1 POP PUSH2 0x1937 DUP2 PUSH2 0x1911 JUMP JUMPDEST SWAP3 SWAP2 POP POP JUMP JUMPDEST PUSH1 0x0 PUSH1 0x40 DUP3 DUP5 SUB SLT ISZERO PUSH2 0x1953 JUMPI PUSH2 0x1952 PUSH2 0x1876 JUMP JUMPDEST JUMPDEST PUSH2 0x195D PUSH1 0x40 PUSH2 0x18EC JUMP JUMPDEST SWAP1 POP PUSH1 0x0 PUSH2 0x196D DUP5 DUP3 DUP6 ADD PUSH2 0x1928 JUMP JUMPDEST PUSH1 0x0 DUP4 ADD MSTORE POP PUSH1 0x20 PUSH2 0x1981 DUP5 DUP3 DUP6 ADD PUSH2 0x1928 JUMP JUMPDEST PUSH1 0x20 DUP4 ADD MSTORE POP SWAP3 SWAP2 POP POP JUMP JUMPDEST PUSH1 0x0 DUP1 REVERT JUMPDEST PUSH1 0x0 PUSH8 0xFFFFFFFFFFFFFFFF DUP3 GT ISZERO PUSH2 0x19AD JUMPI PUSH2 0x19AC PUSH2 0x188C JUMP JUMPDEST JUMPDEST PUSH1 0x20 DUP3 MUL SWAP1 POP SWAP2 SWAP1 POP JUMP JUMPDEST PUSH1 0x0 DUP1 REVERT JUMPDEST PUSH1 0x0 PUSH2 0x19D0 PUSH2 0x19CB DUP5 PUSH2 0x1992 JUMP JUMPDEST PUSH2 0x18EC JUMP JUMPDEST SWAP1 POP DUP1 PUSH1 0x20 DUP5 MUL DUP4 ADD DUP6 DUP2 GT ISZERO PUSH2 0x19EA JUMPI PUSH2 0x19E9 PUSH2 0x19B8 JUMP JUMPDEST JUMPDEST DUP4 JUMPDEST DUP2 DUP2 LT ISZERO PUSH2 0x1A13 JUMPI DUP1 PUSH2 0x19FF DUP9 DUP3 PUSH2 0x1928 JUMP JUMPDEST DUP5 MSTORE PUSH1 0x20 DUP5 ADD SWAP4 POP POP PUSH1 0x20 DUP2 ADD SWAP1 POP PUSH2 0x19EC JUMP JUMPDEST POP POP POP SWAP4 SWAP3 POP POP POP JUMP JUMPDEST PUSH1 0x0 DUP3 PUSH1 0x1F DUP4 ADD SLT PUSH2 0x1A32 JUMPI PUSH2 0x1A31 PUSH2 0x198D JUMP JUMPDEST JUMPDEST PUSH1 0x2 PUSH2 0x1A3F DUP5 DUP3 DUP6 PUSH2 0x19BD JUMP JUMPDEST SWAP2 POP POP SWAP3 SWAP2 POP POP JUMP JUMPDEST PUSH1 0x0 PUSH1 0x80 DUP3 DUP5 SUB SLT ISZERO PUSH2 0x1A5E JUMPI PUSH2 0x1A5D PUSH2 0x1876 JUMP JUMPDEST JUMPDEST PUSH2 0x1A68 PUSH1 0x40 PUSH2 0x18EC JUMP JUMPDEST SWAP1 POP PUSH1 0x0 PUSH2 0x1A78 DUP5 DUP3 DUP6 ADD PUSH2 0x1A1D JUMP JUMPDEST PUSH1 0x0 DUP4 ADD MSTORE POP PUSH1 0x40 PUSH2 0x1A8C DUP5 DUP3 DUP6 ADD PUSH2 0x1A1D JUMP JUMPDEST PUSH1 0x20 DUP4 ADD MSTORE POP SWAP3 SWAP2 POP POP JUMP JUMPDEST PUSH1 0x0 PUSH2 0x100 DUP3 DUP5 SUB SLT ISZERO PUSH2 0x1AAF JUMPI PUSH2 0x1AAE PUSH2 0x1876 JUMP JUMPDEST JUMPDEST PUSH2 0x1AB9 PUSH1 0x60 PUSH2 0x18EC JUMP JUMPDEST SWAP1 POP PUSH1 0x0 PUSH2 0x1AC9 DUP5 DUP3 DUP6 ADD PUSH2 0x193D JUMP JUMPDEST PUSH1 0x0 DUP4 ADD MSTORE POP PUSH1 0x40 PUSH2 0x1ADD DUP5 DUP3 DUP6 ADD PUSH2 0x1A48 JUMP JUMPDEST PUSH1 0x20 DUP4 ADD MSTORE POP PUSH1 0xC0 PUSH2 0x1AF1 DUP5 DUP3 DUP6 ADD PUSH2 0x193D JUMP JUMPDEST PUSH1 0x40 DUP4 ADD MSTORE POP SWAP3 SWAP2 POP POP JUMP JUMPDEST PUSH1 0x0 PUSH8 0xFFFFFFFFFFFFFFFF DUP3 GT ISZERO PUSH2 0x1B18 JUMPI PUSH2 0x1B17 PUSH2 0x188C JUMP JUMPDEST JUMPDEST PUSH1 0x20 DUP3 MUL SWAP1 POP SWAP2 SWAP1 POP JUMP JUMPDEST PUSH1 0x0 PUSH2 0x1B36 PUSH2 0x1B31 DUP5 PUSH2 0x1AFD JUMP JUMPDEST PUSH2 0x18EC JUMP JUMPDEST SWAP1 POP DUP1 PUSH1 0x20 DUP5 MUL DUP4 ADD DUP6 DUP2 GT ISZERO PUSH2 0x1B50 JUMPI PUSH2 0x1B4F PUSH2 0x19B8 JUMP JUMPDEST JUMPDEST DUP4 JUMPDEST DUP2 DUP2 LT ISZERO PUSH2 0x1B79 JUMPI DUP1 PUSH2 0x1B65 DUP9 DUP3 PUSH2 0x1928 JUMP JUMPDEST DUP5 MSTORE PUSH1 0x20 DUP5 ADD SWAP4 POP POP PUSH1 0x20 DUP2 ADD SWAP1 POP PUSH2 0x1B52 JUMP JUMPDEST POP POP POP SWAP4 SWAP3 POP POP POP JUMP JUMPDEST PUSH1 0x0 DUP3 PUSH1 0x1F DUP4 ADD SLT PUSH2 0x1B98 JUMPI PUSH2 0x1B97 PUSH2 0x198D JUMP JUMPDEST JUMPDEST PUSH1 0x15 PUSH2 0x1BA5 DUP5 DUP3 DUP6 PUSH2 0x1B23 JUMP JUMPDEST SWAP2 POP POP SWAP3 SWAP2 POP POP JUMP JUMPDEST PUSH1 0x0 DUP1 PUSH2 0x3A0 DUP4 DUP6 SUB SLT ISZERO PUSH2 0x1BC6 JUMPI PUSH2 0x1BC5 PUSH2 0x1871 JUMP JUMPDEST JUMPDEST PUSH1 0x0 PUSH2 0x1BD4 DUP6 DUP3 DUP7 ADD PUSH2 0x1A98 JUMP JUMPDEST SWAP3 POP POP PUSH2 0x100 PUSH2 0x1BE6 DUP6 DUP3 DUP7 ADD PUSH2 0x1B83 JUMP JUMPDEST SWAP2 POP POP SWAP3 POP SWAP3 SWAP1 POP JUMP JUMPDEST PUSH1 0x0 DUP2 ISZERO ISZERO SWAP1 POP SWAP2 SWAP1 POP JUMP JUMPDEST PUSH2 0x1C05 DUP2 PUSH2 0x1BF0 JUMP JUMPDEST DUP3 MSTORE POP POP JUMP JUMPDEST PUSH1 0x0 PUSH1 0x20 DUP3 ADD SWAP1 POP PUSH2 0x1C20 PUSH1 0x0 DUP4 ADD DUP5 PUSH2 0x1BFC JUMP JUMPDEST SWAP3 SWAP2 POP POP JUMP JUMPDEST PUSH32 0x4E487B7100000000000000000000000000000000000000000000000000000000 PUSH1 0x0 MSTORE PUSH1 0x32 PUSH1 0x4 MSTORE PUSH1 0x24 PUSH1 0x0 REVERT JUMPDEST PUSH32 0x4E487B7100000000000000000000000000000000000000000000000000000000 PUSH1 0x0 MSTORE PUSH1 0x11 PUSH1 0x4 MSTORE PUSH1 0x24 PUSH1 0x0 REVERT JUMPDEST PUSH1 0x0 PUSH2 0x1C8F DUP3 PUSH2 0x1907 JUMP JUMPDEST SWAP2 POP PUSH32 0xFFFFFFFFFFFFFFFFFFFFFFFFFFFFFFFFFFFFFFFFFFFFFFFFFFFFFFFFFFFFFFFF DUP3 SUB PUSH2 0x1CC1 JUMPI PUSH2 0x1CC0 PUSH2 0x1C55 JUMP JUMPDEST JUMPDEST PUSH1 0x1 DUP3 ADD SWAP1 POP SWAP2 SWAP1 POP JUMP JUMPDEST PUSH1 0x0 PUSH2 0x1CD7 DUP3 PUSH2 0x1907 JUMP JUMPDEST SWAP2 POP PUSH2 0x1CE2 DUP4 PUSH2 0x1907 JUMP JUMPDEST SWAP3 POP DUP3 DUP3 ADD SWAP1 POP DUP1 DUP3 GT ISZERO PUSH2 0x1CFA JUMPI PUSH2 0x1CF9 PUSH2 0x1C55 JUMP JUMPDEST JUMPDEST SWAP3 SWAP2 POP POP JUMP JUMPDEST PUSH32 0x4E487B7100000000000000000000000000000000000000000000000000000000 PUSH1 0x0 MSTORE PUSH1 0x12 PUSH1 0x4 MSTORE PUSH1 0x24 PUSH1 0x0 REVERT JUMPDEST PUSH1 0x0 PUSH2 0x1D3A DUP3 PUSH2 0x1907 JUMP JUMPDEST SWAP2 POP PUSH2 0x1D45 DUP4 PUSH2 0x1907 JUMP JUMPDEST SWAP3 POP DUP3 PUSH2 0x1D55 JUMPI PUSH2 0x1D54 PUSH2 0x1D00 JUMP JUMPDEST JUMPDEST DUP3 DUP3 MOD SWAP1 POP SWAP3 SWAP2 POP POP JUMP JUMPDEST PUSH1 0x0 PUSH2 0x1D6B DUP3 PUSH2 0x1907 JUMP JUMPDEST SWAP2 POP PUSH2 0x1D76 DUP4 PUSH2 0x1907 JUMP JUMPDEST SWAP3 POP DUP3 DUP3 SUB SWAP1 POP DUP2 DUP2 GT ISZERO PUSH2 0x1D8E JUMPI PUSH2 0x1D8D PUSH2 0x1C55 JUMP JUMPDEST JUMPDEST SWAP3 SWAP2 POP POP JUMP JUMPDEST PUSH1 0x0 PUSH2 0x1D9F DUP3 PUSH2 0x1907 JUMP JUMPDEST SWAP2 POP PUSH2 0x1DAA DUP4 PUSH2 0x1907 JUMP JUMPDEST SWAP3 POP DUP3 DUP3 MUL PUSH2 0x1DB8 DUP2 PUSH2 0x1907 JUMP JUMPDEST SWAP2 POP DUP3 DUP3 DIV DUP5 EQ DUP4 ISZERO OR PUSH2 0x1DCF JUMPI PUSH2 0x1DCE PUSH2 0x1C55 JUMP JUMPDEST JUMPDEST POP SWAP3 SWAP2 POP POP JUMP INVALID LOG2 PUSH5 0x6970667358 0x22 SLT KECCAK256 BLOCKHASH CALLCODE DUP3 PUSH19 0xF7E17121B0B4C783C8BA60CBE92E55CBF1F063 0x2F 0xBE MLOAD DUP5 SWAP10 SWAP16 SUB 0xDE PUSH18 0x64736F6C6343000811003300000000000000 "},"methodIdentifiers":{"verifyTx(((uint256,uint256),(uint256[2],uint256[2]),(uint256,uint256)),uint256[21])":"c7f02130"}}}}}