{
  "_format": "hh-sol-artifact-1",
  "contractName": "ProofOfCountry",
  "sourceName": "contracts/proofOfResidency.verifier.sol",
  "abi": [
    {
      "inputs": [
        {
          "components": [
            {
              "components": [
                {
                  "internalType": "uint256",
                  "name": "X",
                  "type": "uint256"
                },
                {
                  "internalType": "uint256",
                  "name": "Y",
                  "type": "uint256"
                }
              ],
              "internalType": "struct Pairing.G1Point",
              "name": "a",
              "type": "tuple"
            },
            {
              "components": [
                {
                  "internalType": "uint256[2]",
                  "name": "X",
                  "type": "uint256[2]"
                },
                {
                  "internalType": "uint256[2]",
                  "name": "Y",
                  "type": "uint256[2]"
                }
              ],
              "internalType": "struct Pairing.G2Point",
              "name": "b",
              "type": "tuple"
            },
            {
              "components": [
                {
                  "internalType": "uint256",
                  "name": "X",
                  "type": "uint256"
                },
                {
                  "internalType": "uint256",
                  "name": "Y",
                  "type": "uint256"
                }
              ],
              "internalType": "struct Pairing.G1Point",
              "name": "c",
              "type": "tuple"
            }
          ],
          "internalType": "struct Proof",
          "name": "proof",
          "type": "tuple"
        },
        {
          "internalType": "uint256[]",
          "name": "input_",
          "type": "uint256[]"
        }
      ],
      "name": "verifyEncoded",
      "outputs": [
        {
          "internalType": "bool",
          "name": "r",
          "type": "bool"
        }
      ],
      "stateMutability": "view",
      "type": "function"
    },
    {
      "inputs": [
        {
          "components": [
            {
              "components": [
                {
                  "internalType": "uint256",
                  "name": "X",
                  "type": "uint256"
                },
                {
                  "internalType": "uint256",
                  "name": "Y",
                  "type": "uint256"
                }
              ],
              "internalType": "struct Pairing.G1Point",
              "name": "a",
              "type": "tuple"
            },
            {
              "components": [
                {
                  "internalType": "uint256[2]",
                  "name": "X",
                  "type": "uint256[2]"
                },
                {
                  "internalType": "uint256[2]",
                  "name": "Y",
                  "type": "uint256[2]"
                }
              ],
              "internalType": "struct Pairing.G2Point",
              "name": "b",
              "type": "tuple"
            },
            {
              "components": [
                {
                  "internalType": "uint256",
                  "name": "X",
                  "type": "uint256"
                },
                {
                  "internalType": "uint256",
                  "name": "Y",
                  "type": "uint256"
                }
              ],
              "internalType": "struct Pairing.G1Point",
              "name": "c",
              "type": "tuple"
            }
          ],
          "internalType": "struct Proof",
          "name": "proof",
          "type": "tuple"
        },
        {
          "internalType": "uint256[6]",
          "name": "input",
          "type": "uint256[6]"
        }
      ],
      "name": "verifyTx",
      "outputs": [
        {
          "internalType": "bool",
          "name": "r",
          "type": "bool"
        }
      ],
      "stateMutability": "view",
      "type": "function"
    }
  ],
  "bytecode": "0x608060405234801561001057600080fd5b506118fc806100206000396000f3fe608060405234801561001057600080fd5b50600436106100365760003560e01c806301ec14631461003b578063ba21f38e1461006b575b600080fd5b6100556004803603810190610050919061158e565b61009b565b60405161006291906115eb565b60405180910390f35b61008560048036038101906100809190611686565b610168565b60405161009291906115eb565b60405180910390f35b600080600667ffffffffffffffff8111156100b9576100b861126c565b5b6040519080825280602002602001820160405280156100e75781602001602082028036833780820191505090505b50905060005b600681101561014057838160068110610109576101086116e8565b5b6020020151828281518110610121576101206116e8565b5b602002602001018181525050808061013890611746565b9150506100ed565b50600061014d82866101ec565b0361015c576001915050610162565b60009150505b92915050565b6000610172611111565b60005b60068110156101c757848482818110610191576101906116e8565b5b905060200201358282600681106101ab576101aa6116e8565b5b60200201818152505080806101bf90611746565b915050610175565b506101e2858036038101906101dc919061178e565b8261009b565b9150509392505050565b6000807f30644e72e131a029b85045b68181585d2833e84879b9709143e1f593f00000019050600061021c610383565b90508060800151516001865161023291906117bc565b1461023c57600080fd5b60006040518060400160405280600081526020016000815250905060005b86518110156102f55783878281518110610277576102766116e8565b5b60200260200101511061028957600080fd5b6102e0826102db85608001516001856102a291906117bc565b815181106102b3576102b26116e8565b5b60200260200101518a85815181106102ce576102cd6116e8565b5b60200260200101516109df565b610a81565b915080806102ed90611746565b91505061025a565b5061031f818360800151600081518110610312576103116116e8565b5b6020026020010151610a81565b90506103658560000151866020015161033784610b49565b85604001516103498a60400151610b49565b876060015161035b8960000151610b49565b8960200151610bee565b610375576001935050505061037d565b600093505050505b92915050565b61038b611133565b60405180604001604052807f1dcfbcc68c706725d95cae80087f4f803f7c628fd2ebed0c8d8f1c08efb000a281526020017f1db5c895af5af97da17f06a993745f82dc6c3f43b862de01bb499821a2f07f7f8152508160000181905250604051806040016040528060405180604001604052807f14595f61ba4aede46e251c87d00e8f5ddd659e3a94f14212cabd8642e28f03b781526020017f2ad520f86f05f729da4c87a6732a2b73b5594f54a3433ddbf9329a859717e893815250815260200160405180604001604052807f12966aef85fa2cb49ba6c72aaf3b519a909369085de41a7a10db36f6aee9a33381526020017f2b2aa977f11a4b1d2fa1b43487a3b348fb78658b4948628ae8a0c77a273096078152508152508160200181905250604051806040016040528060405180604001604052807f0e646c79b92eb81e771a8beedcf750922d68c4cae6e674f28386f05db695f08781526020017f2f32db257bd38e510b2c46905bf42ee017eb8dd3736ecf94a63ee388e9dcf7c6815250815260200160405180604001604052807f2bced1358c17d910723e709aefed3c3b9c127401fbb5b8196023af37eb6924a681526020017f200c899f19599e02ee93c8287a7120147c6f8e001e9c7f7e5c643fce1a2aa94a8152508152508160400181905250604051806040016040528060405180604001604052807f1116bc1932e65897160357ba10be9222ec1e34adffa8b8c9182b60cac775244681526020017f207f45a790597c02fd21413d5d9ed6bd4b633c18ead06295fe9a8b93562380d2815250815260200160405180604001604052807f05de54e825005fa8bf89ded4db3448d013c2faa95f3e14e4f502ebb076b6ec4281526020017f04a769b3533c1f4394d7523639a81fb549d0f086313f93b605ada17b0d7aeaf58152508152508160600181905250600767ffffffffffffffff8111156106525761065161126c565b5b60405190808252806020026020018201604052801561068b57816020015b61067861117a565b8152602001906001900390816106705790505b50816080018190525060405180604001604052807f0a0b29d53e75e2681c6cf103f088f351971c06a78c1af4c2c3fad558bd480aba81526020017f014db04b3e5fbbd59699890460efd29b5df2491dcade336ed9e58f1920c9b0918152508160800151600081518110610701576107006116e8565b5b602002602001018190525060405180604001604052807f0ab0d26e0b44acc3f6166a737f25c6b594f8ee0550b0b774a5fc1a9b1c90c2e581526020017f2be4d4802073c03ab7a5160c0f1bfef2f1c8fb0ecfb61c2a2ddfa0f1d64b98f28152508160800151600181518110610779576107786116e8565b5b602002602001018190525060405180604001604052807f08539b6e4fa48392fa14e89394f52ff8ca375c23103bfc6f78af24152666cc5781526020017f16099e7289a9f2539a9d5abe3665ffaf7236de57ccb24cdff3e4cb804770919881525081608001516002815181106107f1576107f06116e8565b5b602002602001018190525060405180604001604052807f21e5733b57484e09646f512c1c0d95c6670d6701c7540b9487f4f08723c19bb881526020017f11fb6e9d01ab0f58928f40f21da7beee62943aa3c2c5490100ffb6a09d8ce2e58152508160800151600381518110610869576108686116e8565b5b602002602001018190525060405180604001604052807f1ea9366f1bee313ec9786dc19facf5dccf3e47e23d9477e274b377e4272bceda81526020017f13b1db8802d9fc947ad2ab6ffce35e3e9b147ce6a79760886cefb4e9e4b0212e81525081608001516004815181106108e1576108e06116e8565b5b602002602001018190525060405180604001604052807f186067a849502f2e7ce583156758d2aa6d10b98638374d897bd0ab1438f3e45d81526020017f2b777f559e2f11fe20903a6b6fe5808a73c93e278effadaad217701caae970638152508160800151600581518110610959576109586116e8565b5b602002602001018190525060405180604001604052807f151caaf5340893a1c7e92b6fcaa315046b38a29e5904b7f31088994a6554cf4781526020017f04ccd8e7e9a8637873c3fc75ae69afa761886cec6e78675f391ed008c20a008381525081608001516006815181106109d1576109d06116e8565b5b602002602001018190525090565b6109e761117a565b6109ef611194565b836000015181600060038110610a0857610a076116e8565b5b602002018181525050836020015181600160038110610a2a57610a296116e8565b5b6020020181815250508281600260038110610a4857610a476116e8565b5b602002018181525050600060608360808460076107d05a03fa90508060008103610a6e57fe5b5080610a7957600080fd5b505092915050565b610a8961117a565b610a916111b6565b836000015181600060048110610aaa57610aa96116e8565b5b602002018181525050836020015181600160048110610acc57610acb6116e8565b5b602002018181525050826000015181600260048110610aee57610aed6116e8565b5b602002018181525050826020015181600360048110610b1057610b0f6116e8565b5b602002018181525050600060608360c08460066107d05a03fa90508060008103610b3657fe5b5080610b4157600080fd5b505092915050565b610b5161117a565b60007f30644e72e131a029b85045b68181585d97816a916871ca8d3c208c16d87cfd47905060008360000151148015610b8e575060008360200151145b15610bb2576040518060400160405280600081526020016000815250915050610be9565b604051806040016040528084600001518152602001828560200151610bd7919061181f565b83610be29190611850565b8152509150505b919050565b600080600467ffffffffffffffff811115610c0c57610c0b61126c565b5b604051908082528060200260200182016040528015610c4557816020015b610c3261117a565b815260200190600190039081610c2a5790505b5090506000600467ffffffffffffffff811115610c6557610c6461126c565b5b604051908082528060200260200182016040528015610c9e57816020015b610c8b6111d8565b815260200190600190039081610c835790505b5090508a82600081518110610cb657610cb56116e8565b5b60200260200101819052508882600181518110610cd657610cd56116e8565b5b60200260200101819052508682600281518110610cf657610cf56116e8565b5b60200260200101819052508482600381518110610d1657610d156116e8565b5b60200260200101819052508981600081518110610d3657610d356116e8565b5b60200260200101819052508781600181518110610d5657610d556116e8565b5b60200260200101819052508581600281518110610d7657610d756116e8565b5b60200260200101819052508381600381518110610d9657610d956116e8565b5b6020026020010181905250610dab8282610dbb565b9250505098975050505050505050565b60008151835114610dcb57600080fd5b6000835190506000600682610de09190611884565b905060008167ffffffffffffffff811115610dfe57610dfd61126c565b5b604051908082528060200260200182016040528015610e2c5781602001602082028036833780820191505090505b50905060005b838110156110b157868181518110610e4d57610e4c6116e8565b5b602002602001015160000151826000600684610e699190611884565b610e7391906117bc565b81518110610e8457610e836116e8565b5b602002602001018181525050868181518110610ea357610ea26116e8565b5b602002602001015160200151826001600684610ebf9190611884565b610ec991906117bc565b81518110610eda57610ed96116e8565b5b602002602001018181525050858181518110610ef957610ef86116e8565b5b602002602001015160000151600160028110610f1857610f176116e8565b5b6020020151826002600684610f2d9190611884565b610f3791906117bc565b81518110610f4857610f476116e8565b5b602002602001018181525050858181518110610f6757610f666116e8565b5b602002602001015160000151600060028110610f8657610f856116e8565b5b6020020151826003600684610f9b9190611884565b610fa591906117bc565b81518110610fb657610fb56116e8565b5b602002602001018181525050858181518110610fd557610fd46116e8565b5b602002602001015160200151600160028110610ff457610ff36116e8565b5b60200201518260046006846110099190611884565b61101391906117bc565b81518110611024576110236116e8565b5b602002602001018181525050858181518110611043576110426116e8565b5b602002602001015160200151600060028110611062576110616116e8565b5b60200201518260056006846110779190611884565b61108191906117bc565b81518110611092576110916116e8565b5b60200260200101818152505080806110a990611746565b915050610e32565b506110ba6111fe565b6000602082602086026020860160086107d05a03fa905080600081036110dc57fe5b50806110e757600080fd5b6000826000600181106110fd576110fc6116e8565b5b602002015114159550505050505092915050565b6040518060c00160405280600690602082028036833780820191505090505090565b6040518060a0016040528061114661117a565b81526020016111536111d8565b81526020016111606111d8565b815260200161116d6111d8565b8152602001606081525090565b604051806040016040528060008152602001600081525090565b6040518060600160405280600390602082028036833780820191505090505090565b6040518060800160405280600490602082028036833780820191505090505090565b60405180604001604052806111eb611220565b81526020016111f8611220565b81525090565b6040518060200160405280600190602082028036833780820191505090505090565b6040518060400160405280600290602082028036833780820191505090505090565b6000604051905090565b600080fd5b600080fd5b600080fd5b6000601f19601f8301169050919050565b7f4e487b7100000000000000000000000000000000000000000000000000000000600052604160045260246000fd5b6112a48261125b565b810181811067ffffffffffffffff821117156112c3576112c261126c565b5b80604052505050565b60006112d6611242565b90506112e2828261129b565b919050565b6000819050919050565b6112fa816112e7565b811461130557600080fd5b50565b600081359050611317816112f1565b92915050565b60006040828403121561133357611332611256565b5b61133d60406112cc565b9050600061134d84828501611308565b600083015250602061136184828501611308565b60208301525092915050565b600080fd5b600067ffffffffffffffff82111561138d5761138c61126c565b5b602082029050919050565b600080fd5b60006113b06113ab84611372565b6112cc565b905080602084028301858111156113ca576113c9611398565b5b835b818110156113f357806113df8882611308565b8452602084019350506020810190506113cc565b5050509392505050565b600082601f8301126114125761141161136d565b5b600261141f84828561139d565b91505092915050565b60006080828403121561143e5761143d611256565b5b61144860406112cc565b90506000611458848285016113fd565b600083015250604061146c848285016113fd565b60208301525092915050565b6000610100828403121561148f5761148e611256565b5b61149960606112cc565b905060006114a98482850161131d565b60008301525060406114bd84828501611428565b60208301525060c06114d18482850161131d565b60408301525092915050565b600067ffffffffffffffff8211156114f8576114f761126c565b5b602082029050919050565b6000611516611511846114dd565b6112cc565b905080602084028301858111156115305761152f611398565b5b835b8181101561155957806115458882611308565b845260208401935050602081019050611532565b5050509392505050565b600082601f8301126115785761157761136d565b5b6006611585848285611503565b91505092915050565b6000806101c083850312156115a6576115a561124c565b5b60006115b485828601611478565b9250506101006115c685828601611563565b9150509250929050565b60008115159050919050565b6115e5816115d0565b82525050565b600060208201905061160060008301846115dc565b92915050565b600080fd5b6000610100828403121561162257611621611606565b5b81905092915050565b600080fd5b60008083601f8401126116465761164561136d565b5b8235905067ffffffffffffffff8111156116635761166261162b565b5b60208301915083602082028301111561167f5761167e611398565b5b9250929050565b600080600061012084860312156116a05761169f61124c565b5b60006116ae8682870161160b565b93505061010084013567ffffffffffffffff8111156116d0576116cf611251565b5b6116dc86828701611630565b92509250509250925092565b7f4e487b7100000000000000000000000000000000000000000000000000000000600052603260045260246000fd5b7f4e487b7100000000000000000000000000000000000000000000000000000000600052601160045260246000fd5b6000611751826112e7565b91507fffffffffffffffffffffffffffffffffffffffffffffffffffffffffffffffff820361178357611782611717565b5b600182019050919050565b600061010082840312156117a5576117a461124c565b5b60006117b384828501611478565b91505092915050565b60006117c7826112e7565b91506117d2836112e7565b92508282019050808211156117ea576117e9611717565b5b92915050565b7f4e487b7100000000000000000000000000000000000000000000000000000000600052601260045260246000fd5b600061182a826112e7565b9150611835836112e7565b925082611845576118446117f0565b5b828206905092915050565b600061185b826112e7565b9150611866836112e7565b925082820390508181111561187e5761187d611717565b5b92915050565b600061188f826112e7565b915061189a836112e7565b92508282026118a8816112e7565b915082820484148315176118bf576118be611717565b5b509291505056fea26469706673582212205c8e6ced31e66b606ef4cae5791d4f7cc3b8cbeb98a1c48c1d2665a784051a7164736f6c63430008110033",
  "linkReferences": {},
  "deployedLinkReferences": {}
}