{
  "_format": "hh-sol-artifact-1",
  "contractName": "QuinaryMerkleProof",
  "sourceName": "contracts/quinaryMerkleProof.verifier.sol",
  "abi": [
    {
      "inputs": [
        {
          "components": [
            {
              "components": [
                {
                  "internalType": "uint256",
                  "name": "X",
                  "type": "uint256"
                },
                {
                  "internalType": "uint256",
                  "name": "Y",
                  "type": "uint256"
                }
              ],
              "internalType": "struct Pairing.G1Point",
              "name": "a",
              "type": "tuple"
            },
            {
              "components": [
                {
                  "internalType": "uint256[2]",
                  "name": "X",
                  "type": "uint256[2]"
                },
                {
                  "internalType": "uint256[2]",
                  "name": "Y",
                  "type": "uint256[2]"
                }
              ],
              "internalType": "struct Pairing.G2Point",
              "name": "b",
              "type": "tuple"
            },
            {
              "components": [
                {
                  "internalType": "uint256",
                  "name": "X",
                  "type": "uint256"
                },
                {
                  "internalType": "uint256",
                  "name": "Y",
                  "type": "uint256"
                }
              ],
              "internalType": "struct Pairing.G1Point",
              "name": "c",
              "type": "tuple"
            }
          ],
          "internalType": "struct Proof",
          "name": "proof",
          "type": "tuple"
        },
        {
          "internalType": "uint256[]",
          "name": "input_",
          "type": "uint256[]"
        }
      ],
      "name": "verifyEncoded",
      "outputs": [
        {
          "internalType": "bool",
          "name": "r",
          "type": "bool"
        }
      ],
      "stateMutability": "view",
      "type": "function"
    },
    {
      "inputs": [
        {
          "components": [
            {
              "components": [
                {
                  "internalType": "uint256",
                  "name": "X",
                  "type": "uint256"
                },
                {
                  "internalType": "uint256",
                  "name": "Y",
                  "type": "uint256"
                }
              ],
              "internalType": "struct Pairing.G1Point",
              "name": "a",
              "type": "tuple"
            },
            {
              "components": [
                {
                  "internalType": "uint256[2]",
                  "name": "X",
                  "type": "uint256[2]"
                },
                {
                  "internalType": "uint256[2]",
                  "name": "Y",
                  "type": "uint256[2]"
                }
              ],
              "internalType": "struct Pairing.G2Point",
              "name": "b",
              "type": "tuple"
            },
            {
              "components": [
                {
                  "internalType": "uint256",
                  "name": "X",
                  "type": "uint256"
                },
                {
                  "internalType": "uint256",
                  "name": "Y",
                  "type": "uint256"
                }
              ],
              "internalType": "struct Pairing.G1Point",
              "name": "c",
              "type": "tuple"
            }
          ],
          "internalType": "struct Proof",
          "name": "proof",
          "type": "tuple"
        },
        {
          "internalType": "uint256[2]",
          "name": "input",
          "type": "uint256[2]"
        }
      ],
      "name": "verifyTx",
      "outputs": [
        {
          "internalType": "bool",
          "name": "r",
          "type": "bool"
        }
      ],
      "stateMutability": "view",
      "type": "function"
    }
  ],
  "bytecode": "0x608060405234801561001057600080fd5b50611648806100206000396000f3fe608060405234801561001057600080fd5b50600436106100365760003560e01c806343cd76fc1461003b578063ba21f38e1461006b575b600080fd5b610055600480360381019061005091906112da565b61009b565b6040516100629190611337565b60405180910390f35b610085600480360381019061008091906113d2565b610168565b6040516100929190611337565b60405180910390f35b600080600267ffffffffffffffff8111156100b9576100b8611069565b5b6040519080825280602002602001820160405280156100e75781602001602082028036833780820191505090505b50905060005b60028110156101405783816002811061010957610108611434565b5b602002015182828151811061012157610120611434565b5b602002602001018181525050808061013890611492565b9150506100ed565b50600061014d82866101ec565b0361015c576001915050610162565b60009150505b92915050565b6000610172610f30565b60005b60028110156101c75784848281811061019157610190611434565b5b905060200201358282600281106101ab576101aa611434565b5b60200201818152505080806101bf90611492565b915050610175565b506101e2858036038101906101dc91906114da565b8261009b565b9150509392505050565b6000807f30644e72e131a029b85045b68181585d2833e84879b9709143e1f593f00000019050600061021c610383565b9050806080015151600186516102329190611508565b1461023c57600080fd5b60006040518060400160405280600081526020016000815250905060005b86518110156102f5578387828151811061027757610276611434565b5b60200260200101511061028957600080fd5b6102e0826102db85608001516001856102a29190611508565b815181106102b3576102b2611434565b5b60200260200101518a85815181106102ce576102cd611434565b5b60200260200101516107fe565b6108a0565b915080806102ed90611492565b91505061025a565b5061031f81836080015160008151811061031257610311611434565b5b60200260200101516108a0565b90506103658560000151866020015161033784610968565b85604001516103498a60400151610968565b876060015161035b8960000151610968565b8960200151610a0d565b610375576001935050505061037d565b600093505050505b92915050565b61038b610f52565b60405180604001604052807f16cc177ccf780ed9a55fbe9b6b97d92cce57ed557ad04d0bfa5e7da586fa38cf81526020017f1a37f68b291d664cb1bf2409b20b40003bdc72cfb3bba3b467d180ebdd653eff8152508160000181905250604051806040016040528060405180604001604052807f05022ffecd6893ebc202b0de9f1360f483d5bc7b6391116ef9c548821f9e72b081526020017f153e0ddd02880f4b27a2f9715dbffd902cb34d4b77a225a942c63c031b8f5dde815250815260200160405180604001604052807f152aa557bb042003a1b3078d2591b5d4da02cce99b25ec986f9add8ba930bcb281526020017f2b5e710aff538583cab64dbe160004b552e6b4f37911d24ad4db063b6c99f4378152508152508160200181905250604051806040016040528060405180604001604052807f187478128eb6857346eb544a19b9b4cc09b96ba908ede39224cf778eeb1667d781526020017f08d8184752ffc9952a4ed5af99f65fedb255b7e92303dd32f833fdd2ca1f2485815250815260200160405180604001604052807f2a9991df7388ebe8e12ea47ac248819a3461459388dd28b0b39f73a592ddd8f681526020017f2aa454db3370ea4189603596958067041e3f29e7587c910007b5a19d08e649428152508152508160400181905250604051806040016040528060405180604001604052807e96ffbc8e451d21c4b210cec41258423ed84b7456b0367d2e022f3ef310f26681526020017f1c5ef64ce6c9c488dd0c35c033b4d210895c06a4799bd67fea2873db32486ae4815250815260200160405180604001604052807f25ea0a8a2803ccc7514a8a1456db1bec11cd0946af4e68bbb8ae0fe620ec470181526020017f13913551597c343326226913a2d00e5b96a10f454e625216375b2d9ee5920bed8152508152508160600181905250600367ffffffffffffffff81111561065157610650611069565b5b60405190808252806020026020018201604052801561068a57816020015b610677610f99565b81526020019060019003908161066f5790505b50816080018190525060405180604001604052807f2d63261fb6e9a0d3cbe1a46168778f26d9a3e0c011fe42b8ead4e7b0d70d51df81526020017f23fb61b10009704b560c49c197215721cac282426bdb1dd3de9ff99538b4ad638152508160800151600081518110610700576106ff611434565b5b602002602001018190525060405180604001604052807f14ed3e92b5d27d090e132cc526e6f3cb4e225aae62c91eabcdcfdc2b4bbe56ee81526020017f0d442f9b5e4d614ae2e17d8b96a678697cab0715186737c3dedbf8b8040e6f41815250816080015160018151811061077857610777611434565b5b602002602001018190525060405180604001604052807f0c535aa4ad99d1b5450144133cb93e14e30987404dbc36fca8e79fab03be5e7181526020017f046a538db898a99bc7a3144d34110dbc322ac967ee98ad2f47b6df7efbe403fd81525081608001516002815181106107f0576107ef611434565b5b602002602001018190525090565b610806610f99565b61080e610fb3565b83600001518160006003811061082757610826611434565b5b60200201818152505083602001518160016003811061084957610848611434565b5b602002018181525050828160026003811061086757610866611434565b5b602002018181525050600060608360808460076107d05a03fa9050806000810361088d57fe5b508061089857600080fd5b505092915050565b6108a8610f99565b6108b0610fd5565b8360000151816000600481106108c9576108c8611434565b5b6020020181815250508360200151816001600481106108eb576108ea611434565b5b60200201818152505082600001518160026004811061090d5761090c611434565b5b60200201818152505082602001518160036004811061092f5761092e611434565b5b602002018181525050600060608360c08460066107d05a03fa9050806000810361095557fe5b508061096057600080fd5b505092915050565b610970610f99565b60007f30644e72e131a029b85045b68181585d97816a916871ca8d3c208c16d87cfd479050600083600001511480156109ad575060008360200151145b156109d1576040518060400160405280600081526020016000815250915050610a08565b6040518060400160405280846000015181526020018285602001516109f6919061156b565b83610a01919061159c565b8152509150505b919050565b600080600467ffffffffffffffff811115610a2b57610a2a611069565b5b604051908082528060200260200182016040528015610a6457816020015b610a51610f99565b815260200190600190039081610a495790505b5090506000600467ffffffffffffffff811115610a8457610a83611069565b5b604051908082528060200260200182016040528015610abd57816020015b610aaa610ff7565b815260200190600190039081610aa25790505b5090508a82600081518110610ad557610ad4611434565b5b60200260200101819052508882600181518110610af557610af4611434565b5b60200260200101819052508682600281518110610b1557610b14611434565b5b60200260200101819052508482600381518110610b3557610b34611434565b5b60200260200101819052508981600081518110610b5557610b54611434565b5b60200260200101819052508781600181518110610b7557610b74611434565b5b60200260200101819052508581600281518110610b9557610b94611434565b5b60200260200101819052508381600381518110610bb557610bb4611434565b5b6020026020010181905250610bca8282610bda565b9250505098975050505050505050565b60008151835114610bea57600080fd5b6000835190506000600682610bff91906115d0565b905060008167ffffffffffffffff811115610c1d57610c1c611069565b5b604051908082528060200260200182016040528015610c4b5781602001602082028036833780820191505090505b50905060005b83811015610ed057868181518110610c6c57610c6b611434565b5b602002602001015160000151826000600684610c8891906115d0565b610c929190611508565b81518110610ca357610ca2611434565b5b602002602001018181525050868181518110610cc257610cc1611434565b5b602002602001015160200151826001600684610cde91906115d0565b610ce89190611508565b81518110610cf957610cf8611434565b5b602002602001018181525050858181518110610d1857610d17611434565b5b602002602001015160000151600160028110610d3757610d36611434565b5b6020020151826002600684610d4c91906115d0565b610d569190611508565b81518110610d6757610d66611434565b5b602002602001018181525050858181518110610d8657610d85611434565b5b602002602001015160000151600060028110610da557610da4611434565b5b6020020151826003600684610dba91906115d0565b610dc49190611508565b81518110610dd557610dd4611434565b5b602002602001018181525050858181518110610df457610df3611434565b5b602002602001015160200151600160028110610e1357610e12611434565b5b6020020151826004600684610e2891906115d0565b610e329190611508565b81518110610e4357610e42611434565b5b602002602001018181525050858181518110610e6257610e61611434565b5b602002602001015160200151600060028110610e8157610e80611434565b5b6020020151826005600684610e9691906115d0565b610ea09190611508565b81518110610eb157610eb0611434565b5b6020026020010181815250508080610ec890611492565b915050610c51565b50610ed961101d565b6000602082602086026020860160086107d05a03fa90508060008103610efb57fe5b5080610f0657600080fd5b600082600060018110610f1c57610f1b611434565b5b602002015114159550505050505092915050565b6040518060400160405280600290602082028036833780820191505090505090565b6040518060a00160405280610f65610f99565b8152602001610f72610ff7565b8152602001610f7f610ff7565b8152602001610f8c610ff7565b8152602001606081525090565b604051806040016040528060008152602001600081525090565b6040518060600160405280600390602082028036833780820191505090505090565b6040518060800160405280600490602082028036833780820191505090505090565b604051806040016040528061100a610f30565b8152602001611017610f30565b81525090565b6040518060200160405280600190602082028036833780820191505090505090565b6000604051905090565b600080fd5b600080fd5b600080fd5b6000601f19601f8301169050919050565b7f4e487b7100000000000000000000000000000000000000000000000000000000600052604160045260246000fd5b6110a182611058565b810181811067ffffffffffffffff821117156110c0576110bf611069565b5b80604052505050565b60006110d361103f565b90506110df8282611098565b919050565b6000819050919050565b6110f7816110e4565b811461110257600080fd5b50565b600081359050611114816110ee565b92915050565b6000604082840312156111305761112f611053565b5b61113a60406110c9565b9050600061114a84828501611105565b600083015250602061115e84828501611105565b60208301525092915050565b600080fd5b600067ffffffffffffffff82111561118a57611189611069565b5b602082029050919050565b600080fd5b60006111ad6111a88461116f565b6110c9565b905080602084028301858111156111c7576111c6611195565b5b835b818110156111f057806111dc8882611105565b8452602084019350506020810190506111c9565b5050509392505050565b600082601f83011261120f5761120e61116a565b5b600261121c84828561119a565b91505092915050565b60006080828403121561123b5761123a611053565b5b61124560406110c9565b90506000611255848285016111fa565b6000830152506040611269848285016111fa565b60208301525092915050565b6000610100828403121561128c5761128b611053565b5b61129660606110c9565b905060006112a68482850161111a565b60008301525060406112ba84828501611225565b60208301525060c06112ce8482850161111a565b60408301525092915050565b60008061014083850312156112f2576112f1611049565b5b600061130085828601611275565b925050610100611312858286016111fa565b9150509250929050565b60008115159050919050565b6113318161131c565b82525050565b600060208201905061134c6000830184611328565b92915050565b600080fd5b6000610100828403121561136e5761136d611352565b5b81905092915050565b600080fd5b60008083601f8401126113925761139161116a565b5b8235905067ffffffffffffffff8111156113af576113ae611377565b5b6020830191508360208202830111156113cb576113ca611195565b5b9250929050565b600080600061012084860312156113ec576113eb611049565b5b60006113fa86828701611357565b93505061010084013567ffffffffffffffff81111561141c5761141b61104e565b5b6114288682870161137c565b92509250509250925092565b7f4e487b7100000000000000000000000000000000000000000000000000000000600052603260045260246000fd5b7f4e487b7100000000000000000000000000000000000000000000000000000000600052601160045260246000fd5b600061149d826110e4565b91507fffffffffffffffffffffffffffffffffffffffffffffffffffffffffffffffff82036114cf576114ce611463565b5b600182019050919050565b600061010082840312156114f1576114f0611049565b5b60006114ff84828501611275565b91505092915050565b6000611513826110e4565b915061151e836110e4565b925082820190508082111561153657611535611463565b5b92915050565b7f4e487b7100000000000000000000000000000000000000000000000000000000600052601260045260246000fd5b6000611576826110e4565b9150611581836110e4565b9250826115915761159061153c565b5b828206905092915050565b60006115a7826110e4565b91506115b2836110e4565b92508282039050818111156115ca576115c9611463565b5b92915050565b60006115db826110e4565b91506115e6836110e4565b92508282026115f4816110e4565b9150828204841483151761160b5761160a611463565b5b509291505056fea26469706673582212204ac21e0e6d7e07bdfef4ef868e1f8ea2ad2971940e13fc58161bcd6ae8f368b064736f6c63430008110033",
  "linkReferences": {},
  "deployedLinkReferences": {}
}