{
  "_format": "hh-sol-artifact-1",
  "contractName": "AssertLeafFromAddressVerifier",
  "sourceName": "contracts/AssertLeafFromAddressVerifier.sol",
  "abi": [
    {
      "inputs": [
        {
          "components": [
            {
              "components": [
                {
                  "internalType": "uint256",
                  "name": "X",
                  "type": "uint256"
                },
                {
                  "internalType": "uint256",
                  "name": "Y",
                  "type": "uint256"
                }
              ],
              "internalType": "struct Pairing.G1Point",
              "name": "a",
              "type": "tuple"
            },
            {
              "components": [
                {
                  "internalType": "uint256[2]",
                  "name": "X",
                  "type": "uint256[2]"
                },
                {
                  "internalType": "uint256[2]",
                  "name": "Y",
                  "type": "uint256[2]"
                }
              ],
              "internalType": "struct Pairing.G2Point",
              "name": "b",
              "type": "tuple"
            },
            {
              "components": [
                {
                  "internalType": "uint256",
                  "name": "X",
                  "type": "uint256"
                },
                {
                  "internalType": "uint256",
                  "name": "Y",
                  "type": "uint256"
                }
              ],
              "internalType": "struct Pairing.G1Point",
              "name": "c",
              "type": "tuple"
            }
          ],
          "internalType": "struct Proof",
          "name": "proof",
          "type": "tuple"
        },
        {
          "internalType": "uint256[13]",
          "name": "input",
          "type": "uint256[13]"
        }
      ],
      "name": "verifyTx",
      "outputs": [
        {
          "internalType": "bool",
          "name": "r",
          "type": "bool"
        }
      ],
      "stateMutability": "view",
      "type": "function"
    }
  ],
  "bytecode": "0x608060405234801561001057600080fd5b50611a4d806100206000396000f3fe608060405234801561001057600080fd5b506004361061002b5760003560e01c806382ae4ae214610030575b600080fd5b61004a600480360381019061004591906117ef565b610060565b604051610057919061184c565b60405180910390f35b600080600d67ffffffffffffffff81111561007e5761007d6114cd565b5b6040519080825280602002602001820160405280156100ac5781602001602082028036833780820191505090505b50905060005b600d811015610105578381600d81106100ce576100cd611867565b5b60200201518282815181106100e6576100e5611867565b5b60200260200101818152505080806100fd906118c5565b9150506100b2565b506000610112828661012d565b03610121576001915050610127565b60009150505b92915050565b6000807f30644e72e131a029b85045b68181585d2833e84879b9709143e1f593f00000019050600061015d6102c4565b905080608001515160018651610173919061190d565b1461017d57600080fd5b60006040518060400160405280600081526020016000815250905060005b865181101561023657838782815181106101b8576101b7611867565b5b6020026020010151106101ca57600080fd5b6102218261021c85608001516001856101e3919061190d565b815181106101f4576101f3611867565b5b60200260200101518a858151811061020f5761020e611867565b5b6020026020010151610c67565b610d09565b9150808061022e906118c5565b91505061019b565b5061026081836080015160008151811061025357610252611867565b5b6020026020010151610d09565b90506102a68560000151866020015161027884610dd1565b856040015161028a8a60400151610dd1565b876060015161029c8960000151610dd1565b8960200151610e76565b6102b657600193505050506102be565b600093505050505b92915050565b6102cc611399565b60405180604001604052807f1fb074a1771bad132dc377ddecd7e4368b3dd96f2f289b581e9f3c163ef2ff4081526020017f25d924ee857888587a07efcad70e1c19186e3c58f29363b058606920d3b0a9908152508160000181905250604051806040016040528060405180604001604052807f29bff5f0c35495719f5cb9c630fbaf5d7de78e37c7b1f6ef7b558fba9aef8d0d81526020017f0dd77a9d5996fc0ce097f084fedfba55a6461eb7804a5d0337ba94d6897beb0f815250815260200160405180604001604052807f226c81c51a2a1d19f8ea889c3e7cded010e4e20c2249f7c454eb139bce5300af81526020017f0a3797690713ea4269e24fe57805a1bf3745b7584126b6d268123be712a235b68152508152508160200181905250604051806040016040528060405180604001604052807f01dddeb5f983615ddd4f624de5c5be55525b869c2218bdb8c95e39c70c0f653e81526020017f0a3bc990e194f734483521d1349217375fb15ce8d1608528fb184b1592039c95815250815260200160405180604001604052807f22cf139dfb7280f99e4b78e2f5b1ede648a8f7b900de6df74031e10a3501eaf081526020017f175cb1a8ab95d4b6eadc635ce01183768f958e42a62eabbc86438eec6fd9354c8152508152508160400181905250604051806040016040528060405180604001604052807f09234fb60407bbf7e2409f361a0336dd3d4451230a06d2946d9c9511ccbbcdb281526020017f1e7784f80b2e0181b2492cfcb536755f95cebb4614d9c8423b8676256a67a47d815250815260200160405180604001604052807f08d7d255d098864808fea99530fcbb6baed084acdf2de223e636ef341e10308f81526020017f186456d7d088079b56e63ea8b68bf099ec47e3384d9980233a20a0d037f4f61b8152508152508160600181905250600e67ffffffffffffffff811115610593576105926114cd565b5b6040519080825280602002602001820160405280156105cc57816020015b6105b96113e0565b8152602001906001900390816105b15790505b50816080018190525060405180604001604052807f05b2d1e65852aaa91619f6573605f3ae9935e8d2dc2202c53885b14af99ae01881526020017f1685830b57b58cae1ea29930553374ccf3cc28f15ffc774920c95f51a49a2911815250816080015160008151811061064257610641611867565b5b602002602001018190525060405180604001604052807f1921fa69037b54e35221a5a6880f0ddd427486fd46cba619c43774a93dbca10181526020017f13b25ca2ec46873b9ebded0a707aa927114af3d5d2ec3e3f643835f866ed489d81525081608001516001815181106106ba576106b9611867565b5b602002602001018190525060405180604001604052807f1147b8fa419fbd044c0abc1b450db00bac5b06e0bb286b1db761a5556a5c386481526020017f11686485fc155383f2525bd850a5a8ee6fa541d7e8ada0e8ca394c2b56b3f6be815250816080015160028151811061073257610731611867565b5b602002602001018190525060405180604001604052807f187540785a351af160087aec8b2257e529cda032c489663748a78cd3edf67db281526020017f2243981b7e39f345d62bb70ba7fb09f790d62003d6b0b4d56e0beb78690430b581525081608001516003815181106107aa576107a9611867565b5b602002602001018190525060405180604001604052807f233d90d70b7507907cba10b9a5360bb4d07d53b69970291dddfb127f96d1553881526020017f2d08659cb64b9a5227de63bfd347c9bf214333e0df656e51f32de1c28a5ad993815250816080015160048151811061082257610821611867565b5b602002602001018190525060405180604001604052807f19bfb4b55a3aeaf256b82e71bc8a39076248b5ab4aa6242d10cf5cb92d06771b81526020017f08cd1d014c839eefb3faaf29d9fadbc5f4f686f98ea13ccb66d1629133690ce8815250816080015160058151811061089a57610899611867565b5b602002602001018190525060405180604001604052807f2af54f00a4afa35d389fc0f324f103aa9a38d021e65ebf672d905e411bc3709f81526020017f23807856370d09698a6abc30ad34ad22e90299475c78d49d17d40135488829ea815250816080015160068151811061091257610911611867565b5b602002602001018190525060405180604001604052807f056f66f5e5bfa3414b189c0767b087857c3d6ace49b522a48abaa367f389115b81526020017f14471bde38d70ae01c80f07563829cc998b1b4389cbc7cd3b25a7d04a53a8cb2815250816080015160078151811061098a57610989611867565b5b602002602001018190525060405180604001604052807f0d292b709b241fa84fcb02561bb40b27ebabe32547bbb08627134332b31c1bf881526020017f1aec7a3eda3ae43e893fedfe3cb08b1aa2b52a4ac69194068542b03f5cb9734a8152508160800151600881518110610a0257610a01611867565b5b602002602001018190525060405180604001604052807e333c886193c5271cfec9d5f3ebd1546fc55c7c2b4c81f162b0e87db682fbe081526020017f16067d4fd364b6bec9432f5b8c598718fc4bbb1bb4f6621e520f91e36971fb698152508160800151600981518110610a7957610a78611867565b5b602002602001018190525060405180604001604052807f2213f5a295edea12a1d4c366d1e04a90aaa3f4b9d9ba4833b2b9a7bb131b9d6381526020017f0112d90020ab150cab17bce22cd1b2e0e190456fb24a37dcbdf77b6c0fd888c68152508160800151600a81518110610af157610af0611867565b5b602002602001018190525060405180604001604052807f20beb6ac7455701a2a9c6574067606c52751c8b7829e6bfc073285dd31b4733f81526020017f0d4eba0cdee4e59342b72b4300d8fc135ba5266ab9391fef36c2eebcd25168da8152508160800151600b81518110610b6957610b68611867565b5b602002602001018190525060405180604001604052807f157a815c89d93f59dd10792cb1ae00529e0f8aa3f22e252f934c12791efff6ef81526020017f01845b293b0508435d32c3a88d66affe464ff8f971c058fdd2fcaf8f59c1666d8152508160800151600c81518110610be157610be0611867565b5b602002602001018190525060405180604001604052807f29b878310b32942997b1fb5400bad6c498af460bd30795d2b11c38eee6af7c5781526020017f14f99b4ccfe38519e6d8ccfcb21b7477675d0c41bafd36800e5251ae33f44b958152508160800151600d81518110610c5957610c58611867565b5b602002602001018190525090565b610c6f6113e0565b610c776113fa565b836000015181600060038110610c9057610c8f611867565b5b602002018181525050836020015181600160038110610cb257610cb1611867565b5b6020020181815250508281600260038110610cd057610ccf611867565b5b602002018181525050600060608360808460076107d05a03fa90508060008103610cf657fe5b5080610d0157600080fd5b505092915050565b610d116113e0565b610d1961141c565b836000015181600060048110610d3257610d31611867565b5b602002018181525050836020015181600160048110610d5457610d53611867565b5b602002018181525050826000015181600260048110610d7657610d75611867565b5b602002018181525050826020015181600360048110610d9857610d97611867565b5b602002018181525050600060608360c08460066107d05a03fa90508060008103610dbe57fe5b5080610dc957600080fd5b505092915050565b610dd96113e0565b60007f30644e72e131a029b85045b68181585d97816a916871ca8d3c208c16d87cfd47905060008360000151148015610e16575060008360200151145b15610e3a576040518060400160405280600081526020016000815250915050610e71565b604051806040016040528084600001518152602001828560200151610e5f9190611970565b83610e6a91906119a1565b8152509150505b919050565b600080600467ffffffffffffffff811115610e9457610e936114cd565b5b604051908082528060200260200182016040528015610ecd57816020015b610eba6113e0565b815260200190600190039081610eb25790505b5090506000600467ffffffffffffffff811115610eed57610eec6114cd565b5b604051908082528060200260200182016040528015610f2657816020015b610f1361143e565b815260200190600190039081610f0b5790505b5090508a82600081518110610f3e57610f3d611867565b5b60200260200101819052508882600181518110610f5e57610f5d611867565b5b60200260200101819052508682600281518110610f7e57610f7d611867565b5b60200260200101819052508482600381518110610f9e57610f9d611867565b5b60200260200101819052508981600081518110610fbe57610fbd611867565b5b60200260200101819052508781600181518110610fde57610fdd611867565b5b60200260200101819052508581600281518110610ffe57610ffd611867565b5b6020026020010181905250838160038151811061101e5761101d611867565b5b60200260200101819052506110338282611043565b9250505098975050505050505050565b6000815183511461105357600080fd5b600083519050600060068261106891906119d5565b905060008167ffffffffffffffff811115611086576110856114cd565b5b6040519080825280602002602001820160405280156110b45781602001602082028036833780820191505090505b50905060005b83811015611339578681815181106110d5576110d4611867565b5b6020026020010151600001518260006006846110f191906119d5565b6110fb919061190d565b8151811061110c5761110b611867565b5b60200260200101818152505086818151811061112b5761112a611867565b5b60200260200101516020015182600160068461114791906119d5565b611151919061190d565b8151811061116257611161611867565b5b60200260200101818152505085818151811061118157611180611867565b5b6020026020010151600001516001600281106111a05761119f611867565b5b60200201518260026006846111b591906119d5565b6111bf919061190d565b815181106111d0576111cf611867565b5b6020026020010181815250508581815181106111ef576111ee611867565b5b60200260200101516000015160006002811061120e5761120d611867565b5b602002015182600360068461122391906119d5565b61122d919061190d565b8151811061123e5761123d611867565b5b60200260200101818152505085818151811061125d5761125c611867565b5b60200260200101516020015160016002811061127c5761127b611867565b5b602002015182600460068461129191906119d5565b61129b919061190d565b815181106112ac576112ab611867565b5b6020026020010181815250508581815181106112cb576112ca611867565b5b6020026020010151602001516000600281106112ea576112e9611867565b5b60200201518260056006846112ff91906119d5565b611309919061190d565b8151811061131a57611319611867565b5b6020026020010181815250508080611331906118c5565b9150506110ba565b50611342611464565b6000602082602086026020860160086107d05a03fa9050806000810361136457fe5b508061136f57600080fd5b60008260006001811061138557611384611867565b5b602002015114159550505050505092915050565b6040518060a001604052806113ac6113e0565b81526020016113b961143e565b81526020016113c661143e565b81526020016113d361143e565b8152602001606081525090565b604051806040016040528060008152602001600081525090565b6040518060600160405280600390602082028036833780820191505090505090565b6040518060800160405280600490602082028036833780820191505090505090565b6040518060400160405280611451611486565b815260200161145e611486565b81525090565b6040518060200160405280600190602082028036833780820191505090505090565b6040518060400160405280600290602082028036833780820191505090505090565b6000604051905090565b600080fd5b600080fd5b6000601f19601f8301169050919050565b7f4e487b7100000000000000000000000000000000000000000000000000000000600052604160045260246000fd5b611505826114bc565b810181811067ffffffffffffffff82111715611524576115236114cd565b5b80604052505050565b60006115376114a8565b905061154382826114fc565b919050565b6000819050919050565b61155b81611548565b811461156657600080fd5b50565b60008135905061157881611552565b92915050565b600060408284031215611594576115936114b7565b5b61159e604061152d565b905060006115ae84828501611569565b60008301525060206115c284828501611569565b60208301525092915050565b600080fd5b600067ffffffffffffffff8211156115ee576115ed6114cd565b5b602082029050919050565b600080fd5b600061161161160c846115d3565b61152d565b9050806020840283018581111561162b5761162a6115f9565b5b835b8181101561165457806116408882611569565b84526020840193505060208101905061162d565b5050509392505050565b600082601f830112611673576116726115ce565b5b60026116808482856115fe565b91505092915050565b60006080828403121561169f5761169e6114b7565b5b6116a9604061152d565b905060006116b98482850161165e565b60008301525060406116cd8482850161165e565b60208301525092915050565b600061010082840312156116f0576116ef6114b7565b5b6116fa606061152d565b9050600061170a8482850161157e565b600083015250604061171e84828501611689565b60208301525060c06117328482850161157e565b60408301525092915050565b600067ffffffffffffffff821115611759576117586114cd565b5b602082029050919050565b60006117776117728461173e565b61152d565b90508060208402830185811115611791576117906115f9565b5b835b818110156117ba57806117a68882611569565b845260208401935050602081019050611793565b5050509392505050565b600082601f8301126117d9576117d86115ce565b5b600d6117e6848285611764565b91505092915050565b6000806102a08385031215611807576118066114b2565b5b6000611815858286016116d9565b925050610100611827858286016117c4565b9150509250929050565b60008115159050919050565b61184681611831565b82525050565b6000602082019050611861600083018461183d565b92915050565b7f4e487b7100000000000000000000000000000000000000000000000000000000600052603260045260246000fd5b7f4e487b7100000000000000000000000000000000000000000000000000000000600052601160045260246000fd5b60006118d082611548565b91507fffffffffffffffffffffffffffffffffffffffffffffffffffffffffffffffff820361190257611901611896565b5b600182019050919050565b600061191882611548565b915061192383611548565b925082820190508082111561193b5761193a611896565b5b92915050565b7f4e487b7100000000000000000000000000000000000000000000000000000000600052601260045260246000fd5b600061197b82611548565b915061198683611548565b92508261199657611995611941565b5b828206905092915050565b60006119ac82611548565b91506119b783611548565b92508282039050818111156119cf576119ce611896565b5b92915050565b60006119e082611548565b91506119eb83611548565b92508282026119f981611548565b91508282048414831517611a1057611a0f611896565b5b509291505056fea2646970667358221220ba2d532ccb4b1eebd04c584daadd2464eb739edfdc3353447e6e6c3dd98fe30264736f6c63430008110033",
  "linkReferences": {},
  "deployedLinkReferences": {}
}