{
  "_format": "hh-sol-artifact-1",
  "contractName": "SybilResistance",
  "sourceName": "contracts/SybilResistance.sol",
  "abi": [
    {
      "inputs": [
        {
          "internalType": "address",
          "name": "hub_",
          "type": "address"
        },
        {
          "internalType": "address",
          "name": "authorityAddress_",
          "type": "address"
        }
      ],
      "stateMutability": "nonpayable",
      "type": "constructor"
    },
    {
      "anonymous": false,
      "inputs": [
        {
          "indexed": false,
          "internalType": "address",
          "name": "userAddr",
          "type": "address"
        },
        {
          "indexed": false,
          "internalType": "uint256",
          "name": "actionId",
          "type": "uint256"
        }
      ],
      "name": "Uniqueness",
      "type": "event"
    },
    {
      "inputs": [
        {
          "internalType": "address",
          "name": "addr",
          "type": "address"
        },
        {
          "internalType": "uint256",
          "name": "actionId",
          "type": "uint256"
        }
      ],
      "name": "isUniqueForAction",
      "outputs": [
        {
          "internalType": "bool",
          "name": "unique",
          "type": "bool"
        }
      ],
      "stateMutability": "view",
      "type": "function"
    },
    {
      "inputs": [
        {
          "internalType": "uint256",
          "name": "",
          "type": "uint256"
        }
      ],
      "name": "masalaWasUsed",
      "outputs": [
        {
          "internalType": "bool",
          "name": "",
          "type": "bool"
        }
      ],
      "stateMutability": "view",
      "type": "function"
    },
    {
      "inputs": [
        {
          "components": [
            {
              "components": [
                {
                  "internalType": "uint256",
                  "name": "X",
                  "type": "uint256"
                },
                {
                  "internalType": "uint256",
                  "name": "Y",
                  "type": "uint256"
                }
              ],
              "internalType": "struct Pairing.G1Point",
              "name": "a",
              "type": "tuple"
            },
            {
              "components": [
                {
                  "internalType": "uint256[2]",
                  "name": "X",
                  "type": "uint256[2]"
                },
                {
                  "internalType": "uint256[2]",
                  "name": "Y",
                  "type": "uint256[2]"
                }
              ],
              "internalType": "struct Pairing.G2Point",
              "name": "b",
              "type": "tuple"
            },
            {
              "components": [
                {
                  "internalType": "uint256",
                  "name": "X",
                  "type": "uint256"
                },
                {
                  "internalType": "uint256",
                  "name": "Y",
                  "type": "uint256"
                }
              ],
              "internalType": "struct Pairing.G1Point",
              "name": "c",
              "type": "tuple"
            }
          ],
          "internalType": "struct Proof",
          "name": "proof",
          "type": "tuple"
        },
        {
          "internalType": "uint256[]",
          "name": "input",
          "type": "uint256[]"
        }
      ],
      "name": "proofIsValid",
      "outputs": [
        {
          "internalType": "bool",
          "name": "isValid",
          "type": "bool"
        }
      ],
      "stateMutability": "view",
      "type": "function"
    },
    {
      "inputs": [
        {
          "components": [
            {
              "components": [
                {
                  "internalType": "uint256",
                  "name": "X",
                  "type": "uint256"
                },
                {
                  "internalType": "uint256",
                  "name": "Y",
                  "type": "uint256"
                }
              ],
              "internalType": "struct Pairing.G1Point",
              "name": "a",
              "type": "tuple"
            },
            {
              "components": [
                {
                  "internalType": "uint256[2]",
                  "name": "X",
                  "type": "uint256[2]"
                },
                {
                  "internalType": "uint256[2]",
                  "name": "Y",
                  "type": "uint256[2]"
                }
              ],
              "internalType": "struct Pairing.G2Point",
              "name": "b",
              "type": "tuple"
            },
            {
              "components": [
                {
                  "internalType": "uint256",
                  "name": "X",
                  "type": "uint256"
                },
                {
                  "internalType": "uint256",
                  "name": "Y",
                  "type": "uint256"
                }
              ],
              "internalType": "struct Pairing.G1Point",
              "name": "c",
              "type": "tuple"
            }
          ],
          "internalType": "struct Proof",
          "name": "proof",
          "type": "tuple"
        },
        {
          "internalType": "uint256[]",
          "name": "input",
          "type": "uint256[]"
        }
      ],
      "name": "prove",
      "outputs": [],
      "stateMutability": "nonpayable",
      "type": "function"
    }
  ],
  "bytecode": "0x608060405234801561001057600080fd5b50604051610d7e380380610d7e833981810160405281019061003291906100fa565b81600260006101000a81548173ffffffffffffffffffffffffffffffffffffffff021916908373ffffffffffffffffffffffffffffffffffffffff1602179055508073ffffffffffffffffffffffffffffffffffffffff16600381905550505061013a565b600080fd5b600073ffffffffffffffffffffffffffffffffffffffff82169050919050565b60006100c78261009c565b9050919050565b6100d7816100bc565b81146100e257600080fd5b50565b6000815190506100f4816100ce565b92915050565b6000806040838503121561011157610110610097565b5b600061011f858286016100e5565b9250506020610130858286016100e5565b9150509250929050565b610c35806101496000396000f3fe608060405234801561001057600080fd5b506004361061004c5760003560e01c80635dbf2a1614610051578063775d0df014610081578063902f8985146100b157806396248d12146100cd575b600080fd5b61006b60048036038101906100669190610506565b6100fd565b6040516100789190610583565b60405180910390f35b61009b600480360381019061009691906105d4565b6102c1565b6040516100a89190610583565b60405180910390f35b6100cb60048036038101906100c69190610506565b6102e1565b005b6100e760048036038101906100e2919061065f565b61041f565b6040516100f49190610583565b60405180910390f35b6000600354838360028181106101165761011561069f565b5b905060200201351461015d576040517f08c379a000000000000000000000000000000000000000000000000000000000815260040161015490610751565b60405180910390fd5b600080848460048181106101745761017361069f565b5b90506020020135815260200190815260200160002060009054906101000a900460ff16156101d7576040517f08c379a00000000000000000000000000000000000000000000000000000000081526004016101ce906107bd565b60405180910390fd5b600260009054906101000a900473ffffffffffffffffffffffffffffffffffffffff1673ffffffffffffffffffffffffffffffffffffffff1663813941b38585856040518463ffffffff1660e01b8152600401610236939291906109d4565b602060405180830381865afa158015610253573d6000803e3d6000fd5b505050506040513d601f19601f820116820180604052508101906102779190610a47565b6102b6576040517f08c379a00000000000000000000000000000000000000000000000000000000081526004016102ad90610ac0565b60405180910390fd5b600190509392505050565b60006020528060005260406000206000915054906101000a900460ff1681565b6102ec8383836100fd565b6102f557600080fd5b60016000808484600481811061030e5761030d61069f565b5b90506020020135815260200190815260200160002060006101000a81548160ff0219169083151502179055506000828260018181106103505761034f61069f565b5b905060200201358383600381811061036b5761036a61069f565b5b90506020020135604051602001610383929190610b37565b604051602081830303815290604052805190602001209050600180600083815260200190815260200160002060006101000a81548160ff0219169083151502179055507fd198fa8523413333ec863279d1630fa354ecc8b110ae00f9ca98c8b498fb468733848460038181106103fc576103fb61069f565b5b90506020020135604051610411929190610b81565b60405180910390a150505050565b6000600160008484604051602001610438929190610bd3565b60405160208183030381529060405280519060200120815260200190815260200160002060009054906101000a900460ff16905092915050565b600080fd5b600080fd5b600080fd5b600061010082840312156104985761049761047c565b5b81905092915050565b600080fd5b600080fd5b600080fd5b60008083601f8401126104c6576104c56104a1565b5b8235905067ffffffffffffffff8111156104e3576104e26104a6565b5b6020830191508360208202830111156104ff576104fe6104ab565b5b9250929050565b600080600061012084860312156105205761051f610472565b5b600061052e86828701610481565b93505061010084013567ffffffffffffffff8111156105505761054f610477565b5b61055c868287016104b0565b92509250509250925092565b60008115159050919050565b61057d81610568565b82525050565b60006020820190506105986000830184610574565b92915050565b6000819050919050565b6105b18161059e565b81146105bc57600080fd5b50565b6000813590506105ce816105a8565b92915050565b6000602082840312156105ea576105e9610472565b5b60006105f8848285016105bf565b91505092915050565b600073ffffffffffffffffffffffffffffffffffffffff82169050919050565b600061062c82610601565b9050919050565b61063c81610621565b811461064757600080fd5b50565b60008135905061065981610633565b92915050565b6000806040838503121561067657610675610472565b5b60006106848582860161064a565b9250506020610695858286016105bf565b9150509250929050565b7f4e487b7100000000000000000000000000000000000000000000000000000000600052603260045260246000fd5b600082825260208201905092915050565b7f50726f6f66206d75737420636f6d652066726f6d20617574686f72697479206160008201527f6464726573730000000000000000000000000000000000000000000000000000602082015250565b600061073b6026836106ce565b9150610746826106df565b604082019050919050565b6000602082019050818103600083015261076a8161072e565b9050919050565b7f4f6e6520706572736f6e2063616e206f6e6c7920766572696679206f6e636500600082015250565b60006107a7601f836106ce565b91506107b282610771565b602082019050919050565b600060208201905081810360008301526107d68161079a565b9050919050565b7f537962696c526573697374616e63650000000000000000000000000000000000600082015250565b6000610813600f836106ce565b915061081e826107dd565b602082019050919050565b600082905092915050565b600061084360208401846105bf565b905092915050565b6108548161059e565b82525050565b6040820161086b6000830183610834565b610878600085018261084b565b506108866020830183610834565b610893602085018261084b565b50505050565b600082905092915050565b600082905092915050565b82818337505050565b6108c4604083836108af565b5050565b608082016108d960008301836108a4565b6108e660008501826108b8565b506108f460408301836108a4565b61090160408501826108b8565b50505050565b61010082016109196000830183610829565b610926600085018261085a565b506109346040830183610899565b61094160408501826108c8565b5061094f60c0830183610829565b61095c60c085018261085a565b50505050565b600082825260208201905092915050565b600080fd5b60006109848385610962565b93507f07ffffffffffffffffffffffffffffffffffffffffffffffffffffffffffffff8311156109b7576109b6610973565b5b6020830292506109c88385846108af565b82840190509392505050565b60006101408201905081810360008301526109ee81610806565b90506109fd6020830186610907565b818103610120830152610a11818486610978565b9050949350505050565b610a2481610568565b8114610a2f57600080fd5b50565b600081519050610a4181610a1b565b92915050565b600060208284031215610a5d57610a5c610472565b5b6000610a6b84828501610a32565b91505092915050565b7f4661696c656420746f207665726966792070726f6f6600000000000000000000600082015250565b6000610aaa6016836106ce565b9150610ab582610a74565b602082019050919050565b60006020820190508181036000830152610ad981610a9d565b9050919050565b60008160601b9050919050565b6000610af882610ae0565b9050919050565b610b10610b0b82610601565b610aed565b82525050565b6000819050919050565b610b31610b2c8261059e565b610b16565b82525050565b6000610b438285610aff565b601482019150610b538284610b20565b6020820191508190509392505050565b610b6c81610621565b82525050565b610b7b8161059e565b82525050565b6000604082019050610b966000830185610b63565b610ba36020830184610b72565b9392505050565b6000610bb582610aed565b9050919050565b610bcd610bc882610621565b610baa565b82525050565b6000610bdf8285610bbc565b601482019150610bef8284610b20565b602082019150819050939250505056fea2646970667358221220e74947e78f7bcfa136c4a167bc2c30fd3d3406be25973d48d03f701edb8713b064736f6c63430008110033",
  "linkReferences": {},
  "deployedLinkReferences": {}
}