{
  "_format": "hh-sol-artifact-1",
  "contractName": "ResidencyStore",
  "sourceName": "contracts/ResidencyStore.sol",
  "abi": [
    {
      "inputs": [
        {
          "internalType": "address",
          "name": "hub_",
          "type": "address"
        },
        {
          "internalType": "address",
          "name": "authorityAddress_",
          "type": "address"
        }
      ],
      "stateMutability": "nonpayable",
      "type": "constructor"
    },
    {
      "anonymous": false,
      "inputs": [
        {
          "indexed": false,
          "internalType": "address",
          "name": "userAddr",
          "type": "address"
        },
        {
          "indexed": false,
          "internalType": "bool",
          "name": "usResidency",
          "type": "bool"
        }
      ],
      "name": "USResidency",
      "type": "event"
    },
    {
      "inputs": [
        {
          "internalType": "uint256",
          "name": "",
          "type": "uint256"
        }
      ],
      "name": "footprints",
      "outputs": [
        {
          "internalType": "bool",
          "name": "",
          "type": "bool"
        }
      ],
      "stateMutability": "view",
      "type": "function"
    },
    {
      "inputs": [
        {
          "components": [
            {
              "components": [
                {
                  "internalType": "uint256",
                  "name": "X",
                  "type": "uint256"
                },
                {
                  "internalType": "uint256",
                  "name": "Y",
                  "type": "uint256"
                }
              ],
              "internalType": "struct Pairing.G1Point",
              "name": "a",
              "type": "tuple"
            },
            {
              "components": [
                {
                  "internalType": "uint256[2]",
                  "name": "X",
                  "type": "uint256[2]"
                },
                {
                  "internalType": "uint256[2]",
                  "name": "Y",
                  "type": "uint256[2]"
                }
              ],
              "internalType": "struct Pairing.G2Point",
              "name": "b",
              "type": "tuple"
            },
            {
              "components": [
                {
                  "internalType": "uint256",
                  "name": "X",
                  "type": "uint256"
                },
                {
                  "internalType": "uint256",
                  "name": "Y",
                  "type": "uint256"
                }
              ],
              "internalType": "struct Pairing.G1Point",
              "name": "c",
              "type": "tuple"
            }
          ],
          "internalType": "struct Proof",
          "name": "proof",
          "type": "tuple"
        },
        {
          "internalType": "uint256[]",
          "name": "input",
          "type": "uint256[]"
        }
      ],
      "name": "proofIsValid",
      "outputs": [
        {
          "internalType": "bool",
          "name": "isValid",
          "type": "bool"
        }
      ],
      "stateMutability": "view",
      "type": "function"
    },
    {
      "inputs": [
        {
          "components": [
            {
              "components": [
                {
                  "internalType": "uint256",
                  "name": "X",
                  "type": "uint256"
                },
                {
                  "internalType": "uint256",
                  "name": "Y",
                  "type": "uint256"
                }
              ],
              "internalType": "struct Pairing.G1Point",
              "name": "a",
              "type": "tuple"
            },
            {
              "components": [
                {
                  "internalType": "uint256[2]",
                  "name": "X",
                  "type": "uint256[2]"
                },
                {
                  "internalType": "uint256[2]",
                  "name": "Y",
                  "type": "uint256[2]"
                }
              ],
              "internalType": "struct Pairing.G2Point",
              "name": "b",
              "type": "tuple"
            },
            {
              "components": [
                {
                  "internalType": "uint256",
                  "name": "X",
                  "type": "uint256"
                },
                {
                  "internalType": "uint256",
                  "name": "Y",
                  "type": "uint256"
                }
              ],
              "internalType": "struct Pairing.G1Point",
              "name": "c",
              "type": "tuple"
            }
          ],
          "internalType": "struct Proof",
          "name": "proof",
          "type": "tuple"
        },
        {
          "internalType": "uint256[]",
          "name": "input",
          "type": "uint256[]"
        }
      ],
      "name": "prove",
      "outputs": [],
      "stateMutability": "nonpayable",
      "type": "function"
    },
    {
      "inputs": [
        {
          "internalType": "address",
          "name": "",
          "type": "address"
        }
      ],
      "name": "usResidency",
      "outputs": [
        {
          "internalType": "bool",
          "name": "",
          "type": "bool"
        }
      ],
      "stateMutability": "view",
      "type": "function"
    }
  ],
  "bytecode": "0x60806040523480156200001157600080fd5b506040516200125138038062001251833981810160405281019062000037919062000107565b81600260006101000a81548173ffffffffffffffffffffffffffffffffffffffff021916908373ffffffffffffffffffffffffffffffffffffffff1602179055508073ffffffffffffffffffffffffffffffffffffffff1660038190555050506200014e565b600080fd5b600073ffffffffffffffffffffffffffffffffffffffff82169050919050565b6000620000cf82620000a2565b9050919050565b620000e181620000c2565b8114620000ed57600080fd5b50565b6000815190506200010181620000d6565b92915050565b600080604083850312156200012157620001206200009d565b5b60006200013185828601620000f0565b92505060206200014485828601620000f0565b9150509250929050565b6110f3806200015e6000396000f3fe608060405234801561001057600080fd5b506004361061004c5760003560e01c806336f7db28146100515780635dbf2a1614610081578063902f8985146100b1578063bcd78406146100cd575b600080fd5b61006b600480360381019061006691906107cd565b6100fd565b6040516100789190610815565b60405180910390f35b61009b600480360381019061009691906108ba565b61011d565b6040516100a89190610815565b60405180910390f35b6100cb60048036038101906100c691906108ba565b61051d565b005b6100e760048036038101906100e2919061097a565b61060c565b6040516100f49190610815565b60405180910390f35b60016020528060005260406000206000915054906101000a900460ff1681565b600061015d6040518060400160405280600681526020017f696e70757473000000000000000000000000000000000000000000000000000081525061062c565b6101b683836000818110610174576101736109a7565b5b905060200201358484600181811061018f5761018e6109a7565b5b90506020020135858560028181106101aa576101a96109a7565b5b905060200201356106c5565b61020f838360038181106101cd576101cc6109a7565b5b90506020020135848460048181106101e8576101e76109a7565b5b9050602002013585856005818110610203576102026109a7565b5b905060200201356106c5565b82826001818110610223576102226109a7565b5b905060200201353373ffffffffffffffffffffffffffffffffffffffff1614610281576040517f08c379a000000000000000000000000000000000000000000000000000000000815260040161027890610a59565b60405180910390fd5b60035483836002818110610298576102976109a7565b5b90506020020135146102df576040517f08c379a00000000000000000000000000000000000000000000000000000000081526004016102d690610aeb565b60405180910390fd5b7f28ca58c3c1044c5277405071d5e3754aeaa4f91dae2c8647275f0b168ae4a94c83836003818110610314576103136109a7565b5b905060200201351461035b576040517f08c379a000000000000000000000000000000000000000000000000000000000815260040161035290610b7d565b60405180910390fd5b6001600084846004818110610373576103726109a7565b5b90506020020135815260200190815260200160002060009054906101000a900460ff16156103d6576040517f08c379a00000000000000000000000000000000000000000000000000000000081526004016103cd90610be9565b60405180910390fd5b6002838360058181106103ec576103eb6109a7565b5b9050602002013514610433576040517f08c379a000000000000000000000000000000000000000000000000000000000815260040161042a90610c7b565b60405180910390fd5b600260009054906101000a900473ffffffffffffffffffffffffffffffffffffffff1673ffffffffffffffffffffffffffffffffffffffff1663813941b38585856040518463ffffffff1660e01b815260040161049293929190610e92565b602060405180830381865afa1580156104af573d6000803e3d6000fd5b505050506040513d601f19601f820116820180604052508101906104d39190610f05565b610512576040517f08c379a000000000000000000000000000000000000000000000000000000000815260040161050990610f7e565b60405180910390fd5b600190509392505050565b61052883838361011d565b61053157600080fd5b60018060008484600481811061054a576105496109a7565b5b90506020020135815260200190815260200160002060006101000a81548160ff02191690831515021790555060016000803373ffffffffffffffffffffffffffffffffffffffff1673ffffffffffffffffffffffffffffffffffffffff16815260200190815260200160002060006101000a81548160ff0219169083151502179055507f8e3ae60e21d8ff9f5e6d7714232751cbbaff6ccd8d9366369baa0f499fb0a6fb3360016040516105ff929190610fad565b60405180910390a1505050565b60006020528060005260406000206000915054906101000a900460ff1681565b6106c2816040516024016106409190611055565b6040516020818303038152906040527f41304fac000000000000000000000000000000000000000000000000000000007bffffffffffffffffffffffffffffffffffffffffffffffffffffffff19166020820180517bffffffffffffffffffffffffffffffffffffffffffffffffffffffff8381831617835250505050610764565b50565b61075f8383836040516024016106dd93929190611086565b6040516020818303038152906040527fd1ed7a3c000000000000000000000000000000000000000000000000000000007bffffffffffffffffffffffffffffffffffffffffffffffffffffffff19166020820180517bffffffffffffffffffffffffffffffffffffffffffffffffffffffff8381831617835250505050610764565b505050565b60008151905060006a636f6e736f6c652e6c6f679050602083016000808483855afa5050505050565b600080fd5b600080fd5b6000819050919050565b6107aa81610797565b81146107b557600080fd5b50565b6000813590506107c7816107a1565b92915050565b6000602082840312156107e3576107e261078d565b5b60006107f1848285016107b8565b91505092915050565b60008115159050919050565b61080f816107fa565b82525050565b600060208201905061082a6000830184610806565b92915050565b600080fd5b6000610100828403121561084c5761084b610830565b5b81905092915050565b600080fd5b600080fd5b600080fd5b60008083601f84011261087a57610879610855565b5b8235905067ffffffffffffffff8111156108975761089661085a565b5b6020830191508360208202830111156108b3576108b261085f565b5b9250929050565b600080600061012084860312156108d4576108d361078d565b5b60006108e286828701610835565b93505061010084013567ffffffffffffffff81111561090457610903610792565b5b61091086828701610864565b92509250509250925092565b600073ffffffffffffffffffffffffffffffffffffffff82169050919050565b60006109478261091c565b9050919050565b6109578161093c565b811461096257600080fd5b50565b6000813590506109748161094e565b92915050565b6000602082840312156109905761098f61078d565b5b600061099e84828501610965565b91505092915050565b7f4e487b7100000000000000000000000000000000000000000000000000000000600052603260045260246000fd5b600082825260208201905092915050565b7f5365636f6e64207075626c696320617267756d656e74206f662070726f6f662060008201527f6d75737420626520796f75722061646472657373000000000000000000000000602082015250565b6000610a436034836109d6565b9150610a4e826109e7565b604082019050919050565b60006020820190508181036000830152610a7281610a36565b9050919050565b7f50726f6f66206d75737420636f6d652066726f6d20617574686f72697479206160008201527f6464726573730000000000000000000000000000000000000000000000000000602082015250565b6000610ad56026836109d6565b9150610ae082610a79565b604082019050919050565b60006020820190508181036000830152610b0481610ac8565b9050919050565b7f466f6f747072696e74206973206d6164652066726f6d207468652077726f6e6760008201527f2073616c74000000000000000000000000000000000000000000000000000000602082015250565b6000610b676025836109d6565b9150610b7282610b0b565b604082019050919050565b60006020820190508181036000830152610b9681610b5a565b9050919050565b7f4f6e6520706572736f6e2063616e206f6e6c7920766572696679206f6e636500600082015250565b6000610bd3601f836109d6565b9150610bde82610b9d565b602082019050919050565b60006020820190508181036000830152610c0281610bc6565b9050919050565b7f43726564656e7469616c7320646f206e6f74206861766520555320617320636f60008201527f756e74727920636f646500000000000000000000000000000000000000000000602082015250565b6000610c65602a836109d6565b9150610c7082610c09565b604082019050919050565b60006020820190508181036000830152610c9481610c58565b9050919050565b7f55535265736964656e7400000000000000000000000000000000000000000000600082015250565b6000610cd1600a836109d6565b9150610cdc82610c9b565b602082019050919050565b600082905092915050565b6000610d0160208401846107b8565b905092915050565b610d1281610797565b82525050565b60408201610d296000830183610cf2565b610d366000850182610d09565b50610d446020830183610cf2565b610d516020850182610d09565b50505050565b600082905092915050565b600082905092915050565b82818337505050565b610d8260408383610d6d565b5050565b60808201610d976000830183610d62565b610da46000850182610d76565b50610db26040830183610d62565b610dbf6040850182610d76565b50505050565b6101008201610dd76000830183610ce7565b610de46000850182610d18565b50610df26040830183610d57565b610dff6040850182610d86565b50610e0d60c0830183610ce7565b610e1a60c0850182610d18565b50505050565b600082825260208201905092915050565b600080fd5b6000610e428385610e20565b93507f07ffffffffffffffffffffffffffffffffffffffffffffffffffffffffffffff831115610e7557610e74610e31565b5b602083029250610e86838584610d6d565b82840190509392505050565b6000610140820190508181036000830152610eac81610cc4565b9050610ebb6020830186610dc5565b818103610120830152610ecf818486610e36565b9050949350505050565b610ee2816107fa565b8114610eed57600080fd5b50565b600081519050610eff81610ed9565b92915050565b600060208284031215610f1b57610f1a61078d565b5b6000610f2984828501610ef0565b91505092915050565b7f4661696c656420746f207665726966792070726f6f6600000000000000000000600082015250565b6000610f686016836109d6565b9150610f7382610f32565b602082019050919050565b60006020820190508181036000830152610f9781610f5b565b9050919050565b610fa78161093c565b82525050565b6000604082019050610fc26000830185610f9e565b610fcf6020830184610806565b9392505050565b600081519050919050565b60005b83811015610fff578082015181840152602081019050610fe4565b60008484015250505050565b6000601f19601f8301169050919050565b600061102782610fd6565b61103181856109d6565b9350611041818560208601610fe1565b61104a8161100b565b840191505092915050565b6000602082019050818103600083015261106f818461101c565b905092915050565b61108081610797565b82525050565b600060608201905061109b6000830186611077565b6110a86020830185611077565b6110b56040830184611077565b94935050505056fea26469706673582212207d096a5d5d303387340403e7853e75f56ee7272f3bfa21746172397682ee8adf64736f6c63430008110033",
  "linkReferences": {},
  "deployedLinkReferences": {}
}