{
  "_format": "hh-sol-artifact-1",
  "contractName": "SybilFreeAction",
  "sourceName": "contracts/examples/SybilFreeAction.sol",
  "abi": [
    {
      "inputs": [
        {
          "internalType": "uint256",
          "name": "actionId_",
          "type": "uint256"
        }
      ],
      "stateMutability": "nonpayable",
      "type": "constructor"
    },
    {
      "inputs": [],
      "name": "claimAirdrop",
      "outputs": [],
      "stateMutability": "nonpayable",
      "type": "function"
    }
  ],
  "bytecode": "0x608060405234801561001057600080fd5b50604051610546380380610546833981810160405281019061003291906100ce565b73fca7ac96b1f8a2b8b64c6f08e993d6a85031333e6000806101000a81548173ffffffffffffffffffffffffffffffffffffffff021916908373ffffffffffffffffffffffffffffffffffffffff16021790555080600181905550506100fb565b600080fd5b6000819050919050565b6100ab81610098565b81146100b657600080fd5b50565b6000815190506100c8816100a2565b92915050565b6000602082840312156100e4576100e3610093565b5b60006100f2848285016100b9565b91505092915050565b61043c8061010a6000396000f3fe608060405234801561001057600080fd5b506004361061002b5760003560e01c80635b88349d14610030575b600080fd5b61003861003a565b005b60008054906101000a900473ffffffffffffffffffffffffffffffffffffffff1673ffffffffffffffffffffffffffffffffffffffff166396248d12336001546040518363ffffffff1660e01b8152600401610097929190610264565b602060405180830381865afa1580156100b4573d6000803e3d6000fd5b505050506040513d601f19601f820116820180604052508101906100d891906102ca565b610117576040517f08c379a000000000000000000000000000000000000000000000000000000000815260040161010e9061037a565b60405180910390fd5b600260003373ffffffffffffffffffffffffffffffffffffffff1673ffffffffffffffffffffffffffffffffffffffff16815260200190815260200160002060009054906101000a900460ff16156101a4576040517f08c379a000000000000000000000000000000000000000000000000000000000815260040161019b906103e6565b60405180910390fd5b6001600260003373ffffffffffffffffffffffffffffffffffffffff1673ffffffffffffffffffffffffffffffffffffffff16815260200190815260200160002060006101000a81548160ff02191690831515021790555061020533610207565b565b50565b600073ffffffffffffffffffffffffffffffffffffffff82169050919050565b60006102358261020a565b9050919050565b6102458161022a565b82525050565b6000819050919050565b61025e8161024b565b82525050565b6000604082019050610279600083018561023c565b6102866020830184610255565b9392505050565b600080fd5b60008115159050919050565b6102a781610292565b81146102b257600080fd5b50565b6000815190506102c48161029e565b92915050565b6000602082840312156102e0576102df61028d565b5b60006102ee848285016102b5565b91505092915050565b600082825260208201905092915050565b7f596f752068617665206e6f742079657420636c61696d6564207468697320616360008201527f74696f6e207769746820796f757220486f6c6f00000000000000000000000000602082015250565b60006103646033836102f7565b915061036f82610308565b604082019050919050565b6000602082019050818103600083015261039381610357565b9050919050565b7f596f7520616c726561647920676f7420796f75722061697264726f7021000000600082015250565b60006103d0601d836102f7565b91506103db8261039a565b602082019050919050565b600060208201905081810360008301526103ff816103c3565b905091905056fea264697066735822122083ca79619ee2c4ad794930b9bc84be8c0a4052f2e24ee80eadf643a48035cd2d64736f6c63430008110033",
  "linkReferences": {},
  "deployedLinkReferences": {}
}