{
  "_format": "hh-sol-artifact-1",
  "contractName": "AntiSybilStore",
  "sourceName": "contracts/AntiSybilStore.sol",
  "abi": [
    {
      "inputs": [
        {
          "internalType": "address",
          "name": "hub_",
          "type": "address"
        },
        {
          "internalType": "address",
          "name": "authorityAddress_",
          "type": "address"
        }
      ],
      "stateMutability": "nonpayable",
      "type": "constructor"
    },
    {
      "anonymous": false,
      "inputs": [
        {
          "indexed": false,
          "internalType": "address",
          "name": "userAddr",
          "type": "address"
        },
        {
          "indexed": false,
          "internalType": "uint256",
          "name": "actionId",
          "type": "uint256"
        }
      ],
      "name": "Uniqueness",
      "type": "event"
    },
    {
      "inputs": [
        {
          "internalType": "uint256",
          "name": "",
          "type": "uint256"
        }
      ],
      "name": "footprints",
      "outputs": [
        {
          "internalType": "bool",
          "name": "",
          "type": "bool"
        }
      ],
      "stateMutability": "view",
      "type": "function"
    },
    {
      "inputs": [
        {
          "internalType": "address",
          "name": "addr",
          "type": "address"
        },
        {
          "internalType": "uint256",
          "name": "actionId",
          "type": "uint256"
        }
      ],
      "name": "isUniqueForAction",
      "outputs": [
        {
          "internalType": "bool",
          "name": "unique",
          "type": "bool"
        }
      ],
      "stateMutability": "view",
      "type": "function"
    },
    {
      "inputs": [
        {
          "components": [
            {
              "components": [
                {
                  "internalType": "uint256",
                  "name": "X",
                  "type": "uint256"
                },
                {
                  "internalType": "uint256",
                  "name": "Y",
                  "type": "uint256"
                }
              ],
              "internalType": "struct Pairing.G1Point",
              "name": "a",
              "type": "tuple"
            },
            {
              "components": [
                {
                  "internalType": "uint256[2]",
                  "name": "X",
                  "type": "uint256[2]"
                },
                {
                  "internalType": "uint256[2]",
                  "name": "Y",
                  "type": "uint256[2]"
                }
              ],
              "internalType": "struct Pairing.G2Point",
              "name": "b",
              "type": "tuple"
            },
            {
              "components": [
                {
                  "internalType": "uint256",
                  "name": "X",
                  "type": "uint256"
                },
                {
                  "internalType": "uint256",
                  "name": "Y",
                  "type": "uint256"
                }
              ],
              "internalType": "struct Pairing.G1Point",
              "name": "c",
              "type": "tuple"
            }
          ],
          "internalType": "struct Proof",
          "name": "proof",
          "type": "tuple"
        },
        {
          "internalType": "uint256[]",
          "name": "input",
          "type": "uint256[]"
        }
      ],
      "name": "proofIsValid",
      "outputs": [
        {
          "internalType": "bool",
          "name": "isValid",
          "type": "bool"
        }
      ],
      "stateMutability": "view",
      "type": "function"
    },
    {
      "inputs": [
        {
          "components": [
            {
              "components": [
                {
                  "internalType": "uint256",
                  "name": "X",
                  "type": "uint256"
                },
                {
                  "internalType": "uint256",
                  "name": "Y",
                  "type": "uint256"
                }
              ],
              "internalType": "struct Pairing.G1Point",
              "name": "a",
              "type": "tuple"
            },
            {
              "components": [
                {
                  "internalType": "uint256[2]",
                  "name": "X",
                  "type": "uint256[2]"
                },
                {
                  "internalType": "uint256[2]",
                  "name": "Y",
                  "type": "uint256[2]"
                }
              ],
              "internalType": "struct Pairing.G2Point",
              "name": "b",
              "type": "tuple"
            },
            {
              "components": [
                {
                  "internalType": "uint256",
                  "name": "X",
                  "type": "uint256"
                },
                {
                  "internalType": "uint256",
                  "name": "Y",
                  "type": "uint256"
                }
              ],
              "internalType": "struct Pairing.G1Point",
              "name": "c",
              "type": "tuple"
            }
          ],
          "internalType": "struct Proof",
          "name": "proof",
          "type": "tuple"
        },
        {
          "internalType": "uint256[]",
          "name": "input",
          "type": "uint256[]"
        }
      ],
      "name": "prove",
      "outputs": [],
      "stateMutability": "nonpayable",
      "type": "function"
    }
  ],
  "bytecode": "0x60806040523480156200001157600080fd5b5060405162000f3938038062000f39833981810160405281019062000037919062000107565b81600260006101000a81548173ffffffffffffffffffffffffffffffffffffffff021916908373ffffffffffffffffffffffffffffffffffffffff1602179055508073ffffffffffffffffffffffffffffffffffffffff1660038190555050506200014e565b600080fd5b600073ffffffffffffffffffffffffffffffffffffffff82169050919050565b6000620000cf82620000a2565b9050919050565b620000e181620000c2565b8114620000ed57600080fd5b50565b6000815190506200010181620000d6565b92915050565b600080604083850312156200012157620001206200009d565b5b60006200013185828601620000f0565b92505060206200014485828601620000f0565b9150509250929050565b610ddb806200015e6000396000f3fe608060405234801561001057600080fd5b506004361061004c5760003560e01c806336f7db28146100515780635dbf2a1614610081578063902f8985146100b157806396248d12146100cd575b600080fd5b61006b600480360381019061006691906105d5565b6100fd565b604051610078919061061d565b60405180910390f35b61009b600480360381019061009691906106c2565b61011d565b6040516100a8919061061d565b60405180910390f35b6100cb60048036038101906100c691906106c2565b610353565b005b6100e760048036038101906100e29190610782565b610480565b6040516100f4919061061d565b60405180910390f35b60006020528060005260406000206000915054906101000a900460ff1681565b600082826001818110610133576101326107c2565b5b905060200201353373ffffffffffffffffffffffffffffffffffffffff1614610191576040517f08c379a000000000000000000000000000000000000000000000000000000000815260040161018890610874565b60405180910390fd5b600354838360028181106101a8576101a76107c2565b5b90506020020135146101ef576040517f08c379a00000000000000000000000000000000000000000000000000000000081526004016101e690610906565b60405180910390fd5b60008084846004818110610206576102056107c2565b5b90506020020135815260200190815260200160002060009054906101000a900460ff1615610269576040517f08c379a000000000000000000000000000000000000000000000000000000000815260040161026090610972565b60405180910390fd5b600260009054906101000a900473ffffffffffffffffffffffffffffffffffffffff1673ffffffffffffffffffffffffffffffffffffffff1663813941b38585856040518463ffffffff1660e01b81526004016102c893929190610b89565b602060405180830381865afa1580156102e5573d6000803e3d6000fd5b505050506040513d601f19601f820116820180604052508101906103099190610bfc565b610348576040517f08c379a000000000000000000000000000000000000000000000000000000000815260040161033f90610c75565b60405180910390fd5b600190509392505050565b61035e83838361011d565b61036757600080fd5b6001600080848460048181106103805761037f6107c2565b5b90506020020135815260200190815260200160002060006101000a81548160ff021916908315150217905550600033838360038181106103c3576103c26107c2565b5b905060200201356040516020016103db929190610cfe565b6040516020818303038152906040528051906020012090506103fc816104d3565b600180600083815260200190815260200160002060006101000a81548160ff0219169083151502179055507fd198fa8523413333ec863279d1630fa354ecc8b110ae00f9ca98c8b498fb4687338484600381811061045d5761045c6107c2565b5b90506020020135604051610472929190610d48565b60405180910390a150505050565b6000600160008484604051602001610499929190610cfe565b60405160208183030381529060405280519060200120815260200190815260200160002060009054906101000a900460ff16905092915050565b610569816040516024016104e79190610d8a565b6040516020818303038152906040527f27b7cf85000000000000000000000000000000000000000000000000000000007bffffffffffffffffffffffffffffffffffffffffffffffffffffffff19166020820180517bffffffffffffffffffffffffffffffffffffffffffffffffffffffff838183161783525050505061056c565b50565b60008151905060006a636f6e736f6c652e6c6f679050602083016000808483855afa5050505050565b600080fd5b600080fd5b6000819050919050565b6105b28161059f565b81146105bd57600080fd5b50565b6000813590506105cf816105a9565b92915050565b6000602082840312156105eb576105ea610595565b5b60006105f9848285016105c0565b91505092915050565b60008115159050919050565b61061781610602565b82525050565b6000602082019050610632600083018461060e565b92915050565b600080fd5b6000610100828403121561065457610653610638565b5b81905092915050565b600080fd5b600080fd5b600080fd5b60008083601f8401126106825761068161065d565b5b8235905067ffffffffffffffff81111561069f5761069e610662565b5b6020830191508360208202830111156106bb576106ba610667565b5b9250929050565b600080600061012084860312156106dc576106db610595565b5b60006106ea8682870161063d565b93505061010084013567ffffffffffffffff81111561070c5761070b61059a565b5b6107188682870161066c565b92509250509250925092565b600073ffffffffffffffffffffffffffffffffffffffff82169050919050565b600061074f82610724565b9050919050565b61075f81610744565b811461076a57600080fd5b50565b60008135905061077c81610756565b92915050565b6000806040838503121561079957610798610595565b5b60006107a78582860161076d565b92505060206107b8858286016105c0565b9150509250929050565b7f4e487b7100000000000000000000000000000000000000000000000000000000600052603260045260246000fd5b600082825260208201905092915050565b7f5365636f6e64207075626c696320617267756d656e74206f662070726f6f662060008201527f6d75737420626520796f75722061646472657373000000000000000000000000602082015250565b600061085e6034836107f1565b915061086982610802565b604082019050919050565b6000602082019050818103600083015261088d81610851565b9050919050565b7f50726f6f66206d75737420636f6d652066726f6d20617574686f72697479206160008201527f6464726573730000000000000000000000000000000000000000000000000000602082015250565b60006108f06026836107f1565b91506108fb82610894565b604082019050919050565b6000602082019050818103600083015261091f816108e3565b9050919050565b7f4f6e6520706572736f6e2063616e206f6e6c7920766572696679206f6e636500600082015250565b600061095c601f836107f1565b915061096782610926565b602082019050919050565b6000602082019050818103600083015261098b8161094f565b9050919050565b7f537962696c526573697374616e63650000000000000000000000000000000000600082015250565b60006109c8600f836107f1565b91506109d382610992565b602082019050919050565b600082905092915050565b60006109f860208401846105c0565b905092915050565b610a098161059f565b82525050565b60408201610a2060008301836109e9565b610a2d6000850182610a00565b50610a3b60208301836109e9565b610a486020850182610a00565b50505050565b600082905092915050565b600082905092915050565b82818337505050565b610a7960408383610a64565b5050565b60808201610a8e6000830183610a59565b610a9b6000850182610a6d565b50610aa96040830183610a59565b610ab66040850182610a6d565b50505050565b6101008201610ace60008301836109de565b610adb6000850182610a0f565b50610ae96040830183610a4e565b610af66040850182610a7d565b50610b0460c08301836109de565b610b1160c0850182610a0f565b50505050565b600082825260208201905092915050565b600080fd5b6000610b398385610b17565b93507f07ffffffffffffffffffffffffffffffffffffffffffffffffffffffffffffff831115610b6c57610b6b610b28565b5b602083029250610b7d838584610a64565b82840190509392505050565b6000610140820190508181036000830152610ba3816109bb565b9050610bb26020830186610abc565b818103610120830152610bc6818486610b2d565b9050949350505050565b610bd981610602565b8114610be457600080fd5b50565b600081519050610bf681610bd0565b92915050565b600060208284031215610c1257610c11610595565b5b6000610c2084828501610be7565b91505092915050565b7f4661696c656420746f207665726966792070726f6f6600000000000000000000600082015250565b6000610c5f6016836107f1565b9150610c6a82610c29565b602082019050919050565b60006020820190508181036000830152610c8e81610c52565b9050919050565b60008160601b9050919050565b6000610cad82610c95565b9050919050565b6000610cbf82610ca2565b9050919050565b610cd7610cd282610744565b610cb4565b82525050565b6000819050919050565b610cf8610cf38261059f565b610cdd565b82525050565b6000610d0a8285610cc6565b601482019150610d1a8284610ce7565b6020820191508190509392505050565b610d3381610744565b82525050565b610d428161059f565b82525050565b6000604082019050610d5d6000830185610d2a565b610d6a6020830184610d39565b9392505050565b6000819050919050565b610d8481610d71565b82525050565b6000602082019050610d9f6000830184610d7b565b9291505056fea2646970667358221220d1ac6455b3b316752a261005f2f9b39f1c2a0960fcc4d5b07bffc5a15deae30964736f6c63430008110033",
  "linkReferences": {},
  "deployedLinkReferences": {}
}