{
  "_format": "hh-sol-artifact-1",
  "contractName": "AntiSybilVerifier",
  "sourceName": "contracts/antiSybil.verifier.sol",
  "abi": [
    {
      "inputs": [
        {
          "components": [
            {
              "components": [
                {
                  "internalType": "uint256",
                  "name": "X",
                  "type": "uint256"
                },
                {
                  "internalType": "uint256",
                  "name": "Y",
                  "type": "uint256"
                }
              ],
              "internalType": "struct Pairing.G1Point",
              "name": "a",
              "type": "tuple"
            },
            {
              "components": [
                {
                  "internalType": "uint256[2]",
                  "name": "X",
                  "type": "uint256[2]"
                },
                {
                  "internalType": "uint256[2]",
                  "name": "Y",
                  "type": "uint256[2]"
                }
              ],
              "internalType": "struct Pairing.G2Point",
              "name": "b",
              "type": "tuple"
            },
            {
              "components": [
                {
                  "internalType": "uint256",
                  "name": "X",
                  "type": "uint256"
                },
                {
                  "internalType": "uint256",
                  "name": "Y",
                  "type": "uint256"
                }
              ],
              "internalType": "struct Pairing.G1Point",
              "name": "c",
              "type": "tuple"
            }
          ],
          "internalType": "struct Proof",
          "name": "proof",
          "type": "tuple"
        },
        {
          "internalType": "uint256[]",
          "name": "input_",
          "type": "uint256[]"
        }
      ],
      "name": "verifyEncoded",
      "outputs": [
        {
          "internalType": "bool",
          "name": "r",
          "type": "bool"
        }
      ],
      "stateMutability": "view",
      "type": "function"
    },
    {
      "inputs": [
        {
          "components": [
            {
              "components": [
                {
                  "internalType": "uint256",
                  "name": "X",
                  "type": "uint256"
                },
                {
                  "internalType": "uint256",
                  "name": "Y",
                  "type": "uint256"
                }
              ],
              "internalType": "struct Pairing.G1Point",
              "name": "a",
              "type": "tuple"
            },
            {
              "components": [
                {
                  "internalType": "uint256[2]",
                  "name": "X",
                  "type": "uint256[2]"
                },
                {
                  "internalType": "uint256[2]",
                  "name": "Y",
                  "type": "uint256[2]"
                }
              ],
              "internalType": "struct Pairing.G2Point",
              "name": "b",
              "type": "tuple"
            },
            {
              "components": [
                {
                  "internalType": "uint256",
                  "name": "X",
                  "type": "uint256"
                },
                {
                  "internalType": "uint256",
                  "name": "Y",
                  "type": "uint256"
                }
              ],
              "internalType": "struct Pairing.G1Point",
              "name": "c",
              "type": "tuple"
            }
          ],
          "internalType": "struct Proof",
          "name": "proof",
          "type": "tuple"
        },
        {
          "internalType": "uint256[5]",
          "name": "input",
          "type": "uint256[5]"
        }
      ],
      "name": "verifyTx",
      "outputs": [
        {
          "internalType": "bool",
          "name": "r",
          "type": "bool"
        }
      ],
      "stateMutability": "view",
      "type": "function"
    }
  ],
  "bytecode": "0x608060405234801561001057600080fd5b50611883806100206000396000f3fe608060405234801561001057600080fd5b50600436106100365760003560e01c8063ba21f38e1461003b578063bcb998861461006b575b600080fd5b61005560048036038101906100509190611267565b61009b565b60405161006291906112e4565b60405180910390f35b6100856004803603810190610080919061162d565b61011f565b60405161009291906112e4565b60405180910390f35b60006100a5611098565b60005b60058110156100fa578484828181106100c4576100c361166f565b5b905060200201358282600581106100de576100dd61166f565b5b60200201818152505080806100f2906116cd565b9150506100a8565b506101158580360381019061010f9190611715565b8261011f565b9150509392505050565b600080600567ffffffffffffffff81111561013d5761013c611315565b5b60405190808252806020026020018201604052801561016b5781602001602082028036833780820191505090505b50905060005b60058110156101c45783816005811061018d5761018c61166f565b5b60200201518282815181106101a5576101a461166f565b5b60200260200101818152505080806101bc906116cd565b915050610171565b5060006101d182866101ec565b036101e05760019150506101e6565b60009150505b92915050565b6000807f30644e72e131a029b85045b68181585d2833e84879b9709143e1f593f00000019050600061021c610383565b9050806080015151600186516102329190611743565b1461023c57600080fd5b60006040518060400160405280600081526020016000815250905060005b86518110156102f557838782815181106102775761027661166f565b5b60200260200101511061028957600080fd5b6102e0826102db85608001516001856102a29190611743565b815181106102b3576102b261166f565b5b60200260200101518a85815181106102ce576102cd61166f565b5b6020026020010151610966565b610a08565b915080806102ed906116cd565b91505061025a565b5061031f8183608001516000815181106103125761031161166f565b5b6020026020010151610a08565b90506103658560000151866020015161033784610ad0565b85604001516103498a60400151610ad0565b876060015161035b8960000151610ad0565b8960200151610b75565b610375576001935050505061037d565b600093505050505b92915050565b61038b6110ba565b60405180604001604052807f07cf3ea35ce89bd47ae7884ed63e681cdd2bcc9b1522c8513995b2efe1424bbc81526020017f0175240658c74aefc5d7e5f9298254ac527b06a541c5745375d8be7f6618f80a8152508160000181905250604051806040016040528060405180604001604052807f05b2d5f21d70e3e463cf78c09b6791c65b5a4e220a8e9f598a1eb07db21455fa81526020017f2f9e034fc8cd01282b990581a71b3c539a9e8b7670c9c4a7def9ed865c3254be815250815260200160405180604001604052807e49736bfe2b83a68f14c7ac8df40ed448eb85344f2116539497062b9628a01481526020017f1e49966ae8c5ad615d4f804a1a0733a0f9e0ec802e1102297d1aa89e545cc8b58152508152508160200181905250604051806040016040528060405180604001604052807f09b8b9280d1a535c41cd655d52beb176de2c75c7eaa27f683edc5c3b23fd4d2381526020017f2483cc62f2f655231a041c2efe3c0acf8ec228c662367e7643dde9486566083e815250815260200160405180604001604052807f2acd04fbd40b56b330ae9b7fae61de45078063eef9dc2efa85ac07670c9a871081526020017f289242c611532eb565c01dda2af7fdace4e181b429b1c522f09e2c45a41ec9868152508152508160400181905250604051806040016040528060405180604001604052807f1fb55ccd4e42f62ea22ec3f2343c6963503de5d52a5886e2de5600bdd6045edf81526020017f1a62735f741101477afc183dd602246d45a685556369fa8a3b59e23b3d6bb9b3815250815260200160405180604001604052807f2d72c8f7af207f2456102b5714d78986ed97f6a1859ff03b808cd1bbafa0ff7d81526020017f1a4dacd7a48f92c49b9a0c1e764a70b254ce3f61b2fa138e095237293ce7c3b58152508152508160600181905250600667ffffffffffffffff81111561065157610650611315565b5b60405190808252806020026020018201604052801561068a57816020015b610677611101565b81526020019060019003908161066f5790505b50816080018190525060405180604001604052807f2fbf2edc978f739425e24af07b701b0252aa5ed5fe6d0c1fa93f4e4e762b204381526020017f234cf92ca5acb62d3ca271ef6aa2ca4bb011886016a4fbb38bd78bfd3a3b05ee8152508160800151600081518110610700576106ff61166f565b5b602002602001018190525060405180604001604052807f1cdeace3919620bbdf2c821ff7a5067d36ec9b3e3b291c5871447e675f72dd8881526020017f255816c023276c902fb1b59789fc4ff19b23cf0e63cdc34fbd9202e5947a502081525081608001516001815181106107785761077761166f565b5b602002602001018190525060405180604001604052807f18e3ec6edb610ebaaec15f751bf8173d6336d2c5b09b288b9c8a9d478798393581526020017f272e548acd302e7fbda87612c1d68d737f1d816586e2a236b71e80cdd4cc3e0781525081608001516002815181106107f0576107ef61166f565b5b602002602001018190525060405180604001604052807f2998028f89a5496e4adb5332b22a054b9c843c4f54dcdca0951444157f0c8db081526020017f11faaa550f3ab63790adb6594e6bd9017e8253e416a4380ab7b8565acfcb82db81525081608001516003815181106108685761086761166f565b5b602002602001018190525060405180604001604052807f09a638226cfc46ac9661a3b62870302d3ff62a958ae2b5d141cba275a59932f381526020017f0d46745c05f8ece61658144223e895c54f087cad3923b5e7e3cf44353ab3504681525081608001516004815181106108e0576108df61166f565b5b602002602001018190525060405180604001604052807f26b78e89f8c6fad685ff502edc6d501adf0fff4ca04439412ca7c40a71543df881526020017f0eca22c5c5523eb363bb9df6a48421816aec29029d3d88ce2f4eeb595bf5887081525081608001516005815181106109585761095761166f565b5b602002602001018190525090565b61096e611101565b61097661111b565b83600001518160006003811061098f5761098e61166f565b5b6020020181815250508360200151816001600381106109b1576109b061166f565b5b60200201818152505082816002600381106109cf576109ce61166f565b5b602002018181525050600060608360808460076107d05a03fa905080600081036109f557fe5b5080610a0057600080fd5b505092915050565b610a10611101565b610a1861113d565b836000015181600060048110610a3157610a3061166f565b5b602002018181525050836020015181600160048110610a5357610a5261166f565b5b602002018181525050826000015181600260048110610a7557610a7461166f565b5b602002018181525050826020015181600360048110610a9757610a9661166f565b5b602002018181525050600060608360c08460066107d05a03fa90508060008103610abd57fe5b5080610ac857600080fd5b505092915050565b610ad8611101565b60007f30644e72e131a029b85045b68181585d97816a916871ca8d3c208c16d87cfd47905060008360000151148015610b15575060008360200151145b15610b39576040518060400160405280600081526020016000815250915050610b70565b604051806040016040528084600001518152602001828560200151610b5e91906117a6565b83610b6991906117d7565b8152509150505b919050565b600080600467ffffffffffffffff811115610b9357610b92611315565b5b604051908082528060200260200182016040528015610bcc57816020015b610bb9611101565b815260200190600190039081610bb15790505b5090506000600467ffffffffffffffff811115610bec57610beb611315565b5b604051908082528060200260200182016040528015610c2557816020015b610c1261115f565b815260200190600190039081610c0a5790505b5090508a82600081518110610c3d57610c3c61166f565b5b60200260200101819052508882600181518110610c5d57610c5c61166f565b5b60200260200101819052508682600281518110610c7d57610c7c61166f565b5b60200260200101819052508482600381518110610c9d57610c9c61166f565b5b60200260200101819052508981600081518110610cbd57610cbc61166f565b5b60200260200101819052508781600181518110610cdd57610cdc61166f565b5b60200260200101819052508581600281518110610cfd57610cfc61166f565b5b60200260200101819052508381600381518110610d1d57610d1c61166f565b5b6020026020010181905250610d328282610d42565b9250505098975050505050505050565b60008151835114610d5257600080fd5b6000835190506000600682610d67919061180b565b905060008167ffffffffffffffff811115610d8557610d84611315565b5b604051908082528060200260200182016040528015610db35781602001602082028036833780820191505090505b50905060005b8381101561103857868181518110610dd457610dd361166f565b5b602002602001015160000151826000600684610df0919061180b565b610dfa9190611743565b81518110610e0b57610e0a61166f565b5b602002602001018181525050868181518110610e2a57610e2961166f565b5b602002602001015160200151826001600684610e46919061180b565b610e509190611743565b81518110610e6157610e6061166f565b5b602002602001018181525050858181518110610e8057610e7f61166f565b5b602002602001015160000151600160028110610e9f57610e9e61166f565b5b6020020151826002600684610eb4919061180b565b610ebe9190611743565b81518110610ecf57610ece61166f565b5b602002602001018181525050858181518110610eee57610eed61166f565b5b602002602001015160000151600060028110610f0d57610f0c61166f565b5b6020020151826003600684610f22919061180b565b610f2c9190611743565b81518110610f3d57610f3c61166f565b5b602002602001018181525050858181518110610f5c57610f5b61166f565b5b602002602001015160200151600160028110610f7b57610f7a61166f565b5b6020020151826004600684610f90919061180b565b610f9a9190611743565b81518110610fab57610faa61166f565b5b602002602001018181525050858181518110610fca57610fc961166f565b5b602002602001015160200151600060028110610fe957610fe861166f565b5b6020020151826005600684610ffe919061180b565b6110089190611743565b815181106110195761101861166f565b5b6020026020010181815250508080611030906116cd565b915050610db9565b50611041611185565b6000602082602086026020860160086107d05a03fa9050806000810361106357fe5b508061106e57600080fd5b6000826000600181106110845761108361166f565b5b602002015114159550505050505092915050565b6040518060a00160405280600590602082028036833780820191505090505090565b6040518060a001604052806110cd611101565b81526020016110da61115f565b81526020016110e761115f565b81526020016110f461115f565b8152602001606081525090565b604051806040016040528060008152602001600081525090565b6040518060600160405280600390602082028036833780820191505090505090565b6040518060800160405280600490602082028036833780820191505090505090565b60405180604001604052806111726111a7565b815260200161117f6111a7565b81525090565b6040518060200160405280600190602082028036833780820191505090505090565b6040518060400160405280600290602082028036833780820191505090505090565b6000604051905090565b600080fd5b600080fd5b600080fd5b600061010082840312156111f9576111f86111dd565b5b81905092915050565b600080fd5b600080fd5b600080fd5b60008083601f84011261122757611226611202565b5b8235905067ffffffffffffffff81111561124457611243611207565b5b6020830191508360208202830111156112605761125f61120c565b5b9250929050565b60008060006101208486031215611281576112806111d3565b5b600061128f868287016111e2565b93505061010084013567ffffffffffffffff8111156112b1576112b06111d8565b5b6112bd86828701611211565b92509250509250925092565b60008115159050919050565b6112de816112c9565b82525050565b60006020820190506112f960008301846112d5565b92915050565b600080fd5b6000601f19601f8301169050919050565b7f4e487b7100000000000000000000000000000000000000000000000000000000600052604160045260246000fd5b61134d82611304565b810181811067ffffffffffffffff8211171561136c5761136b611315565b5b80604052505050565b600061137f6111c9565b905061138b8282611344565b919050565b6000819050919050565b6113a381611390565b81146113ae57600080fd5b50565b6000813590506113c08161139a565b92915050565b6000604082840312156113dc576113db6112ff565b5b6113e66040611375565b905060006113f6848285016113b1565b600083015250602061140a848285016113b1565b60208301525092915050565b600067ffffffffffffffff82111561143157611430611315565b5b602082029050919050565b600061144f61144a84611416565b611375565b905080602084028301858111156114695761146861120c565b5b835b81811015611492578061147e88826113b1565b84526020840193505060208101905061146b565b5050509392505050565b600082601f8301126114b1576114b0611202565b5b60026114be84828561143c565b91505092915050565b6000608082840312156114dd576114dc6112ff565b5b6114e76040611375565b905060006114f78482850161149c565b600083015250604061150b8482850161149c565b60208301525092915050565b6000610100828403121561152e5761152d6112ff565b5b6115386060611375565b90506000611548848285016113c6565b600083015250604061155c848285016114c7565b60208301525060c0611570848285016113c6565b60408301525092915050565b600067ffffffffffffffff82111561159757611596611315565b5b602082029050919050565b60006115b56115b08461157c565b611375565b905080602084028301858111156115cf576115ce61120c565b5b835b818110156115f857806115e488826113b1565b8452602084019350506020810190506115d1565b5050509392505050565b600082601f83011261161757611616611202565b5b60056116248482856115a2565b91505092915050565b6000806101a08385031215611645576116446111d3565b5b600061165385828601611517565b92505061010061166585828601611602565b9150509250929050565b7f4e487b7100000000000000000000000000000000000000000000000000000000600052603260045260246000fd5b7f4e487b7100000000000000000000000000000000000000000000000000000000600052601160045260246000fd5b60006116d882611390565b91507fffffffffffffffffffffffffffffffffffffffffffffffffffffffffffffffff820361170a5761170961169e565b5b600182019050919050565b6000610100828403121561172c5761172b6111d3565b5b600061173a84828501611517565b91505092915050565b600061174e82611390565b915061175983611390565b92508282019050808211156117715761177061169e565b5b92915050565b7f4e487b7100000000000000000000000000000000000000000000000000000000600052601260045260246000fd5b60006117b182611390565b91506117bc83611390565b9250826117cc576117cb611777565b5b828206905092915050565b60006117e282611390565b91506117ed83611390565b92508282039050818111156118055761180461169e565b5b92915050565b600061181682611390565b915061182183611390565b925082820261182f81611390565b915082820484148315176118465761184561169e565b5b509291505056fea2646970667358221220bbe4db3673debdbf297ed856ad817d66e440531a74f572662fe53a40a62c4a7864736f6c63430008110033",
  "linkReferences": {},
  "deployedLinkReferences": {}
}