{
  "_format": "hh-sol-artifact-1",
  "contractName": "IsUSResident",
  "sourceName": "contracts/IsUSResident.sol",
  "abi": [
    {
      "inputs": [
        {
          "internalType": "address",
          "name": "hub_",
          "type": "address"
        },
        {
          "internalType": "address",
          "name": "authorityAddress_",
          "type": "address"
        }
      ],
      "stateMutability": "nonpayable",
      "type": "constructor"
    },
    {
      "anonymous": false,
      "inputs": [
        {
          "indexed": false,
          "internalType": "address",
          "name": "userAddr",
          "type": "address"
        },
        {
          "indexed": false,
          "internalType": "bool",
          "name": "usResidency",
          "type": "bool"
        }
      ],
      "name": "USResidency",
      "type": "event"
    },
    {
      "inputs": [
        {
          "internalType": "uint256",
          "name": "",
          "type": "uint256"
        }
      ],
      "name": "masalaWasUsed",
      "outputs": [
        {
          "internalType": "bool",
          "name": "",
          "type": "bool"
        }
      ],
      "stateMutability": "view",
      "type": "function"
    },
    {
      "inputs": [
        {
          "components": [
            {
              "components": [
                {
                  "internalType": "uint256",
                  "name": "X",
                  "type": "uint256"
                },
                {
                  "internalType": "uint256",
                  "name": "Y",
                  "type": "uint256"
                }
              ],
              "internalType": "struct Pairing.G1Point",
              "name": "a",
              "type": "tuple"
            },
            {
              "components": [
                {
                  "internalType": "uint256[2]",
                  "name": "X",
                  "type": "uint256[2]"
                },
                {
                  "internalType": "uint256[2]",
                  "name": "Y",
                  "type": "uint256[2]"
                }
              ],
              "internalType": "struct Pairing.G2Point",
              "name": "b",
              "type": "tuple"
            },
            {
              "components": [
                {
                  "internalType": "uint256",
                  "name": "X",
                  "type": "uint256"
                },
                {
                  "internalType": "uint256",
                  "name": "Y",
                  "type": "uint256"
                }
              ],
              "internalType": "struct Pairing.G1Point",
              "name": "c",
              "type": "tuple"
            }
          ],
          "internalType": "struct Proof",
          "name": "proof",
          "type": "tuple"
        },
        {
          "internalType": "uint256[]",
          "name": "input",
          "type": "uint256[]"
        }
      ],
      "name": "proofIsValid",
      "outputs": [
        {
          "internalType": "bool",
          "name": "isValid",
          "type": "bool"
        }
      ],
      "stateMutability": "view",
      "type": "function"
    },
    {
      "inputs": [
        {
          "components": [
            {
              "components": [
                {
                  "internalType": "uint256",
                  "name": "X",
                  "type": "uint256"
                },
                {
                  "internalType": "uint256",
                  "name": "Y",
                  "type": "uint256"
                }
              ],
              "internalType": "struct Pairing.G1Point",
              "name": "a",
              "type": "tuple"
            },
            {
              "components": [
                {
                  "internalType": "uint256[2]",
                  "name": "X",
                  "type": "uint256[2]"
                },
                {
                  "internalType": "uint256[2]",
                  "name": "Y",
                  "type": "uint256[2]"
                }
              ],
              "internalType": "struct Pairing.G2Point",
              "name": "b",
              "type": "tuple"
            },
            {
              "components": [
                {
                  "internalType": "uint256",
                  "name": "X",
                  "type": "uint256"
                },
                {
                  "internalType": "uint256",
                  "name": "Y",
                  "type": "uint256"
                }
              ],
              "internalType": "struct Pairing.G1Point",
              "name": "c",
              "type": "tuple"
            }
          ],
          "internalType": "struct Proof",
          "name": "proof",
          "type": "tuple"
        },
        {
          "internalType": "uint256[]",
          "name": "input",
          "type": "uint256[]"
        }
      ],
      "name": "prove",
      "outputs": [],
      "stateMutability": "nonpayable",
      "type": "function"
    },
    {
      "inputs": [
        {
          "internalType": "address",
          "name": "",
          "type": "address"
        }
      ],
      "name": "usResidency",
      "outputs": [
        {
          "internalType": "bool",
          "name": "",
          "type": "bool"
        }
      ],
      "stateMutability": "view",
      "type": "function"
    }
  ],
  "bytecode": "0x608060405234801561001057600080fd5b50604051610e1a380380610e1a833981810160405281019061003291906100fa565b81600260006101000a81548173ffffffffffffffffffffffffffffffffffffffff021916908373ffffffffffffffffffffffffffffffffffffffff1602179055508073ffffffffffffffffffffffffffffffffffffffff16600381905550505061013a565b600080fd5b600073ffffffffffffffffffffffffffffffffffffffff82169050919050565b60006100c78261009c565b9050919050565b6100d7816100bc565b81146100e257600080fd5b50565b6000815190506100f4816100ce565b92915050565b6000806040838503121561011157610110610097565b5b600061011f858286016100e5565b9250506020610130858286016100e5565b9150509250929050565b610cd1806101496000396000f3fe608060405234801561001057600080fd5b506004361061004c5760003560e01c80635dbf2a1614610051578063775d0df014610081578063902f8985146100b1578063bcd78406146100cd575b600080fd5b61006b60048036038101906100669190610578565b6100fd565b60405161007891906105f5565b60405180910390f35b61009b60048036038101906100969190610646565b61039b565b6040516100a891906105f5565b60405180910390f35b6100cb60048036038101906100c69190610578565b6103bb565b005b6100e760048036038101906100e291906106d1565b6104c4565b6040516100f491906105f5565b60405180910390f35b600060035483836002818110610116576101156106fe565b5b905060200201351461015d576040517f08c379a0000000000000000000000000000000000000000000000000000000008152600401610154906107b0565b60405180910390fd5b7f28ca58c3c1044c5277405071d5e3754aeaa4f91dae2c8647275f0b168ae4a94c83836003818110610192576101916106fe565b5b90506020020135146101d9576040517f08c379a00000000000000000000000000000000000000000000000000000000081526004016101d090610842565b60405180910390fd5b60016000848460048181106101f1576101f06106fe565b5b90506020020135815260200190815260200160002060009054906101000a900460ff1615610254576040517f08c379a000000000000000000000000000000000000000000000000000000000815260040161024b906108ae565b60405180910390fd5b60028383600581811061026a576102696106fe565b5b90506020020135146102b1576040517f08c379a00000000000000000000000000000000000000000000000000000000081526004016102a890610940565b60405180910390fd5b600260009054906101000a900473ffffffffffffffffffffffffffffffffffffffff1673ffffffffffffffffffffffffffffffffffffffff1663813941b38585856040518463ffffffff1660e01b815260040161031093929190610b57565b602060405180830381865afa15801561032d573d6000803e3d6000fd5b505050506040513d601f19601f820116820180604052508101906103519190610bca565b610390576040517f08c379a000000000000000000000000000000000000000000000000000000000815260040161038790610c43565b60405180910390fd5b600190509392505050565b60016020528060005260406000206000915054906101000a900460ff1681565b6103c68383836100fd565b6103cf57600080fd5b6001806000848460048181106103e8576103e76106fe565b5b90506020020135815260200190815260200160002060006101000a81548160ff02191690831515021790555060016000808484600181811061042d5761042c6106fe565b5b9050602002013573ffffffffffffffffffffffffffffffffffffffff1673ffffffffffffffffffffffffffffffffffffffff16815260200190815260200160002060006101000a81548160ff0219169083151502179055507f8e3ae60e21d8ff9f5e6d7714232751cbbaff6ccd8d9366369baa0f499fb0a6fb3360016040516104b7929190610c72565b60405180910390a1505050565b60006020528060005260406000206000915054906101000a900460ff1681565b600080fd5b600080fd5b600080fd5b6000610100828403121561050a576105096104ee565b5b81905092915050565b600080fd5b600080fd5b600080fd5b60008083601f84011261053857610537610513565b5b8235905067ffffffffffffffff81111561055557610554610518565b5b6020830191508360208202830111156105715761057061051d565b5b9250929050565b60008060006101208486031215610592576105916104e4565b5b60006105a0868287016104f3565b93505061010084013567ffffffffffffffff8111156105c2576105c16104e9565b5b6105ce86828701610522565b92509250509250925092565b60008115159050919050565b6105ef816105da565b82525050565b600060208201905061060a60008301846105e6565b92915050565b6000819050919050565b61062381610610565b811461062e57600080fd5b50565b6000813590506106408161061a565b92915050565b60006020828403121561065c5761065b6104e4565b5b600061066a84828501610631565b91505092915050565b600073ffffffffffffffffffffffffffffffffffffffff82169050919050565b600061069e82610673565b9050919050565b6106ae81610693565b81146106b957600080fd5b50565b6000813590506106cb816106a5565b92915050565b6000602082840312156106e7576106e66104e4565b5b60006106f5848285016106bc565b91505092915050565b7f4e487b7100000000000000000000000000000000000000000000000000000000600052603260045260246000fd5b600082825260208201905092915050565b7f50726f6f66206d75737420636f6d652066726f6d20617574686f72697479206160008201527f6464726573730000000000000000000000000000000000000000000000000000602082015250565b600061079a60268361072d565b91506107a58261073e565b604082019050919050565b600060208201905081810360008301526107c98161078d565b9050919050565b7f466f6f747072696e74206973206d6164652066726f6d207468652077726f6e6760008201527f2073616c74000000000000000000000000000000000000000000000000000000602082015250565b600061082c60258361072d565b9150610837826107d0565b604082019050919050565b6000602082019050818103600083015261085b8161081f565b9050919050565b7f4f6e6520706572736f6e2063616e206f6e6c7920766572696679206f6e636500600082015250565b6000610898601f8361072d565b91506108a382610862565b602082019050919050565b600060208201905081810360008301526108c78161088b565b9050919050565b7f43726564656e7469616c7320646f206e6f74206861766520555320617320636f60008201527f756e74727920636f646500000000000000000000000000000000000000000000602082015250565b600061092a602a8361072d565b9150610935826108ce565b604082019050919050565b600060208201905081810360008301526109598161091d565b9050919050565b7f55535265736964656e7400000000000000000000000000000000000000000000600082015250565b6000610996600a8361072d565b91506109a182610960565b602082019050919050565b600082905092915050565b60006109c66020840184610631565b905092915050565b6109d781610610565b82525050565b604082016109ee60008301836109b7565b6109fb60008501826109ce565b50610a0960208301836109b7565b610a1660208501826109ce565b50505050565b600082905092915050565b600082905092915050565b82818337505050565b610a4760408383610a32565b5050565b60808201610a5c6000830183610a27565b610a696000850182610a3b565b50610a776040830183610a27565b610a846040850182610a3b565b50505050565b6101008201610a9c60008301836109ac565b610aa960008501826109dd565b50610ab76040830183610a1c565b610ac46040850182610a4b565b50610ad260c08301836109ac565b610adf60c08501826109dd565b50505050565b600082825260208201905092915050565b600080fd5b6000610b078385610ae5565b93507f07ffffffffffffffffffffffffffffffffffffffffffffffffffffffffffffff831115610b3a57610b39610af6565b5b602083029250610b4b838584610a32565b82840190509392505050565b6000610140820190508181036000830152610b7181610989565b9050610b806020830186610a8a565b818103610120830152610b94818486610afb565b9050949350505050565b610ba7816105da565b8114610bb257600080fd5b50565b600081519050610bc481610b9e565b92915050565b600060208284031215610be057610bdf6104e4565b5b6000610bee84828501610bb5565b91505092915050565b7f4661696c656420746f207665726966792070726f6f6600000000000000000000600082015250565b6000610c2d60168361072d565b9150610c3882610bf7565b602082019050919050565b60006020820190508181036000830152610c5c81610c20565b9050919050565b610c6c81610693565b82525050565b6000604082019050610c876000830185610c63565b610c9460208301846105e6565b939250505056fea26469706673582212202b524089bd7005758ffec3841b7cb31634b072b73131a0ec761880414a86111164736f6c63430008110033",
  "linkReferences": {},
  "deployedLinkReferences": {}
}