{
  "_format": "hh-sol-artifact-1",
  "contractName": "USResidency",
  "sourceName": "contracts/examples/USResidency.sol",
  "abi": [
    {
      "inputs": [],
      "stateMutability": "nonpayable",
      "type": "constructor"
    },
    {
      "inputs": [],
      "name": "sendStimmy",
      "outputs": [],
      "stateMutability": "nonpayable",
      "type": "function"
    }
  ],
  "bytecode": "0x608060405234801561001057600080fd5b507342d6007317ced2281a64acc052ce57e3d92bf9126000806101000a81548173ffffffffffffffffffffffffffffffffffffffff021916908373ffffffffffffffffffffffffffffffffffffffff1602179055506102eb806100746000396000f3fe608060405234801561001057600080fd5b506004361061002b5760003560e01c80638db448a814610030575b600080fd5b61003861003a565b005b60008054906101000a900473ffffffffffffffffffffffffffffffffffffffff1673ffffffffffffffffffffffffffffffffffffffff1663bcd78406336040518263ffffffff1660e01b8152600401610093919061018d565b602060405180830381865afa1580156100b0573d6000803e3d6000fd5b505050506040513d601f19601f820116820180604052508101906100d491906101e5565b610113576040517f08c379a000000000000000000000000000000000000000000000000000000000815260040161010a90610295565b60405180910390fd5b3373ffffffffffffffffffffffffffffffffffffffff166108fc60019081150290604051600060405180830381858888f1935050505050565b600073ffffffffffffffffffffffffffffffffffffffff82169050919050565b60006101778261014c565b9050919050565b6101878161016c565b82525050565b60006020820190506101a2600083018461017e565b92915050565b600080fd5b60008115159050919050565b6101c2816101ad565b81146101cd57600080fd5b50565b6000815190506101df816101b9565b92915050565b6000602082840312156101fb576101fa6101a8565b5b6000610209848285016101d0565b91505092915050565b600082825260208201905092915050565b7f596f752068617665206e6f742070726f76656e20796f75206172652066726f6d60008201527f2074686520555300000000000000000000000000000000000000000000000000602082015250565b600061027f602783610212565b915061028a82610223565b604082019050919050565b600060208201905081810360008301526102ae81610272565b905091905056fea2646970667358221220b96a6ba3a47ac11479b80adf49703010824301009bbebeb361644476e9beba6a64736f6c63430008110033",
  "linkReferences": {},
  "deployedLinkReferences": {}
}