{
  "_format": "hh-sol-artifact-1",
  "contractName": "ProofRouter",
  "sourceName": "contracts/ProofRouter.sol",
  "abi": [
    {
      "inputs": [
        {
          "internalType": "address",
          "name": "admin",
          "type": "address"
        }
      ],
      "stateMutability": "nonpayable",
      "type": "constructor"
    },
    {
      "anonymous": false,
      "inputs": [
        {
          "indexed": true,
          "internalType": "address",
          "name": "previousOwner",
          "type": "address"
        },
        {
          "indexed": true,
          "internalType": "address",
          "name": "newOwner",
          "type": "address"
        }
      ],
      "name": "OwnershipTransferred",
      "type": "event"
    },
    {
      "inputs": [
        {
          "internalType": "string",
          "name": "name",
          "type": "string"
        },
        {
          "internalType": "address",
          "name": "destination",
          "type": "address"
        }
      ],
      "name": "addRoute",
      "outputs": [],
      "stateMutability": "nonpayable",
      "type": "function"
    },
    {
      "inputs": [],
      "name": "owner",
      "outputs": [
        {
          "internalType": "address",
          "name": "",
          "type": "address"
        }
      ],
      "stateMutability": "view",
      "type": "function"
    },
    {
      "inputs": [],
      "name": "renounceOwnership",
      "outputs": [],
      "stateMutability": "nonpayable",
      "type": "function"
    },
    {
      "inputs": [
        {
          "internalType": "string",
          "name": "",
          "type": "string"
        }
      ],
      "name": "routes",
      "outputs": [
        {
          "internalType": "address",
          "name": "",
          "type": "address"
        }
      ],
      "stateMutability": "view",
      "type": "function"
    },
    {
      "inputs": [
        {
          "internalType": "address",
          "name": "newOwner",
          "type": "address"
        }
      ],
      "name": "transferOwnership",
      "outputs": [],
      "stateMutability": "nonpayable",
      "type": "function"
    },
    {
      "inputs": [
        {
          "internalType": "string",
          "name": "name",
          "type": "string"
        },
        {
          "components": [
            {
              "components": [
                {
                  "internalType": "uint256",
                  "name": "X",
                  "type": "uint256"
                },
                {
                  "internalType": "uint256",
                  "name": "Y",
                  "type": "uint256"
                }
              ],
              "internalType": "struct Pairing.G1Point",
              "name": "a",
              "type": "tuple"
            },
            {
              "components": [
                {
                  "internalType": "uint256[2]",
                  "name": "X",
                  "type": "uint256[2]"
                },
                {
                  "internalType": "uint256[2]",
                  "name": "Y",
                  "type": "uint256[2]"
                }
              ],
              "internalType": "struct Pairing.G2Point",
              "name": "b",
              "type": "tuple"
            },
            {
              "components": [
                {
                  "internalType": "uint256",
                  "name": "X",
                  "type": "uint256"
                },
                {
                  "internalType": "uint256",
                  "name": "Y",
                  "type": "uint256"
                }
              ],
              "internalType": "struct Pairing.G1Point",
              "name": "c",
              "type": "tuple"
            }
          ],
          "internalType": "struct Proof",
          "name": "proof",
          "type": "tuple"
        },
        {
          "internalType": "uint256[]",
          "name": "input",
          "type": "uint256[]"
        }
      ],
      "name": "verifyProof",
      "outputs": [
        {
          "internalType": "bool",
          "name": "",
          "type": "bool"
        }
      ],
      "stateMutability": "view",
      "type": "function"
    }
  ],
  "bytecode": "0x60806040523480156200001157600080fd5b5060405162001101380380620011018339818101604052810190620000379190620001a5565b620000576200004b6200006f60201b60201c565b6200007760201b60201c565b62000068816200007760201b60201c565b50620001d7565b600033905090565b60008060009054906101000a900473ffffffffffffffffffffffffffffffffffffffff169050816000806101000a81548173ffffffffffffffffffffffffffffffffffffffff021916908373ffffffffffffffffffffffffffffffffffffffff1602179055508173ffffffffffffffffffffffffffffffffffffffff168173ffffffffffffffffffffffffffffffffffffffff167f8be0079c531659141344cd1fd0a4f28419497f9722a3daafe3b4186f6b6457e060405160405180910390a35050565b600080fd5b600073ffffffffffffffffffffffffffffffffffffffff82169050919050565b60006200016d8262000140565b9050919050565b6200017f8162000160565b81146200018b57600080fd5b50565b6000815190506200019f8162000174565b92915050565b600060208284031215620001be57620001bd6200013b565b5b6000620001ce848285016200018e565b91505092915050565b610f1a80620001e76000396000f3fe608060405234801561001057600080fd5b50600436106100625760003560e01c8063715018a614610067578063813941b314610071578063850e3075146100a15780638da5cb5b146100bd578063cffbffb5146100db578063f2fde38b1461010b575b600080fd5b61006f610127565b005b61008b600480360381019061008691906106cd565b61013b565b604051610098919061077f565b60405180910390f35b6100bb60048036038101906100b69190610939565b610284565b005b6100c561039a565b6040516100d291906109a4565b60405180910390f35b6100f560048036038101906100f091906109bf565b6103c3565b60405161010291906109a4565b60405180910390f35b61012560048036038101906101209190610a08565b61040c565b005b61012f61048f565b610139600061050d565b565b60008073ffffffffffffffffffffffffffffffffffffffff1660018787604051610166929190610a65565b908152602001604051809103902060009054906101000a900473ffffffffffffffffffffffffffffffffffffffff1673ffffffffffffffffffffffffffffffffffffffff16036101b557600080fd5b6000600187876040516101c9929190610a65565b908152602001604051809103902060009054906101000a900473ffffffffffffffffffffffffffffffffffffffff1690508073ffffffffffffffffffffffffffffffffffffffff1663ba21f38e8686866040518463ffffffff1660e01b815260040161023793929190610c5f565b602060405180830381865afa158015610254573d6000803e3d6000fd5b505050506040513d601f19601f820116820180604052508101906102789190610cbf565b91505095945050505050565b61028c61048f565b600073ffffffffffffffffffffffffffffffffffffffff166001836040516102b49190610d52565b908152602001604051809103902060009054906101000a900473ffffffffffffffffffffffffffffffffffffffff1673ffffffffffffffffffffffffffffffffffffffff1614610339576040517f08c379a000000000000000000000000000000000000000000000000000000000815260040161033090610dc6565b60405180910390fd5b8060018360405161034a9190610d52565b908152602001604051809103902060006101000a81548173ffffffffffffffffffffffffffffffffffffffff021916908373ffffffffffffffffffffffffffffffffffffffff1602179055505050565b60008060009054906101000a900473ffffffffffffffffffffffffffffffffffffffff16905090565b6001818051602081018201805184825260208301602085012081835280955050505050506000915054906101000a900473ffffffffffffffffffffffffffffffffffffffff1681565b61041461048f565b600073ffffffffffffffffffffffffffffffffffffffff168173ffffffffffffffffffffffffffffffffffffffff1603610483576040517f08c379a000000000000000000000000000000000000000000000000000000000815260040161047a90610e58565b60405180910390fd5b61048c8161050d565b50565b6104976105d1565b73ffffffffffffffffffffffffffffffffffffffff166104b561039a565b73ffffffffffffffffffffffffffffffffffffffff161461050b576040517f08c379a000000000000000000000000000000000000000000000000000000000815260040161050290610ec4565b60405180910390fd5b565b60008060009054906101000a900473ffffffffffffffffffffffffffffffffffffffff169050816000806101000a81548173ffffffffffffffffffffffffffffffffffffffff021916908373ffffffffffffffffffffffffffffffffffffffff1602179055508173ffffffffffffffffffffffffffffffffffffffff168173ffffffffffffffffffffffffffffffffffffffff167f8be0079c531659141344cd1fd0a4f28419497f9722a3daafe3b4186f6b6457e060405160405180910390a35050565b600033905090565b6000604051905090565b600080fd5b600080fd5b600080fd5b600080fd5b600080fd5b60008083601f840112610612576106116105ed565b5b8235905067ffffffffffffffff81111561062f5761062e6105f2565b5b60208301915083600182028301111561064b5761064a6105f7565b5b9250929050565b600080fd5b6000610100828403121561066e5761066d610652565b5b81905092915050565b60008083601f84011261068d5761068c6105ed565b5b8235905067ffffffffffffffff8111156106aa576106a96105f2565b5b6020830191508360208202830111156106c6576106c56105f7565b5b9250929050565b600080600080600061014086880312156106ea576106e96105e3565b5b600086013567ffffffffffffffff811115610708576107076105e8565b5b610714888289016105fc565b9550955050602061072788828901610657565b93505061012086013567ffffffffffffffff811115610749576107486105e8565b5b61075588828901610677565b92509250509295509295909350565b60008115159050919050565b61077981610764565b82525050565b60006020820190506107946000830184610770565b92915050565b600080fd5b6000601f19601f8301169050919050565b7f4e487b7100000000000000000000000000000000000000000000000000000000600052604160045260246000fd5b6107e88261079f565b810181811067ffffffffffffffff82111715610807576108066107b0565b5b80604052505050565b600061081a6105d9565b905061082682826107df565b919050565b600067ffffffffffffffff821115610846576108456107b0565b5b61084f8261079f565b9050602081019050919050565b82818337600083830152505050565b600061087e6108798461082b565b610810565b90508281526020810184848401111561089a5761089961079a565b5b6108a584828561085c565b509392505050565b600082601f8301126108c2576108c16105ed565b5b81356108d284826020860161086b565b91505092915050565b600073ffffffffffffffffffffffffffffffffffffffff82169050919050565b6000610906826108db565b9050919050565b610916816108fb565b811461092157600080fd5b50565b6000813590506109338161090d565b92915050565b600080604083850312156109505761094f6105e3565b5b600083013567ffffffffffffffff81111561096e5761096d6105e8565b5b61097a858286016108ad565b925050602061098b85828601610924565b9150509250929050565b61099e816108fb565b82525050565b60006020820190506109b96000830184610995565b92915050565b6000602082840312156109d5576109d46105e3565b5b600082013567ffffffffffffffff8111156109f3576109f26105e8565b5b6109ff848285016108ad565b91505092915050565b600060208284031215610a1e57610a1d6105e3565b5b6000610a2c84828501610924565b91505092915050565b600081905092915050565b6000610a4c8385610a35565b9350610a5983858461085c565b82840190509392505050565b6000610a72828486610a40565b91508190509392505050565b600082905092915050565b6000819050919050565b610a9c81610a89565b8114610aa757600080fd5b50565b600081359050610ab981610a93565b92915050565b6000610ace6020840184610aaa565b905092915050565b610adf81610a89565b82525050565b60408201610af66000830183610abf565b610b036000850182610ad6565b50610b116020830183610abf565b610b1e6020850182610ad6565b50505050565b600082905092915050565b600082905092915050565b82818337505050565b610b4f60408383610b3a565b5050565b60808201610b646000830183610b2f565b610b716000850182610b43565b50610b7f6040830183610b2f565b610b8c6040850182610b43565b50505050565b6101008201610ba46000830183610a7e565b610bb16000850182610ae5565b50610bbf6040830183610b24565b610bcc6040850182610b53565b50610bda60c0830183610a7e565b610be760c0850182610ae5565b50505050565b600082825260208201905092915050565b600080fd5b6000610c0f8385610bed565b93507f07ffffffffffffffffffffffffffffffffffffffffffffffffffffffffffffff831115610c4257610c41610bfe565b5b602083029250610c53838584610b3a565b82840190509392505050565b600061012082019050610c756000830186610b92565b818103610100830152610c89818486610c03565b9050949350505050565b610c9c81610764565b8114610ca757600080fd5b50565b600081519050610cb981610c93565b92915050565b600060208284031215610cd557610cd46105e3565b5b6000610ce384828501610caa565b91505092915050565b600081519050919050565b60005b83811015610d15578082015181840152602081019050610cfa565b60008484015250505050565b6000610d2c82610cec565b610d368185610a35565b9350610d46818560208601610cf7565b80840191505092915050565b6000610d5e8284610d21565b915081905092915050565b600082825260208201905092915050565b7f63616e6e6f74206f76657272696465206578697374696e6720726f7574650000600082015250565b6000610db0601e83610d69565b9150610dbb82610d7a565b602082019050919050565b60006020820190508181036000830152610ddf81610da3565b9050919050565b7f4f776e61626c653a206e6577206f776e657220697320746865207a65726f206160008201527f6464726573730000000000000000000000000000000000000000000000000000602082015250565b6000610e42602683610d69565b9150610e4d82610de6565b604082019050919050565b60006020820190508181036000830152610e7181610e35565b9050919050565b7f4f776e61626c653a2063616c6c6572206973206e6f7420746865206f776e6572600082015250565b6000610eae602083610d69565b9150610eb982610e78565b602082019050919050565b60006020820190508181036000830152610edd81610ea1565b905091905056fea264697066735822122072d14fbda13ade850f037ecb20b087b6eae6982add6fa33e8ea9be5949c22a6164736f6c63430008110033",
  "linkReferences": {},
  "deployedLinkReferences": {}
}