{
  "_format": "hh-sol-artifact-1",
  "contractName": "AddLeafBig",
  "sourceName": "contracts/AddLeafBig.sol",
  "abi": [
    {
      "inputs": [
        {
          "components": [
            {
              "components": [
                {
                  "internalType": "uint256",
                  "name": "X",
                  "type": "uint256"
                },
                {
                  "internalType": "uint256",
                  "name": "Y",
                  "type": "uint256"
                }
              ],
              "internalType": "struct Pairing.G1Point",
              "name": "a",
              "type": "tuple"
            },
            {
              "components": [
                {
                  "internalType": "uint256[2]",
                  "name": "X",
                  "type": "uint256[2]"
                },
                {
                  "internalType": "uint256[2]",
                  "name": "Y",
                  "type": "uint256[2]"
                }
              ],
              "internalType": "struct Pairing.G2Point",
              "name": "b",
              "type": "tuple"
            },
            {
              "components": [
                {
                  "internalType": "uint256",
                  "name": "X",
                  "type": "uint256"
                },
                {
                  "internalType": "uint256",
                  "name": "Y",
                  "type": "uint256"
                }
              ],
              "internalType": "struct Pairing.G1Point",
              "name": "c",
              "type": "tuple"
            }
          ],
          "internalType": "struct Proof",
          "name": "proof",
          "type": "tuple"
        },
        {
          "internalType": "uint256[21]",
          "name": "input",
          "type": "uint256[21]"
        }
      ],
      "name": "verifyTx",
      "outputs": [
        {
          "internalType": "bool",
          "name": "r",
          "type": "bool"
        }
      ],
      "stateMutability": "view",
      "type": "function"
    }
  ],
  "bytecode": "0x608060405234801561001057600080fd5b50611e0c806100206000396000f3fe608060405234801561001057600080fd5b506004361061002b5760003560e01c8063c7f0213014610030575b600080fd5b61004a60048036038101906100459190611bae565b610060565b6040516100579190611c0b565b60405180910390f35b600080601567ffffffffffffffff81111561007e5761007d61188c565b5b6040519080825280602002602001820160405280156100ac5781602001602082028036833780820191505090505b50905060005b6015811015610105578381601581106100ce576100cd611c26565b5b60200201518282815181106100e6576100e5611c26565b5b60200260200101818152505080806100fd90611c84565b9150506100b2565b506000610112828661012d565b03610121576001915050610127565b60009150505b92915050565b6000807f30644e72e131a029b85045b68181585d2833e84879b9709143e1f593f00000019050600061015d6102c4565b9050806080015151600186516101739190611ccc565b1461017d57600080fd5b60006040518060400160405280600081526020016000815250905060005b865181101561023657838782815181106101b8576101b7611c26565b5b6020026020010151106101ca57600080fd5b6102218261021c85608001516001856101e39190611ccc565b815181106101f4576101f3611c26565b5b60200260200101518a858151811061020f5761020e611c26565b5b6020026020010151611026565b6110c8565b9150808061022e90611c84565b91505061019b565b5061026081836080015160008151811061025357610252611c26565b5b60200260200101516110c8565b90506102a68560000151866020015161027884611190565b856040015161028a8a60400151611190565b876060015161029c8960000151611190565b8960200151611235565b6102b657600193505050506102be565b600093505050505b92915050565b6102cc611758565b60405180604001604052807f07cfa603bd6141fe26cc32c60a2526305ee1316902806ddffd1bc3f80e4c841a81526020017f2116003ed77cfa8a89c157542dce881990096102a1a31d024edcfaa0af4f26fe8152508160000181905250604051806040016040528060405180604001604052807f26159c93eab75a858d7a030e916a27681953a4a808610834dec2ac213d738cad81526020017f2bfe6f19134a077dd8b8fa1d5891062c7b743d6fdef6ff6985e722f81e1265ad815250815260200160405180604001604052807f1d3fe0902afcc25421e56fa344869d55c41e39896dc412d90494b239d7f3e98e81526020017f2ee0d188f280f0122b52c4d4ad794106272f431bb6bb0796d295be5623dc2cd48152508152508160200181905250604051806040016040528060405180604001604052807f06d7355bbfee5ef500d0fe544198c338d187bc61c3791977d09ff9bcde44841181526020017f1afcab3ac7c221b3c0ff2fafc116bfe24e22adf48ccc379314e5df3cdce9a50e815250815260200160405180604001604052807f26895fff2ed8ef83f6945a0ce48b71bc2032124bcb37d03c43af3a706ae8625c81526020017f25039e1b9679c2e63f89e4e687d5d4f1e7d9ba902ce9e50c18a99adf9ee73fbe8152508152508160400181905250604051806040016040528060405180604001604052807f201656780adc9e835eaab6c18c430ef48862ea7d05d712a132b83b92d594580381526020017f08ec55c1d58aff764e98fa21c435f5762d8058bc2894a2c6c89db2f08682345c815250815260200160405180604001604052807f1e8c6c8826fc51940cdc3f88d278905509437214e91365c6ab574e07ec703c3181526020017f2b7a9abdc49abdd7b6076aac7b2b9fd9e9c7cbc1670f96ab4a45ee760f3904c38152508152508160600181905250601667ffffffffffffffff8111156105935761059261188c565b5b6040519080825280602002602001820160405280156105cc57816020015b6105b961179f565b8152602001906001900390816105b15790505b50816080018190525060405180604001604052807f06e2490f32a3e39c93c52702e2369a76cc94e6f2e2831254fa71d069e2ad999781526020017f01a4b181a5bffdbdd7c1e31a70bd78745f7839a6c456826728cb294ab0629c6a815250816080015160008151811061064257610641611c26565b5b602002602001018190525060405180604001604052807f19af63df3bec2ef22258f678ad9b676ac0750b987ecf158d5e734d3e722f31cf81526020017f16de00b1b72deb248a7f4fd2cd3e4db10a1a31a21f33898a081230e0140e488481525081608001516001815181106106ba576106b9611c26565b5b602002602001018190525060405180604001604052807f2490576dd6de052dd249a80677d20292599267a86f0b7d17c41d3961f27b7de881526020017f23c754537b62f70fa01c798d20e7e1a868e5111f69c40b1d053274d80f4d559e815250816080015160028151811061073257610731611c26565b5b602002602001018190525060405180604001604052807f0e456e6dfb6de26a0272b8df96ff432674ef307f76f18053df4621c17c2c2c5b81526020017f0d605ccf1b2688ae19a625106affb35f8270ecce75cc928b958d7dcfadbe411f81525081608001516003815181106107aa576107a9611c26565b5b602002602001018190525060405180604001604052807f1af8e3a32098f2d30a7eb645ce9ac05080f63150fd8069e04850db539114875681526020017f1ae985de9d21677f84554cf272b3a6ccd5f1eeced6bd54e611ea740b0fa560dd815250816080015160048151811061082257610821611c26565b5b602002602001018190525060405180604001604052807f1b48b7235dcc82d86cf4d9fb0cc14bca6c7c075c1cf7bfd9e4a8505a5e6530be81526020017f15d6de12a1e87ed388a2c9e8d57a205fb60ce032daee474eec60b25f30aaf663815250816080015160058151811061089a57610899611c26565b5b602002602001018190525060405180604001604052807f19a7f7c12d0bdaf5649d659b5b536e751d751e810d9798897910c71f51bd0fa581526020017e3bb5685be5999afddc19371ff886f85bf2afe08f5f801617326ea802c713b3815250816080015160068151811061091157610910611c26565b5b602002602001018190525060405180604001604052807f1ff64c90e504b5b496debd9b8e44d50cc67f9d7801a263fde20e384171c5341781526020017f02e1284887c7f4bad745ba0a7d07dc2aa1a62345f45eaac4bab97b2b7cdbc23f815250816080015160078151811061098957610988611c26565b5b602002602001018190525060405180604001604052807f05d5e5683fb1a791cd493aef14a773bce81183221230bd860c73ea386054f50e81526020017f0519033bff21c2935a13c30fdaf1684d8a70897ca401d78767924d5274f551348152508160800151600881518110610a0157610a00611c26565b5b602002602001018190525060405180604001604052807f017377d6c227abc662c03686803d401759ca7fd4d123f4440787f0354ccbf25781526020017f0f01ba877346284102db4f6d30c3f65a5c57b17985c48a7b3cd77edf2e547c768152508160800151600981518110610a7957610a78611c26565b5b602002602001018190525060405180604001604052807f20e4a5b7d89eb23a0a88289fc02fe0eb5166afa5517ae26a424986f3bb62672481526020017f2f95b13d66dd4125adac74a154e6748e365e99a0266a4ade5ed7ed2167f767078152508160800151600a81518110610af157610af0611c26565b5b602002602001018190525060405180604001604052807f1107458663d52c578825daf478c132ed5a63b0023916bbcda29ff095c2196b6c81526020017f2a426ceae4dded03d24ec2b635bca506b0355bb918ba7798131ea012b7bc9aac8152508160800151600b81518110610b6957610b68611c26565b5b602002602001018190525060405180604001604052807f091b5524725376fef4718873424df555107059546daf81a576d5feff5415a6c681526020017f111e1196bf9bab1250ad53c630ea604103b04b5142acc0365971e2d2561442598152508160800151600c81518110610be157610be0611c26565b5b602002602001018190525060405180604001604052807f27e34b06d0254c4c7cc6004d292865621d240e08746743b110a9f4d1c6a6d8cc81526020017f1ba0f87a1c9ee9865692763b1238553218a0bb62461a12447fa2ba46c68ef0208152508160800151600d81518110610c5957610c58611c26565b5b602002602001018190525060405180604001604052807f241107df0658adf300fabb0a6da899f7b19f009ccb4ef1790f8eeac1cc4a7f1d81526020017f11cdd9ab5ea878ca124ada0ceb334557cd71c1802903fe3d50758db24ac43a128152508160800151600e81518110610cd157610cd0611c26565b5b602002602001018190525060405180604001604052807f0ae6669f0385caedf48604f384c376253d1afd9491d27d2ec4c531790a2ec5aa81526020017f0c9334d63f46b8461d2cadc035a6a001b95da0e4376b48805f9f870c70ec38618152508160800151600f81518110610d4957610d48611c26565b5b602002602001018190525060405180604001604052807f1199ca6ec34326b1c4dd0daf2d024c7852e033f041494490330f7a793e28641d81526020017f0bef8a45894fdbcbe73e391e14a91b4a828accd0ab5b2a1b85cbb51b3ee5b7708152508160800151601081518110610dc157610dc0611c26565b5b602002602001018190525060405180604001604052807f1271023c00b2904f9715173933099a34f9a3c7bd6f1fd30b88572e29d75d689381526020017f1c3eb7c8c5b6eca1c400a37a7988600f04f9440e3971d1e824cb2363de552b698152508160800151601181518110610e3957610e38611c26565b5b602002602001018190525060405180604001604052807f035ce2a5ad1d062e5291f9e183e6cf4752313661fdd3f341ae42a2707539eebd81526020017f2fe1c7035e957d607eee11425bc50d61bd915ff69448ae647964ee246b4b98da8152508160800151601281518110610eb157610eb0611c26565b5b602002602001018190525060405180604001604052807f27f7c7e5c55d017d1c4a0f22cf300a04dda1f548d33d33d48fa93ac531d9ec4a81526020017f22b870cecbd749f145a9e857c99761cb7d048553c7a528038b61982474130a188152508160800151601381518110610f2957610f28611c26565b5b602002602001018190525060405180604001604052807e1bd3705ebc5044c703a7b3bb8d0bde74064f699fc67822812093cfd7849fd681526020017f05e2fbf4427af633c8d7f4e4311b52377c0e210381e02a18a9b29377d583885d8152508160800151601481518110610fa057610f9f611c26565b5b602002602001018190525060405180604001604052807f14d53b0a977b8a903b7b1c023085328b0b23cff3b29e5ee5802e4a24f9e6412881526020017f2fb3d871462d433e0c7d06ac24e3f700078d55b02ec98e3f0cade960a5f0c787815250816080015160158151811061101857611017611c26565b5b602002602001018190525090565b61102e61179f565b6110366117b9565b83600001518160006003811061104f5761104e611c26565b5b60200201818152505083602001518160016003811061107157611070611c26565b5b602002018181525050828160026003811061108f5761108e611c26565b5b602002018181525050600060608360808460076107d05a03fa905080600081036110b557fe5b50806110c057600080fd5b505092915050565b6110d061179f565b6110d86117db565b8360000151816000600481106110f1576110f0611c26565b5b60200201818152505083602001518160016004811061111357611112611c26565b5b60200201818152505082600001518160026004811061113557611134611c26565b5b60200201818152505082602001518160036004811061115757611156611c26565b5b602002018181525050600060608360c08460066107d05a03fa9050806000810361117d57fe5b508061118857600080fd5b505092915050565b61119861179f565b60007f30644e72e131a029b85045b68181585d97816a916871ca8d3c208c16d87cfd479050600083600001511480156111d5575060008360200151145b156111f9576040518060400160405280600081526020016000815250915050611230565b60405180604001604052808460000151815260200182856020015161121e9190611d2f565b836112299190611d60565b8152509150505b919050565b600080600467ffffffffffffffff8111156112535761125261188c565b5b60405190808252806020026020018201604052801561128c57816020015b61127961179f565b8152602001906001900390816112715790505b5090506000600467ffffffffffffffff8111156112ac576112ab61188c565b5b6040519080825280602002602001820160405280156112e557816020015b6112d26117fd565b8152602001906001900390816112ca5790505b5090508a826000815181106112fd576112fc611c26565b5b6020026020010181905250888260018151811061131d5761131c611c26565b5b6020026020010181905250868260028151811061133d5761133c611c26565b5b6020026020010181905250848260038151811061135d5761135c611c26565b5b6020026020010181905250898160008151811061137d5761137c611c26565b5b6020026020010181905250878160018151811061139d5761139c611c26565b5b602002602001018190525085816002815181106113bd576113bc611c26565b5b602002602001018190525083816003815181106113dd576113dc611c26565b5b60200260200101819052506113f28282611402565b9250505098975050505050505050565b6000815183511461141257600080fd5b60008351905060006006826114279190611d94565b905060008167ffffffffffffffff8111156114455761144461188c565b5b6040519080825280602002602001820160405280156114735781602001602082028036833780820191505090505b50905060005b838110156116f85786818151811061149457611493611c26565b5b6020026020010151600001518260006006846114b09190611d94565b6114ba9190611ccc565b815181106114cb576114ca611c26565b5b6020026020010181815250508681815181106114ea576114e9611c26565b5b6020026020010151602001518260016006846115069190611d94565b6115109190611ccc565b8151811061152157611520611c26565b5b6020026020010181815250508581815181106115405761153f611c26565b5b60200260200101516000015160016002811061155f5761155e611c26565b5b60200201518260026006846115749190611d94565b61157e9190611ccc565b8151811061158f5761158e611c26565b5b6020026020010181815250508581815181106115ae576115ad611c26565b5b6020026020010151600001516000600281106115cd576115cc611c26565b5b60200201518260036006846115e29190611d94565b6115ec9190611ccc565b815181106115fd576115fc611c26565b5b60200260200101818152505085818151811061161c5761161b611c26565b5b60200260200101516020015160016002811061163b5761163a611c26565b5b60200201518260046006846116509190611d94565b61165a9190611ccc565b8151811061166b5761166a611c26565b5b60200260200101818152505085818151811061168a57611689611c26565b5b6020026020010151602001516000600281106116a9576116a8611c26565b5b60200201518260056006846116be9190611d94565b6116c89190611ccc565b815181106116d9576116d8611c26565b5b60200260200101818152505080806116f090611c84565b915050611479565b50611701611823565b6000602082602086026020860160086107d05a03fa9050806000810361172357fe5b508061172e57600080fd5b60008260006001811061174457611743611c26565b5b602002015114159550505050505092915050565b6040518060a0016040528061176b61179f565b81526020016117786117fd565b81526020016117856117fd565b81526020016117926117fd565b8152602001606081525090565b604051806040016040528060008152602001600081525090565b6040518060600160405280600390602082028036833780820191505090505090565b6040518060800160405280600490602082028036833780820191505090505090565b6040518060400160405280611810611845565b815260200161181d611845565b81525090565b6040518060200160405280600190602082028036833780820191505090505090565b6040518060400160405280600290602082028036833780820191505090505090565b6000604051905090565b600080fd5b600080fd5b6000601f19601f8301169050919050565b7f4e487b7100000000000000000000000000000000000000000000000000000000600052604160045260246000fd5b6118c48261187b565b810181811067ffffffffffffffff821117156118e3576118e261188c565b5b80604052505050565b60006118f6611867565b905061190282826118bb565b919050565b6000819050919050565b61191a81611907565b811461192557600080fd5b50565b60008135905061193781611911565b92915050565b60006040828403121561195357611952611876565b5b61195d60406118ec565b9050600061196d84828501611928565b600083015250602061198184828501611928565b60208301525092915050565b600080fd5b600067ffffffffffffffff8211156119ad576119ac61188c565b5b602082029050919050565b600080fd5b60006119d06119cb84611992565b6118ec565b905080602084028301858111156119ea576119e96119b8565b5b835b81811015611a1357806119ff8882611928565b8452602084019350506020810190506119ec565b5050509392505050565b600082601f830112611a3257611a3161198d565b5b6002611a3f8482856119bd565b91505092915050565b600060808284031215611a5e57611a5d611876565b5b611a6860406118ec565b90506000611a7884828501611a1d565b6000830152506040611a8c84828501611a1d565b60208301525092915050565b60006101008284031215611aaf57611aae611876565b5b611ab960606118ec565b90506000611ac98482850161193d565b6000830152506040611add84828501611a48565b60208301525060c0611af18482850161193d565b60408301525092915050565b600067ffffffffffffffff821115611b1857611b1761188c565b5b602082029050919050565b6000611b36611b3184611afd565b6118ec565b90508060208402830185811115611b5057611b4f6119b8565b5b835b81811015611b795780611b658882611928565b845260208401935050602081019050611b52565b5050509392505050565b600082601f830112611b9857611b9761198d565b5b6015611ba5848285611b23565b91505092915050565b6000806103a08385031215611bc657611bc5611871565b5b6000611bd485828601611a98565b925050610100611be685828601611b83565b9150509250929050565b60008115159050919050565b611c0581611bf0565b82525050565b6000602082019050611c206000830184611bfc565b92915050565b7f4e487b7100000000000000000000000000000000000000000000000000000000600052603260045260246000fd5b7f4e487b7100000000000000000000000000000000000000000000000000000000600052601160045260246000fd5b6000611c8f82611907565b91507fffffffffffffffffffffffffffffffffffffffffffffffffffffffffffffffff8203611cc157611cc0611c55565b5b600182019050919050565b6000611cd782611907565b9150611ce283611907565b9250828201905080821115611cfa57611cf9611c55565b5b92915050565b7f4e487b7100000000000000000000000000000000000000000000000000000000600052601260045260246000fd5b6000611d3a82611907565b9150611d4583611907565b925082611d5557611d54611d00565b5b828206905092915050565b6000611d6b82611907565b9150611d7683611907565b9250828203905081811115611d8e57611d8d611c55565b5b92915050565b6000611d9f82611907565b9150611daa83611907565b9250828202611db881611907565b91508282048414831517611dcf57611dce611c55565b5b509291505056fea264697066735822122040f28272f7e17121b0b4c783c8ba60cbe92e55cbf1f0632fbe5184999f03de7164736f6c63430008110033",
  "linkReferences": {},
  "deployedLinkReferences": {}
}