{
  "_format": "hh-sol-artifact-1",
  "contractName": "Hub",
  "sourceName": "contracts/Hub.sol",
  "abi": [
    {
      "inputs": [
        {
          "internalType": "address",
          "name": "routerAdmin_",
          "type": "address"
        }
      ],
      "stateMutability": "nonpayable",
      "type": "constructor"
    },
    {
      "inputs": [
        {
          "internalType": "address",
          "name": "issuer",
          "type": "address"
        },
        {
          "internalType": "uint8",
          "name": "v",
          "type": "uint8"
        },
        {
          "internalType": "bytes32",
          "name": "r",
          "type": "bytes32"
        },
        {
          "internalType": "bytes32",
          "name": "s",
          "type": "bytes32"
        },
        {
          "components": [
            {
              "components": [
                {
                  "internalType": "uint256",
                  "name": "X",
                  "type": "uint256"
                },
                {
                  "internalType": "uint256",
                  "name": "Y",
                  "type": "uint256"
                }
              ],
              "internalType": "struct Pairing.G1Point",
              "name": "a",
              "type": "tuple"
            },
            {
              "components": [
                {
                  "internalType": "uint256[2]",
                  "name": "X",
                  "type": "uint256[2]"
                },
                {
                  "internalType": "uint256[2]",
                  "name": "Y",
                  "type": "uint256[2]"
                }
              ],
              "internalType": "struct Pairing.G2Point",
              "name": "b",
              "type": "tuple"
            },
            {
              "components": [
                {
                  "internalType": "uint256",
                  "name": "X",
                  "type": "uint256"
                },
                {
                  "internalType": "uint256",
                  "name": "Y",
                  "type": "uint256"
                }
              ],
              "internalType": "struct Pairing.G1Point",
              "name": "c",
              "type": "tuple"
            }
          ],
          "internalType": "struct Proof",
          "name": "proof",
          "type": "tuple"
        },
        {
          "internalType": "uint256[3]",
          "name": "input",
          "type": "uint256[3]"
        }
      ],
      "name": "addLeaf",
      "outputs": [],
      "stateMutability": "nonpayable",
      "type": "function"
    },
    {
      "inputs": [],
      "name": "getLeaves",
      "outputs": [
        {
          "internalType": "uint256[]",
          "name": "",
          "type": "uint256[]"
        }
      ],
      "stateMutability": "view",
      "type": "function"
    },
    {
      "inputs": [
        {
          "internalType": "uint256",
          "name": "idx",
          "type": "uint256"
        }
      ],
      "name": "getLeavesFrom",
      "outputs": [
        {
          "internalType": "uint256[]",
          "name": "",
          "type": "uint256[]"
        }
      ],
      "stateMutability": "view",
      "type": "function"
    },
    {
      "inputs": [
        {
          "internalType": "bytes",
          "name": "message",
          "type": "bytes"
        },
        {
          "internalType": "uint8",
          "name": "v",
          "type": "uint8"
        },
        {
          "internalType": "bytes32",
          "name": "r",
          "type": "bytes32"
        },
        {
          "internalType": "bytes32",
          "name": "s",
          "type": "bytes32"
        },
        {
          "internalType": "address",
          "name": "issuer",
          "type": "address"
        }
      ],
      "name": "isFromIssuer",
      "outputs": [
        {
          "internalType": "bool",
          "name": "fromIssuer",
          "type": "bool"
        }
      ],
      "stateMutability": "pure",
      "type": "function"
    },
    {
      "inputs": [],
      "name": "mostRecentRoot",
      "outputs": [
        {
          "internalType": "uint256",
          "name": "",
          "type": "uint256"
        }
      ],
      "stateMutability": "view",
      "type": "function"
    },
    {
      "inputs": [],
      "name": "mt",
      "outputs": [
        {
          "internalType": "contract MerkleTree",
          "name": "",
          "type": "address"
        }
      ],
      "stateMutability": "view",
      "type": "function"
    },
    {
      "inputs": [
        {
          "internalType": "uint256",
          "name": "",
          "type": "uint256"
        }
      ],
      "name": "oldLeafUsed",
      "outputs": [
        {
          "internalType": "bool",
          "name": "",
          "type": "bool"
        }
      ],
      "stateMutability": "view",
      "type": "function"
    },
    {
      "inputs": [],
      "name": "router",
      "outputs": [
        {
          "internalType": "contract ProofRouter",
          "name": "",
          "type": "address"
        }
      ],
      "stateMutability": "view",
      "type": "function"
    },
    {
      "inputs": [
        {
          "internalType": "string",
          "name": "proofType",
          "type": "string"
        },
        {
          "components": [
            {
              "components": [
                {
                  "internalType": "uint256",
                  "name": "X",
                  "type": "uint256"
                },
                {
                  "internalType": "uint256",
                  "name": "Y",
                  "type": "uint256"
                }
              ],
              "internalType": "struct Pairing.G1Point",
              "name": "a",
              "type": "tuple"
            },
            {
              "components": [
                {
                  "internalType": "uint256[2]",
                  "name": "X",
                  "type": "uint256[2]"
                },
                {
                  "internalType": "uint256[2]",
                  "name": "Y",
                  "type": "uint256[2]"
                }
              ],
              "internalType": "struct Pairing.G2Point",
              "name": "b",
              "type": "tuple"
            },
            {
              "components": [
                {
                  "internalType": "uint256",
                  "name": "X",
                  "type": "uint256"
                },
                {
                  "internalType": "uint256",
                  "name": "Y",
                  "type": "uint256"
                }
              ],
              "internalType": "struct Pairing.G1Point",
              "name": "c",
              "type": "tuple"
            }
          ],
          "internalType": "struct Proof",
          "name": "proof",
          "type": "tuple"
        },
        {
          "internalType": "uint256[]",
          "name": "input",
          "type": "uint256[]"
        }
      ],
      "name": "verifyProof",
      "outputs": [
        {
          "internalType": "bool",
          "name": "",
          "type": "bool"
        }
      ],
      "stateMutability": "view",
      "type": "function"
    }
  ],
  "bytecode": "0x60806040523480156200001157600080fd5b506040516200616a3803806200616a833981810160405281019062000037919062000230565b8060405162000046906200019c565b62000052919062000273565b604051809103906000f0801580156200006f573d6000803e3d6000fd5b50600260006101000a81548173ffffffffffffffffffffffffffffffffffffffff021916908373ffffffffffffffffffffffffffffffffffffffff160217905550604051620000be90620001aa565b604051809103906000f080158015620000db573d6000803e3d6000fd5b50600160006101000a81548173ffffffffffffffffffffffffffffffffffffffff021916908373ffffffffffffffffffffffffffffffffffffffff160217905550306040516200012b90620001b8565b62000137919062000273565b604051809103906000f08015801562000154573d6000803e3d6000fd5b50600360006101000a81548173ffffffffffffffffffffffffffffffffffffffff021916908373ffffffffffffffffffffffffffffffffffffffff1602179055505062000290565b611101806200228783390190565b6115bc806200338883390190565b611826806200494483390190565b600080fd5b600073ffffffffffffffffffffffffffffffffffffffff82169050919050565b6000620001f882620001cb565b9050919050565b6200020a81620001eb565b81146200021657600080fd5b50565b6000815190506200022a81620001ff565b92915050565b600060208284031215620002495762000248620001c6565b5b6000620002598482850162000219565b91505092915050565b6200026d81620001eb565b82525050565b60006020820190506200028a600083018462000262565b92915050565b611fe780620002a06000396000f3fe608060405234801561001057600080fd5b50600436106100935760003560e01c8063ad2b303711610066578063ad2b303714610132578063e74e65fa14610150578063edc04c6e14610180578063f887ea40146101b0578063fe1df86e146101ce57610093565b806336b30a681461009857806339550595146100c85780633bbff7cc146100e6578063813941b314610102575b600080fd5b6100b260048036038101906100ad9190610d2d565b6101ec565b6040516100bf9190610ddf565b60405180910390f35b6100d06103c7565b6040516100dd9190610e13565b60405180910390f35b61010060048036038101906100fb91906110cb565b61045f565b005b61011c60048036038101906101179190611230565b610713565b6040516101299190610ddf565b60405180910390f35b61013a6108b9565b6040516101479190611385565b60405180910390f35b61016a600480360381019061016591906113a7565b610956565b6040516101779190611385565b60405180910390f35b61019a600480360381019061019591906113a7565b610a00565b6040516101a79190610ddf565b60405180910390f35b6101b8610a20565b6040516101c59190611433565b60405180910390f35b6101d6610a46565b6040516101e3919061146f565b60405180910390f35b6000806040518060400160405280602081526020017f19457468657265756d205369676e6564204d6573736167653a0a303030303030815250905060008088519050603983019150620f423f81111561024457600080fd5b600080620186a090505b600081146102e8576000818461026491906114e8565b90506000810361028c576000830361028b57600a8261028391906114e8565b91505061024e565b5b828061029790611519565b93505081816102a69190611561565b846102b191906115a3565b9350600a826102c091906114e8565b91506030816102cf91906115d7565b905084806102dc90611519565b9550508085535061024e565b600082036102f957601b9150610309565b601a8261030691906115d7565b91505b8185526000858c60405160200161032192919061167c565b6040516020818303038152906040528051906020012090508773ffffffffffffffffffffffffffffffffffffffff166001828d8d8d6040516000815260200160405260405161037394939291906116be565b6020604051602081039080840390855afa158015610395573d6000803e3d6000fd5b5050506020604051035173ffffffffffffffffffffffffffffffffffffffff1614965050505050505095945050505050565b6000600360009054906101000a900473ffffffffffffffffffffffffffffffffffffffff1673ffffffffffffffffffffffffffffffffffffffff1663395505956040518163ffffffff1660e01b8152600401602060405180830381865afa158015610436573d6000803e3d6000fd5b505050506040513d601f19601f8201168201806040525081019061045a9190611718565b905090565b60006104828260026003811061047857610477611745565b5b6020020151610a6c565b905060008260016003811061049a57610499611745565b5b602002015190506000836000600381106104b7576104b6611745565b5b602002015190508873ffffffffffffffffffffffffffffffffffffffff168373ffffffffffffffffffffffffffffffffffffffff161461052c576040517f08c379a0000000000000000000000000000000000000000000000000000000008152600401610523906117f7565b60405180910390fd5b610558816040516020016105409190611838565b6040516020818303038152906040528989898d6101ec565b610597576040517f08c379a000000000000000000000000000000000000000000000000000000000815260040161058e906118c5565b60405180910390fd5b600160009054906101000a900473ffffffffffffffffffffffffffffffffffffffff1673ffffffffffffffffffffffffffffffffffffffff16630f9c5d4986866040518363ffffffff1660e01b81526004016105f4929190611a8e565b602060405180830381865afa158015610611573d6000803e3d6000fd5b505050506040513d601f19601f820116820180604052508101906106359190611ae5565b610674576040517f08c379a000000000000000000000000000000000000000000000000000000000815260040161066b90611b5e565b60405180910390fd5b60008082815260200190815260200160002060009054906101000a900460ff16156106d4576040517f08c379a00000000000000000000000000000000000000000000000000000000081526004016106cb90611bf0565b60405180910390fd5b600160008083815260200190815260200160002060006101000a81548160ff02191690831515021790555061070882610a76565b505050505050505050565b6000600360009054906101000a900473ffffffffffffffffffffffffffffffffffffffff1673ffffffffffffffffffffffffffffffffffffffff16636d61af5c8484600081811061076757610766611745565b5b905060200201356040518263ffffffff1660e01b815260040161078a9190610e13565b602060405180830381865afa1580156107a7573d6000803e3d6000fd5b505050506040513d601f19601f820116820180604052508101906107cb9190611ae5565b61080a576040517f08c379a000000000000000000000000000000000000000000000000000000000815260040161080190611c82565b60405180910390fd5b600260009054906101000a900473ffffffffffffffffffffffffffffffffffffffff1673ffffffffffffffffffffffffffffffffffffffff1663813941b387878787876040518663ffffffff1660e01b815260040161086d959493929190611e5a565b602060405180830381865afa15801561088a573d6000803e3d6000fd5b505050506040513d601f19601f820116820180604052508101906108ae9190611ae5565b905095945050505050565b6060600360009054906101000a900473ffffffffffffffffffffffffffffffffffffffff1673ffffffffffffffffffffffffffffffffffffffff1663ad2b30376040518163ffffffff1660e01b8152600401600060405180830381865afa158015610928573d6000803e3d6000fd5b505050506040513d6000823e3d601f19601f820116820180604052508101906109519190611f68565b905090565b6060600360009054906101000a900473ffffffffffffffffffffffffffffffffffffffff1673ffffffffffffffffffffffffffffffffffffffff1663e74e65fa836040518263ffffffff1660e01b81526004016109b39190610e13565b600060405180830381865afa1580156109d0573d6000803e3d6000fd5b505050506040513d6000823e3d601f19601f820116820180604052508101906109f99190611f68565b9050919050565b60006020528060005260406000206000915054906101000a900460ff1681565b600260009054906101000a900473ffffffffffffffffffffffffffffffffffffffff1681565b600360009054906101000a900473ffffffffffffffffffffffffffffffffffffffff1681565b6000819050919050565b600360009054906101000a900473ffffffffffffffffffffffffffffffffffffffff1673ffffffffffffffffffffffffffffffffffffffff1663b7202434826040518263ffffffff1660e01b8152600401610ad19190610e13565b600060405180830381600087803b158015610aeb57600080fd5b505af1158015610aff573d6000803e3d6000fd5b5050505050565b6000604051905090565b600080fd5b600080fd5b600080fd5b600080fd5b6000601f19601f8301169050919050565b7f4e487b7100000000000000000000000000000000000000000000000000000000600052604160045260246000fd5b610b6d82610b24565b810181811067ffffffffffffffff82111715610b8c57610b8b610b35565b5b80604052505050565b6000610b9f610b06565b9050610bab8282610b64565b919050565b600067ffffffffffffffff821115610bcb57610bca610b35565b5b610bd482610b24565b9050602081019050919050565b82818337600083830152505050565b6000610c03610bfe84610bb0565b610b95565b905082815260208101848484011115610c1f57610c1e610b1f565b5b610c2a848285610be1565b509392505050565b600082601f830112610c4757610c46610b1a565b5b8135610c57848260208601610bf0565b91505092915050565b600060ff82169050919050565b610c7681610c60565b8114610c8157600080fd5b50565b600081359050610c9381610c6d565b92915050565b6000819050919050565b610cac81610c99565b8114610cb757600080fd5b50565b600081359050610cc981610ca3565b92915050565b600073ffffffffffffffffffffffffffffffffffffffff82169050919050565b6000610cfa82610ccf565b9050919050565b610d0a81610cef565b8114610d1557600080fd5b50565b600081359050610d2781610d01565b92915050565b600080600080600060a08688031215610d4957610d48610b10565b5b600086013567ffffffffffffffff811115610d6757610d66610b15565b5b610d7388828901610c32565b9550506020610d8488828901610c84565b9450506040610d9588828901610cba565b9350506060610da688828901610cba565b9250506080610db788828901610d18565b9150509295509295909350565b60008115159050919050565b610dd981610dc4565b82525050565b6000602082019050610df46000830184610dd0565b92915050565b6000819050919050565b610e0d81610dfa565b82525050565b6000602082019050610e286000830184610e04565b92915050565b600080fd5b610e3c81610dfa565b8114610e4757600080fd5b50565b600081359050610e5981610e33565b92915050565b600060408284031215610e7557610e74610e2e565b5b610e7f6040610b95565b90506000610e8f84828501610e4a565b6000830152506020610ea384828501610e4a565b60208301525092915050565b600067ffffffffffffffff821115610eca57610ec9610b35565b5b602082029050919050565b600080fd5b6000610eed610ee884610eaf565b610b95565b90508060208402830185811115610f0757610f06610ed5565b5b835b81811015610f305780610f1c8882610e4a565b845260208401935050602081019050610f09565b5050509392505050565b600082601f830112610f4f57610f4e610b1a565b5b6002610f5c848285610eda565b91505092915050565b600060808284031215610f7b57610f7a610e2e565b5b610f856040610b95565b90506000610f9584828501610f3a565b6000830152506040610fa984828501610f3a565b60208301525092915050565b60006101008284031215610fcc57610fcb610e2e565b5b610fd66060610b95565b90506000610fe684828501610e5f565b6000830152506040610ffa84828501610f65565b60208301525060c061100e84828501610e5f565b60408301525092915050565b600067ffffffffffffffff82111561103557611034610b35565b5b602082029050919050565b600061105361104e8461101a565b610b95565b9050806020840283018581111561106d5761106c610ed5565b5b835b8181101561109657806110828882610e4a565b84526020840193505060208101905061106f565b5050509392505050565b600082601f8301126110b5576110b4610b1a565b5b60036110c2848285611040565b91505092915050565b6000806000806000806101e087890312156110e9576110e8610b10565b5b60006110f789828a01610d18565b965050602061110889828a01610c84565b955050604061111989828a01610cba565b945050606061112a89828a01610cba565b935050608061113b89828a01610fb5565b92505061018061114d89828a016110a0565b9150509295509295509295565b600080fd5b60008083601f84011261117557611174610b1a565b5b8235905067ffffffffffffffff8111156111925761119161115a565b5b6020830191508360018202830111156111ae576111ad610ed5565b5b9250929050565b600080fd5b600061010082840312156111d1576111d06111b5565b5b81905092915050565b60008083601f8401126111f0576111ef610b1a565b5b8235905067ffffffffffffffff81111561120d5761120c61115a565b5b60208301915083602082028301111561122957611228610ed5565b5b9250929050565b6000806000806000610140868803121561124d5761124c610b10565b5b600086013567ffffffffffffffff81111561126b5761126a610b15565b5b6112778882890161115f565b9550955050602061128a888289016111ba565b93505061012086013567ffffffffffffffff8111156112ac576112ab610b15565b5b6112b8888289016111da565b92509250509295509295909350565b600081519050919050565b600082825260208201905092915050565b6000819050602082019050919050565b6112fc81610dfa565b82525050565b600061130e83836112f3565b60208301905092915050565b6000602082019050919050565b6000611332826112c7565b61133c81856112d2565b9350611347836112e3565b8060005b8381101561137857815161135f8882611302565b975061136a8361131a565b92505060018101905061134b565b5085935050505092915050565b6000602082019050818103600083015261139f8184611327565b905092915050565b6000602082840312156113bd576113bc610b10565b5b60006113cb84828501610e4a565b91505092915050565b6000819050919050565b60006113f96113f46113ef84610ccf565b6113d4565b610ccf565b9050919050565b600061140b826113de565b9050919050565b600061141d82611400565b9050919050565b61142d81611412565b82525050565b60006020820190506114486000830184611424565b92915050565b600061145982611400565b9050919050565b6114698161144e565b82525050565b60006020820190506114846000830184611460565b92915050565b7f4e487b7100000000000000000000000000000000000000000000000000000000600052601260045260246000fd5b7f4e487b7100000000000000000000000000000000000000000000000000000000600052601160045260246000fd5b60006114f382610dfa565b91506114fe83610dfa565b92508261150e5761150d61148a565b5b828204905092915050565b600061152482610dfa565b91507fffffffffffffffffffffffffffffffffffffffffffffffffffffffffffffffff8203611556576115556114b9565b5b600182019050919050565b600061156c82610dfa565b915061157783610dfa565b925082820261158581610dfa565b9150828204841483151761159c5761159b6114b9565b5b5092915050565b60006115ae82610dfa565b91506115b983610dfa565b92508282039050818111156115d1576115d06114b9565b5b92915050565b60006115e282610dfa565b91506115ed83610dfa565b9250828201905080821115611605576116046114b9565b5b92915050565b600081519050919050565b600081905092915050565b60005b8381101561163f578082015181840152602081019050611624565b60008484015250505050565b60006116568261160b565b6116608185611616565b9350611670818560208601611621565b80840191505092915050565b6000611688828561164b565b9150611694828461164b565b91508190509392505050565b6116a981610c99565b82525050565b6116b881610c60565b82525050565b60006080820190506116d360008301876116a0565b6116e060208301866116af565b6116ed60408301856116a0565b6116fa60608301846116a0565b95945050505050565b60008151905061171281610e33565b92915050565b60006020828403121561172e5761172d610b10565b5b600061173c84828501611703565b91505092915050565b7f4e487b7100000000000000000000000000000000000000000000000000000000600052603260045260246000fd5b600082825260208201905092915050565b7f63726564656e7469616c73206d7573742062652070726f76656e20746f20737460008201527f6172742077697468207468652069737375657227732061646472657373000000602082015250565b60006117e1603d83611774565b91506117ec82611785565b604082019050919050565b60006020820190508181036000830152611810816117d4565b9050919050565b6000819050919050565b61183261182d82610dfa565b611817565b82525050565b60006118448284611821565b60208201915081905092915050565b7f6c656166206d757374206265207369676e65642062792074686520697373756560008201527f7200000000000000000000000000000000000000000000000000000000000000602082015250565b60006118af602183611774565b91506118ba82611853565b604082019050919050565b600060208201905081810360008301526118de816118a2565b9050919050565b6040820160008201516118fb60008501826112f3565b50602082015161190e60208501826112f3565b50505050565b600060029050919050565b600081905092915050565b6000819050919050565b6000602082019050919050565b61194a81611914565b611954818461191f565b925061195f8261192a565b8060005b838110156119905781516119778782611302565b965061198283611934565b925050600181019050611963565b505050505050565b6080820160008201516119ae6000850182611941565b5060208201516119c16040850182611941565b50505050565b610100820160008201516119de60008501826118e5565b5060208201516119f16040850182611998565b506040820151611a0460c08501826118e5565b50505050565b600060039050919050565b600081905092915050565b6000819050919050565b6000602082019050919050565b611a4081611a0a565b611a4a8184611a15565b9250611a5582611a20565b8060005b83811015611a86578151611a6d8782611302565b9650611a7883611a2a565b925050600181019050611a59565b505050505050565b600061016082019050611aa460008301856119c7565b611ab2610100830184611a37565b9392505050565b611ac281610dc4565b8114611acd57600080fd5b50565b600081519050611adf81611ab9565b92915050565b600060208284031215611afb57611afa610b10565b5b6000611b0984828501611ad0565b91505092915050565b7f7a6b534e41524b206661696c6564000000000000000000000000000000000000600082015250565b6000611b48600e83611774565b9150611b5382611b12565b602082019050919050565b60006020820190508181036000830152611b7781611b3b565b9050919050565b7f63616e6e6f7420637265617465206d6f7265207468616e206f6e65206e65772060008201527f6c6561662066726f6d2061207369676e6564206c656166000000000000000000602082015250565b6000611bda603783611774565b9150611be582611b7e565b604082019050919050565b60006020820190508181036000830152611c0981611bcd565b9050919050565b7f4669727374207075626c696320617267756d656e74206f662070726f6f66206d60008201527f757374206265206120726563656e74204d65726b6c6520526f6f740000000000602082015250565b6000611c6c603b83611774565b9150611c7782611c10565b604082019050919050565b60006020820190508181036000830152611c9b81611c5f565b9050919050565b6000611cae8385611774565b9350611cbb838584610be1565b611cc483610b24565b840190509392505050565b600082905092915050565b6000611ce96020840184610e4a565b905092915050565b60408201611d026000830183611cda565b611d0f60008501826112f3565b50611d1d6020830183611cda565b611d2a60208501826112f3565b50505050565b600082905092915050565b600082905092915050565b82818337505050565b611d5b60408383611d46565b5050565b60808201611d706000830183611d3b565b611d7d6000850182611d4f565b50611d8b6040830183611d3b565b611d986040850182611d4f565b50505050565b6101008201611db06000830183611ccf565b611dbd6000850182611cf1565b50611dcb6040830183611d30565b611dd86040850182611d5f565b50611de660c0830183611ccf565b611df360c0850182611cf1565b50505050565b600080fd5b6000611e0a83856112d2565b93507f07ffffffffffffffffffffffffffffffffffffffffffffffffffffffffffffff831115611e3d57611e3c611df9565b5b602083029250611e4e838584611d46565b82840190509392505050565b6000610140820190508181036000830152611e76818789611ca2565b9050611e856020830186611d9e565b818103610120830152611e99818486611dfe565b90509695505050505050565b600067ffffffffffffffff821115611ec057611ebf610b35565b5b602082029050602081019050919050565b6000611ee4611edf84611ea5565b610b95565b90508083825260208201905060208402830185811115611f0757611f06610ed5565b5b835b81811015611f305780611f1c8882611703565b845260208401935050602081019050611f09565b5050509392505050565b600082601f830112611f4f57611f4e610b1a565b5b8151611f5f848260208601611ed1565b91505092915050565b600060208284031215611f7e57611f7d610b10565b5b600082015167ffffffffffffffff811115611f9c57611f9b610b15565b5b611fa884828501611f3a565b9150509291505056fea264697066735822122050cfb58dbb456e028cb3a3b26c660d4fb17daa316831a9d455f869354f53d5e164736f6c6343000811003360806040523480156200001157600080fd5b5060405162001101380380620011018339818101604052810190620000379190620001a5565b620000576200004b6200006f60201b60201c565b6200007760201b60201c565b62000068816200007760201b60201c565b50620001d7565b600033905090565b60008060009054906101000a900473ffffffffffffffffffffffffffffffffffffffff169050816000806101000a81548173ffffffffffffffffffffffffffffffffffffffff021916908373ffffffffffffffffffffffffffffffffffffffff1602179055508173ffffffffffffffffffffffffffffffffffffffff168173ffffffffffffffffffffffffffffffffffffffff167f8be0079c531659141344cd1fd0a4f28419497f9722a3daafe3b4186f6b6457e060405160405180910390a35050565b600080fd5b600073ffffffffffffffffffffffffffffffffffffffff82169050919050565b60006200016d8262000140565b9050919050565b6200017f8162000160565b81146200018b57600080fd5b50565b6000815190506200019f8162000174565b92915050565b600060208284031215620001be57620001bd6200013b565b5b6000620001ce848285016200018e565b91505092915050565b610f1a80620001e76000396000f3fe608060405234801561001057600080fd5b50600436106100625760003560e01c8063715018a614610067578063813941b314610071578063850e3075146100a15780638da5cb5b146100bd578063cffbffb5146100db578063f2fde38b1461010b575b600080fd5b61006f610127565b005b61008b600480360381019061008691906106cd565b61013b565b604051610098919061077f565b60405180910390f35b6100bb60048036038101906100b69190610939565b610284565b005b6100c561039a565b6040516100d291906109a4565b60405180910390f35b6100f560048036038101906100f091906109bf565b6103c3565b60405161010291906109a4565b60405180910390f35b61012560048036038101906101209190610a08565b61040c565b005b61012f61048f565b610139600061050d565b565b60008073ffffffffffffffffffffffffffffffffffffffff1660018787604051610166929190610a65565b908152602001604051809103902060009054906101000a900473ffffffffffffffffffffffffffffffffffffffff1673ffffffffffffffffffffffffffffffffffffffff16036101b557600080fd5b6000600187876040516101c9929190610a65565b908152602001604051809103902060009054906101000a900473ffffffffffffffffffffffffffffffffffffffff1690508073ffffffffffffffffffffffffffffffffffffffff1663ba21f38e8686866040518463ffffffff1660e01b815260040161023793929190610c5f565b602060405180830381865afa158015610254573d6000803e3d6000fd5b505050506040513d601f19601f820116820180604052508101906102789190610cbf565b91505095945050505050565b61028c61048f565b600073ffffffffffffffffffffffffffffffffffffffff166001836040516102b49190610d52565b908152602001604051809103902060009054906101000a900473ffffffffffffffffffffffffffffffffffffffff1673ffffffffffffffffffffffffffffffffffffffff1614610339576040517f08c379a000000000000000000000000000000000000000000000000000000000815260040161033090610dc6565b60405180910390fd5b8060018360405161034a9190610d52565b908152602001604051809103902060006101000a81548173ffffffffffffffffffffffffffffffffffffffff021916908373ffffffffffffffffffffffffffffffffffffffff1602179055505050565b60008060009054906101000a900473ffffffffffffffffffffffffffffffffffffffff16905090565b6001818051602081018201805184825260208301602085012081835280955050505050506000915054906101000a900473ffffffffffffffffffffffffffffffffffffffff1681565b61041461048f565b600073ffffffffffffffffffffffffffffffffffffffff168173ffffffffffffffffffffffffffffffffffffffff1603610483576040517f08c379a000000000000000000000000000000000000000000000000000000000815260040161047a90610e58565b60405180910390fd5b61048c8161050d565b50565b6104976105d1565b73ffffffffffffffffffffffffffffffffffffffff166104b561039a565b73ffffffffffffffffffffffffffffffffffffffff161461050b576040517f08c379a000000000000000000000000000000000000000000000000000000000815260040161050290610ec4565b60405180910390fd5b565b60008060009054906101000a900473ffffffffffffffffffffffffffffffffffffffff169050816000806101000a81548173ffffffffffffffffffffffffffffffffffffffff021916908373ffffffffffffffffffffffffffffffffffffffff1602179055508173ffffffffffffffffffffffffffffffffffffffff168173ffffffffffffffffffffffffffffffffffffffff167f8be0079c531659141344cd1fd0a4f28419497f9722a3daafe3b4186f6b6457e060405160405180910390a35050565b600033905090565b6000604051905090565b600080fd5b600080fd5b600080fd5b600080fd5b600080fd5b60008083601f840112610612576106116105ed565b5b8235905067ffffffffffffffff81111561062f5761062e6105f2565b5b60208301915083600182028301111561064b5761064a6105f7565b5b9250929050565b600080fd5b6000610100828403121561066e5761066d610652565b5b81905092915050565b60008083601f84011261068d5761068c6105ed565b5b8235905067ffffffffffffffff8111156106aa576106a96105f2565b5b6020830191508360208202830111156106c6576106c56105f7565b5b9250929050565b600080600080600061014086880312156106ea576106e96105e3565b5b600086013567ffffffffffffffff811115610708576107076105e8565b5b610714888289016105fc565b9550955050602061072788828901610657565b93505061012086013567ffffffffffffffff811115610749576107486105e8565b5b61075588828901610677565b92509250509295509295909350565b60008115159050919050565b61077981610764565b82525050565b60006020820190506107946000830184610770565b92915050565b600080fd5b6000601f19601f8301169050919050565b7f4e487b7100000000000000000000000000000000000000000000000000000000600052604160045260246000fd5b6107e88261079f565b810181811067ffffffffffffffff82111715610807576108066107b0565b5b80604052505050565b600061081a6105d9565b905061082682826107df565b919050565b600067ffffffffffffffff821115610846576108456107b0565b5b61084f8261079f565b9050602081019050919050565b82818337600083830152505050565b600061087e6108798461082b565b610810565b90508281526020810184848401111561089a5761089961079a565b5b6108a584828561085c565b509392505050565b600082601f8301126108c2576108c16105ed565b5b81356108d284826020860161086b565b91505092915050565b600073ffffffffffffffffffffffffffffffffffffffff82169050919050565b6000610906826108db565b9050919050565b610916816108fb565b811461092157600080fd5b50565b6000813590506109338161090d565b92915050565b600080604083850312156109505761094f6105e3565b5b600083013567ffffffffffffffff81111561096e5761096d6105e8565b5b61097a858286016108ad565b925050602061098b85828601610924565b9150509250929050565b61099e816108fb565b82525050565b60006020820190506109b96000830184610995565b92915050565b6000602082840312156109d5576109d46105e3565b5b600082013567ffffffffffffffff8111156109f3576109f26105e8565b5b6109ff848285016108ad565b91505092915050565b600060208284031215610a1e57610a1d6105e3565b5b6000610a2c84828501610924565b91505092915050565b600081905092915050565b6000610a4c8385610a35565b9350610a5983858461085c565b82840190509392505050565b6000610a72828486610a40565b91508190509392505050565b600082905092915050565b6000819050919050565b610a9c81610a89565b8114610aa757600080fd5b50565b600081359050610ab981610a93565b92915050565b6000610ace6020840184610aaa565b905092915050565b610adf81610a89565b82525050565b60408201610af66000830183610abf565b610b036000850182610ad6565b50610b116020830183610abf565b610b1e6020850182610ad6565b50505050565b600082905092915050565b600082905092915050565b82818337505050565b610b4f60408383610b3a565b5050565b60808201610b646000830183610b2f565b610b716000850182610b43565b50610b7f6040830183610b2f565b610b8c6040850182610b43565b50505050565b6101008201610ba46000830183610a7e565b610bb16000850182610ae5565b50610bbf6040830183610b24565b610bcc6040850182610b53565b50610bda60c0830183610a7e565b610be760c0850182610ae5565b50505050565b600082825260208201905092915050565b600080fd5b6000610c0f8385610bed565b93507f07ffffffffffffffffffffffffffffffffffffffffffffffffffffffffffffff831115610c4257610c41610bfe565b5b602083029250610c53838584610b3a565b82840190509392505050565b600061012082019050610c756000830186610b92565b818103610100830152610c89818486610c03565b9050949350505050565b610c9c81610764565b8114610ca757600080fd5b50565b600081519050610cb981610c93565b92915050565b600060208284031215610cd557610cd46105e3565b5b6000610ce384828501610caa565b91505092915050565b600081519050919050565b60005b83811015610d15578082015181840152602081019050610cfa565b60008484015250505050565b6000610d2c82610cec565b610d368185610a35565b9350610d46818560208601610cf7565b80840191505092915050565b6000610d5e8284610d21565b915081905092915050565b600082825260208201905092915050565b7f63616e6e6f74206f76657272696465206578697374696e6720726f7574650000600082015250565b6000610db0601e83610d69565b9150610dbb82610d7a565b602082019050919050565b60006020820190508181036000830152610ddf81610da3565b9050919050565b7f4f776e61626c653a206e6577206f776e657220697320746865207a65726f206160008201527f6464726573730000000000000000000000000000000000000000000000000000602082015250565b6000610e42602683610d69565b9150610e4d82610de6565b604082019050919050565b60006020820190508181036000830152610e7181610e35565b9050919050565b7f4f776e61626c653a2063616c6c6572206973206e6f7420746865206f776e6572600082015250565b6000610eae602083610d69565b9150610eb982610e78565b602082019050919050565b60006020820190508181036000830152610edd81610ea1565b905091905056fea264697066735822122072d14fbda13ade850f037ecb20b087b6eae6982add6fa33e8ea9be5949c22a6164736f6c63430008110033608060405234801561001057600080fd5b5061159c806100206000396000f3fe608060405234801561001057600080fd5b506004361061002b5760003560e01c80630f9c5d4914610030575b600080fd5b61004a6004803603810190610045919061133e565b610060565b604051610057919061139b565b60405180910390f35b600080600367ffffffffffffffff81111561007e5761007d61101c565b5b6040519080825280602002602001820160405280156100ac5781602001602082028036833780820191505090505b50905060005b6003811015610105578381600381106100ce576100cd6113b6565b5b60200201518282815181106100e6576100e56113b6565b5b60200260200101818152505080806100fd90611414565b9150506100b2565b506000610112828661012d565b03610121576001915050610127565b60009150505b92915050565b6000807f30644e72e131a029b85045b68181585d2833e84879b9709143e1f593f00000019050600061015d6102c4565b905080608001515160018651610173919061145c565b1461017d57600080fd5b60006040518060400160405280600081526020016000815250905060005b865181101561023657838782815181106101b8576101b76113b6565b5b6020026020010151106101ca57600080fd5b6102218261021c85608001516001856101e3919061145c565b815181106101f4576101f36113b6565b5b60200260200101518a858151811061020f5761020e6113b6565b5b60200260200101516107b6565b610858565b9150808061022e90611414565b91505061019b565b50610260818360800151600081518110610253576102526113b6565b5b6020026020010151610858565b90506102a68560000151866020015161027884610920565b856040015161028a8a60400151610920565b876060015161029c8960000151610920565b89602001516109c5565b6102b657600193505050506102be565b600093505050505b92915050565b6102cc610ee8565b60405180604001604052807f193e22c4311c3609eb91e7138ac6d29b9dd8bd2f074f6be04fa42c02ca03605381526020017f295745b73ac6fc210aa6bc3e0b8d789b6404a259dff1ac60c722848920e5f87f8152508160000181905250604051806040016040528060405180604001604052807f213d8635a997818eb1c13707bb04ccd95e69ff60c6b9ccaea869cdc71890b6c181526020017f2719f14a0ab6d68f531559d2cd432b2e901c00ff3840764e1c552c773189677b815250815260200160405180604001604052807f0e14bc64efd9ded08e799a666e1745df6aec82d0761b22777772eb94eb221c9f81526020017f03d175bb6309fca6d740df37d61d959922ebdba6877ee305522e81b6d7ae332c8152508152508160200181905250604051806040016040528060405180604001604052807f1a06e23ec4935b54c0597f3b467b0a6387a7c3b0601b6e7371438af61f7bc26581526020017f1fe80dada06db006ba66ef4db82d3ee74832414d3b53f4626a06f7f8750c15c4815250815260200160405180604001604052807f08dcab2e5abd9809c60e25037c3b916fe834388bcd5c78e3709e6aeb2e3cc57e81526020017f03e1fc33cdcf73fc1d82e36fae31748c781fa4226b30e7601a2bda0e8a56b12a8152508152508160400181905250604051806040016040528060405180604001604052807f1772a892dc0d131f5d709f8060c57da955692ff581ab41a36a3c0d0daf207a4881526020017f16c6fcd0a249a5dab4911e6d2d3f5c95f4a36245a6117120f631ae029c39aeb9815250815260200160405180604001604052807e87271d18ff6303d104536f890649b4b420d49c747e192d780c66cd2c964b2981526020017ea890a9980461c6da9125d63bc6b3c996bb6985432fb38dabb7d3ddca844be98152508152508160600181905250600467ffffffffffffffff8111156105915761059061101c565b5b6040519080825280602002602001820160405280156105ca57816020015b6105b7610f2f565b8152602001906001900390816105af5790505b50816080018190525060405180604001604052807f0c985a310d66b2f4f974c21d8e4d2be8df76394ba894c8307c6f01ec5d9f873481526020017f193c8d425f2fb2e4b227368edadb05f282ae2750c60e1a056dc7fdb028088b4f81525081608001516000815181106106405761063f6113b6565b5b602002602001018190525060405180604001604052807f1197eca1c597fd28d76a01664204e6144a92366a06e5642721af18e24ad08e1e81526020017f23cc59ae89cb3c9cb359d3e7610912167dd54eba8db12de9161e1198ca29884281525081608001516001815181106106b8576106b76113b6565b5b602002602001018190525060405180604001604052807f13cdef780266d604b254108f00b50c19e0293103d68fe04dd5e76e593f1d19bf81526020017f0f0089538a39d0f144f4c8ca57c0cc3f63a4174f6f9d17d5b0ee563cf8708e3381525081608001516002815181106107305761072f6113b6565b5b602002602001018190525060405180604001604052807f20b55fc8eb393034d47a78c00f394cf68769592e0b1343d92e5d0c64b962990281526020017f22665571d9d730edcf00aff2ef5e39d90f67497b149e6817dc5e62f23ecd630681525081608001516003815181106107a8576107a76113b6565b5b602002602001018190525090565b6107be610f2f565b6107c6610f49565b8360000151816000600381106107df576107de6113b6565b5b602002018181525050836020015181600160038110610801576108006113b6565b5b602002018181525050828160026003811061081f5761081e6113b6565b5b602002018181525050600060608360808460076107d05a03fa9050806000810361084557fe5b508061085057600080fd5b505092915050565b610860610f2f565b610868610f6b565b836000015181600060048110610881576108806113b6565b5b6020020181815250508360200151816001600481106108a3576108a26113b6565b5b6020020181815250508260000151816002600481106108c5576108c46113b6565b5b6020020181815250508260200151816003600481106108e7576108e66113b6565b5b602002018181525050600060608360c08460066107d05a03fa9050806000810361090d57fe5b508061091857600080fd5b505092915050565b610928610f2f565b60007f30644e72e131a029b85045b68181585d97816a916871ca8d3c208c16d87cfd47905060008360000151148015610965575060008360200151145b156109895760405180604001604052806000815260200160008152509150506109c0565b6040518060400160405280846000015181526020018285602001516109ae91906114bf565b836109b991906114f0565b8152509150505b919050565b600080600467ffffffffffffffff8111156109e3576109e261101c565b5b604051908082528060200260200182016040528015610a1c57816020015b610a09610f2f565b815260200190600190039081610a015790505b5090506000600467ffffffffffffffff811115610a3c57610a3b61101c565b5b604051908082528060200260200182016040528015610a7557816020015b610a62610f8d565b815260200190600190039081610a5a5790505b5090508a82600081518110610a8d57610a8c6113b6565b5b60200260200101819052508882600181518110610aad57610aac6113b6565b5b60200260200101819052508682600281518110610acd57610acc6113b6565b5b60200260200101819052508482600381518110610aed57610aec6113b6565b5b60200260200101819052508981600081518110610b0d57610b0c6113b6565b5b60200260200101819052508781600181518110610b2d57610b2c6113b6565b5b60200260200101819052508581600281518110610b4d57610b4c6113b6565b5b60200260200101819052508381600381518110610b6d57610b6c6113b6565b5b6020026020010181905250610b828282610b92565b9250505098975050505050505050565b60008151835114610ba257600080fd5b6000835190506000600682610bb79190611524565b905060008167ffffffffffffffff811115610bd557610bd461101c565b5b604051908082528060200260200182016040528015610c035781602001602082028036833780820191505090505b50905060005b83811015610e8857868181518110610c2457610c236113b6565b5b602002602001015160000151826000600684610c409190611524565b610c4a919061145c565b81518110610c5b57610c5a6113b6565b5b602002602001018181525050868181518110610c7a57610c796113b6565b5b602002602001015160200151826001600684610c969190611524565b610ca0919061145c565b81518110610cb157610cb06113b6565b5b602002602001018181525050858181518110610cd057610ccf6113b6565b5b602002602001015160000151600160028110610cef57610cee6113b6565b5b6020020151826002600684610d049190611524565b610d0e919061145c565b81518110610d1f57610d1e6113b6565b5b602002602001018181525050858181518110610d3e57610d3d6113b6565b5b602002602001015160000151600060028110610d5d57610d5c6113b6565b5b6020020151826003600684610d729190611524565b610d7c919061145c565b81518110610d8d57610d8c6113b6565b5b602002602001018181525050858181518110610dac57610dab6113b6565b5b602002602001015160200151600160028110610dcb57610dca6113b6565b5b6020020151826004600684610de09190611524565b610dea919061145c565b81518110610dfb57610dfa6113b6565b5b602002602001018181525050858181518110610e1a57610e196113b6565b5b602002602001015160200151600060028110610e3957610e386113b6565b5b6020020151826005600684610e4e9190611524565b610e58919061145c565b81518110610e6957610e686113b6565b5b6020026020010181815250508080610e8090611414565b915050610c09565b50610e91610fb3565b6000602082602086026020860160086107d05a03fa90508060008103610eb357fe5b5080610ebe57600080fd5b600082600060018110610ed457610ed36113b6565b5b602002015114159550505050505092915050565b6040518060a00160405280610efb610f2f565b8152602001610f08610f8d565b8152602001610f15610f8d565b8152602001610f22610f8d565b8152602001606081525090565b604051806040016040528060008152602001600081525090565b6040518060600160405280600390602082028036833780820191505090505090565b6040518060800160405280600490602082028036833780820191505090505090565b6040518060400160405280610fa0610fd5565b8152602001610fad610fd5565b81525090565b6040518060200160405280600190602082028036833780820191505090505090565b6040518060400160405280600290602082028036833780820191505090505090565b6000604051905090565b600080fd5b600080fd5b6000601f19601f8301169050919050565b7f4e487b7100000000000000000000000000000000000000000000000000000000600052604160045260246000fd5b6110548261100b565b810181811067ffffffffffffffff821117156110735761107261101c565b5b80604052505050565b6000611086610ff7565b9050611092828261104b565b919050565b6000819050919050565b6110aa81611097565b81146110b557600080fd5b50565b6000813590506110c7816110a1565b92915050565b6000604082840312156110e3576110e2611006565b5b6110ed604061107c565b905060006110fd848285016110b8565b6000830152506020611111848285016110b8565b60208301525092915050565b600080fd5b600067ffffffffffffffff82111561113d5761113c61101c565b5b602082029050919050565b600080fd5b600061116061115b84611122565b61107c565b9050806020840283018581111561117a57611179611148565b5b835b818110156111a3578061118f88826110b8565b84526020840193505060208101905061117c565b5050509392505050565b600082601f8301126111c2576111c161111d565b5b60026111cf84828561114d565b91505092915050565b6000608082840312156111ee576111ed611006565b5b6111f8604061107c565b90506000611208848285016111ad565b600083015250604061121c848285016111ad565b60208301525092915050565b6000610100828403121561123f5761123e611006565b5b611249606061107c565b90506000611259848285016110cd565b600083015250604061126d848285016111d8565b60208301525060c0611281848285016110cd565b60408301525092915050565b600067ffffffffffffffff8211156112a8576112a761101c565b5b602082029050919050565b60006112c66112c18461128d565b61107c565b905080602084028301858111156112e0576112df611148565b5b835b8181101561130957806112f588826110b8565b8452602084019350506020810190506112e2565b5050509392505050565b600082601f8301126113285761132761111d565b5b60036113358482856112b3565b91505092915050565b600080610160838503121561135657611355611001565b5b600061136485828601611228565b92505061010061137685828601611313565b9150509250929050565b60008115159050919050565b61139581611380565b82525050565b60006020820190506113b0600083018461138c565b92915050565b7f4e487b7100000000000000000000000000000000000000000000000000000000600052603260045260246000fd5b7f4e487b7100000000000000000000000000000000000000000000000000000000600052601160045260246000fd5b600061141f82611097565b91507fffffffffffffffffffffffffffffffffffffffffffffffffffffffffffffffff8203611451576114506113e5565b5b600182019050919050565b600061146782611097565b915061147283611097565b925082820190508082111561148a576114896113e5565b5b92915050565b7f4e487b7100000000000000000000000000000000000000000000000000000000600052601260045260246000fd5b60006114ca82611097565b91506114d583611097565b9250826114e5576114e4611490565b5b828206905092915050565b60006114fb82611097565b915061150683611097565b925082820390508181111561151e5761151d6113e5565b5b92915050565b600061152f82611097565b915061153a83611097565b925082820261154881611097565b9150828204841483151761155f5761155e6113e5565b5b509291505056fea264697066735822122098b337135b1e6d816c49e3ca02d18541c8fa662988d732d0f42bd27e23ad186564736f6c6343000811003360806040523480156200001157600080fd5b506040516200182638038062001826833981810160405281019062000037919062000344565b620000576200004b6200014260201b60201c565b6200014a60201b60201c565b620000866040518060a0016040528060638152602001620017c3606391396200020e60201b6200097e1760201c565b600c73__$a19418b46e8afa291aed5cbf8ab9750b7c$__631095fbb49091600e60006040518463ffffffff1660e01b8152600401620000c8939291906200041a565b60006040518083038186803b158015620000e157600080fd5b505af4158015620000f6573d6000803e3d6000fd5b5050505080601460006101000a81548173ffffffffffffffffffffffffffffffffffffffff021916908373ffffffffffffffffffffffffffffffffffffffff1602179055505062000515565b600033905090565b60008060009054906101000a900473ffffffffffffffffffffffffffffffffffffffff169050816000806101000a81548173ffffffffffffffffffffffffffffffffffffffff021916908373ffffffffffffffffffffffffffffffffffffffff1602179055508173ffffffffffffffffffffffffffffffffffffffff168173ffffffffffffffffffffffffffffffffffffffff167f8be0079c531659141344cd1fd0a4f28419497f9722a3daafe3b4186f6b6457e060405160405180910390a35050565b620002ae81604051602401620002259190620004f1565b6040516020818303038152906040527f41304fac000000000000000000000000000000000000000000000000000000007bffffffffffffffffffffffffffffffffffffffffffffffffffffffff19166020820180517bffffffffffffffffffffffffffffffffffffffffffffffffffffffff8381831617835250505050620002b160201b60201c565b50565b60008151905060006a636f6e736f6c652e6c6f679050602083016000808483855afa5050505050565b600080fd5b600073ffffffffffffffffffffffffffffffffffffffff82169050919050565b60006200030c82620002df565b9050919050565b6200031e81620002ff565b81146200032a57600080fd5b50565b6000815190506200033e8162000313565b92915050565b6000602082840312156200035d576200035c620002da565b5b60006200036d848285016200032d565b91505092915050565b8082525050565b600060ff82169050919050565b6000819050919050565b6000819050919050565b6000620003bf620003b9620003b3846200037d565b62000394565b6200038a565b9050919050565b620003d1816200039e565b82525050565b6000819050919050565b600062000402620003fc620003f684620003d7565b62000394565b6200038a565b9050919050565b6200041481620003e1565b82525050565b600060608201905062000431600083018662000376565b620004406020830185620003c6565b6200044f604083018462000409565b949350505050565b600081519050919050565b600082825260208201905092915050565b60005b838110156200049357808201518184015260208101905062000476565b60008484015250505050565b6000601f19601f8301169050919050565b6000620004bd8262000457565b620004c9818562000462565b9350620004db81856020860162000473565b620004e6816200049f565b840191505092915050565b600060208201905081810360008301526200050d8184620004b0565b905092915050565b61129e80620005256000396000f3fe608060405234801561001057600080fd5b50600436106101165760003560e01c8063b7202434116100a2578063e74e65fa11610071578063e74e65fa146102e3578063ebf0c71714610313578063f2fde38b14610331578063f69b1b291461034d578063fd54b2281461036b57610116565b8063b72024341461025d578063c7eb452214610279578063cd87a3b414610295578063d455a79d146102b357610116565b80636d61af5c116100e95780636d61af5c146101c9578063715018a6146101f95780638da5cb5b1461020357806398366e3514610221578063ad2b30371461023f57610116565b8063395505951461011b5780634cd072f6146101395780634df81bb814610169578063596a631b14610199575b600080fd5b61012361038b565b6040516101309190610ba3565b60405180910390f35b610153600480360381019061014e9190610bef565b610398565b6040516101609190610c37565b60405180910390f35b610183600480360381019061017e9190610bef565b6103b8565b6040516101909190610c37565b60405180910390f35b6101b360048036038101906101ae9190610bef565b6103d8565b6040516101c09190610ba3565b60405180910390f35b6101e360048036038101906101de9190610bef565b6103f3565b6040516101f09190610c37565b60405180910390f35b61020161041d565b005b61020b610431565b6040516102189190610c93565b60405180910390f35b61022961045a565b6040516102369190610cca565b60405180910390f35b61024761045f565b6040516102549190610da3565b60405180910390f35b61027760048036038101906102729190610bef565b6104b7565b005b610293600480360381019061028e9190610df1565b610700565b005b61029d61074c565b6040516102aa9190610cca565b60405180910390f35b6102cd60048036038101906102c89190610bef565b610751565b6040516102da9190610ba3565b60405180910390f35b6102fd60048036038101906102f89190610bef565b610775565b60405161030a9190610da3565b60405180910390f35b61031b6108b7565b6040516103289190610ba3565b60405180910390f35b61034b60048036038101906103469190610df1565b6108bd565b005b610355610940565b6040516103629190610c93565b60405180910390f35b610373610966565b60405161038293929190610e1e565b60405180910390f35b6000600c60010154905090565b60136020528060005260406000206000915054906101000a900460ff1681565b600b6020528060005260406000206000915054906101000a900460ff1681565b600181600a81106103e857600080fd5b016000915090505481565b6000600b600083815260200190815260200160002060009054906101000a900460ff169050919050565b610425610a17565b61042f6000610a95565b565b60008060009054906101000a900473ffffffffffffffffffffffffffffffffffffffff16905090565b600e81565b606060128054806020026020016040519081016040528092919081815260200182805480156104ad57602002820191906000526020600020905b815481526020019060010190808311610499575b5050505050905090565b601460009054906101000a900473ffffffffffffffffffffffffffffffffffffffff1673ffffffffffffffffffffffffffffffffffffffff163373ffffffffffffffffffffffffffffffffffffffff1614610547576040517f08c379a000000000000000000000000000000000000000000000000000000000815260040161053e90610ed8565b60405180910390fd5b600c73__$a19418b46e8afa291aed5cbf8ab9750b7c$__63168703fa9091836040518363ffffffff1660e01b8152600401610583929190610f0e565b60006040518083038186803b15801561059b57600080fd5b505af41580156105af573d6000803e3d6000fd5b50505050601281908060018154018082558091505060019003906000526020600020016000909190919091505560016013600083815260200190815260200160002060006101000a81548160ff0219169083151502179055506000600a60ff166001600c600201546106219190610f66565b61062b9190610fc9565b90506000600b6000600184600a811061064757610646610ffa565b5b0154815260200190815260200160002060006101000a81548160ff0219169083151502179055506001600b6000600c60010154815260200190815260200160002060006101000a81548160ff021916908315150217905550600c60010154600182600a81106106b9576106b8610ffa565b5b01819055507f604f5a492f8c1622a2e239876074a13b33ec11384fe2b310339ece35e8eecac782600c600101546040516106f4929190611029565b60405180910390a15050565b610708610a17565b80601460006101000a81548173ffffffffffffffffffffffffffffffffffffffff021916908373ffffffffffffffffffffffffffffffffffffffff16021790555050565b600a81565b6012818154811061076157600080fd5b906000526020600020016000915090505481565b606081601280549050116107db5760158054806020026020016040519081016040528092919081815260200182805480156107cf57602002820191906000526020600020905b8154815260200190600101908083116107bb575b505050505090506108b2565b6000826012805490506107ee9190610f66565b67ffffffffffffffff81111561080757610806611052565b5b6040519080825280602002602001820160405280156108355781602001602082028036833780820191505090505b5090506000808490505b6012805490508110156108ab57601281815481106108605761085f610ffa565b5b906000526020600020015483838151811061087e5761087d610ffa565b5b602002602001018181525050818061089590611081565b92505080806108a390611081565b91505061083f565b5081925050505b919050565b60115481565b6108c5610a17565b600073ffffffffffffffffffffffffffffffffffffffff168173ffffffffffffffffffffffffffffffffffffffff1603610934576040517f08c379a000000000000000000000000000000000000000000000000000000000815260040161092b9061113b565b60405180910390fd5b61093d81610a95565b50565b601460009054906101000a900473ffffffffffffffffffffffffffffffffffffffff1681565b600c8060000154908060010154908060020154905083565b610a148160405160240161099291906111da565b6040516020818303038152906040527f41304fac000000000000000000000000000000000000000000000000000000007bffffffffffffffffffffffffffffffffffffffffffffffffffffffff19166020820180517bffffffffffffffffffffffffffffffffffffffffffffffffffffffff8381831617835250505050610b59565b50565b610a1f610b82565b73ffffffffffffffffffffffffffffffffffffffff16610a3d610431565b73ffffffffffffffffffffffffffffffffffffffff1614610a93576040517f08c379a0000000000000000000000000000000000000000000000000000000008152600401610a8a90611248565b60405180910390fd5b565b60008060009054906101000a900473ffffffffffffffffffffffffffffffffffffffff169050816000806101000a81548173ffffffffffffffffffffffffffffffffffffffff021916908373ffffffffffffffffffffffffffffffffffffffff1602179055508173ffffffffffffffffffffffffffffffffffffffff168173ffffffffffffffffffffffffffffffffffffffff167f8be0079c531659141344cd1fd0a4f28419497f9722a3daafe3b4186f6b6457e060405160405180910390a35050565b60008151905060006a636f6e736f6c652e6c6f679050602083016000808483855afa5050505050565b600033905090565b6000819050919050565b610b9d81610b8a565b82525050565b6000602082019050610bb86000830184610b94565b92915050565b600080fd5b610bcc81610b8a565b8114610bd757600080fd5b50565b600081359050610be981610bc3565b92915050565b600060208284031215610c0557610c04610bbe565b5b6000610c1384828501610bda565b91505092915050565b60008115159050919050565b610c3181610c1c565b82525050565b6000602082019050610c4c6000830184610c28565b92915050565b600073ffffffffffffffffffffffffffffffffffffffff82169050919050565b6000610c7d82610c52565b9050919050565b610c8d81610c72565b82525050565b6000602082019050610ca86000830184610c84565b92915050565b600060ff82169050919050565b610cc481610cae565b82525050565b6000602082019050610cdf6000830184610cbb565b92915050565b600081519050919050565b600082825260208201905092915050565b6000819050602082019050919050565b610d1a81610b8a565b82525050565b6000610d2c8383610d11565b60208301905092915050565b6000602082019050919050565b6000610d5082610ce5565b610d5a8185610cf0565b9350610d6583610d01565b8060005b83811015610d96578151610d7d8882610d20565b9750610d8883610d38565b925050600181019050610d69565b5085935050505092915050565b60006020820190508181036000830152610dbd8184610d45565b905092915050565b610dce81610c72565b8114610dd957600080fd5b50565b600081359050610deb81610dc5565b92915050565b600060208284031215610e0757610e06610bbe565b5b6000610e1584828501610ddc565b91505092915050565b6000606082019050610e336000830186610b94565b610e406020830185610b94565b610e4d6040830184610b94565b949350505050565b600082825260208201905092915050565b7f4f6e6c79207468652048756220636f6e74726163742063616e2063616c6c207460008201527f6869732066756e6374696f6e2e00000000000000000000000000000000000000602082015250565b6000610ec2602d83610e55565b9150610ecd82610e66565b604082019050919050565b60006020820190508181036000830152610ef181610eb5565b9050919050565b8082525050565b610f0881610b8a565b82525050565b6000604082019050610f236000830185610ef8565b610f306020830184610eff565b9392505050565b7f4e487b7100000000000000000000000000000000000000000000000000000000600052601160045260246000fd5b6000610f7182610b8a565b9150610f7c83610b8a565b9250828203905081811115610f9457610f93610f37565b5b92915050565b7f4e487b7100000000000000000000000000000000000000000000000000000000600052601260045260246000fd5b6000610fd482610b8a565b9150610fdf83610b8a565b925082610fef57610fee610f9a565b5b828206905092915050565b7f4e487b7100000000000000000000000000000000000000000000000000000000600052603260045260246000fd5b600060408201905061103e6000830185610b94565b61104b6020830184610b94565b9392505050565b7f4e487b7100000000000000000000000000000000000000000000000000000000600052604160045260246000fd5b600061108c82610b8a565b91507fffffffffffffffffffffffffffffffffffffffffffffffffffffffffffffffff82036110be576110bd610f37565b5b600182019050919050565b7f4f776e61626c653a206e6577206f776e657220697320746865207a65726f206160008201527f6464726573730000000000000000000000000000000000000000000000000000602082015250565b6000611125602683610e55565b9150611130826110c9565b604082019050919050565b6000602082019050818103600083015261115481611118565b9050919050565b600081519050919050565b60005b83811015611184578082015181840152602081019050611169565b60008484015250505050565b6000601f19601f8301169050919050565b60006111ac8261115b565b6111b68185610e55565b93506111c6818560208601611166565b6111cf81611190565b840191505092915050565b600060208201905081810360008301526111f481846111a1565b905092915050565b7f4f776e61626c653a2063616c6c6572206973206e6f7420746865206f776e6572600082015250565b6000611232602083610e55565b915061123d826111fc565b602082019050919050565b6000602082019050818103600083015261126181611225565b905091905056fea264697066735822122095c0e6a68df869cdae78982a17955a0ef7c68e480d391cf9cf77c6d3f4815b6e64736f6c634300081100335741524e494e473a20494e435241534520524f4f545f484953544f52595f53495a4520544f204154204c45415354203330204245464f52452050524f44554354494f4e2c20414e442052454d4f564520484152444841542f434f4e534f4c452e534f4c",
  "linkReferences": {
    "@zk-kit/incremental-merkle-tree.sol/IncrementalQuinTree.sol": {
      "IncrementalQuinTree": [
        {
          "length": 20,
          "start": 18894
        },
        {
          "length": 20,
          "start": 21428
        }
      ]
    }
  },
  "deployedLinkReferences": {}
}