{
  "_format": "hh-sol-artifact-1",
  "contractName": "AssertLeafContainsCredsVerifier",
  "sourceName": "contracts/AssertLeafContainsCredsVerifier.sol",
  "abi": [
    {
      "inputs": [
        {
          "components": [
            {
              "components": [
                {
                  "internalType": "uint256",
                  "name": "X",
                  "type": "uint256"
                },
                {
                  "internalType": "uint256",
                  "name": "Y",
                  "type": "uint256"
                }
              ],
              "internalType": "struct Pairing.G1Point",
              "name": "a",
              "type": "tuple"
            },
            {
              "components": [
                {
                  "internalType": "uint256[2]",
                  "name": "X",
                  "type": "uint256[2]"
                },
                {
                  "internalType": "uint256[2]",
                  "name": "Y",
                  "type": "uint256[2]"
                }
              ],
              "internalType": "struct Pairing.G2Point",
              "name": "b",
              "type": "tuple"
            },
            {
              "components": [
                {
                  "internalType": "uint256",
                  "name": "X",
                  "type": "uint256"
                },
                {
                  "internalType": "uint256",
                  "name": "Y",
                  "type": "uint256"
                }
              ],
              "internalType": "struct Pairing.G1Point",
              "name": "c",
              "type": "tuple"
            }
          ],
          "internalType": "struct Proof",
          "name": "proof",
          "type": "tuple"
        },
        {
          "internalType": "uint256[]",
          "name": "input_",
          "type": "uint256[]"
        }
      ],
      "name": "verifyEncoded",
      "outputs": [
        {
          "internalType": "bool",
          "name": "r",
          "type": "bool"
        }
      ],
      "stateMutability": "view",
      "type": "function"
    },
    {
      "inputs": [
        {
          "components": [
            {
              "components": [
                {
                  "internalType": "uint256",
                  "name": "X",
                  "type": "uint256"
                },
                {
                  "internalType": "uint256",
                  "name": "Y",
                  "type": "uint256"
                }
              ],
              "internalType": "struct Pairing.G1Point",
              "name": "a",
              "type": "tuple"
            },
            {
              "components": [
                {
                  "internalType": "uint256[2]",
                  "name": "X",
                  "type": "uint256[2]"
                },
                {
                  "internalType": "uint256[2]",
                  "name": "Y",
                  "type": "uint256[2]"
                }
              ],
              "internalType": "struct Pairing.G2Point",
              "name": "b",
              "type": "tuple"
            },
            {
              "components": [
                {
                  "internalType": "uint256",
                  "name": "X",
                  "type": "uint256"
                },
                {
                  "internalType": "uint256",
                  "name": "Y",
                  "type": "uint256"
                }
              ],
              "internalType": "struct Pairing.G1Point",
              "name": "c",
              "type": "tuple"
            }
          ],
          "internalType": "struct Proof",
          "name": "proof",
          "type": "tuple"
        },
        {
          "internalType": "uint256[25]",
          "name": "input",
          "type": "uint256[25]"
        }
      ],
      "name": "verifyTx",
      "outputs": [
        {
          "internalType": "bool",
          "name": "r",
          "type": "bool"
        }
      ],
      "stateMutability": "view",
      "type": "function"
    }
  ],
  "bytecode": "0x608060405234801561001057600080fd5b506121e2806100206000396000f3fe608060405234801561001057600080fd5b50600436106100365760003560e01c8063ba21f38e1461003b578063d455baeb1461006b575b600080fd5b61005560048036038101906100509190611bc6565b61009b565b6040516100629190611c43565b60405180910390f35b61008560048036038101906100809190611f8c565b61011f565b6040516100929190611c43565b60405180910390f35b60006100a56119f6565b60005b60198110156100fa578484828181106100c4576100c3611fce565b5b905060200201358282601981106100de576100dd611fce565b5b60200201818152505080806100f29061202c565b9150506100a8565b506101158580360381019061010f9190612074565b8261011f565b9150509392505050565b600080601967ffffffffffffffff81111561013d5761013c611c74565b5b60405190808252806020026020018201604052801561016b5781602001602082028036833780820191505090505b50905060005b60198110156101c45783816019811061018d5761018c611fce565b5b60200201518282815181106101a5576101a4611fce565b5b60200260200101818152505080806101bc9061202c565b915050610171565b5060006101d182866101ec565b036101e05760019150506101e6565b60009150505b92915050565b6000807f30644e72e131a029b85045b68181585d2833e84879b9709143e1f593f00000019050600061021c610383565b90508060800151516001865161023291906120a2565b1461023c57600080fd5b60006040518060400160405280600081526020016000815250905060005b86518110156102f5578387828151811061027757610276611fce565b5b60200260200101511061028957600080fd5b6102e0826102db85608001516001856102a291906120a2565b815181106102b3576102b2611fce565b5b60200260200101518a85815181106102ce576102cd611fce565b5b60200260200101516112c4565b611366565b915080806102ed9061202c565b91505061025a565b5061031f81836080015160008151811061031257610311611fce565b5b6020026020010151611366565b9050610365856000015186602001516103378461142e565b85604001516103498a6040015161142e565b876060015161035b896000015161142e565b89602001516114d3565b610375576001935050505061037d565b600093505050505b92915050565b61038b611a19565b60405180604001604052807f24bca780ec43f1b827eaf5728ee446bb3105141687586b5bbf6f4d391c475b3e81526020017f130b8a4af50a00fb87696ebfa4d1a2c9efb72adc524fb6bc06a67956413e5ae08152508160000181905250604051806040016040528060405180604001604052807f0dd1384427db72433ac571e89dc2416ed10af758b16415a8315704c0ad724e6281526020017f0e1ffee34a5ff3a9b9ec501fc2d3e5f7a41b92e9fc65c8ce4fbf8156d3f89dec815250815260200160405180604001604052807f0705f0fd0b3ec5c087d09fec972f24ae2b793affa747612dd2512a5e11c1aac481526020017f0a932e33b2d4eb92cfa023d23bf334309be5f5e93e3edd158242be577bf312828152508152508160200181905250604051806040016040528060405180604001604052807f0d08e1f83b67a25088500ceca862738f47c953a2bbf3081dd9a20361d8852f5b81526020017f0a113c31f7aa5c06523d751cec72b25f75c77cf9bcdb9b502b280ead507f2447815250815260200160405180604001604052807f304527f36241ef458ee1667cffc95761a913a49e41529c405bac7407b994904081526020017f224df8dfca1c19b7a3f3efeea4c5f313098a94ebf649ab9d245ff263b55c55b58152508152508160400181905250604051806040016040528060405180604001604052807f05c85a892e1bdcf4b595ba283c2310152044b252deb97ad7262b774be23e2e3681526020017f2d483ca1a661d1802967aa6b0b774362399789186d1620bd828172196ae6e8fa815250815260200160405180604001604052807f2ed4337525aaa33051be7ae87d295a738a0b5f5165c2d1f6a65785201094195481526020017f22ea92ad95d7957c55ce9b4739306bf4960b2dd7ce5dac3182476ad9ec05e9d98152508152508160600181905250601a67ffffffffffffffff81111561065257610651611c74565b5b60405190808252806020026020018201604052801561068b57816020015b610678611a60565b8152602001906001900390816106705790505b50816080018190525060405180604001604052807f134ed80101f152929d1a3cce7f271133a76c5bb7ffd103e0bfd1879eefb8d42781526020017eb99873eb17f29f5b114a1262c6f1770ab74e6f181bdbd235a37da356ffedc88152508160800151600081518110610700576106ff611fce565b5b602002602001018190525060405180604001604052807f229fd56f4f3cb0a69cfee80b1e4a9547a574a7c8f9347bc818e076615915b96281526020017f0e826bce914b81f18a4cfbf765b860173178d31704679f6ef6d5d0454117b6fc815250816080015160018151811061077857610777611fce565b5b602002602001018190525060405180604001604052807f151659a39e951f35f01b3a3f47995f394a3a1a87e45f1847b8282d3654d31dfd81526020017f23cc64fd2eecd550cf8907a633699a3a91ba1e63d5a4e0c0b52eaf80ffbc1fb081525081608001516002815181106107f0576107ef611fce565b5b602002602001018190525060405180604001604052807f08d6124d6a6760a553e73673b1e79905f2f3e75b696e7400c11533927602e00781526020017f1cfa17e8982b0b136624d3ef388796a408ab44e5a9d62f32ba4c58b45b3bbdcf815250816080015160038151811061086857610867611fce565b5b602002602001018190525060405180604001604052807f21676b983bac56e55bf827b5c9f30e4f0fb2b387f429a25cebe7181c5b1917d181526020017f0cfd95e9b73bc5fdf64a6131f57d3e38e6b9a80d1eadf0fe074a4364032298ea81525081608001516004815181106108e0576108df611fce565b5b602002602001018190525060405180604001604052807f2d878bd01632d06f2a2012a60ade4ab3dc57fb9530082a00e152c971f2b95ab281526020017f07c703965ca45661f715cde11958f84365c8aa3f1687e70a14fe8f34b6cc83fa815250816080015160058151811061095857610957611fce565b5b602002602001018190525060405180604001604052807f02e22d0c420e7191014e87c3f0504b8b5768b7732d3a0cc737c3f6291f57517d81526020017f297d266500368c3eb8d5d31d92143733220fd8895859d756dabf684ac3a2221081525081608001516006815181106109d0576109cf611fce565b5b602002602001018190525060405180604001604052807f081e9af4f4d0b9b71fd1d59046461b52ce3669cbbb3d911607eb8e6c46593cb281526020017f14264255220fa72b25b2d248a84b38165aa7ed0fd1bda38e99edac92463fbdfd8152508160800151600781518110610a4857610a47611fce565b5b602002602001018190525060405180604001604052807f20c4d67cc2bdeecd7ff6ba62d8f61beccb95d748ab5cc48b9ce52ba1bce0e21a81526020017ec2970300327940a20b38e473609737a8032ea6a6901fa6ae47a4b1b828d57e8152508160800151600881518110610abf57610abe611fce565b5b602002602001018190525060405180604001604052807f18f7362c99fc4bea28e91c5d9b0d0e1d1a5dfd9b78ed9d2041e5e11d53c8f79d81526020017f234fffa92b7d017ca1fd07197e496c36097dbdb7d7f10cd8c6beda565c8a0f4e8152508160800151600981518110610b3757610b36611fce565b5b602002602001018190525060405180604001604052807f0a3c79e58fe0b1b12bd2dea627e9549136d679730e8c44c672392dd984ecd17981526020017f1a2ef3a881d2730b2c6f0a6f225e60a25c8f868b9b396f215c937a663d8199068152508160800151600a81518110610baf57610bae611fce565b5b602002602001018190525060405180604001604052807f0ea3c3699d9e9417d548c925d30fcb0c70894e6e7ef885b670edbf9517b7753781526020017f1c98c4df3ff90fd06889382cf522a4297c5267d95c45c9323dfaecbbf3eee5918152508160800151600b81518110610c2757610c26611fce565b5b602002602001018190525060405180604001604052807f09640a59e4e32cb3de471df84b388378a4eb68a2be17dc1a2507ace3f6d5c7c181526020017f16f939a6af344abc0f971a0984e09fac9d74c078721c6c88e5bfd41b91223d9a8152508160800151600c81518110610c9f57610c9e611fce565b5b602002602001018190525060405180604001604052807f048c2c7de36b062832a91d45f229aa56e5872f357fe28d46ed7305e1ff10d30581526020017f04bc97fe80e1e2c65bcfa9cdde686ebf57be2111284ac56493bc4e79523a37ac8152508160800151600d81518110610d1757610d16611fce565b5b602002602001018190525060405180604001604052807f10535298777a5b8964a16bc245be0865509c468f956d139c6fb4eaef50453a3381526020017f0daf5bbe85db6b3a0331f6569a0492d189b50ca099fad0938f211e441258fd888152508160800151600e81518110610d8f57610d8e611fce565b5b602002602001018190525060405180604001604052807f2c3df46d5e04555c89f5da6010b102fc0465056f89d5a96499232c8af1ae428981526020017f281887befe2185abdec9d57a32387000cb5c223bba8f8a743240ca51539b7d0c8152508160800151600f81518110610e0757610e06611fce565b5b602002602001018190525060405180604001604052807f0d62ca5ee093656d002e8784cccb4a2df1db0e09cfd0e11555a663c9f30876a581526020017f121b7d23e0689939a953412f33d6699f0f96e77208fcf8c71e581fd9b4631ca28152508160800151601081518110610e7f57610e7e611fce565b5b602002602001018190525060405180604001604052807f2f0f1528019463b4045371473ff30af6e2060ee4e52e00bb18bccbc28cc0b57981526020017f272b6d6cb9a35b4e68f91f49d4882503d863b27811fc61280157e0126b8ed10f8152508160800151601181518110610ef757610ef6611fce565b5b602002602001018190525060405180604001604052807f11fed393625d21157a301f244eba35b123d5cd2681df8f1063f89490e5b5957481526020017ec83f1e300766740633550af6dcc9e2aa272b186be4e627036c0c2a178a70148152508160800151601281518110610f6e57610f6d611fce565b5b602002602001018190525060405180604001604052807f0b391616b73f436e9832c93023b2e14c888a47f1ad20b380be470ee9e43549ef81526020017f13054673e3ad78a0ac2f82e9573d64148e47e897a5b1bac4d45dd70a1be7b36b8152508160800151601381518110610fe657610fe5611fce565b5b602002602001018190525060405180604001604052807f18990f0411ff80ef8d5715346ada94e45170661eaea1b2e7c5391371f601206281526020017f3034f2462e8a0fc03289a2f8dd2eda9ffd2f495543523d603635f00f41127a7b815250816080015160148151811061105e5761105d611fce565b5b602002602001018190525060405180604001604052807f1352ddd4eb188d9eeaddc9101b05b3e44b2d0e0f88c2c79bacb8bb15c1e592aa81526020017f0ec7bd97fcbe2b5fe3689e70f9d710c2a86c90e522e002c3cc558c1b5302e33a81525081608001516015815181106110d6576110d5611fce565b5b602002602001018190525060405180604001604052807f0a245412999e1add243b6c9cda042a09978696b630cc6312df957f09c41be0a181526020017f2cc94d3f07038775470b74becbf9cedc06b150bc27b3d85e23681282dcf9eb80815250816080015160168151811061114e5761114d611fce565b5b602002602001018190525060405180604001604052807f264636c3503a38f02ce8221f1c50a7e4ad6dc4090412b6a0a5e33fbf4306d1f081526020017f0b2a0bd8760f22e58c577ee7f440857fa70ec6e7f86d687354c60c67473a618981525081608001516017815181106111c6576111c5611fce565b5b602002602001018190525060405180604001604052807f16ba4bf100b83c671845a94dfb97e0357025c09a369047660b5558a0b93ecd6f81526020017f087b038c6ff00f6ae04665d02c208307c36cc3d29a1c4ef4ea4a1dcbd242aaaf815250816080015160188151811061123e5761123d611fce565b5b602002602001018190525060405180604001604052807f0cc77e47760d50d72b814d1b19e7e446be49ec3ea8ce32974b96184fa86e94f781526020017f165e506a9a433d35bf40f1ea9681cb0d096e622514bb458fc20fbb8275437ca581525081608001516019815181106112b6576112b5611fce565b5b602002602001018190525090565b6112cc611a60565b6112d4611a7a565b8360000151816000600381106112ed576112ec611fce565b5b60200201818152505083602001518160016003811061130f5761130e611fce565b5b602002018181525050828160026003811061132d5761132c611fce565b5b602002018181525050600060608360808460076107d05a03fa9050806000810361135357fe5b508061135e57600080fd5b505092915050565b61136e611a60565b611376611a9c565b83600001518160006004811061138f5761138e611fce565b5b6020020181815250508360200151816001600481106113b1576113b0611fce565b5b6020020181815250508260000151816002600481106113d3576113d2611fce565b5b6020020181815250508260200151816003600481106113f5576113f4611fce565b5b602002018181525050600060608360c08460066107d05a03fa9050806000810361141b57fe5b508061142657600080fd5b505092915050565b611436611a60565b60007f30644e72e131a029b85045b68181585d97816a916871ca8d3c208c16d87cfd47905060008360000151148015611473575060008360200151145b156114975760405180604001604052806000815260200160008152509150506114ce565b6040518060400160405280846000015181526020018285602001516114bc9190612105565b836114c79190612136565b8152509150505b919050565b600080600467ffffffffffffffff8111156114f1576114f0611c74565b5b60405190808252806020026020018201604052801561152a57816020015b611517611a60565b81526020019060019003908161150f5790505b5090506000600467ffffffffffffffff81111561154a57611549611c74565b5b60405190808252806020026020018201604052801561158357816020015b611570611abe565b8152602001906001900390816115685790505b5090508a8260008151811061159b5761159a611fce565b5b602002602001018190525088826001815181106115bb576115ba611fce565b5b602002602001018190525086826002815181106115db576115da611fce565b5b602002602001018190525084826003815181106115fb576115fa611fce565b5b6020026020010181905250898160008151811061161b5761161a611fce565b5b6020026020010181905250878160018151811061163b5761163a611fce565b5b6020026020010181905250858160028151811061165b5761165a611fce565b5b6020026020010181905250838160038151811061167b5761167a611fce565b5b602002602001018190525061169082826116a0565b9250505098975050505050505050565b600081518351146116b057600080fd5b60008351905060006006826116c5919061216a565b905060008167ffffffffffffffff8111156116e3576116e2611c74565b5b6040519080825280602002602001820160405280156117115781602001602082028036833780820191505090505b50905060005b838110156119965786818151811061173257611731611fce565b5b60200260200101516000015182600060068461174e919061216a565b61175891906120a2565b8151811061176957611768611fce565b5b60200260200101818152505086818151811061178857611787611fce565b5b6020026020010151602001518260016006846117a4919061216a565b6117ae91906120a2565b815181106117bf576117be611fce565b5b6020026020010181815250508581815181106117de576117dd611fce565b5b6020026020010151600001516001600281106117fd576117fc611fce565b5b6020020151826002600684611812919061216a565b61181c91906120a2565b8151811061182d5761182c611fce565b5b60200260200101818152505085818151811061184c5761184b611fce565b5b60200260200101516000015160006002811061186b5761186a611fce565b5b6020020151826003600684611880919061216a565b61188a91906120a2565b8151811061189b5761189a611fce565b5b6020026020010181815250508581815181106118ba576118b9611fce565b5b6020026020010151602001516001600281106118d9576118d8611fce565b5b60200201518260046006846118ee919061216a565b6118f891906120a2565b8151811061190957611908611fce565b5b60200260200101818152505085818151811061192857611927611fce565b5b60200260200101516020015160006002811061194757611946611fce565b5b602002015182600560068461195c919061216a565b61196691906120a2565b8151811061197757611976611fce565b5b602002602001018181525050808061198e9061202c565b915050611717565b5061199f611ae4565b6000602082602086026020860160086107d05a03fa905080600081036119c157fe5b50806119cc57600080fd5b6000826000600181106119e2576119e1611fce565b5b602002015114159550505050505092915050565b604051806103200160405280601990602082028036833780820191505090505090565b6040518060a00160405280611a2c611a60565b8152602001611a39611abe565b8152602001611a46611abe565b8152602001611a53611abe565b8152602001606081525090565b604051806040016040528060008152602001600081525090565b6040518060600160405280600390602082028036833780820191505090505090565b6040518060800160405280600490602082028036833780820191505090505090565b6040518060400160405280611ad1611b06565b8152602001611ade611b06565b81525090565b6040518060200160405280600190602082028036833780820191505090505090565b6040518060400160405280600290602082028036833780820191505090505090565b6000604051905090565b600080fd5b600080fd5b600080fd5b60006101008284031215611b5857611b57611b3c565b5b81905092915050565b600080fd5b600080fd5b600080fd5b60008083601f840112611b8657611b85611b61565b5b8235905067ffffffffffffffff811115611ba357611ba2611b66565b5b602083019150836020820283011115611bbf57611bbe611b6b565b5b9250929050565b60008060006101208486031215611be057611bdf611b32565b5b6000611bee86828701611b41565b93505061010084013567ffffffffffffffff811115611c1057611c0f611b37565b5b611c1c86828701611b70565b92509250509250925092565b60008115159050919050565b611c3d81611c28565b82525050565b6000602082019050611c586000830184611c34565b92915050565b600080fd5b6000601f19601f8301169050919050565b7f4e487b7100000000000000000000000000000000000000000000000000000000600052604160045260246000fd5b611cac82611c63565b810181811067ffffffffffffffff82111715611ccb57611cca611c74565b5b80604052505050565b6000611cde611b28565b9050611cea8282611ca3565b919050565b6000819050919050565b611d0281611cef565b8114611d0d57600080fd5b50565b600081359050611d1f81611cf9565b92915050565b600060408284031215611d3b57611d3a611c5e565b5b611d456040611cd4565b90506000611d5584828501611d10565b6000830152506020611d6984828501611d10565b60208301525092915050565b600067ffffffffffffffff821115611d9057611d8f611c74565b5b602082029050919050565b6000611dae611da984611d75565b611cd4565b90508060208402830185811115611dc857611dc7611b6b565b5b835b81811015611df15780611ddd8882611d10565b845260208401935050602081019050611dca565b5050509392505050565b600082601f830112611e1057611e0f611b61565b5b6002611e1d848285611d9b565b91505092915050565b600060808284031215611e3c57611e3b611c5e565b5b611e466040611cd4565b90506000611e5684828501611dfb565b6000830152506040611e6a84828501611dfb565b60208301525092915050565b60006101008284031215611e8d57611e8c611c5e565b5b611e976060611cd4565b90506000611ea784828501611d25565b6000830152506040611ebb84828501611e26565b60208301525060c0611ecf84828501611d25565b60408301525092915050565b600067ffffffffffffffff821115611ef657611ef5611c74565b5b602082029050919050565b6000611f14611f0f84611edb565b611cd4565b90508060208402830185811115611f2e57611f2d611b6b565b5b835b81811015611f575780611f438882611d10565b845260208401935050602081019050611f30565b5050509392505050565b600082601f830112611f7657611f75611b61565b5b6019611f83848285611f01565b91505092915050565b6000806104208385031215611fa457611fa3611b32565b5b6000611fb285828601611e76565b925050610100611fc485828601611f61565b9150509250929050565b7f4e487b7100000000000000000000000000000000000000000000000000000000600052603260045260246000fd5b7f4e487b7100000000000000000000000000000000000000000000000000000000600052601160045260246000fd5b600061203782611cef565b91507fffffffffffffffffffffffffffffffffffffffffffffffffffffffffffffffff820361206957612068611ffd565b5b600182019050919050565b6000610100828403121561208b5761208a611b32565b5b600061209984828501611e76565b91505092915050565b60006120ad82611cef565b91506120b883611cef565b92508282019050808211156120d0576120cf611ffd565b5b92915050565b7f4e487b7100000000000000000000000000000000000000000000000000000000600052601260045260246000fd5b600061211082611cef565b915061211b83611cef565b92508261212b5761212a6120d6565b5b828206905092915050565b600061214182611cef565b915061214c83611cef565b925082820390508181111561216457612163611ffd565b5b92915050565b600061217582611cef565b915061218083611cef565b925082820261218e81611cef565b915082820484148315176121a5576121a4611ffd565b5b509291505056fea2646970667358221220f8f7674ce01e78a85af89ca3ee97d9b10c6ea36c361abd670f94197b20b8f41e64736f6c63430008110033",
  "linkReferences": {},
  "deployedLinkReferences": {}
}