{
  "_format": "hh-sol-artifact-1",
  "contractName": "OnAddLeaf",
  "sourceName": "contracts/onAddLeaf.verifier.sol",
  "abi": [
    {
      "inputs": [
        {
          "components": [
            {
              "components": [
                {
                  "internalType": "uint256",
                  "name": "X",
                  "type": "uint256"
                },
                {
                  "internalType": "uint256",
                  "name": "Y",
                  "type": "uint256"
                }
              ],
              "internalType": "struct Pairing.G1Point",
              "name": "a",
              "type": "tuple"
            },
            {
              "components": [
                {
                  "internalType": "uint256[2]",
                  "name": "X",
                  "type": "uint256[2]"
                },
                {
                  "internalType": "uint256[2]",
                  "name": "Y",
                  "type": "uint256[2]"
                }
              ],
              "internalType": "struct Pairing.G2Point",
              "name": "b",
              "type": "tuple"
            },
            {
              "components": [
                {
                  "internalType": "uint256",
                  "name": "X",
                  "type": "uint256"
                },
                {
                  "internalType": "uint256",
                  "name": "Y",
                  "type": "uint256"
                }
              ],
              "internalType": "struct Pairing.G1Point",
              "name": "c",
              "type": "tuple"
            }
          ],
          "internalType": "struct Proof",
          "name": "proof",
          "type": "tuple"
        },
        {
          "internalType": "uint256[3]",
          "name": "input",
          "type": "uint256[3]"
        }
      ],
      "name": "verifyTx",
      "outputs": [
        {
          "internalType": "bool",
          "name": "r",
          "type": "bool"
        }
      ],
      "stateMutability": "view",
      "type": "function"
    }
  ],
  "bytecode": "0x608060405234801561001057600080fd5b5061159c806100206000396000f3fe608060405234801561001057600080fd5b506004361061002b5760003560e01c80630f9c5d4914610030575b600080fd5b61004a6004803603810190610045919061133e565b610060565b604051610057919061139b565b60405180910390f35b600080600367ffffffffffffffff81111561007e5761007d61101c565b5b6040519080825280602002602001820160405280156100ac5781602001602082028036833780820191505090505b50905060005b6003811015610105578381600381106100ce576100cd6113b6565b5b60200201518282815181106100e6576100e56113b6565b5b60200260200101818152505080806100fd90611414565b9150506100b2565b506000610112828661012d565b03610121576001915050610127565b60009150505b92915050565b6000807f30644e72e131a029b85045b68181585d2833e84879b9709143e1f593f00000019050600061015d6102c4565b905080608001515160018651610173919061145c565b1461017d57600080fd5b60006040518060400160405280600081526020016000815250905060005b865181101561023657838782815181106101b8576101b76113b6565b5b6020026020010151106101ca57600080fd5b6102218261021c85608001516001856101e3919061145c565b815181106101f4576101f36113b6565b5b60200260200101518a858151811061020f5761020e6113b6565b5b60200260200101516107b6565b610858565b9150808061022e90611414565b91505061019b565b50610260818360800151600081518110610253576102526113b6565b5b6020026020010151610858565b90506102a68560000151866020015161027884610920565b856040015161028a8a60400151610920565b876060015161029c8960000151610920565b89602001516109c5565b6102b657600193505050506102be565b600093505050505b92915050565b6102cc610ee8565b60405180604001604052807f193e22c4311c3609eb91e7138ac6d29b9dd8bd2f074f6be04fa42c02ca03605381526020017f295745b73ac6fc210aa6bc3e0b8d789b6404a259dff1ac60c722848920e5f87f8152508160000181905250604051806040016040528060405180604001604052807f213d8635a997818eb1c13707bb04ccd95e69ff60c6b9ccaea869cdc71890b6c181526020017f2719f14a0ab6d68f531559d2cd432b2e901c00ff3840764e1c552c773189677b815250815260200160405180604001604052807f0e14bc64efd9ded08e799a666e1745df6aec82d0761b22777772eb94eb221c9f81526020017f03d175bb6309fca6d740df37d61d959922ebdba6877ee305522e81b6d7ae332c8152508152508160200181905250604051806040016040528060405180604001604052807f1a06e23ec4935b54c0597f3b467b0a6387a7c3b0601b6e7371438af61f7bc26581526020017f1fe80dada06db006ba66ef4db82d3ee74832414d3b53f4626a06f7f8750c15c4815250815260200160405180604001604052807f08dcab2e5abd9809c60e25037c3b916fe834388bcd5c78e3709e6aeb2e3cc57e81526020017f03e1fc33cdcf73fc1d82e36fae31748c781fa4226b30e7601a2bda0e8a56b12a8152508152508160400181905250604051806040016040528060405180604001604052807f1772a892dc0d131f5d709f8060c57da955692ff581ab41a36a3c0d0daf207a4881526020017f16c6fcd0a249a5dab4911e6d2d3f5c95f4a36245a6117120f631ae029c39aeb9815250815260200160405180604001604052807e87271d18ff6303d104536f890649b4b420d49c747e192d780c66cd2c964b2981526020017ea890a9980461c6da9125d63bc6b3c996bb6985432fb38dabb7d3ddca844be98152508152508160600181905250600467ffffffffffffffff8111156105915761059061101c565b5b6040519080825280602002602001820160405280156105ca57816020015b6105b7610f2f565b8152602001906001900390816105af5790505b50816080018190525060405180604001604052807f0c985a310d66b2f4f974c21d8e4d2be8df76394ba894c8307c6f01ec5d9f873481526020017f193c8d425f2fb2e4b227368edadb05f282ae2750c60e1a056dc7fdb028088b4f81525081608001516000815181106106405761063f6113b6565b5b602002602001018190525060405180604001604052807f1197eca1c597fd28d76a01664204e6144a92366a06e5642721af18e24ad08e1e81526020017f23cc59ae89cb3c9cb359d3e7610912167dd54eba8db12de9161e1198ca29884281525081608001516001815181106106b8576106b76113b6565b5b602002602001018190525060405180604001604052807f13cdef780266d604b254108f00b50c19e0293103d68fe04dd5e76e593f1d19bf81526020017f0f0089538a39d0f144f4c8ca57c0cc3f63a4174f6f9d17d5b0ee563cf8708e3381525081608001516002815181106107305761072f6113b6565b5b602002602001018190525060405180604001604052807f20b55fc8eb393034d47a78c00f394cf68769592e0b1343d92e5d0c64b962990281526020017f22665571d9d730edcf00aff2ef5e39d90f67497b149e6817dc5e62f23ecd630681525081608001516003815181106107a8576107a76113b6565b5b602002602001018190525090565b6107be610f2f565b6107c6610f49565b8360000151816000600381106107df576107de6113b6565b5b602002018181525050836020015181600160038110610801576108006113b6565b5b602002018181525050828160026003811061081f5761081e6113b6565b5b602002018181525050600060608360808460076107d05a03fa9050806000810361084557fe5b508061085057600080fd5b505092915050565b610860610f2f565b610868610f6b565b836000015181600060048110610881576108806113b6565b5b6020020181815250508360200151816001600481106108a3576108a26113b6565b5b6020020181815250508260000151816002600481106108c5576108c46113b6565b5b6020020181815250508260200151816003600481106108e7576108e66113b6565b5b602002018181525050600060608360c08460066107d05a03fa9050806000810361090d57fe5b508061091857600080fd5b505092915050565b610928610f2f565b60007f30644e72e131a029b85045b68181585d97816a916871ca8d3c208c16d87cfd47905060008360000151148015610965575060008360200151145b156109895760405180604001604052806000815260200160008152509150506109c0565b6040518060400160405280846000015181526020018285602001516109ae91906114bf565b836109b991906114f0565b8152509150505b919050565b600080600467ffffffffffffffff8111156109e3576109e261101c565b5b604051908082528060200260200182016040528015610a1c57816020015b610a09610f2f565b815260200190600190039081610a015790505b5090506000600467ffffffffffffffff811115610a3c57610a3b61101c565b5b604051908082528060200260200182016040528015610a7557816020015b610a62610f8d565b815260200190600190039081610a5a5790505b5090508a82600081518110610a8d57610a8c6113b6565b5b60200260200101819052508882600181518110610aad57610aac6113b6565b5b60200260200101819052508682600281518110610acd57610acc6113b6565b5b60200260200101819052508482600381518110610aed57610aec6113b6565b5b60200260200101819052508981600081518110610b0d57610b0c6113b6565b5b60200260200101819052508781600181518110610b2d57610b2c6113b6565b5b60200260200101819052508581600281518110610b4d57610b4c6113b6565b5b60200260200101819052508381600381518110610b6d57610b6c6113b6565b5b6020026020010181905250610b828282610b92565b9250505098975050505050505050565b60008151835114610ba257600080fd5b6000835190506000600682610bb79190611524565b905060008167ffffffffffffffff811115610bd557610bd461101c565b5b604051908082528060200260200182016040528015610c035781602001602082028036833780820191505090505b50905060005b83811015610e8857868181518110610c2457610c236113b6565b5b602002602001015160000151826000600684610c409190611524565b610c4a919061145c565b81518110610c5b57610c5a6113b6565b5b602002602001018181525050868181518110610c7a57610c796113b6565b5b602002602001015160200151826001600684610c969190611524565b610ca0919061145c565b81518110610cb157610cb06113b6565b5b602002602001018181525050858181518110610cd057610ccf6113b6565b5b602002602001015160000151600160028110610cef57610cee6113b6565b5b6020020151826002600684610d049190611524565b610d0e919061145c565b81518110610d1f57610d1e6113b6565b5b602002602001018181525050858181518110610d3e57610d3d6113b6565b5b602002602001015160000151600060028110610d5d57610d5c6113b6565b5b6020020151826003600684610d729190611524565b610d7c919061145c565b81518110610d8d57610d8c6113b6565b5b602002602001018181525050858181518110610dac57610dab6113b6565b5b602002602001015160200151600160028110610dcb57610dca6113b6565b5b6020020151826004600684610de09190611524565b610dea919061145c565b81518110610dfb57610dfa6113b6565b5b602002602001018181525050858181518110610e1a57610e196113b6565b5b602002602001015160200151600060028110610e3957610e386113b6565b5b6020020151826005600684610e4e9190611524565b610e58919061145c565b81518110610e6957610e686113b6565b5b6020026020010181815250508080610e8090611414565b915050610c09565b50610e91610fb3565b6000602082602086026020860160086107d05a03fa90508060008103610eb357fe5b5080610ebe57600080fd5b600082600060018110610ed457610ed36113b6565b5b602002015114159550505050505092915050565b6040518060a00160405280610efb610f2f565b8152602001610f08610f8d565b8152602001610f15610f8d565b8152602001610f22610f8d565b8152602001606081525090565b604051806040016040528060008152602001600081525090565b6040518060600160405280600390602082028036833780820191505090505090565b6040518060800160405280600490602082028036833780820191505090505090565b6040518060400160405280610fa0610fd5565b8152602001610fad610fd5565b81525090565b6040518060200160405280600190602082028036833780820191505090505090565b6040518060400160405280600290602082028036833780820191505090505090565b6000604051905090565b600080fd5b600080fd5b6000601f19601f8301169050919050565b7f4e487b7100000000000000000000000000000000000000000000000000000000600052604160045260246000fd5b6110548261100b565b810181811067ffffffffffffffff821117156110735761107261101c565b5b80604052505050565b6000611086610ff7565b9050611092828261104b565b919050565b6000819050919050565b6110aa81611097565b81146110b557600080fd5b50565b6000813590506110c7816110a1565b92915050565b6000604082840312156110e3576110e2611006565b5b6110ed604061107c565b905060006110fd848285016110b8565b6000830152506020611111848285016110b8565b60208301525092915050565b600080fd5b600067ffffffffffffffff82111561113d5761113c61101c565b5b602082029050919050565b600080fd5b600061116061115b84611122565b61107c565b9050806020840283018581111561117a57611179611148565b5b835b818110156111a3578061118f88826110b8565b84526020840193505060208101905061117c565b5050509392505050565b600082601f8301126111c2576111c161111d565b5b60026111cf84828561114d565b91505092915050565b6000608082840312156111ee576111ed611006565b5b6111f8604061107c565b90506000611208848285016111ad565b600083015250604061121c848285016111ad565b60208301525092915050565b6000610100828403121561123f5761123e611006565b5b611249606061107c565b90506000611259848285016110cd565b600083015250604061126d848285016111d8565b60208301525060c0611281848285016110cd565b60408301525092915050565b600067ffffffffffffffff8211156112a8576112a761101c565b5b602082029050919050565b60006112c66112c18461128d565b61107c565b905080602084028301858111156112e0576112df611148565b5b835b8181101561130957806112f588826110b8565b8452602084019350506020810190506112e2565b5050509392505050565b600082601f8301126113285761132761111d565b5b60036113358482856112b3565b91505092915050565b600080610160838503121561135657611355611001565b5b600061136485828601611228565b92505061010061137685828601611313565b9150509250929050565b60008115159050919050565b61139581611380565b82525050565b60006020820190506113b0600083018461138c565b92915050565b7f4e487b7100000000000000000000000000000000000000000000000000000000600052603260045260246000fd5b7f4e487b7100000000000000000000000000000000000000000000000000000000600052601160045260246000fd5b600061141f82611097565b91507fffffffffffffffffffffffffffffffffffffffffffffffffffffffffffffffff8203611451576114506113e5565b5b600182019050919050565b600061146782611097565b915061147283611097565b925082820190508082111561148a576114896113e5565b5b92915050565b7f4e487b7100000000000000000000000000000000000000000000000000000000600052601260045260246000fd5b60006114ca82611097565b91506114d583611097565b9250826114e5576114e4611490565b5b828206905092915050565b60006114fb82611097565b915061150683611097565b925082820390508181111561151e5761151d6113e5565b5b92915050565b600061152f82611097565b915061153a83611097565b925082820261154881611097565b9150828204841483151761155f5761155e6113e5565b5b509291505056fea264697066735822122098b337135b1e6d816c49e3ca02d18541c8fa662988d732d0f42bd27e23ad186564736f6c63430008110033",
  "linkReferences": {},
  "deployedLinkReferences": {}
}