{
  "_format": "hh-sol-artifact-1",
  "contractName": "IsUSResident",
  "sourceName": "contracts/custom-proofs/residency/IsUSResident.sol",
  "abi": [
    {
      "inputs": [
        {
          "internalType": "address",
          "name": "roots_",
          "type": "address"
        },
        {
          "internalType": "uint256[]",
          "name": "issuers_",
          "type": "uint256[]"
        },
        {
          "internalType": "uint256",
          "name": "price_",
          "type": "uint256"
        },
        {
          "internalType": "address",
          "name": "oldContract_",
          "type": "address"
        }
      ],
      "stateMutability": "nonpayable",
      "type": "constructor"
    },
    {
      "anonymous": false,
      "inputs": [
        {
          "indexed": true,
          "internalType": "address",
          "name": "previousOwner",
          "type": "address"
        },
        {
          "indexed": true,
          "internalType": "address",
          "name": "newOwner",
          "type": "address"
        }
      ],
      "name": "OwnershipTransferred",
      "type": "event"
    },
    {
      "anonymous": false,
      "inputs": [
        {
          "indexed": false,
          "internalType": "address",
          "name": "userAddr",
          "type": "address"
        },
        {
          "indexed": false,
          "internalType": "bool",
          "name": "usResidency",
          "type": "bool"
        }
      ],
      "name": "USResidency",
      "type": "event"
    },
    {
      "inputs": [
        {
          "internalType": "uint256[]",
          "name": "issuerAddresses",
          "type": "uint256[]"
        }
      ],
      "name": "allowIssuers",
      "outputs": [],
      "stateMutability": "nonpayable",
      "type": "function"
    },
    {
      "inputs": [
        {
          "internalType": "uint256",
          "name": "",
          "type": "uint256"
        }
      ],
      "name": "allowedIssuers",
      "outputs": [
        {
          "internalType": "bool",
          "name": "",
          "type": "bool"
        }
      ],
      "stateMutability": "view",
      "type": "function"
    },
    {
      "inputs": [],
      "name": "collectPayments",
      "outputs": [],
      "stateMutability": "nonpayable",
      "type": "function"
    },
    {
      "inputs": [
        {
          "internalType": "uint256",
          "name": "issuerAddress",
          "type": "uint256"
        }
      ],
      "name": "isValidIssuer",
      "outputs": [
        {
          "internalType": "bool",
          "name": "",
          "type": "bool"
        }
      ],
      "stateMutability": "view",
      "type": "function"
    },
    {
      "inputs": [
        {
          "internalType": "uint256",
          "name": "",
          "type": "uint256"
        }
      ],
      "name": "masalaWasUsed",
      "outputs": [
        {
          "internalType": "bool",
          "name": "",
          "type": "bool"
        }
      ],
      "stateMutability": "view",
      "type": "function"
    },
    {
      "inputs": [],
      "name": "owner",
      "outputs": [
        {
          "internalType": "address",
          "name": "",
          "type": "address"
        }
      ],
      "stateMutability": "view",
      "type": "function"
    },
    {
      "inputs": [],
      "name": "price",
      "outputs": [
        {
          "internalType": "uint256",
          "name": "",
          "type": "uint256"
        }
      ],
      "stateMutability": "view",
      "type": "function"
    },
    {
      "inputs": [
        {
          "components": [
            {
              "components": [
                {
                  "internalType": "uint256",
                  "name": "X",
                  "type": "uint256"
                },
                {
                  "internalType": "uint256",
                  "name": "Y",
                  "type": "uint256"
                }
              ],
              "internalType": "struct Pairing.G1Point",
              "name": "a",
              "type": "tuple"
            },
            {
              "components": [
                {
                  "internalType": "uint256[2]",
                  "name": "X",
                  "type": "uint256[2]"
                },
                {
                  "internalType": "uint256[2]",
                  "name": "Y",
                  "type": "uint256[2]"
                }
              ],
              "internalType": "struct Pairing.G2Point",
              "name": "b",
              "type": "tuple"
            },
            {
              "components": [
                {
                  "internalType": "uint256",
                  "name": "X",
                  "type": "uint256"
                },
                {
                  "internalType": "uint256",
                  "name": "Y",
                  "type": "uint256"
                }
              ],
              "internalType": "struct Pairing.G1Point",
              "name": "c",
              "type": "tuple"
            }
          ],
          "internalType": "struct Proof",
          "name": "proof",
          "type": "tuple"
        },
        {
          "internalType": "uint256[6]",
          "name": "input",
          "type": "uint256[6]"
        }
      ],
      "name": "proofIsValid",
      "outputs": [
        {
          "internalType": "bool",
          "name": "isValid",
          "type": "bool"
        }
      ],
      "stateMutability": "view",
      "type": "function"
    },
    {
      "inputs": [
        {
          "components": [
            {
              "components": [
                {
                  "internalType": "uint256",
                  "name": "X",
                  "type": "uint256"
                },
                {
                  "internalType": "uint256",
                  "name": "Y",
                  "type": "uint256"
                }
              ],
              "internalType": "struct Pairing.G1Point",
              "name": "a",
              "type": "tuple"
            },
            {
              "components": [
                {
                  "internalType": "uint256[2]",
                  "name": "X",
                  "type": "uint256[2]"
                },
                {
                  "internalType": "uint256[2]",
                  "name": "Y",
                  "type": "uint256[2]"
                }
              ],
              "internalType": "struct Pairing.G2Point",
              "name": "b",
              "type": "tuple"
            },
            {
              "components": [
                {
                  "internalType": "uint256",
                  "name": "X",
                  "type": "uint256"
                },
                {
                  "internalType": "uint256",
                  "name": "Y",
                  "type": "uint256"
                }
              ],
              "internalType": "struct Pairing.G1Point",
              "name": "c",
              "type": "tuple"
            }
          ],
          "internalType": "struct Proof",
          "name": "proof",
          "type": "tuple"
        },
        {
          "internalType": "uint256[6]",
          "name": "input",
          "type": "uint256[6]"
        }
      ],
      "name": "prove",
      "outputs": [],
      "stateMutability": "nonpayable",
      "type": "function"
    },
    {
      "inputs": [],
      "name": "renounceOwnership",
      "outputs": [],
      "stateMutability": "nonpayable",
      "type": "function"
    },
    {
      "inputs": [
        {
          "internalType": "uint256[]",
          "name": "issuerAddresses",
          "type": "uint256[]"
        }
      ],
      "name": "revokeIssuers",
      "outputs": [],
      "stateMutability": "nonpayable",
      "type": "function"
    },
    {
      "inputs": [
        {
          "internalType": "uint256",
          "name": "newPrice",
          "type": "uint256"
        }
      ],
      "name": "setPrice",
      "outputs": [],
      "stateMutability": "nonpayable",
      "type": "function"
    },
    {
      "inputs": [
        {
          "internalType": "address",
          "name": "newOwner",
          "type": "address"
        }
      ],
      "name": "transferOwnership",
      "outputs": [],
      "stateMutability": "nonpayable",
      "type": "function"
    },
    {
      "inputs": [
        {
          "internalType": "address",
          "name": "person",
          "type": "address"
        }
      ],
      "name": "usResidency",
      "outputs": [
        {
          "internalType": "bool",
          "name": "",
          "type": "bool"
        }
      ],
      "stateMutability": "view",
      "type": "function"
    },
    {
      "inputs": [
        {
          "internalType": "address",
          "name": "",
          "type": "address"
        }
      ],
      "name": "usResidencyMapping",
      "outputs": [
        {
          "internalType": "bool",
          "name": "",
          "type": "bool"
        }
      ],
      "stateMutability": "view",
      "type": "function"
    }
  ],
  "bytecode": "0x60806040523480156200001157600080fd5b50604051620036d7380380620036d783398181016040528101906200003791906200061f565b620000576200004b620001c260201b60201c565b620001ca60201b60201c565b83600660006101000a81548173ffffffffffffffffffffffffffffffffffffffff021916908373ffffffffffffffffffffffffffffffffffffffff160217905550604051620000a690620003e8565b604051809103906000f080158015620000c3573d6000803e3d6000fd5b50600560006101000a81548173ffffffffffffffffffffffffffffffffffffffff021916908373ffffffffffffffffffffffffffffffffffffffff16021790555062000115836200028e60201b60201c565b62000126826200031460201b60201c565b600073ffffffffffffffffffffffffffffffffffffffff168173ffffffffffffffffffffffffffffffffffffffff1614620001b8576001600660146101000a81548160ff02191690831515021790555080600760006101000a81548173ffffffffffffffffffffffffffffffffffffffff021916908373ffffffffffffffffffffffffffffffffffffffff1602179055505b50505050620007cd565b600033905090565b60008060009054906101000a900473ffffffffffffffffffffffffffffffffffffffff169050816000806101000a81548173ffffffffffffffffffffffffffffffffffffffff021916908373ffffffffffffffffffffffffffffffffffffffff1602179055508173ffffffffffffffffffffffffffffffffffffffff168173ffffffffffffffffffffffffffffffffffffffff167f8be0079c531659141344cd1fd0a4f28419497f9722a3daafe3b4186f6b6457e060405160405180910390a35050565b6200029e6200032e60201b60201c565b60005b81518160ff1610156200031057600160026000848460ff1681518110620002cd57620002cc620006b0565b5b6020026020010151815260200190815260200160002060006101000a81548160ff021916908315150217905550808062000307906200071b565b915050620002a1565b5050565b620003246200032e60201b60201c565b8060018190555050565b6200033e620001c260201b60201c565b73ffffffffffffffffffffffffffffffffffffffff1662000364620003bf60201b60201c565b73ffffffffffffffffffffffffffffffffffffffff1614620003bd576040517f08c379a0000000000000000000000000000000000000000000000000000000008152600401620003b490620007ab565b60405180910390fd5b565b60008060009054906101000a900473ffffffffffffffffffffffffffffffffffffffff16905090565b6117718062001f6683390190565b6000604051905090565b600080fd5b600080fd5b600073ffffffffffffffffffffffffffffffffffffffff82169050919050565b600062000437826200040a565b9050919050565b62000449816200042a565b81146200045557600080fd5b50565b60008151905062000469816200043e565b92915050565b600080fd5b6000601f19601f8301169050919050565b7f4e487b7100000000000000000000000000000000000000000000000000000000600052604160045260246000fd5b620004bf8262000474565b810181811067ffffffffffffffff82111715620004e157620004e062000485565b5b80604052505050565b6000620004f6620003f6565b9050620005048282620004b4565b919050565b600067ffffffffffffffff82111562000527576200052662000485565b5b602082029050602081019050919050565b600080fd5b6000819050919050565b62000552816200053d565b81146200055e57600080fd5b50565b600081519050620005728162000547565b92915050565b60006200058f620005898462000509565b620004ea565b90508083825260208201905060208402830185811115620005b557620005b462000538565b5b835b81811015620005e25780620005cd888262000561565b845260208401935050602081019050620005b7565b5050509392505050565b600082601f8301126200060457620006036200046f565b5b81516200061684826020860162000578565b91505092915050565b600080600080608085870312156200063c576200063b62000400565b5b60006200064c8782880162000458565b945050602085015167ffffffffffffffff81111562000670576200066f62000405565b5b6200067e87828801620005ec565b9350506040620006918782880162000561565b9250506060620006a48782880162000458565b91505092959194509250565b7f4e487b7100000000000000000000000000000000000000000000000000000000600052603260045260246000fd5b7f4e487b7100000000000000000000000000000000000000000000000000000000600052601160045260246000fd5b600060ff82169050919050565b600062000728826200070e565b915060ff8214156200073f576200073e620006df565b5b600182019050919050565b600082825260208201905092915050565b7f4f776e61626c653a2063616c6c6572206973206e6f7420746865206f776e6572600082015250565b6000620007936020836200074a565b9150620007a0826200075b565b602082019050919050565b60006020820190508181036000830152620007c68162000784565b9050919050565b61178980620007dd6000396000f3fe608060405234801561001057600080fd5b50600436106100f55760003560e01c80639aaf28bb11610097578063c3f243af11610066578063c3f243af14610270578063ce072163146102a0578063f175a2d7146102aa578063f2fde38b146102da576100f5565b80639aaf28bb146101d6578063a035b1fe146101f2578063a76413d714610210578063bcd7840614610240576100f5565b8063775d0df0116100d3578063775d0df0146101505780637fb0ac83146101805780638da5cb5b1461019c57806391b7f5ed146101ba576100f5565b806332b8af59146100fa5780636bd09a531461012a578063715018a614610146575b600080fd5b610114600480360381019061010f9190610d16565b6102f6565b6040516101219190610d73565b60405180910390f35b610144600480360381019061013f9190610f18565b61069e565b005b61014e610715565b005b61016a60048036038101906101659190610f61565b610729565b6040516101779190610d73565b60405180910390f35b61019a60048036038101906101959190610f18565b610749565b005b6101a46107c0565b6040516101b19190610fcf565b60405180910390f35b6101d460048036038101906101cf9190610f61565b6107e9565b005b6101f060048036038101906101eb9190610d16565b6107fb565b005b6101fa610900565b6040516102079190610ff9565b60405180910390f35b61022a60048036038101906102259190611040565b610906565b6040516102379190610d73565b60405180910390f35b61025a60048036038101906102559190611040565b610926565b6040516102679190610d73565b60405180910390f35b61028a60048036038101906102859190610f61565b610a46565b6040516102979190610d73565b60405180910390f35b6102a8610a66565b005b6102c460048036038101906102bf9190610f61565b610abe565b6040516102d19190610d73565b60405180910390f35b6102f460048036038101906102ef9190611040565b610ae8565b005b6000600660009054906101000a900473ffffffffffffffffffffffffffffffffffffffff1673ffffffffffffffffffffffffffffffffffffffff16636d61af5c8360006006811061034a5761034961106d565b5b60200201356040518263ffffffff1660e01b815260040161036b9190610ff9565b60206040518083038186803b15801561038357600080fd5b505afa158015610397573d6000803e3d6000fd5b505050506040513d601f19601f820116820180604052508101906103bb91906110c8565b6103fa576040517f08c379a00000000000000000000000000000000000000000000000000000000081526004016103f19061119e565b60405180910390fd5b61041b826002600681106104115761041061106d565b5b6020020135610abe565b61045a576040517f08c379a000000000000000000000000000000000000000000000000000000000815260040161045190611230565b60405180910390fd5b7f28ca58c3c1044c5277405071d5e3754aeaa4f91dae2c8647275f0b168ae4a94c8260036006811061048f5761048e61106d565b5b6020020135146104d4576040517f08c379a00000000000000000000000000000000000000000000000000000000081526004016104cb906112c2565b60405180910390fd5b60046000836004600681106104ec576104eb61106d565b5b6020020135815260200190815260200160002060009054906101000a900460ff161561054d576040517f08c379a00000000000000000000000000000000000000000000000000000000081526004016105449061132e565b60405180910390fd5b6002826005600681106105635761056261106d565b5b6020020135146105a8576040517f08c379a000000000000000000000000000000000000000000000000000000000815260040161059f906113c0565b60405180910390fd5b600560009054906101000a900473ffffffffffffffffffffffffffffffffffffffff1673ffffffffffffffffffffffffffffffffffffffff166301ec146384846040518363ffffffff1660e01b815260040161060592919061152f565b60206040518083038186803b15801561061d57600080fd5b505afa158015610631573d6000803e3d6000fd5b505050506040513d601f19601f8201168201806040525081019061065591906110c8565b610694576040517f08c379a000000000000000000000000000000000000000000000000000000000815260040161068b906115a6565b60405180910390fd5b6001905092915050565b6106a6610b6c565b60005b81518160ff16101561071157600060026000848460ff16815181106106d1576106d061106d565b5b6020026020010151815260200190815260200160002060006101000a81548160ff021916908315150217905550808061070990611602565b9150506106a9565b5050565b61071d610b6c565b6107276000610bea565b565b60046020528060005260406000206000915054906101000a900460ff1681565b610751610b6c565b60005b81518160ff1610156107bc57600160026000848460ff168151811061077c5761077b61106d565b5b6020026020010151815260200190815260200160002060006101000a81548160ff02191690831515021790555080806107b490611602565b915050610754565b5050565b60008060009054906101000a900473ffffffffffffffffffffffffffffffffffffffff16905090565b6107f1610b6c565b8060018190555050565b61080582826102f6565b61080e57600080fd5b600160046000836004600681106108285761082761106d565b5b6020020135815260200190815260200160002060006101000a81548160ff0219169083151502179055506001600360008360016006811061086c5761086b61106d565b5b602002013573ffffffffffffffffffffffffffffffffffffffff1673ffffffffffffffffffffffffffffffffffffffff16815260200190815260200160002060006101000a81548160ff0219169083151502179055507f8e3ae60e21d8ff9f5e6d7714232751cbbaff6ccd8d9366369baa0f499fb0a6fb3360016040516108f492919061162c565b60405180910390a15050565b60015481565b60036020528060005260406000206000915054906101000a900460ff1681565b6000600360008373ffffffffffffffffffffffffffffffffffffffff1673ffffffffffffffffffffffffffffffffffffffff16815260200190815260200160002060009054906101000a900460ff1680610a3f5750600660149054906101000a900460ff168015610a3e5750600760009054906101000a900473ffffffffffffffffffffffffffffffffffffffff1673ffffffffffffffffffffffffffffffffffffffff1663bcd78406836040518263ffffffff1660e01b81526004016109ed9190610fcf565b60206040518083038186803b158015610a0557600080fd5b505afa158015610a19573d6000803e3d6000fd5b505050506040513d601f19601f82011682018060405250810190610a3d91906110c8565b5b5b9050919050565b60026020528060005260406000206000915054906101000a900460ff1681565b610a6e610b6c565b610a766107c0565b73ffffffffffffffffffffffffffffffffffffffff166108fc479081150290604051600060405180830381858888f19350505050158015610abb573d6000803e3d6000fd5b50565b60006002600083815260200190815260200160002060009054906101000a900460ff169050919050565b610af0610b6c565b600073ffffffffffffffffffffffffffffffffffffffff168173ffffffffffffffffffffffffffffffffffffffff161415610b60576040517f08c379a0000000000000000000000000000000000000000000000000000000008152600401610b57906116c7565b60405180910390fd5b610b6981610bea565b50565b610b74610cae565b73ffffffffffffffffffffffffffffffffffffffff16610b926107c0565b73ffffffffffffffffffffffffffffffffffffffff1614610be8576040517f08c379a0000000000000000000000000000000000000000000000000000000008152600401610bdf90611733565b60405180910390fd5b565b60008060009054906101000a900473ffffffffffffffffffffffffffffffffffffffff169050816000806101000a81548173ffffffffffffffffffffffffffffffffffffffff021916908373ffffffffffffffffffffffffffffffffffffffff1602179055508173ffffffffffffffffffffffffffffffffffffffff168173ffffffffffffffffffffffffffffffffffffffff167f8be0079c531659141344cd1fd0a4f28419497f9722a3daafe3b4186f6b6457e060405160405180910390a35050565b600033905090565b6000604051905090565b600080fd5b600080fd5b600080fd5b60006101008284031215610ce657610ce5610cca565b5b81905092915050565b600080fd5b600081905082602060060282011115610d1057610d0f610cef565b5b92915050565b6000806101c08385031215610d2e57610d2d610cc0565b5b6000610d3c85828601610ccf565b925050610100610d4e85828601610cf4565b9150509250929050565b60008115159050919050565b610d6d81610d58565b82525050565b6000602082019050610d886000830184610d64565b92915050565b600080fd5b6000601f19601f8301169050919050565b7f4e487b7100000000000000000000000000000000000000000000000000000000600052604160045260246000fd5b610ddc82610d93565b810181811067ffffffffffffffff82111715610dfb57610dfa610da4565b5b80604052505050565b6000610e0e610cb6565b9050610e1a8282610dd3565b919050565b600067ffffffffffffffff821115610e3a57610e39610da4565b5b602082029050602081019050919050565b6000819050919050565b610e5e81610e4b565b8114610e6957600080fd5b50565b600081359050610e7b81610e55565b92915050565b6000610e94610e8f84610e1f565b610e04565b90508083825260208201905060208402830185811115610eb757610eb6610cef565b5b835b81811015610ee05780610ecc8882610e6c565b845260208401935050602081019050610eb9565b5050509392505050565b600082601f830112610eff57610efe610d8e565b5b8135610f0f848260208601610e81565b91505092915050565b600060208284031215610f2e57610f2d610cc0565b5b600082013567ffffffffffffffff811115610f4c57610f4b610cc5565b5b610f5884828501610eea565b91505092915050565b600060208284031215610f7757610f76610cc0565b5b6000610f8584828501610e6c565b91505092915050565b600073ffffffffffffffffffffffffffffffffffffffff82169050919050565b6000610fb982610f8e565b9050919050565b610fc981610fae565b82525050565b6000602082019050610fe46000830184610fc0565b92915050565b610ff381610e4b565b82525050565b600060208201905061100e6000830184610fea565b92915050565b61101d81610fae565b811461102857600080fd5b50565b60008135905061103a81611014565b92915050565b60006020828403121561105657611055610cc0565b5b60006110648482850161102b565b91505092915050565b7f4e487b7100000000000000000000000000000000000000000000000000000000600052603260045260246000fd5b6110a581610d58565b81146110b057600080fd5b50565b6000815190506110c28161109c565b92915050565b6000602082840312156110de576110dd610cc0565b5b60006110ec848285016110b3565b91505092915050565b600082825260208201905092915050565b7f54686520726f6f742070726f766964656420776173206e6f7420666f756e642060008201527f696e20746865204d65726b6c652074726565277320726563656e7420726f6f7460208201527f206c697374000000000000000000000000000000000000000000000000000000604082015250565b60006111886045836110f5565b915061119382611106565b606082019050919050565b600060208201905081810360008301526111b78161117b565b9050919050565b7f50726f6f66206d75737420636f6d652066726f6d20636f72726563742069737360008201527f7565722773206164647265737300000000000000000000000000000000000000602082015250565b600061121a602d836110f5565b9150611225826111be565b604082019050919050565b600060208201905081810360008301526112498161120d565b9050919050565b7f466f6f747072696e74206973206d6164652066726f6d207468652077726f6e6760008201527f2073616c74000000000000000000000000000000000000000000000000000000602082015250565b60006112ac6025836110f5565b91506112b782611250565b604082019050919050565b600060208201905081810360008301526112db8161129f565b9050919050565b7f4f6e6520706572736f6e2063616e206f6e6c7920766572696679206f6e636500600082015250565b6000611318601f836110f5565b9150611323826112e2565b602082019050919050565b600060208201905081810360008301526113478161130b565b9050919050565b7f43726564656e7469616c7320646f206e6f74206861766520555320617320636f60008201527f756e74727920636f646500000000000000000000000000000000000000000000602082015250565b60006113aa602a836110f5565b91506113b58261134e565b604082019050919050565b600060208201905081810360008301526113d98161139d565b9050919050565b600082905092915050565b60006113fa6020840184610e6c565b905092915050565b61140b81610e4b565b82525050565b6040820161142260008301836113eb565b61142f6000850182611402565b5061143d60208301836113eb565b61144a6020850182611402565b50505050565b600082905092915050565b600082905092915050565b82818337600083830152505050565b61148160408383611466565b5050565b60808201611496600083018361145b565b6114a36000850182611475565b506114b1604083018361145b565b6114be6040850182611475565b50505050565b61010082016114d660008301836113e0565b6114e36000850182611411565b506114f16040830183611450565b6114fe6040850182611485565b5061150c60c08301836113e0565b61151960c0850182611411565b50505050565b61152b60c08383611466565b5050565b60006101c08201905061154560008301856114c4565b61155361010083018461151f565b9392505050565b7f4661696c656420746f207665726966792070726f6f6600000000000000000000600082015250565b60006115906016836110f5565b915061159b8261155a565b602082019050919050565b600060208201905081810360008301526115bf81611583565b9050919050565b7f4e487b7100000000000000000000000000000000000000000000000000000000600052601160045260246000fd5b600060ff82169050919050565b600061160d826115f5565b915060ff821415611621576116206115c6565b5b600182019050919050565b60006040820190506116416000830185610fc0565b61164e6020830184610d64565b9392505050565b7f4f776e61626c653a206e6577206f776e657220697320746865207a65726f206160008201527f6464726573730000000000000000000000000000000000000000000000000000602082015250565b60006116b16026836110f5565b91506116bc82611655565b604082019050919050565b600060208201905081810360008301526116e0816116a4565b9050919050565b7f4f776e61626c653a2063616c6c6572206973206e6f7420746865206f776e6572600082015250565b600061171d6020836110f5565b9150611728826116e7565b602082019050919050565b6000602082019050818103600083015261174c81611710565b905091905056fea26469706673582212200f0cad9265fc18f133b0b679146124e3f1533f6534879044bc2e30432faf105b64736f6c63430008090033608060405234801561001057600080fd5b50611751806100206000396000f3fe608060405234801561001057600080fd5b506004361061002b5760003560e01c806301ec146314610030575b600080fd5b61004a600480360381019061004591906114b8565b610060565b6040516100579190611515565b60405180910390f35b600080600667ffffffffffffffff81111561007e5761007d611196565b5b6040519080825280602002602001820160405280156100ac5781602001602082028036833780820191505090505b50905060005b6006811015610105578381600681106100ce576100cd611530565b5b60200201518282815181106100e6576100e5611530565b5b60200260200101818152505080806100fd9061158e565b9150506100b2565b506000610112828661012e565b1415610122576001915050610128565b60009150505b92915050565b6000807f30644e72e131a029b85045b68181585d2833e84879b9709143e1f593f00000019050600061015e6102c5565b90508060800151516001865161017491906115d7565b1461017e57600080fd5b60006040518060400160405280600081526020016000815250905060005b865181101561023757838782815181106101b9576101b8611530565b5b6020026020010151106101cb57600080fd5b6102228261021d85608001516001856101e491906115d7565b815181106101f5576101f4611530565b5b60200260200101518a85815181106102105761020f611530565b5b6020026020010151610921565b6109c8565b9150808061022f9061158e565b91505061019c565b5061026181836080015160008151811061025457610253611530565b5b60200260200101516109c8565b90506102a78560000151866020015161027984610a95565b856040015161028b8a60400151610a95565b876060015161029d8960000151610a95565b8960200151610b3a565b6102b757600193505050506102bf565b600093505050505b92915050565b6102cd611062565b60405180604001604052807f1dcfbcc68c706725d95cae80087f4f803f7c628fd2ebed0c8d8f1c08efb000a281526020017f1db5c895af5af97da17f06a993745f82dc6c3f43b862de01bb499821a2f07f7f8152508160000181905250604051806040016040528060405180604001604052807f14595f61ba4aede46e251c87d00e8f5ddd659e3a94f14212cabd8642e28f03b781526020017f2ad520f86f05f729da4c87a6732a2b73b5594f54a3433ddbf9329a859717e893815250815260200160405180604001604052807f12966aef85fa2cb49ba6c72aaf3b519a909369085de41a7a10db36f6aee9a33381526020017f2b2aa977f11a4b1d2fa1b43487a3b348fb78658b4948628ae8a0c77a273096078152508152508160200181905250604051806040016040528060405180604001604052807f0e646c79b92eb81e771a8beedcf750922d68c4cae6e674f28386f05db695f08781526020017f2f32db257bd38e510b2c46905bf42ee017eb8dd3736ecf94a63ee388e9dcf7c6815250815260200160405180604001604052807f2bced1358c17d910723e709aefed3c3b9c127401fbb5b8196023af37eb6924a681526020017f200c899f19599e02ee93c8287a7120147c6f8e001e9c7f7e5c643fce1a2aa94a8152508152508160400181905250604051806040016040528060405180604001604052807f1116bc1932e65897160357ba10be9222ec1e34adffa8b8c9182b60cac775244681526020017f207f45a790597c02fd21413d5d9ed6bd4b633c18ead06295fe9a8b93562380d2815250815260200160405180604001604052807f05de54e825005fa8bf89ded4db3448d013c2faa95f3e14e4f502ebb076b6ec4281526020017f04a769b3533c1f4394d7523639a81fb549d0f086313f93b605ada17b0d7aeaf58152508152508160600181905250600767ffffffffffffffff81111561059457610593611196565b5b6040519080825280602002602001820160405280156105cd57816020015b6105ba6110a9565b8152602001906001900390816105b25790505b50816080018190525060405180604001604052807f0a0b29d53e75e2681c6cf103f088f351971c06a78c1af4c2c3fad558bd480aba81526020017f014db04b3e5fbbd59699890460efd29b5df2491dcade336ed9e58f1920c9b091815250816080015160008151811061064357610642611530565b5b602002602001018190525060405180604001604052807f0ab0d26e0b44acc3f6166a737f25c6b594f8ee0550b0b774a5fc1a9b1c90c2e581526020017f2be4d4802073c03ab7a5160c0f1bfef2f1c8fb0ecfb61c2a2ddfa0f1d64b98f281525081608001516001815181106106bb576106ba611530565b5b602002602001018190525060405180604001604052807f08539b6e4fa48392fa14e89394f52ff8ca375c23103bfc6f78af24152666cc5781526020017f16099e7289a9f2539a9d5abe3665ffaf7236de57ccb24cdff3e4cb8047709198815250816080015160028151811061073357610732611530565b5b602002602001018190525060405180604001604052807f21e5733b57484e09646f512c1c0d95c6670d6701c7540b9487f4f08723c19bb881526020017f11fb6e9d01ab0f58928f40f21da7beee62943aa3c2c5490100ffb6a09d8ce2e581525081608001516003815181106107ab576107aa611530565b5b602002602001018190525060405180604001604052807f1ea9366f1bee313ec9786dc19facf5dccf3e47e23d9477e274b377e4272bceda81526020017f13b1db8802d9fc947ad2ab6ffce35e3e9b147ce6a79760886cefb4e9e4b0212e815250816080015160048151811061082357610822611530565b5b602002602001018190525060405180604001604052807f186067a849502f2e7ce583156758d2aa6d10b98638374d897bd0ab1438f3e45d81526020017f2b777f559e2f11fe20903a6b6fe5808a73c93e278effadaad217701caae97063815250816080015160058151811061089b5761089a611530565b5b602002602001018190525060405180604001604052807f151caaf5340893a1c7e92b6fcaa315046b38a29e5904b7f31088994a6554cf4781526020017f04ccd8e7e9a8637873c3fc75ae69afa761886cec6e78675f391ed008c20a0083815250816080015160068151811061091357610912611530565b5b602002602001018190525090565b6109296110a9565b6109316110c3565b83600001518160006003811061094a57610949611530565b5b60200201818152505083602001518160016003811061096c5761096b611530565b5b602002018181525050828160026003811061098a57610989611530565b5b602002018181525050600060608360808460076107d05a03fa905080600081146109b3576109b5565bfe5b50806109c057600080fd5b505092915050565b6109d06110a9565b6109d86110e5565b8360000151816000600481106109f1576109f0611530565b5b602002018181525050836020015181600160048110610a1357610a12611530565b5b602002018181525050826000015181600260048110610a3557610a34611530565b5b602002018181525050826020015181600360048110610a5757610a56611530565b5b602002018181525050600060608360c08460066107d05a03fa90508060008114610a8057610a82565bfe5b5080610a8d57600080fd5b505092915050565b610a9d6110a9565b60007f30644e72e131a029b85045b68181585d97816a916871ca8d3c208c16d87cfd47905060008360000151148015610ada575060008360200151145b15610afe576040518060400160405280600081526020016000815250915050610b35565b604051806040016040528084600001518152602001828560200151610b23919061165c565b83610b2e919061168d565b8152509150505b919050565b600080600467ffffffffffffffff811115610b5857610b57611196565b5b604051908082528060200260200182016040528015610b9157816020015b610b7e6110a9565b815260200190600190039081610b765790505b5090506000600467ffffffffffffffff811115610bb157610bb0611196565b5b604051908082528060200260200182016040528015610bea57816020015b610bd7611107565b815260200190600190039081610bcf5790505b5090508a82600081518110610c0257610c01611530565b5b60200260200101819052508882600181518110610c2257610c21611530565b5b60200260200101819052508682600281518110610c4257610c41611530565b5b60200260200101819052508482600381518110610c6257610c61611530565b5b60200260200101819052508981600081518110610c8257610c81611530565b5b60200260200101819052508781600181518110610ca257610ca1611530565b5b60200260200101819052508581600281518110610cc257610cc1611530565b5b60200260200101819052508381600381518110610ce257610ce1611530565b5b6020026020010181905250610cf78282610d07565b9250505098975050505050505050565b60008151835114610d1757600080fd5b6000835190506000600682610d2c91906116c1565b905060008167ffffffffffffffff811115610d4a57610d49611196565b5b604051908082528060200260200182016040528015610d785781602001602082028036833780820191505090505b50905060005b83811015610ffd57868181518110610d9957610d98611530565b5b602002602001015160000151826000600684610db591906116c1565b610dbf91906115d7565b81518110610dd057610dcf611530565b5b602002602001018181525050868181518110610def57610dee611530565b5b602002602001015160200151826001600684610e0b91906116c1565b610e1591906115d7565b81518110610e2657610e25611530565b5b602002602001018181525050858181518110610e4557610e44611530565b5b602002602001015160000151600160028110610e6457610e63611530565b5b6020020151826002600684610e7991906116c1565b610e8391906115d7565b81518110610e9457610e93611530565b5b602002602001018181525050858181518110610eb357610eb2611530565b5b602002602001015160000151600060028110610ed257610ed1611530565b5b6020020151826003600684610ee791906116c1565b610ef191906115d7565b81518110610f0257610f01611530565b5b602002602001018181525050858181518110610f2157610f20611530565b5b602002602001015160200151600160028110610f4057610f3f611530565b5b6020020151826004600684610f5591906116c1565b610f5f91906115d7565b81518110610f7057610f6f611530565b5b602002602001018181525050858181518110610f8f57610f8e611530565b5b602002602001015160200151600060028110610fae57610fad611530565b5b6020020151826005600684610fc391906116c1565b610fcd91906115d7565b81518110610fde57610fdd611530565b5b6020026020010181815250508080610ff59061158e565b915050610d7e565b5061100661112d565b6000602082602086026020860160086107d05a03fa9050806000811461102b5761102d565bfe5b508061103857600080fd5b60008260006001811061104e5761104d611530565b5b602002015114159550505050505092915050565b6040518060a001604052806110756110a9565b8152602001611082611107565b815260200161108f611107565b815260200161109c611107565b8152602001606081525090565b604051806040016040528060008152602001600081525090565b6040518060600160405280600390602082028036833780820191505090505090565b6040518060800160405280600490602082028036833780820191505090505090565b604051806040016040528061111a61114f565b815260200161112761114f565b81525090565b6040518060200160405280600190602082028036833780820191505090505090565b6040518060400160405280600290602082028036833780820191505090505090565b6000604051905090565b600080fd5b600080fd5b6000601f19601f8301169050919050565b7f4e487b7100000000000000000000000000000000000000000000000000000000600052604160045260246000fd5b6111ce82611185565b810181811067ffffffffffffffff821117156111ed576111ec611196565b5b80604052505050565b6000611200611171565b905061120c82826111c5565b919050565b6000819050919050565b61122481611211565b811461122f57600080fd5b50565b6000813590506112418161121b565b92915050565b60006040828403121561125d5761125c611180565b5b61126760406111f6565b9050600061127784828501611232565b600083015250602061128b84828501611232565b60208301525092915050565b600080fd5b600067ffffffffffffffff8211156112b7576112b6611196565b5b602082029050919050565b600080fd5b60006112da6112d58461129c565b6111f6565b905080602084028301858111156112f4576112f36112c2565b5b835b8181101561131d57806113098882611232565b8452602084019350506020810190506112f6565b5050509392505050565b600082601f83011261133c5761133b611297565b5b60026113498482856112c7565b91505092915050565b60006080828403121561136857611367611180565b5b61137260406111f6565b9050600061138284828501611327565b600083015250604061139684828501611327565b60208301525092915050565b600061010082840312156113b9576113b8611180565b5b6113c360606111f6565b905060006113d384828501611247565b60008301525060406113e784828501611352565b60208301525060c06113fb84828501611247565b60408301525092915050565b600067ffffffffffffffff82111561142257611421611196565b5b602082029050919050565b600061144061143b84611407565b6111f6565b9050806020840283018581111561145a576114596112c2565b5b835b81811015611483578061146f8882611232565b84526020840193505060208101905061145c565b5050509392505050565b600082601f8301126114a2576114a1611297565b5b60066114af84828561142d565b91505092915050565b6000806101c083850312156114d0576114cf61117b565b5b60006114de858286016113a2565b9250506101006114f08582860161148d565b9150509250929050565b60008115159050919050565b61150f816114fa565b82525050565b600060208201905061152a6000830184611506565b92915050565b7f4e487b7100000000000000000000000000000000000000000000000000000000600052603260045260246000fd5b7f4e487b7100000000000000000000000000000000000000000000000000000000600052601160045260246000fd5b600061159982611211565b91507fffffffffffffffffffffffffffffffffffffffffffffffffffffffffffffffff8214156115cc576115cb61155f565b5b600182019050919050565b60006115e282611211565b91506115ed83611211565b9250827fffffffffffffffffffffffffffffffffffffffffffffffffffffffffffffffff038211156116225761162161155f565b5b828201905092915050565b7f4e487b7100000000000000000000000000000000000000000000000000000000600052601260045260246000fd5b600061166782611211565b915061167283611211565b9250826116825761168161162d565b5b828206905092915050565b600061169882611211565b91506116a383611211565b9250828210156116b6576116b561155f565b5b828203905092915050565b60006116cc82611211565b91506116d783611211565b9250817fffffffffffffffffffffffffffffffffffffffffffffffffffffffffffffffff04831182151516156117105761170f61155f565b5b82820290509291505056fea26469706673582212209185c59460eff460c1d54d7a24218ce61d4f75eec28959048720c8198c70900d64736f6c63430008090033",
  "linkReferences": {},
  "deployedLinkReferences": {}
}