{
  "_format": "hh-sol-artifact-1",
  "contractName": "SybilGovID",
  "sourceName": "contracts/custom-proofs/uniqueness/SybilGovID.sol",
  "abi": [
    {
      "inputs": [
        {
          "internalType": "address",
          "name": "roots_",
          "type": "address"
        },
        {
          "internalType": "uint256[]",
          "name": "issuers_",
          "type": "uint256[]"
        },
        {
          "internalType": "uint256",
          "name": "price_",
          "type": "uint256"
        },
        {
          "internalType": "address",
          "name": "oldContract_",
          "type": "address"
        }
      ],
      "stateMutability": "nonpayable",
      "type": "constructor"
    },
    {
      "anonymous": false,
      "inputs": [
        {
          "indexed": true,
          "internalType": "address",
          "name": "previousOwner",
          "type": "address"
        },
        {
          "indexed": true,
          "internalType": "address",
          "name": "newOwner",
          "type": "address"
        }
      ],
      "name": "OwnershipTransferred",
      "type": "event"
    },
    {
      "anonymous": false,
      "inputs": [
        {
          "indexed": false,
          "internalType": "address",
          "name": "userAddr",
          "type": "address"
        },
        {
          "indexed": false,
          "internalType": "uint256",
          "name": "actionId",
          "type": "uint256"
        }
      ],
      "name": "Uniqueness",
      "type": "event"
    },
    {
      "inputs": [
        {
          "internalType": "uint256[]",
          "name": "issuerAddresses",
          "type": "uint256[]"
        }
      ],
      "name": "allowIssuers",
      "outputs": [],
      "stateMutability": "nonpayable",
      "type": "function"
    },
    {
      "inputs": [
        {
          "internalType": "uint256",
          "name": "",
          "type": "uint256"
        }
      ],
      "name": "allowedIssuers",
      "outputs": [
        {
          "internalType": "bool",
          "name": "",
          "type": "bool"
        }
      ],
      "stateMutability": "view",
      "type": "function"
    },
    {
      "inputs": [],
      "name": "collectPayments",
      "outputs": [],
      "stateMutability": "nonpayable",
      "type": "function"
    },
    {
      "inputs": [
        {
          "internalType": "address",
          "name": "addr",
          "type": "address"
        },
        {
          "internalType": "uint256",
          "name": "actionId",
          "type": "uint256"
        }
      ],
      "name": "isUniqueForAction",
      "outputs": [
        {
          "internalType": "bool",
          "name": "unique",
          "type": "bool"
        }
      ],
      "stateMutability": "view",
      "type": "function"
    },
    {
      "inputs": [
        {
          "internalType": "uint256",
          "name": "issuerAddress",
          "type": "uint256"
        }
      ],
      "name": "isValidIssuer",
      "outputs": [
        {
          "internalType": "bool",
          "name": "",
          "type": "bool"
        }
      ],
      "stateMutability": "view",
      "type": "function"
    },
    {
      "inputs": [
        {
          "internalType": "uint256",
          "name": "",
          "type": "uint256"
        }
      ],
      "name": "masalaWasUsed",
      "outputs": [
        {
          "internalType": "bool",
          "name": "",
          "type": "bool"
        }
      ],
      "stateMutability": "view",
      "type": "function"
    },
    {
      "inputs": [],
      "name": "owner",
      "outputs": [
        {
          "internalType": "address",
          "name": "",
          "type": "address"
        }
      ],
      "stateMutability": "view",
      "type": "function"
    },
    {
      "inputs": [],
      "name": "price",
      "outputs": [
        {
          "internalType": "uint256",
          "name": "",
          "type": "uint256"
        }
      ],
      "stateMutability": "view",
      "type": "function"
    },
    {
      "inputs": [
        {
          "components": [
            {
              "components": [
                {
                  "internalType": "uint256",
                  "name": "X",
                  "type": "uint256"
                },
                {
                  "internalType": "uint256",
                  "name": "Y",
                  "type": "uint256"
                }
              ],
              "internalType": "struct Pairing.G1Point",
              "name": "a",
              "type": "tuple"
            },
            {
              "components": [
                {
                  "internalType": "uint256[2]",
                  "name": "X",
                  "type": "uint256[2]"
                },
                {
                  "internalType": "uint256[2]",
                  "name": "Y",
                  "type": "uint256[2]"
                }
              ],
              "internalType": "struct Pairing.G2Point",
              "name": "b",
              "type": "tuple"
            },
            {
              "components": [
                {
                  "internalType": "uint256",
                  "name": "X",
                  "type": "uint256"
                },
                {
                  "internalType": "uint256",
                  "name": "Y",
                  "type": "uint256"
                }
              ],
              "internalType": "struct Pairing.G1Point",
              "name": "c",
              "type": "tuple"
            }
          ],
          "internalType": "struct Proof",
          "name": "proof",
          "type": "tuple"
        },
        {
          "internalType": "uint256[5]",
          "name": "input",
          "type": "uint256[5]"
        }
      ],
      "name": "proofIsValid",
      "outputs": [
        {
          "internalType": "bool",
          "name": "isValid",
          "type": "bool"
        }
      ],
      "stateMutability": "view",
      "type": "function"
    },
    {
      "inputs": [
        {
          "components": [
            {
              "components": [
                {
                  "internalType": "uint256",
                  "name": "X",
                  "type": "uint256"
                },
                {
                  "internalType": "uint256",
                  "name": "Y",
                  "type": "uint256"
                }
              ],
              "internalType": "struct Pairing.G1Point",
              "name": "a",
              "type": "tuple"
            },
            {
              "components": [
                {
                  "internalType": "uint256[2]",
                  "name": "X",
                  "type": "uint256[2]"
                },
                {
                  "internalType": "uint256[2]",
                  "name": "Y",
                  "type": "uint256[2]"
                }
              ],
              "internalType": "struct Pairing.G2Point",
              "name": "b",
              "type": "tuple"
            },
            {
              "components": [
                {
                  "internalType": "uint256",
                  "name": "X",
                  "type": "uint256"
                },
                {
                  "internalType": "uint256",
                  "name": "Y",
                  "type": "uint256"
                }
              ],
              "internalType": "struct Pairing.G1Point",
              "name": "c",
              "type": "tuple"
            }
          ],
          "internalType": "struct Proof",
          "name": "proof",
          "type": "tuple"
        },
        {
          "internalType": "uint256[5]",
          "name": "input",
          "type": "uint256[5]"
        }
      ],
      "name": "prove",
      "outputs": [],
      "stateMutability": "payable",
      "type": "function"
    },
    {
      "inputs": [],
      "name": "renounceOwnership",
      "outputs": [],
      "stateMutability": "nonpayable",
      "type": "function"
    },
    {
      "inputs": [
        {
          "internalType": "uint256[]",
          "name": "issuerAddresses",
          "type": "uint256[]"
        }
      ],
      "name": "revokeIssuers",
      "outputs": [],
      "stateMutability": "nonpayable",
      "type": "function"
    },
    {
      "inputs": [
        {
          "internalType": "uint256",
          "name": "newPrice",
          "type": "uint256"
        }
      ],
      "name": "setPrice",
      "outputs": [],
      "stateMutability": "nonpayable",
      "type": "function"
    },
    {
      "inputs": [
        {
          "internalType": "address",
          "name": "newOwner",
          "type": "address"
        }
      ],
      "name": "transferOwnership",
      "outputs": [],
      "stateMutability": "nonpayable",
      "type": "function"
    }
  ],
  "bytecode": "0x60806040523480156200001157600080fd5b50604051620038553803806200385583398181016040528101906200003791906200061f565b620000576200004b620001c260201b60201c565b620001ca60201b60201c565b83600660006101000a81548173ffffffffffffffffffffffffffffffffffffffff021916908373ffffffffffffffffffffffffffffffffffffffff160217905550604051620000a690620003e8565b604051809103906000f080158015620000c3573d6000803e3d6000fd5b50600560006101000a81548173ffffffffffffffffffffffffffffffffffffffff021916908373ffffffffffffffffffffffffffffffffffffffff16021790555062000115836200028e60201b60201c565b62000126826200031460201b60201c565b600073ffffffffffffffffffffffffffffffffffffffff168173ffffffffffffffffffffffffffffffffffffffff1614620001b8576001600660146101000a81548160ff02191690831515021790555080600760006101000a81548173ffffffffffffffffffffffffffffffffffffffff021916908373ffffffffffffffffffffffffffffffffffffffff1602179055505b50505050620007cd565b600033905090565b60008060009054906101000a900473ffffffffffffffffffffffffffffffffffffffff169050816000806101000a81548173ffffffffffffffffffffffffffffffffffffffff021916908373ffffffffffffffffffffffffffffffffffffffff1602179055508173ffffffffffffffffffffffffffffffffffffffff168173ffffffffffffffffffffffffffffffffffffffff167f8be0079c531659141344cd1fd0a4f28419497f9722a3daafe3b4186f6b6457e060405160405180910390a35050565b6200029e6200032e60201b60201c565b60005b81518160ff1610156200031057600160026000848460ff1681518110620002cd57620002cc620006b0565b5b6020026020010151815260200190815260200160002060006101000a81548160ff021916908315150217905550808062000307906200071b565b915050620002a1565b5050565b620003246200032e60201b60201c565b8060018190555050565b6200033e620001c260201b60201c565b73ffffffffffffffffffffffffffffffffffffffff1662000364620003bf60201b60201c565b73ffffffffffffffffffffffffffffffffffffffff1614620003bd576040517f08c379a0000000000000000000000000000000000000000000000000000000008152600401620003b490620007ab565b60405180910390fd5b565b60008060009054906101000a900473ffffffffffffffffffffffffffffffffffffffff16905090565b6116f8806200215d83390190565b6000604051905090565b600080fd5b600080fd5b600073ffffffffffffffffffffffffffffffffffffffff82169050919050565b600062000437826200040a565b9050919050565b62000449816200042a565b81146200045557600080fd5b50565b60008151905062000469816200043e565b92915050565b600080fd5b6000601f19601f8301169050919050565b7f4e487b7100000000000000000000000000000000000000000000000000000000600052604160045260246000fd5b620004bf8262000474565b810181811067ffffffffffffffff82111715620004e157620004e062000485565b5b80604052505050565b6000620004f6620003f6565b9050620005048282620004b4565b919050565b600067ffffffffffffffff82111562000527576200052662000485565b5b602082029050602081019050919050565b600080fd5b6000819050919050565b62000552816200053d565b81146200055e57600080fd5b50565b600081519050620005728162000547565b92915050565b60006200058f620005898462000509565b620004ea565b90508083825260208201905060208402830185811115620005b557620005b462000538565b5b835b81811015620005e25780620005cd888262000561565b845260208401935050602081019050620005b7565b5050509392505050565b600082601f8301126200060457620006036200046f565b5b81516200061684826020860162000578565b91505092915050565b600080600080608085870312156200063c576200063b62000400565b5b60006200064c8782880162000458565b945050602085015167ffffffffffffffff81111562000670576200066f62000405565b5b6200067e87828801620005ec565b9350506040620006918782880162000561565b9250506060620006a48782880162000458565b91505092959194509250565b7f4e487b7100000000000000000000000000000000000000000000000000000000600052603260045260246000fd5b7f4e487b7100000000000000000000000000000000000000000000000000000000600052601160045260246000fd5b600060ff82169050919050565b600062000728826200070e565b915060ff8214156200073f576200073e620006df565b5b600182019050919050565b600082825260208201905092915050565b7f4f776e61626c653a2063616c6c6572206973206e6f7420746865206f776e6572600082015250565b6000620007936020836200074a565b9150620007a0826200075b565b602082019050919050565b60006020820190508181036000830152620007c68162000784565b9050919050565b61198080620007dd6000396000f3fe6080604052600436106100dd5760003560e01c806391b7f5ed1161007f578063c3f243af11610059578063c3f243af1461029d578063ce072163146102da578063f175a2d7146102f1578063f2fde38b1461032e576100dd565b806391b7f5ed1461020c57806396248d1214610235578063a035b1fe14610272576100dd565b8063775d0df0116100bb578063775d0df01461015f5780637fb0ac831461019c5780638da5cb5b146101c5578063903a4d31146101f0576100dd565b80635022a31f146100e25780636bd09a531461011f578063715018a614610148575b600080fd5b3480156100ee57600080fd5b5061010960048036038101906101049190610e84565b610357565b6040516101169190610ee1565b60405180910390f35b34801561012b57600080fd5b5061014660048036038101906101419190610fbf565b61062a565b005b34801561015457600080fd5b5061015d6106a1565b005b34801561016b57600080fd5b5061018660048036038101906101819190611008565b6106b5565b6040516101939190610ee1565b60405180910390f35b3480156101a857600080fd5b506101c360048036038101906101be9190610fbf565b6106d5565b005b3480156101d157600080fd5b506101da61074c565b6040516101e79190611076565b60405180910390f35b61020a600480360381019061020591906110b3565b610775565b005b34801561021857600080fd5b50610233600480360381019061022e9190611008565b610927565b005b34801561024157600080fd5b5061025c60048036038101906102579190611121565b610939565b6040516102699190610ee1565b60405180910390f35b34801561027e57600080fd5b50610287610a58565b6040516102949190611170565b60405180910390f35b3480156102a957600080fd5b506102c460048036038101906102bf9190611008565b610a5e565b6040516102d19190610ee1565b60405180910390f35b3480156102e657600080fd5b506102ef610a7e565b005b3480156102fd57600080fd5b5061031860048036038101906103139190611008565b610ad6565b6040516103259190610ee1565b60405180910390f35b34801561033a57600080fd5b506103556004803603810190610350919061118b565b610b00565b005b6000600660009054906101000a900473ffffffffffffffffffffffffffffffffffffffff1673ffffffffffffffffffffffffffffffffffffffff16636d61af5c836000600581106103ab576103aa6111b8565b5b60200201516040518263ffffffff1660e01b81526004016103cc9190611170565b60206040518083038186803b1580156103e457600080fd5b505afa1580156103f8573d6000803e3d6000fd5b505050506040513d601f19601f8201168201806040525081019061041c9190611213565b61045b576040517f08c379a0000000000000000000000000000000000000000000000000000000008152600401610452906112e9565b60405180910390fd5b61047c82600260058110610472576104716111b8565b5b6020020151610ad6565b6104bb576040517f08c379a00000000000000000000000000000000000000000000000000000000081526004016104b29061137b565b60405180910390fd5b60036000836004600581106104d3576104d26111b8565b5b6020020151815260200190815260200160002060009054906101000a900460ff1615610534576040517f08c379a000000000000000000000000000000000000000000000000000000000815260040161052b906113e7565b60405180910390fd5b600560009054906101000a900473ffffffffffffffffffffffffffffffffffffffff1673ffffffffffffffffffffffffffffffffffffffff1663bcb9988684846040518363ffffffff1660e01b81526004016105919291906115e2565b60206040518083038186803b1580156105a957600080fd5b505afa1580156105bd573d6000803e3d6000fd5b505050506040513d601f19601f820116820180604052508101906105e19190611213565b610620576040517f08c379a000000000000000000000000000000000000000000000000000000000815260040161061790611659565b60405180910390fd5b6001905092915050565b610632610b84565b60005b81518160ff16101561069d57600060026000848460ff168151811061065d5761065c6111b8565b5b6020026020010151815260200190815260200160002060006101000a81548160ff0219169083151502179055508080610695906116b5565b915050610635565b5050565b6106a9610b84565b6106b36000610c02565b565b60036020528060005260406000206000915054906101000a900460ff1681565b6106dd610b84565b60005b81518160ff16101561074857600160026000848460ff1681518110610708576107076111b8565b5b6020026020010151815260200190815260200160002060006101000a81548160ff0219169083151502179055508080610740906116b5565b9150506106e0565b5050565b60008060009054906101000a900473ffffffffffffffffffffffffffffffffffffffff16905090565b6001543410156107ba576040517f08c379a00000000000000000000000000000000000000000000000000000000081526004016107b19061172b565b60405180910390fd5b6107fb82826005806020026040519081016040528092919082600560200280828437600081840152601f19601f820116905080830192505050505050610357565b61080457600080fd5b6001600360008360046005811061081e5761081d6111b8565b5b6020020135815260200190815260200160002060006101000a81548160ff02191690831515021790555060008160016005811061085e5761085d6111b8565b5b602002013582600360058110610877576108766111b8565b5b602002013560405160200161088d9291906117a2565b60405160208183030381529060405280519060200120905060016004600083815260200190815260200160002060006101000a81548160ff0219169083151502179055507fd198fa8523413333ec863279d1630fa354ecc8b110ae00f9ca98c8b498fb46873383600360058110610907576109066111b8565b5b602002013560405161091a9291906117ce565b60405180910390a1505050565b61092f610b84565b8060018190555050565b6000600460008484604051602001610952929190611820565b60405160208183030381529060405280519060200120815260200190815260200160002060009054906101000a900460ff1680610a505750600660149054906101000a900460ff168015610a4f5750600760009054906101000a900473ffffffffffffffffffffffffffffffffffffffff1673ffffffffffffffffffffffffffffffffffffffff166396248d1284846040518363ffffffff1660e01b81526004016109fe9291906117ce565b60206040518083038186803b158015610a1657600080fd5b505afa158015610a2a573d6000803e3d6000fd5b505050506040513d601f19601f82011682018060405250810190610a4e9190611213565b5b5b905092915050565b60015481565b60026020528060005260406000206000915054906101000a900460ff1681565b610a86610b84565b610a8e61074c565b73ffffffffffffffffffffffffffffffffffffffff166108fc479081150290604051600060405180830381858888f19350505050158015610ad3573d6000803e3d6000fd5b50565b60006002600083815260200190815260200160002060009054906101000a900460ff169050919050565b610b08610b84565b600073ffffffffffffffffffffffffffffffffffffffff168173ffffffffffffffffffffffffffffffffffffffff161415610b78576040517f08c379a0000000000000000000000000000000000000000000000000000000008152600401610b6f906118be565b60405180910390fd5b610b8181610c02565b50565b610b8c610cc6565b73ffffffffffffffffffffffffffffffffffffffff16610baa61074c565b73ffffffffffffffffffffffffffffffffffffffff1614610c00576040517f08c379a0000000000000000000000000000000000000000000000000000000008152600401610bf79061192a565b60405180910390fd5b565b60008060009054906101000a900473ffffffffffffffffffffffffffffffffffffffff169050816000806101000a81548173ffffffffffffffffffffffffffffffffffffffff021916908373ffffffffffffffffffffffffffffffffffffffff1602179055508173ffffffffffffffffffffffffffffffffffffffff168173ffffffffffffffffffffffffffffffffffffffff167f8be0079c531659141344cd1fd0a4f28419497f9722a3daafe3b4186f6b6457e060405160405180910390a35050565b600033905090565b6000604051905090565b600080fd5b600080fd5b600080fd5b60006101008284031215610cfe57610cfd610ce2565b5b81905092915050565b600080fd5b6000601f19601f8301169050919050565b7f4e487b7100000000000000000000000000000000000000000000000000000000600052604160045260246000fd5b610d5582610d0c565b810181811067ffffffffffffffff82111715610d7457610d73610d1d565b5b80604052505050565b6000610d87610cce565b9050610d938282610d4c565b919050565b600067ffffffffffffffff821115610db357610db2610d1d565b5b602082029050919050565b600080fd5b6000819050919050565b610dd681610dc3565b8114610de157600080fd5b50565b600081359050610df381610dcd565b92915050565b6000610e0c610e0784610d98565b610d7d565b90508060208402830185811115610e2657610e25610dbe565b5b835b81811015610e4f5780610e3b8882610de4565b845260208401935050602081019050610e28565b5050509392505050565b600082601f830112610e6e57610e6d610d07565b5b6005610e7b848285610df9565b91505092915050565b6000806101a08385031215610e9c57610e9b610cd8565b5b6000610eaa85828601610ce7565b925050610100610ebc85828601610e59565b9150509250929050565b60008115159050919050565b610edb81610ec6565b82525050565b6000602082019050610ef66000830184610ed2565b92915050565b600067ffffffffffffffff821115610f1757610f16610d1d565b5b602082029050602081019050919050565b6000610f3b610f3684610efc565b610d7d565b90508083825260208201905060208402830185811115610f5e57610f5d610dbe565b5b835b81811015610f875780610f738882610de4565b845260208401935050602081019050610f60565b5050509392505050565b600082601f830112610fa657610fa5610d07565b5b8135610fb6848260208601610f28565b91505092915050565b600060208284031215610fd557610fd4610cd8565b5b600082013567ffffffffffffffff811115610ff357610ff2610cdd565b5b610fff84828501610f91565b91505092915050565b60006020828403121561101e5761101d610cd8565b5b600061102c84828501610de4565b91505092915050565b600073ffffffffffffffffffffffffffffffffffffffff82169050919050565b600061106082611035565b9050919050565b61107081611055565b82525050565b600060208201905061108b6000830184611067565b92915050565b6000819050826020600502820111156110ad576110ac610dbe565b5b92915050565b6000806101a083850312156110cb576110ca610cd8565b5b60006110d985828601610ce7565b9250506101006110eb85828601611091565b9150509250929050565b6110fe81611055565b811461110957600080fd5b50565b60008135905061111b816110f5565b92915050565b6000806040838503121561113857611137610cd8565b5b60006111468582860161110c565b925050602061115785828601610de4565b9150509250929050565b61116a81610dc3565b82525050565b60006020820190506111856000830184611161565b92915050565b6000602082840312156111a1576111a0610cd8565b5b60006111af8482850161110c565b91505092915050565b7f4e487b7100000000000000000000000000000000000000000000000000000000600052603260045260246000fd5b6111f081610ec6565b81146111fb57600080fd5b50565b60008151905061120d816111e7565b92915050565b60006020828403121561122957611228610cd8565b5b6000611237848285016111fe565b91505092915050565b600082825260208201905092915050565b7f54686520726f6f742070726f766964656420776173206e6f7420666f756e642060008201527f696e20746865204d65726b6c652074726565277320726563656e7420726f6f7460208201527f206c697374000000000000000000000000000000000000000000000000000000604082015250565b60006112d3604583611240565b91506112de82611251565b606082019050919050565b60006020820190508181036000830152611302816112c6565b9050919050565b7f50726f6f66206d75737420636f6d652066726f6d20636f72726563742069737360008201527f7565722773206164647265737300000000000000000000000000000000000000602082015250565b6000611365602d83611240565b915061137082611309565b604082019050919050565b6000602082019050818103600083015261139481611358565b9050919050565b7f4f6e6520706572736f6e2063616e206f6e6c7920766572696679206f6e636500600082015250565b60006113d1601f83611240565b91506113dc8261139b565b602082019050919050565b60006020820190508181036000830152611400816113c4565b9050919050565b600082905092915050565b60006114216020840184610de4565b905092915050565b61143281610dc3565b82525050565b604082016114496000830183611412565b6114566000850182611429565b506114646020830183611412565b6114716020850182611429565b50505050565b600082905092915050565b600082905092915050565b82818337600083830152505050565b6114a86040838361148d565b5050565b608082016114bd6000830183611482565b6114ca600085018261149c565b506114d86040830183611482565b6114e5604085018261149c565b50505050565b61010082016114fd6000830183611407565b61150a6000850182611438565b506115186040830183611477565b61152560408501826114ac565b5061153360c0830183611407565b61154060c0850182611438565b50505050565b600060059050919050565b600081905092915050565b6000819050919050565b60006115728383611429565b60208301905092915050565b6000602082019050919050565b61159481611546565b61159e8184611551565b92506115a98261155c565b8060005b838110156115da5781516115c18782611566565b96506115cc8361157e565b9250506001810190506115ad565b505050505050565b60006101a0820190506115f860008301856114eb565b61160661010083018461158b565b9392505050565b7f4661696c656420746f20766572696679205a4b50000000000000000000000000600082015250565b6000611643601483611240565b915061164e8261160d565b602082019050919050565b6000602082019050818103600083015261167281611636565b9050919050565b7f4e487b7100000000000000000000000000000000000000000000000000000000600052601160045260246000fd5b600060ff82169050919050565b60006116c0826116a8565b915060ff8214156116d4576116d3611679565b5b600182019050919050565b7f4d697373696e67207061796d656e740000000000000000000000000000000000600082015250565b6000611715600f83611240565b9150611720826116df565b602082019050919050565b6000602082019050818103600083015261174481611708565b9050919050565b60008160601b9050919050565b60006117638261174b565b9050919050565b61177b61177682611035565b611758565b82525050565b6000819050919050565b61179c61179782610dc3565b611781565b82525050565b60006117ae828561176a565b6014820191506117be828461178b565b6020820191508190509392505050565b60006040820190506117e36000830185611067565b6117f06020830184611161565b9392505050565b600061180282611758565b9050919050565b61181a61181582611055565b6117f7565b82525050565b600061182c8285611809565b60148201915061183c828461178b565b6020820191508190509392505050565b7f4f776e61626c653a206e6577206f776e657220697320746865207a65726f206160008201527f6464726573730000000000000000000000000000000000000000000000000000602082015250565b60006118a8602683611240565b91506118b38261184c565b604082019050919050565b600060208201905081810360008301526118d78161189b565b9050919050565b7f4f776e61626c653a2063616c6c6572206973206e6f7420746865206f776e6572600082015250565b6000611914602083611240565b915061191f826118de565b602082019050919050565b6000602082019050818103600083015261194381611907565b905091905056fea2646970667358221220ce599c1dfdc8b45bc193bc8447366c657a6e968dc40698a9ed5d86762fadf07764736f6c63430008090033608060405234801561001057600080fd5b506116d8806100206000396000f3fe608060405234801561001057600080fd5b506004361061002b5760003560e01c8063bcb9988614610030575b600080fd5b61004a6004803603810190610045919061143f565b610060565b604051610057919061149c565b60405180910390f35b600080600567ffffffffffffffff81111561007e5761007d61111d565b5b6040519080825280602002602001820160405280156100ac5781602001602082028036833780820191505090505b50905060005b6005811015610105578381600581106100ce576100cd6114b7565b5b60200201518282815181106100e6576100e56114b7565b5b60200260200101818152505080806100fd90611515565b9150506100b2565b506000610112828661012e565b1415610122576001915050610128565b60009150505b92915050565b6000807f30644e72e131a029b85045b68181585d2833e84879b9709143e1f593f00000019050600061015e6102c5565b905080608001515160018651610174919061155e565b1461017e57600080fd5b60006040518060400160405280600081526020016000815250905060005b865181101561023757838782815181106101b9576101b86114b7565b5b6020026020010151106101cb57600080fd5b6102228261021d85608001516001856101e4919061155e565b815181106101f5576101f46114b7565b5b60200260200101518a85815181106102105761020f6114b7565b5b60200260200101516108a8565b61094f565b9150808061022f90611515565b91505061019c565b50610261818360800151600081518110610254576102536114b7565b5b602002602001015161094f565b90506102a78560000151866020015161027984610a1c565b856040015161028b8a60400151610a1c565b876060015161029d8960000151610a1c565b8960200151610ac1565b6102b757600193505050506102bf565b600093505050505b92915050565b6102cd610fe9565b60405180604001604052807f07cf3ea35ce89bd47ae7884ed63e681cdd2bcc9b1522c8513995b2efe1424bbc81526020017f0175240658c74aefc5d7e5f9298254ac527b06a541c5745375d8be7f6618f80a8152508160000181905250604051806040016040528060405180604001604052807f05b2d5f21d70e3e463cf78c09b6791c65b5a4e220a8e9f598a1eb07db21455fa81526020017f2f9e034fc8cd01282b990581a71b3c539a9e8b7670c9c4a7def9ed865c3254be815250815260200160405180604001604052807e49736bfe2b83a68f14c7ac8df40ed448eb85344f2116539497062b9628a01481526020017f1e49966ae8c5ad615d4f804a1a0733a0f9e0ec802e1102297d1aa89e545cc8b58152508152508160200181905250604051806040016040528060405180604001604052807f09b8b9280d1a535c41cd655d52beb176de2c75c7eaa27f683edc5c3b23fd4d2381526020017f2483cc62f2f655231a041c2efe3c0acf8ec228c662367e7643dde9486566083e815250815260200160405180604001604052807f2acd04fbd40b56b330ae9b7fae61de45078063eef9dc2efa85ac07670c9a871081526020017f289242c611532eb565c01dda2af7fdace4e181b429b1c522f09e2c45a41ec9868152508152508160400181905250604051806040016040528060405180604001604052807f1fb55ccd4e42f62ea22ec3f2343c6963503de5d52a5886e2de5600bdd6045edf81526020017f1a62735f741101477afc183dd602246d45a685556369fa8a3b59e23b3d6bb9b3815250815260200160405180604001604052807f2d72c8f7af207f2456102b5714d78986ed97f6a1859ff03b808cd1bbafa0ff7d81526020017f1a4dacd7a48f92c49b9a0c1e764a70b254ce3f61b2fa138e095237293ce7c3b58152508152508160600181905250600667ffffffffffffffff8111156105935761059261111d565b5b6040519080825280602002602001820160405280156105cc57816020015b6105b9611030565b8152602001906001900390816105b15790505b50816080018190525060405180604001604052807f2fbf2edc978f739425e24af07b701b0252aa5ed5fe6d0c1fa93f4e4e762b204381526020017f234cf92ca5acb62d3ca271ef6aa2ca4bb011886016a4fbb38bd78bfd3a3b05ee8152508160800151600081518110610642576106416114b7565b5b602002602001018190525060405180604001604052807f1cdeace3919620bbdf2c821ff7a5067d36ec9b3e3b291c5871447e675f72dd8881526020017f255816c023276c902fb1b59789fc4ff19b23cf0e63cdc34fbd9202e5947a502081525081608001516001815181106106ba576106b96114b7565b5b602002602001018190525060405180604001604052807f18e3ec6edb610ebaaec15f751bf8173d6336d2c5b09b288b9c8a9d478798393581526020017f272e548acd302e7fbda87612c1d68d737f1d816586e2a236b71e80cdd4cc3e078152508160800151600281518110610732576107316114b7565b5b602002602001018190525060405180604001604052807f2998028f89a5496e4adb5332b22a054b9c843c4f54dcdca0951444157f0c8db081526020017f11faaa550f3ab63790adb6594e6bd9017e8253e416a4380ab7b8565acfcb82db81525081608001516003815181106107aa576107a96114b7565b5b602002602001018190525060405180604001604052807f09a638226cfc46ac9661a3b62870302d3ff62a958ae2b5d141cba275a59932f381526020017f0d46745c05f8ece61658144223e895c54f087cad3923b5e7e3cf44353ab350468152508160800151600481518110610822576108216114b7565b5b602002602001018190525060405180604001604052807f26b78e89f8c6fad685ff502edc6d501adf0fff4ca04439412ca7c40a71543df881526020017f0eca22c5c5523eb363bb9df6a48421816aec29029d3d88ce2f4eeb595bf58870815250816080015160058151811061089a576108996114b7565b5b602002602001018190525090565b6108b0611030565b6108b861104a565b8360000151816000600381106108d1576108d06114b7565b5b6020020181815250508360200151816001600381106108f3576108f26114b7565b5b6020020181815250508281600260038110610911576109106114b7565b5b602002018181525050600060608360808460076107d05a03fa9050806000811461093a5761093c565bfe5b508061094757600080fd5b505092915050565b610957611030565b61095f61106c565b836000015181600060048110610978576109776114b7565b5b60200201818152505083602001518160016004811061099a576109996114b7565b5b6020020181815250508260000151816002600481106109bc576109bb6114b7565b5b6020020181815250508260200151816003600481106109de576109dd6114b7565b5b602002018181525050600060608360c08460066107d05a03fa90508060008114610a0757610a09565bfe5b5080610a1457600080fd5b505092915050565b610a24611030565b60007f30644e72e131a029b85045b68181585d97816a916871ca8d3c208c16d87cfd47905060008360000151148015610a61575060008360200151145b15610a85576040518060400160405280600081526020016000815250915050610abc565b604051806040016040528084600001518152602001828560200151610aaa91906115e3565b83610ab59190611614565b8152509150505b919050565b600080600467ffffffffffffffff811115610adf57610ade61111d565b5b604051908082528060200260200182016040528015610b1857816020015b610b05611030565b815260200190600190039081610afd5790505b5090506000600467ffffffffffffffff811115610b3857610b3761111d565b5b604051908082528060200260200182016040528015610b7157816020015b610b5e61108e565b815260200190600190039081610b565790505b5090508a82600081518110610b8957610b886114b7565b5b60200260200101819052508882600181518110610ba957610ba86114b7565b5b60200260200101819052508682600281518110610bc957610bc86114b7565b5b60200260200101819052508482600381518110610be957610be86114b7565b5b60200260200101819052508981600081518110610c0957610c086114b7565b5b60200260200101819052508781600181518110610c2957610c286114b7565b5b60200260200101819052508581600281518110610c4957610c486114b7565b5b60200260200101819052508381600381518110610c6957610c686114b7565b5b6020026020010181905250610c7e8282610c8e565b9250505098975050505050505050565b60008151835114610c9e57600080fd5b6000835190506000600682610cb39190611648565b905060008167ffffffffffffffff811115610cd157610cd061111d565b5b604051908082528060200260200182016040528015610cff5781602001602082028036833780820191505090505b50905060005b83811015610f8457868181518110610d2057610d1f6114b7565b5b602002602001015160000151826000600684610d3c9190611648565b610d46919061155e565b81518110610d5757610d566114b7565b5b602002602001018181525050868181518110610d7657610d756114b7565b5b602002602001015160200151826001600684610d929190611648565b610d9c919061155e565b81518110610dad57610dac6114b7565b5b602002602001018181525050858181518110610dcc57610dcb6114b7565b5b602002602001015160000151600160028110610deb57610dea6114b7565b5b6020020151826002600684610e009190611648565b610e0a919061155e565b81518110610e1b57610e1a6114b7565b5b602002602001018181525050858181518110610e3a57610e396114b7565b5b602002602001015160000151600060028110610e5957610e586114b7565b5b6020020151826003600684610e6e9190611648565b610e78919061155e565b81518110610e8957610e886114b7565b5b602002602001018181525050858181518110610ea857610ea76114b7565b5b602002602001015160200151600160028110610ec757610ec66114b7565b5b6020020151826004600684610edc9190611648565b610ee6919061155e565b81518110610ef757610ef66114b7565b5b602002602001018181525050858181518110610f1657610f156114b7565b5b602002602001015160200151600060028110610f3557610f346114b7565b5b6020020151826005600684610f4a9190611648565b610f54919061155e565b81518110610f6557610f646114b7565b5b6020026020010181815250508080610f7c90611515565b915050610d05565b50610f8d6110b4565b6000602082602086026020860160086107d05a03fa90508060008114610fb257610fb4565bfe5b5080610fbf57600080fd5b600082600060018110610fd557610fd46114b7565b5b602002015114159550505050505092915050565b6040518060a00160405280610ffc611030565b815260200161100961108e565b815260200161101661108e565b815260200161102361108e565b8152602001606081525090565b604051806040016040528060008152602001600081525090565b6040518060600160405280600390602082028036833780820191505090505090565b6040518060800160405280600490602082028036833780820191505090505090565b60405180604001604052806110a16110d6565b81526020016110ae6110d6565b81525090565b6040518060200160405280600190602082028036833780820191505090505090565b6040518060400160405280600290602082028036833780820191505090505090565b6000604051905090565b600080fd5b600080fd5b6000601f19601f8301169050919050565b7f4e487b7100000000000000000000000000000000000000000000000000000000600052604160045260246000fd5b6111558261110c565b810181811067ffffffffffffffff821117156111745761117361111d565b5b80604052505050565b60006111876110f8565b9050611193828261114c565b919050565b6000819050919050565b6111ab81611198565b81146111b657600080fd5b50565b6000813590506111c8816111a2565b92915050565b6000604082840312156111e4576111e3611107565b5b6111ee604061117d565b905060006111fe848285016111b9565b6000830152506020611212848285016111b9565b60208301525092915050565b600080fd5b600067ffffffffffffffff82111561123e5761123d61111d565b5b602082029050919050565b600080fd5b600061126161125c84611223565b61117d565b9050806020840283018581111561127b5761127a611249565b5b835b818110156112a4578061129088826111b9565b84526020840193505060208101905061127d565b5050509392505050565b600082601f8301126112c3576112c261121e565b5b60026112d084828561124e565b91505092915050565b6000608082840312156112ef576112ee611107565b5b6112f9604061117d565b90506000611309848285016112ae565b600083015250604061131d848285016112ae565b60208301525092915050565b600061010082840312156113405761133f611107565b5b61134a606061117d565b9050600061135a848285016111ce565b600083015250604061136e848285016112d9565b60208301525060c0611382848285016111ce565b60408301525092915050565b600067ffffffffffffffff8211156113a9576113a861111d565b5b602082029050919050565b60006113c76113c28461138e565b61117d565b905080602084028301858111156113e1576113e0611249565b5b835b8181101561140a57806113f688826111b9565b8452602084019350506020810190506113e3565b5050509392505050565b600082601f8301126114295761142861121e565b5b60056114368482856113b4565b91505092915050565b6000806101a0838503121561145757611456611102565b5b600061146585828601611329565b92505061010061147785828601611414565b9150509250929050565b60008115159050919050565b61149681611481565b82525050565b60006020820190506114b1600083018461148d565b92915050565b7f4e487b7100000000000000000000000000000000000000000000000000000000600052603260045260246000fd5b7f4e487b7100000000000000000000000000000000000000000000000000000000600052601160045260246000fd5b600061152082611198565b91507fffffffffffffffffffffffffffffffffffffffffffffffffffffffffffffffff821415611553576115526114e6565b5b600182019050919050565b600061156982611198565b915061157483611198565b9250827fffffffffffffffffffffffffffffffffffffffffffffffffffffffffffffffff038211156115a9576115a86114e6565b5b828201905092915050565b7f4e487b7100000000000000000000000000000000000000000000000000000000600052601260045260246000fd5b60006115ee82611198565b91506115f983611198565b925082611609576116086115b4565b5b828206905092915050565b600061161f82611198565b915061162a83611198565b92508282101561163d5761163c6114e6565b5b828203905092915050565b600061165382611198565b915061165e83611198565b9250817fffffffffffffffffffffffffffffffffffffffffffffffffffffffffffffffff0483118215151615611697576116966114e6565b5b82820290509291505056fea2646970667358221220e2a2998766d8e2355485acfb41e9df81fac760e6bf009e51bc774c162d16e53b64736f6c63430008090033",
  "linkReferences": {},
  "deployedLinkReferences": {}
}