{
  "_format": "hh-sol-artifact-1",
  "contractName": "SybilPhone",
  "sourceName": "contracts/custom-proofs/uniqueness/SybilPhone.sol",
  "abi": [
    {
      "inputs": [
        {
          "internalType": "address",
          "name": "roots_",
          "type": "address"
        },
        {
          "internalType": "uint256[]",
          "name": "issuers_",
          "type": "uint256[]"
        },
        {
          "internalType": "uint256",
          "name": "price_",
          "type": "uint256"
        },
        {
          "internalType": "address",
          "name": "oldContract_",
          "type": "address"
        }
      ],
      "stateMutability": "nonpayable",
      "type": "constructor"
    },
    {
      "anonymous": false,
      "inputs": [
        {
          "indexed": true,
          "internalType": "address",
          "name": "previousOwner",
          "type": "address"
        },
        {
          "indexed": true,
          "internalType": "address",
          "name": "newOwner",
          "type": "address"
        }
      ],
      "name": "OwnershipTransferred",
      "type": "event"
    },
    {
      "anonymous": false,
      "inputs": [
        {
          "indexed": false,
          "internalType": "address",
          "name": "userAddr",
          "type": "address"
        },
        {
          "indexed": false,
          "internalType": "uint256",
          "name": "actionId",
          "type": "uint256"
        }
      ],
      "name": "Uniqueness",
      "type": "event"
    },
    {
      "inputs": [
        {
          "internalType": "uint256[]",
          "name": "issuerAddresses",
          "type": "uint256[]"
        }
      ],
      "name": "allowIssuers",
      "outputs": [],
      "stateMutability": "nonpayable",
      "type": "function"
    },
    {
      "inputs": [
        {
          "internalType": "uint256",
          "name": "",
          "type": "uint256"
        }
      ],
      "name": "allowedIssuers",
      "outputs": [
        {
          "internalType": "bool",
          "name": "",
          "type": "bool"
        }
      ],
      "stateMutability": "view",
      "type": "function"
    },
    {
      "inputs": [],
      "name": "collectPayments",
      "outputs": [],
      "stateMutability": "nonpayable",
      "type": "function"
    },
    {
      "inputs": [
        {
          "internalType": "address",
          "name": "addr",
          "type": "address"
        },
        {
          "internalType": "uint256",
          "name": "actionId",
          "type": "uint256"
        }
      ],
      "name": "isUniqueForAction",
      "outputs": [
        {
          "internalType": "bool",
          "name": "unique",
          "type": "bool"
        }
      ],
      "stateMutability": "view",
      "type": "function"
    },
    {
      "inputs": [
        {
          "internalType": "uint256",
          "name": "issuerAddress",
          "type": "uint256"
        }
      ],
      "name": "isValidIssuer",
      "outputs": [
        {
          "internalType": "bool",
          "name": "",
          "type": "bool"
        }
      ],
      "stateMutability": "view",
      "type": "function"
    },
    {
      "inputs": [
        {
          "internalType": "uint256",
          "name": "",
          "type": "uint256"
        }
      ],
      "name": "masalaWasUsed",
      "outputs": [
        {
          "internalType": "bool",
          "name": "",
          "type": "bool"
        }
      ],
      "stateMutability": "view",
      "type": "function"
    },
    {
      "inputs": [],
      "name": "owner",
      "outputs": [
        {
          "internalType": "address",
          "name": "",
          "type": "address"
        }
      ],
      "stateMutability": "view",
      "type": "function"
    },
    {
      "inputs": [],
      "name": "price",
      "outputs": [
        {
          "internalType": "uint256",
          "name": "",
          "type": "uint256"
        }
      ],
      "stateMutability": "view",
      "type": "function"
    },
    {
      "inputs": [
        {
          "components": [
            {
              "components": [
                {
                  "internalType": "uint256",
                  "name": "X",
                  "type": "uint256"
                },
                {
                  "internalType": "uint256",
                  "name": "Y",
                  "type": "uint256"
                }
              ],
              "internalType": "struct Pairing.G1Point",
              "name": "a",
              "type": "tuple"
            },
            {
              "components": [
                {
                  "internalType": "uint256[2]",
                  "name": "X",
                  "type": "uint256[2]"
                },
                {
                  "internalType": "uint256[2]",
                  "name": "Y",
                  "type": "uint256[2]"
                }
              ],
              "internalType": "struct Pairing.G2Point",
              "name": "b",
              "type": "tuple"
            },
            {
              "components": [
                {
                  "internalType": "uint256",
                  "name": "X",
                  "type": "uint256"
                },
                {
                  "internalType": "uint256",
                  "name": "Y",
                  "type": "uint256"
                }
              ],
              "internalType": "struct Pairing.G1Point",
              "name": "c",
              "type": "tuple"
            }
          ],
          "internalType": "struct Proof",
          "name": "proof",
          "type": "tuple"
        },
        {
          "internalType": "uint256[5]",
          "name": "input",
          "type": "uint256[5]"
        }
      ],
      "name": "proofIsValid",
      "outputs": [
        {
          "internalType": "bool",
          "name": "isValid",
          "type": "bool"
        }
      ],
      "stateMutability": "view",
      "type": "function"
    },
    {
      "inputs": [
        {
          "components": [
            {
              "components": [
                {
                  "internalType": "uint256",
                  "name": "X",
                  "type": "uint256"
                },
                {
                  "internalType": "uint256",
                  "name": "Y",
                  "type": "uint256"
                }
              ],
              "internalType": "struct Pairing.G1Point",
              "name": "a",
              "type": "tuple"
            },
            {
              "components": [
                {
                  "internalType": "uint256[2]",
                  "name": "X",
                  "type": "uint256[2]"
                },
                {
                  "internalType": "uint256[2]",
                  "name": "Y",
                  "type": "uint256[2]"
                }
              ],
              "internalType": "struct Pairing.G2Point",
              "name": "b",
              "type": "tuple"
            },
            {
              "components": [
                {
                  "internalType": "uint256",
                  "name": "X",
                  "type": "uint256"
                },
                {
                  "internalType": "uint256",
                  "name": "Y",
                  "type": "uint256"
                }
              ],
              "internalType": "struct Pairing.G1Point",
              "name": "c",
              "type": "tuple"
            }
          ],
          "internalType": "struct Proof",
          "name": "proof",
          "type": "tuple"
        },
        {
          "internalType": "uint256[5]",
          "name": "input",
          "type": "uint256[5]"
        }
      ],
      "name": "prove",
      "outputs": [],
      "stateMutability": "payable",
      "type": "function"
    },
    {
      "inputs": [],
      "name": "renounceOwnership",
      "outputs": [],
      "stateMutability": "nonpayable",
      "type": "function"
    },
    {
      "inputs": [
        {
          "internalType": "uint256[]",
          "name": "issuerAddresses",
          "type": "uint256[]"
        }
      ],
      "name": "revokeIssuers",
      "outputs": [],
      "stateMutability": "nonpayable",
      "type": "function"
    },
    {
      "inputs": [
        {
          "internalType": "uint256",
          "name": "newPrice",
          "type": "uint256"
        }
      ],
      "name": "setPrice",
      "outputs": [],
      "stateMutability": "nonpayable",
      "type": "function"
    },
    {
      "inputs": [
        {
          "internalType": "address",
          "name": "newOwner",
          "type": "address"
        }
      ],
      "name": "transferOwnership",
      "outputs": [],
      "stateMutability": "nonpayable",
      "type": "function"
    }
  ],
  "bytecode": "0x60806040523480156200001157600080fd5b50604051620038563803806200385683398181016040528101906200003791906200061f565b620000576200004b620001c260201b60201c565b620001ca60201b60201c565b83600660006101000a81548173ffffffffffffffffffffffffffffffffffffffff021916908373ffffffffffffffffffffffffffffffffffffffff160217905550604051620000a690620003e8565b604051809103906000f080158015620000c3573d6000803e3d6000fd5b50600560006101000a81548173ffffffffffffffffffffffffffffffffffffffff021916908373ffffffffffffffffffffffffffffffffffffffff16021790555062000115836200028e60201b60201c565b62000126826200031460201b60201c565b600073ffffffffffffffffffffffffffffffffffffffff168173ffffffffffffffffffffffffffffffffffffffff1614620001b8576001600660146101000a81548160ff02191690831515021790555080600760006101000a81548173ffffffffffffffffffffffffffffffffffffffff021916908373ffffffffffffffffffffffffffffffffffffffff1602179055505b50505050620007cd565b600033905090565b60008060009054906101000a900473ffffffffffffffffffffffffffffffffffffffff169050816000806101000a81548173ffffffffffffffffffffffffffffffffffffffff021916908373ffffffffffffffffffffffffffffffffffffffff1602179055508173ffffffffffffffffffffffffffffffffffffffff168173ffffffffffffffffffffffffffffffffffffffff167f8be0079c531659141344cd1fd0a4f28419497f9722a3daafe3b4186f6b6457e060405160405180910390a35050565b6200029e6200032e60201b60201c565b60005b81518160ff1610156200031057600160026000848460ff1681518110620002cd57620002cc620006b0565b5b6020026020010151815260200190815260200160002060006101000a81548160ff021916908315150217905550808062000307906200071b565b915050620002a1565b5050565b620003246200032e60201b60201c565b8060018190555050565b6200033e620001c260201b60201c565b73ffffffffffffffffffffffffffffffffffffffff1662000364620003bf60201b60201c565b73ffffffffffffffffffffffffffffffffffffffff1614620003bd576040517f08c379a0000000000000000000000000000000000000000000000000000000008152600401620003b490620007ab565b60405180910390fd5b565b60008060009054906101000a900473ffffffffffffffffffffffffffffffffffffffff16905090565b6116f9806200215d83390190565b6000604051905090565b600080fd5b600080fd5b600073ffffffffffffffffffffffffffffffffffffffff82169050919050565b600062000437826200040a565b9050919050565b62000449816200042a565b81146200045557600080fd5b50565b60008151905062000469816200043e565b92915050565b600080fd5b6000601f19601f8301169050919050565b7f4e487b7100000000000000000000000000000000000000000000000000000000600052604160045260246000fd5b620004bf8262000474565b810181811067ffffffffffffffff82111715620004e157620004e062000485565b5b80604052505050565b6000620004f6620003f6565b9050620005048282620004b4565b919050565b600067ffffffffffffffff82111562000527576200052662000485565b5b602082029050602081019050919050565b600080fd5b6000819050919050565b62000552816200053d565b81146200055e57600080fd5b50565b600081519050620005728162000547565b92915050565b60006200058f620005898462000509565b620004ea565b90508083825260208201905060208402830185811115620005b557620005b462000538565b5b835b81811015620005e25780620005cd888262000561565b845260208401935050602081019050620005b7565b5050509392505050565b600082601f8301126200060457620006036200046f565b5b81516200061684826020860162000578565b91505092915050565b600080600080608085870312156200063c576200063b62000400565b5b60006200064c8782880162000458565b945050602085015167ffffffffffffffff81111562000670576200066f62000405565b5b6200067e87828801620005ec565b9350506040620006918782880162000561565b9250506060620006a48782880162000458565b91505092959194509250565b7f4e487b7100000000000000000000000000000000000000000000000000000000600052603260045260246000fd5b7f4e487b7100000000000000000000000000000000000000000000000000000000600052601160045260246000fd5b600060ff82169050919050565b600062000728826200070e565b915060ff8214156200073f576200073e620006df565b5b600182019050919050565b600082825260208201905092915050565b7f4f776e61626c653a2063616c6c6572206973206e6f7420746865206f776e6572600082015250565b6000620007936020836200074a565b9150620007a0826200075b565b602082019050919050565b60006020820190508181036000830152620007c68162000784565b9050919050565b61198080620007dd6000396000f3fe6080604052600436106100dd5760003560e01c806391b7f5ed1161007f578063c3f243af11610059578063c3f243af1461029d578063ce072163146102da578063f175a2d7146102f1578063f2fde38b1461032e576100dd565b806391b7f5ed1461020c57806396248d1214610235578063a035b1fe14610272576100dd565b8063775d0df0116100bb578063775d0df01461015f5780637fb0ac831461019c5780638da5cb5b146101c5578063903a4d31146101f0576100dd565b80635022a31f146100e25780636bd09a531461011f578063715018a614610148575b600080fd5b3480156100ee57600080fd5b5061010960048036038101906101049190610e84565b610357565b6040516101169190610ee1565b60405180910390f35b34801561012b57600080fd5b5061014660048036038101906101419190610fbf565b61062a565b005b34801561015457600080fd5b5061015d6106a1565b005b34801561016b57600080fd5b5061018660048036038101906101819190611008565b6106b5565b6040516101939190610ee1565b60405180910390f35b3480156101a857600080fd5b506101c360048036038101906101be9190610fbf565b6106d5565b005b3480156101d157600080fd5b506101da61074c565b6040516101e79190611076565b60405180910390f35b61020a600480360381019061020591906110b3565b610775565b005b34801561021857600080fd5b50610233600480360381019061022e9190611008565b610927565b005b34801561024157600080fd5b5061025c60048036038101906102579190611121565b610939565b6040516102699190610ee1565b60405180910390f35b34801561027e57600080fd5b50610287610a58565b6040516102949190611170565b60405180910390f35b3480156102a957600080fd5b506102c460048036038101906102bf9190611008565b610a5e565b6040516102d19190610ee1565b60405180910390f35b3480156102e657600080fd5b506102ef610a7e565b005b3480156102fd57600080fd5b5061031860048036038101906103139190611008565b610ad6565b6040516103259190610ee1565b60405180910390f35b34801561033a57600080fd5b506103556004803603810190610350919061118b565b610b00565b005b6000600660009054906101000a900473ffffffffffffffffffffffffffffffffffffffff1673ffffffffffffffffffffffffffffffffffffffff16636d61af5c836000600581106103ab576103aa6111b8565b5b60200201516040518263ffffffff1660e01b81526004016103cc9190611170565b60206040518083038186803b1580156103e457600080fd5b505afa1580156103f8573d6000803e3d6000fd5b505050506040513d601f19601f8201168201806040525081019061041c9190611213565b61045b576040517f08c379a0000000000000000000000000000000000000000000000000000000008152600401610452906112e9565b60405180910390fd5b61047c82600260058110610472576104716111b8565b5b6020020151610ad6565b6104bb576040517f08c379a00000000000000000000000000000000000000000000000000000000081526004016104b29061137b565b60405180910390fd5b60036000836004600581106104d3576104d26111b8565b5b6020020151815260200190815260200160002060009054906101000a900460ff1615610534576040517f08c379a000000000000000000000000000000000000000000000000000000000815260040161052b906113e7565b60405180910390fd5b600560009054906101000a900473ffffffffffffffffffffffffffffffffffffffff1673ffffffffffffffffffffffffffffffffffffffff1663bcb9988684846040518363ffffffff1660e01b81526004016105919291906115e2565b60206040518083038186803b1580156105a957600080fd5b505afa1580156105bd573d6000803e3d6000fd5b505050506040513d601f19601f820116820180604052508101906105e19190611213565b610620576040517f08c379a000000000000000000000000000000000000000000000000000000000815260040161061790611659565b60405180910390fd5b6001905092915050565b610632610b84565b60005b81518160ff16101561069d57600060026000848460ff168151811061065d5761065c6111b8565b5b6020026020010151815260200190815260200160002060006101000a81548160ff0219169083151502179055508080610695906116b5565b915050610635565b5050565b6106a9610b84565b6106b36000610c02565b565b60036020528060005260406000206000915054906101000a900460ff1681565b6106dd610b84565b60005b81518160ff16101561074857600160026000848460ff1681518110610708576107076111b8565b5b6020026020010151815260200190815260200160002060006101000a81548160ff0219169083151502179055508080610740906116b5565b9150506106e0565b5050565b60008060009054906101000a900473ffffffffffffffffffffffffffffffffffffffff16905090565b6001543410156107ba576040517f08c379a00000000000000000000000000000000000000000000000000000000081526004016107b19061172b565b60405180910390fd5b6107fb82826005806020026040519081016040528092919082600560200280828437600081840152601f19601f820116905080830192505050505050610357565b61080457600080fd5b6001600360008360046005811061081e5761081d6111b8565b5b6020020135815260200190815260200160002060006101000a81548160ff02191690831515021790555060008160016005811061085e5761085d6111b8565b5b602002013582600360058110610877576108766111b8565b5b602002013560405160200161088d9291906117a2565b60405160208183030381529060405280519060200120905060016004600083815260200190815260200160002060006101000a81548160ff0219169083151502179055507fd198fa8523413333ec863279d1630fa354ecc8b110ae00f9ca98c8b498fb46873383600360058110610907576109066111b8565b5b602002013560405161091a9291906117ce565b60405180910390a1505050565b61092f610b84565b8060018190555050565b6000600460008484604051602001610952929190611820565b60405160208183030381529060405280519060200120815260200190815260200160002060009054906101000a900460ff1680610a505750600660149054906101000a900460ff168015610a4f5750600760009054906101000a900473ffffffffffffffffffffffffffffffffffffffff1673ffffffffffffffffffffffffffffffffffffffff166396248d1284846040518363ffffffff1660e01b81526004016109fe9291906117ce565b60206040518083038186803b158015610a1657600080fd5b505afa158015610a2a573d6000803e3d6000fd5b505050506040513d601f19601f82011682018060405250810190610a4e9190611213565b5b5b905092915050565b60015481565b60026020528060005260406000206000915054906101000a900460ff1681565b610a86610b84565b610a8e61074c565b73ffffffffffffffffffffffffffffffffffffffff166108fc479081150290604051600060405180830381858888f19350505050158015610ad3573d6000803e3d6000fd5b50565b60006002600083815260200190815260200160002060009054906101000a900460ff169050919050565b610b08610b84565b600073ffffffffffffffffffffffffffffffffffffffff168173ffffffffffffffffffffffffffffffffffffffff161415610b78576040517f08c379a0000000000000000000000000000000000000000000000000000000008152600401610b6f906118be565b60405180910390fd5b610b8181610c02565b50565b610b8c610cc6565b73ffffffffffffffffffffffffffffffffffffffff16610baa61074c565b73ffffffffffffffffffffffffffffffffffffffff1614610c00576040517f08c379a0000000000000000000000000000000000000000000000000000000008152600401610bf79061192a565b60405180910390fd5b565b60008060009054906101000a900473ffffffffffffffffffffffffffffffffffffffff169050816000806101000a81548173ffffffffffffffffffffffffffffffffffffffff021916908373ffffffffffffffffffffffffffffffffffffffff1602179055508173ffffffffffffffffffffffffffffffffffffffff168173ffffffffffffffffffffffffffffffffffffffff167f8be0079c531659141344cd1fd0a4f28419497f9722a3daafe3b4186f6b6457e060405160405180910390a35050565b600033905090565b6000604051905090565b600080fd5b600080fd5b600080fd5b60006101008284031215610cfe57610cfd610ce2565b5b81905092915050565b600080fd5b6000601f19601f8301169050919050565b7f4e487b7100000000000000000000000000000000000000000000000000000000600052604160045260246000fd5b610d5582610d0c565b810181811067ffffffffffffffff82111715610d7457610d73610d1d565b5b80604052505050565b6000610d87610cce565b9050610d938282610d4c565b919050565b600067ffffffffffffffff821115610db357610db2610d1d565b5b602082029050919050565b600080fd5b6000819050919050565b610dd681610dc3565b8114610de157600080fd5b50565b600081359050610df381610dcd565b92915050565b6000610e0c610e0784610d98565b610d7d565b90508060208402830185811115610e2657610e25610dbe565b5b835b81811015610e4f5780610e3b8882610de4565b845260208401935050602081019050610e28565b5050509392505050565b600082601f830112610e6e57610e6d610d07565b5b6005610e7b848285610df9565b91505092915050565b6000806101a08385031215610e9c57610e9b610cd8565b5b6000610eaa85828601610ce7565b925050610100610ebc85828601610e59565b9150509250929050565b60008115159050919050565b610edb81610ec6565b82525050565b6000602082019050610ef66000830184610ed2565b92915050565b600067ffffffffffffffff821115610f1757610f16610d1d565b5b602082029050602081019050919050565b6000610f3b610f3684610efc565b610d7d565b90508083825260208201905060208402830185811115610f5e57610f5d610dbe565b5b835b81811015610f875780610f738882610de4565b845260208401935050602081019050610f60565b5050509392505050565b600082601f830112610fa657610fa5610d07565b5b8135610fb6848260208601610f28565b91505092915050565b600060208284031215610fd557610fd4610cd8565b5b600082013567ffffffffffffffff811115610ff357610ff2610cdd565b5b610fff84828501610f91565b91505092915050565b60006020828403121561101e5761101d610cd8565b5b600061102c84828501610de4565b91505092915050565b600073ffffffffffffffffffffffffffffffffffffffff82169050919050565b600061106082611035565b9050919050565b61107081611055565b82525050565b600060208201905061108b6000830184611067565b92915050565b6000819050826020600502820111156110ad576110ac610dbe565b5b92915050565b6000806101a083850312156110cb576110ca610cd8565b5b60006110d985828601610ce7565b9250506101006110eb85828601611091565b9150509250929050565b6110fe81611055565b811461110957600080fd5b50565b60008135905061111b816110f5565b92915050565b6000806040838503121561113857611137610cd8565b5b60006111468582860161110c565b925050602061115785828601610de4565b9150509250929050565b61116a81610dc3565b82525050565b60006020820190506111856000830184611161565b92915050565b6000602082840312156111a1576111a0610cd8565b5b60006111af8482850161110c565b91505092915050565b7f4e487b7100000000000000000000000000000000000000000000000000000000600052603260045260246000fd5b6111f081610ec6565b81146111fb57600080fd5b50565b60008151905061120d816111e7565b92915050565b60006020828403121561122957611228610cd8565b5b6000611237848285016111fe565b91505092915050565b600082825260208201905092915050565b7f54686520726f6f742070726f766964656420776173206e6f7420666f756e642060008201527f696e20746865204d65726b6c652074726565277320726563656e7420726f6f7460208201527f206c697374000000000000000000000000000000000000000000000000000000604082015250565b60006112d3604583611240565b91506112de82611251565b606082019050919050565b60006020820190508181036000830152611302816112c6565b9050919050565b7f50726f6f66206d75737420636f6d652066726f6d20636f72726563742069737360008201527f7565722773206164647265737300000000000000000000000000000000000000602082015250565b6000611365602d83611240565b915061137082611309565b604082019050919050565b6000602082019050818103600083015261139481611358565b9050919050565b7f4f6e6520706572736f6e2063616e206f6e6c7920766572696679206f6e636500600082015250565b60006113d1601f83611240565b91506113dc8261139b565b602082019050919050565b60006020820190508181036000830152611400816113c4565b9050919050565b600082905092915050565b60006114216020840184610de4565b905092915050565b61143281610dc3565b82525050565b604082016114496000830183611412565b6114566000850182611429565b506114646020830183611412565b6114716020850182611429565b50505050565b600082905092915050565b600082905092915050565b82818337600083830152505050565b6114a86040838361148d565b5050565b608082016114bd6000830183611482565b6114ca600085018261149c565b506114d86040830183611482565b6114e5604085018261149c565b50505050565b61010082016114fd6000830183611407565b61150a6000850182611438565b506115186040830183611477565b61152560408501826114ac565b5061153360c0830183611407565b61154060c0850182611438565b50505050565b600060059050919050565b600081905092915050565b6000819050919050565b60006115728383611429565b60208301905092915050565b6000602082019050919050565b61159481611546565b61159e8184611551565b92506115a98261155c565b8060005b838110156115da5781516115c18782611566565b96506115cc8361157e565b9250506001810190506115ad565b505050505050565b60006101a0820190506115f860008301856114eb565b61160661010083018461158b565b9392505050565b7f4661696c656420746f20766572696679205a4b50000000000000000000000000600082015250565b6000611643601483611240565b915061164e8261160d565b602082019050919050565b6000602082019050818103600083015261167281611636565b9050919050565b7f4e487b7100000000000000000000000000000000000000000000000000000000600052601160045260246000fd5b600060ff82169050919050565b60006116c0826116a8565b915060ff8214156116d4576116d3611679565b5b600182019050919050565b7f4d697373696e67207061796d656e740000000000000000000000000000000000600082015250565b6000611715600f83611240565b9150611720826116df565b602082019050919050565b6000602082019050818103600083015261174481611708565b9050919050565b60008160601b9050919050565b60006117638261174b565b9050919050565b61177b61177682611035565b611758565b82525050565b6000819050919050565b61179c61179782610dc3565b611781565b82525050565b60006117ae828561176a565b6014820191506117be828461178b565b6020820191508190509392505050565b60006040820190506117e36000830185611067565b6117f06020830184611161565b9392505050565b600061180282611758565b9050919050565b61181a61181582611055565b6117f7565b82525050565b600061182c8285611809565b60148201915061183c828461178b565b6020820191508190509392505050565b7f4f776e61626c653a206e6577206f776e657220697320746865207a65726f206160008201527f6464726573730000000000000000000000000000000000000000000000000000602082015250565b60006118a8602683611240565b91506118b38261184c565b604082019050919050565b600060208201905081810360008301526118d78161189b565b9050919050565b7f4f776e61626c653a2063616c6c6572206973206e6f7420746865206f776e6572600082015250565b6000611914602083611240565b915061191f826118de565b602082019050919050565b6000602082019050818103600083015261194381611907565b905091905056fea26469706673582212204dd7b3f7ce2a46e27e3b9fc88f66e5424780cfec8b4aed7c894f825dbd9b01b464736f6c63430008090033608060405234801561001057600080fd5b506116d9806100206000396000f3fe608060405234801561001057600080fd5b506004361061002b5760003560e01c8063bcb9988614610030575b600080fd5b61004a60048036038101906100459190611440565b610060565b604051610057919061149d565b60405180910390f35b600080600567ffffffffffffffff81111561007e5761007d61111e565b5b6040519080825280602002602001820160405280156100ac5781602001602082028036833780820191505090505b50905060005b6005811015610105578381600581106100ce576100cd6114b8565b5b60200201518282815181106100e6576100e56114b8565b5b60200260200101818152505080806100fd90611516565b9150506100b2565b506000610112828661012e565b1415610122576001915050610128565b60009150505b92915050565b6000807f30644e72e131a029b85045b68181585d2833e84879b9709143e1f593f00000019050600061015e6102c5565b905080608001515160018651610174919061155f565b1461017e57600080fd5b60006040518060400160405280600081526020016000815250905060005b865181101561023757838782815181106101b9576101b86114b8565b5b6020026020010151106101cb57600080fd5b6102228261021d85608001516001856101e4919061155f565b815181106101f5576101f46114b8565b5b60200260200101518a85815181106102105761020f6114b8565b5b60200260200101516108a9565b610950565b9150808061022f90611516565b91505061019c565b50610261818360800151600081518110610254576102536114b8565b5b6020026020010151610950565b90506102a78560000151866020015161027984610a1d565b856040015161028b8a60400151610a1d565b876060015161029d8960000151610a1d565b8960200151610ac2565b6102b757600193505050506102bf565b600093505050505b92915050565b6102cd610fea565b60405180604001604052807f23132bf6861e913de025a9e802bf928d06a10210dd607b308311dee176da155781526020017f1005b20be8518d03236d9e31e98c62cd42f029293187ec91669fd5566edda3328152508160000181905250604051806040016040528060405180604001604052807f1d902265da73829f3fcaca13a0005fad0a57ef29de813b63614c464179af7baf81526020017f21f5bf89534e5dece36e982a080ddec97f890dc6b7266f53103787ebf6b80ed9815250815260200160405180604001604052807f0400f8f69c1ff2e4de45b40051ee37b0c8378eedeeede2328e1b3ccf964ad02f81526020017f1da67b1ced07189c66ed794d1ccca073f77489381320652de01ae2bbf75134148152508152508160200181905250604051806040016040528060405180604001604052807f10074f085aaf15336e0485d1200f77efa6961d7841c96a78548bb99875f9acfb81526020017f0e5f63a506cbfd9cceb1b9c5c7076e38ce67a44c22a22a38eb2e5ba28d29227a815250815260200160405180604001604052807f200f34273a63ee976c8482f038cefabcd4393361bddc1ebfefad9ca836a152d081526020017f22147891bfdc30967b20263f4c041d97a4a41cf2f7a613d0d58b82ab1b9cba378152508152508160400181905250604051806040016040528060405180604001604052807f14667d77eb04dc1cab5964daee7f4e339ee97453bfb47ae0169641481eaaaf4f81526020017f0e3f4cc26eb6862218634cc1af9811b3bd1afdd4fddd63164a7f150ea16846e4815250815260200160405180604001604052807f0e88177b14ae1daad4fb99884b311537a6b97ba56e890fc831ef7642bb2c9e8481526020017f1e360036fcd20171bee89640078f8c0fbdbee292659ffd37684ff6ca4df982418152508152508160600181905250600667ffffffffffffffff8111156105945761059361111e565b5b6040519080825280602002602001820160405280156105cd57816020015b6105ba611031565b8152602001906001900390816105b25790505b50816080018190525060405180604001604052807f0d7a890d9e0b064fd5d1792809b815059f838411ae272b8222f8d13cca6976ff81526020017f276a8b66ba880df693144b6009642580bbd03ce7f85fc7c1924c79c41c7acf2b8152508160800151600081518110610643576106426114b8565b5b602002602001018190525060405180604001604052807f056c2a53dedc7e25d411ea907f58b4401b38bd31f96ea056a3df8434502ba34a81526020017f22ea4453748c30e727b2903bb25b41cf0f93594383e6a6f4fc7df89a5826b6e081525081608001516001815181106106bb576106ba6114b8565b5b602002602001018190525060405180604001604052807f09c1e96a2bafcfdb4ad27a980b3e8ba153afe13af73f03813ebeb8fe2671fbda81526020017f015f604910de8ffe0cae3722c1233269a7a86dcdaae78ddfc14d09f52c0d7cff8152508160800151600281518110610733576107326114b8565b5b602002602001018190525060405180604001604052807f06536a384e2ca196f159b87209a79d98bf20ef80f55c0208efa2a3f178e89ca381526020017f1868b0fa058f733664346efdf115c6ec1b8fcd2d06ce2a786ddf7ddf75de069b81525081608001516003815181106107ab576107aa6114b8565b5b602002602001018190525060405180604001604052807f2d536326445a1d29cd548c415e3d43f9c36935a20b6ded8b4869aeb13a57e3da81526020017f15ea7024462cd6121752035f05032bbcec9c0dd2701bcfa5d5d5eea61895e8698152508160800151600481518110610823576108226114b8565b5b602002602001018190525060405180604001604052807f1e189d00ca9ba7f56154f183b3e788b386f7206d0bb58267bb2724fa156d44fa81526020017f0f2ef392435a97d43648424b4a3e088fea6ca8972b26f6776895e810ccd1f57f815250816080015160058151811061089b5761089a6114b8565b5b602002602001018190525090565b6108b1611031565b6108b961104b565b8360000151816000600381106108d2576108d16114b8565b5b6020020181815250508360200151816001600381106108f4576108f36114b8565b5b6020020181815250508281600260038110610912576109116114b8565b5b602002018181525050600060608360808460076107d05a03fa9050806000811461093b5761093d565bfe5b508061094857600080fd5b505092915050565b610958611031565b61096061106d565b836000015181600060048110610979576109786114b8565b5b60200201818152505083602001518160016004811061099b5761099a6114b8565b5b6020020181815250508260000151816002600481106109bd576109bc6114b8565b5b6020020181815250508260200151816003600481106109df576109de6114b8565b5b602002018181525050600060608360c08460066107d05a03fa90508060008114610a0857610a0a565bfe5b5080610a1557600080fd5b505092915050565b610a25611031565b60007f30644e72e131a029b85045b68181585d97816a916871ca8d3c208c16d87cfd47905060008360000151148015610a62575060008360200151145b15610a86576040518060400160405280600081526020016000815250915050610abd565b604051806040016040528084600001518152602001828560200151610aab91906115e4565b83610ab69190611615565b8152509150505b919050565b600080600467ffffffffffffffff811115610ae057610adf61111e565b5b604051908082528060200260200182016040528015610b1957816020015b610b06611031565b815260200190600190039081610afe5790505b5090506000600467ffffffffffffffff811115610b3957610b3861111e565b5b604051908082528060200260200182016040528015610b7257816020015b610b5f61108f565b815260200190600190039081610b575790505b5090508a82600081518110610b8a57610b896114b8565b5b60200260200101819052508882600181518110610baa57610ba96114b8565b5b60200260200101819052508682600281518110610bca57610bc96114b8565b5b60200260200101819052508482600381518110610bea57610be96114b8565b5b60200260200101819052508981600081518110610c0a57610c096114b8565b5b60200260200101819052508781600181518110610c2a57610c296114b8565b5b60200260200101819052508581600281518110610c4a57610c496114b8565b5b60200260200101819052508381600381518110610c6a57610c696114b8565b5b6020026020010181905250610c7f8282610c8f565b9250505098975050505050505050565b60008151835114610c9f57600080fd5b6000835190506000600682610cb49190611649565b905060008167ffffffffffffffff811115610cd257610cd161111e565b5b604051908082528060200260200182016040528015610d005781602001602082028036833780820191505090505b50905060005b83811015610f8557868181518110610d2157610d206114b8565b5b602002602001015160000151826000600684610d3d9190611649565b610d47919061155f565b81518110610d5857610d576114b8565b5b602002602001018181525050868181518110610d7757610d766114b8565b5b602002602001015160200151826001600684610d939190611649565b610d9d919061155f565b81518110610dae57610dad6114b8565b5b602002602001018181525050858181518110610dcd57610dcc6114b8565b5b602002602001015160000151600160028110610dec57610deb6114b8565b5b6020020151826002600684610e019190611649565b610e0b919061155f565b81518110610e1c57610e1b6114b8565b5b602002602001018181525050858181518110610e3b57610e3a6114b8565b5b602002602001015160000151600060028110610e5a57610e596114b8565b5b6020020151826003600684610e6f9190611649565b610e79919061155f565b81518110610e8a57610e896114b8565b5b602002602001018181525050858181518110610ea957610ea86114b8565b5b602002602001015160200151600160028110610ec857610ec76114b8565b5b6020020151826004600684610edd9190611649565b610ee7919061155f565b81518110610ef857610ef76114b8565b5b602002602001018181525050858181518110610f1757610f166114b8565b5b602002602001015160200151600060028110610f3657610f356114b8565b5b6020020151826005600684610f4b9190611649565b610f55919061155f565b81518110610f6657610f656114b8565b5b6020026020010181815250508080610f7d90611516565b915050610d06565b50610f8e6110b5565b6000602082602086026020860160086107d05a03fa90508060008114610fb357610fb5565bfe5b5080610fc057600080fd5b600082600060018110610fd657610fd56114b8565b5b602002015114159550505050505092915050565b6040518060a00160405280610ffd611031565b815260200161100a61108f565b815260200161101761108f565b815260200161102461108f565b8152602001606081525090565b604051806040016040528060008152602001600081525090565b6040518060600160405280600390602082028036833780820191505090505090565b6040518060800160405280600490602082028036833780820191505090505090565b60405180604001604052806110a26110d7565b81526020016110af6110d7565b81525090565b6040518060200160405280600190602082028036833780820191505090505090565b6040518060400160405280600290602082028036833780820191505090505090565b6000604051905090565b600080fd5b600080fd5b6000601f19601f8301169050919050565b7f4e487b7100000000000000000000000000000000000000000000000000000000600052604160045260246000fd5b6111568261110d565b810181811067ffffffffffffffff821117156111755761117461111e565b5b80604052505050565b60006111886110f9565b9050611194828261114d565b919050565b6000819050919050565b6111ac81611199565b81146111b757600080fd5b50565b6000813590506111c9816111a3565b92915050565b6000604082840312156111e5576111e4611108565b5b6111ef604061117e565b905060006111ff848285016111ba565b6000830152506020611213848285016111ba565b60208301525092915050565b600080fd5b600067ffffffffffffffff82111561123f5761123e61111e565b5b602082029050919050565b600080fd5b600061126261125d84611224565b61117e565b9050806020840283018581111561127c5761127b61124a565b5b835b818110156112a5578061129188826111ba565b84526020840193505060208101905061127e565b5050509392505050565b600082601f8301126112c4576112c361121f565b5b60026112d184828561124f565b91505092915050565b6000608082840312156112f0576112ef611108565b5b6112fa604061117e565b9050600061130a848285016112af565b600083015250604061131e848285016112af565b60208301525092915050565b6000610100828403121561134157611340611108565b5b61134b606061117e565b9050600061135b848285016111cf565b600083015250604061136f848285016112da565b60208301525060c0611383848285016111cf565b60408301525092915050565b600067ffffffffffffffff8211156113aa576113a961111e565b5b602082029050919050565b60006113c86113c38461138f565b61117e565b905080602084028301858111156113e2576113e161124a565b5b835b8181101561140b57806113f788826111ba565b8452602084019350506020810190506113e4565b5050509392505050565b600082601f83011261142a5761142961121f565b5b60056114378482856113b5565b91505092915050565b6000806101a0838503121561145857611457611103565b5b60006114668582860161132a565b92505061010061147885828601611415565b9150509250929050565b60008115159050919050565b61149781611482565b82525050565b60006020820190506114b2600083018461148e565b92915050565b7f4e487b7100000000000000000000000000000000000000000000000000000000600052603260045260246000fd5b7f4e487b7100000000000000000000000000000000000000000000000000000000600052601160045260246000fd5b600061152182611199565b91507fffffffffffffffffffffffffffffffffffffffffffffffffffffffffffffffff821415611554576115536114e7565b5b600182019050919050565b600061156a82611199565b915061157583611199565b9250827fffffffffffffffffffffffffffffffffffffffffffffffffffffffffffffffff038211156115aa576115a96114e7565b5b828201905092915050565b7f4e487b7100000000000000000000000000000000000000000000000000000000600052601260045260246000fd5b60006115ef82611199565b91506115fa83611199565b92508261160a576116096115b5565b5b828206905092915050565b600061162082611199565b915061162b83611199565b92508282101561163e5761163d6114e7565b5b828203905092915050565b600061165482611199565b915061165f83611199565b9250817fffffffffffffffffffffffffffffffffffffffffffffffffffffffffffffffff0483118215151615611698576116976114e7565b5b82820290509291505056fea26469706673582212208347296ce06002e23daf7b8f7c12e0a593b7a70dba700adfa6fdcb7320b28a0f64736f6c63430008090033",
  "linkReferences": {},
  "deployedLinkReferences": {}
}