{
  "_format": "hh-sol-artifact-1",
  "contractName": "AddLeafSmall",
  "sourceName": "contracts/AddLeafSmall.sol",
  "abi": [
    {
      "inputs": [
        {
          "components": [
            {
              "components": [
                {
                  "internalType": "uint256",
                  "name": "X",
                  "type": "uint256"
                },
                {
                  "internalType": "uint256",
                  "name": "Y",
                  "type": "uint256"
                }
              ],
              "internalType": "struct Pairing.G1Point",
              "name": "a",
              "type": "tuple"
            },
            {
              "components": [
                {
                  "internalType": "uint256[2]",
                  "name": "X",
                  "type": "uint256[2]"
                },
                {
                  "internalType": "uint256[2]",
                  "name": "Y",
                  "type": "uint256[2]"
                }
              ],
              "internalType": "struct Pairing.G2Point",
              "name": "b",
              "type": "tuple"
            },
            {
              "components": [
                {
                  "internalType": "uint256",
                  "name": "X",
                  "type": "uint256"
                },
                {
                  "internalType": "uint256",
                  "name": "Y",
                  "type": "uint256"
                }
              ],
              "internalType": "struct Pairing.G1Point",
              "name": "c",
              "type": "tuple"
            }
          ],
          "internalType": "struct Proof",
          "name": "proof",
          "type": "tuple"
        },
        {
          "internalType": "uint256[21]",
          "name": "input",
          "type": "uint256[21]"
        }
      ],
      "name": "verifyTx",
      "outputs": [
        {
          "internalType": "bool",
          "name": "r",
          "type": "bool"
        }
      ],
      "stateMutability": "view",
      "type": "function"
    }
  ],
  "bytecode": "0x608060405234801561001057600080fd5b50611e0e806100206000396000f3fe608060405234801561001057600080fd5b506004361061002b5760003560e01c8063c7f0213014610030575b600080fd5b61004a60048036038101906100459190611bb0565b610060565b6040516100579190611c0d565b60405180910390f35b600080601567ffffffffffffffff81111561007e5761007d61188e565b5b6040519080825280602002602001820160405280156100ac5781602001602082028036833780820191505090505b50905060005b6015811015610105578381601581106100ce576100cd611c28565b5b60200201518282815181106100e6576100e5611c28565b5b60200260200101818152505080806100fd90611c86565b9150506100b2565b506000610112828661012d565b03610121576001915050610127565b60009150505b92915050565b6000807f30644e72e131a029b85045b68181585d2833e84879b9709143e1f593f00000019050600061015d6102c4565b9050806080015151600186516101739190611cce565b1461017d57600080fd5b60006040518060400160405280600081526020016000815250905060005b865181101561023657838782815181106101b8576101b7611c28565b5b6020026020010151106101ca57600080fd5b6102218261021c85608001516001856101e39190611cce565b815181106101f4576101f3611c28565b5b60200260200101518a858151811061020f5761020e611c28565b5b6020026020010151611028565b6110ca565b9150808061022e90611c86565b91505061019b565b5061026081836080015160008151811061025357610252611c28565b5b60200260200101516110ca565b90506102a68560000151866020015161027884611192565b856040015161028a8a60400151611192565b876060015161029c8960000151611192565b8960200151611237565b6102b657600193505050506102be565b600093505050505b92915050565b6102cc61175a565b60405180604001604052807f29e437c419a9349100fc1ac6373aa30e3c492b849d3c40373b432b2a7ca1938481526020017f2fdffb50baffbaad018687e5bf6476a1d5c840942979b54ecc1b3b6bd05bd71b8152508160000181905250604051806040016040528060405180604001604052807f05f11817eefbeac48cc67413604e1947f37e80ef2943a1ac0dc68a4b8889b22581526020017f2232ea7809604f1b2630cdd49d8c24db9ee2e947845159f9fefc55216b69b884815250815260200160405180604001604052807f23effb9d67ba9ae10e5265be6c88b5ced9ac835c3adc0ca1bd8f89dc25ebb2f281526020017f240a5e5842c37b5c076f51001db44f67ae3e152914931acc9e48fd9db1add7d78152508152508160200181905250604051806040016040528060405180604001604052807f15d41b342f87f08d51dec95c2e7e7093f9259eee21f52a73f362f1b0b8b538c281526020017f0bb6873fe0789ec17b151208e8e38fb4a9613a8a956e440aabe1bfd4317abdf1815250815260200160405180604001604052807f1626b4cc7200492c5125cf9c141107ac64e8eec73c066fbe8489cbe1a39ea91f81526020017f0618ed132a5f3fcd4d6322f5db27b24e50114390c544db0c017119f3a4a0f4968152508152508160400181905250604051806040016040528060405180604001604052807f1120ca3904ba557eef47c907d5ca6f99afe5d1cc262aba4bccdf3bbed36ce4ea81526020017f2098f67de7b0cce6170c1f748af95e3d5fc589862e5305d16a628152d497d19b815250815260200160405180604001604052807f03cadc7a2ec6c8bb7f20b581b8e6aea678e126e8df6559d6603fde181d57443781526020017f22312e2759bf03145977b259d3794127de98f6b42cf07a00d0bafa9c56ea1ac88152508152508160600181905250601667ffffffffffffffff8111156105935761059261188e565b5b6040519080825280602002602001820160405280156105cc57816020015b6105b96117a1565b8152602001906001900390816105b15790505b50816080018190525060405180604001604052807f0d2f81394a84636bd29a2483e234b17d41f907d5084818f77c1365f10155249781526020017f1a32dba6d73f73c735c8fc6e6056a4c5cfc57cfaca1b90e79627e04a1dc9c9e8815250816080015160008151811061064257610641611c28565b5b602002602001018190525060405180604001604052807f21c97c0ca795f9b98836236073907d05694785fcb318502159378b6c868ea89081526020017f23601b5fdfb9331b023c8cbea034790aea02cba495ac9ce27b04f08353aa45f281525081608001516001815181106106ba576106b9611c28565b5b602002602001018190525060405180604001604052807f0526ef3537019c75ced6fc50b34ab028c352f0acc74a6f11f9f3c21444a2266c81526020017f2e62901fc43fb7425cc651327810140e31d5e5467471e7e758daedf1777f898a815250816080015160028151811061073257610731611c28565b5b602002602001018190525060405180604001604052807f2189b45cd2c2e6876bbc6da62e793a7def1ecd21a9ce34944ce0f53a528f401381526020017f271ed190873918783fd9f4aa74f7f22a0197808792b0da4db2dcc911aa2476e381525081608001516003815181106107aa576107a9611c28565b5b602002602001018190525060405180604001604052807f0c163a4305942720b5e7f19199e82b46412877761c0a1185e4f07a71abfbb81981526020017f2ee19453f582e9b1e5da6b814e3725368f869f584d38a0266b53f1acf87d0ac2815250816080015160048151811061082257610821611c28565b5b602002602001018190525060405180604001604052807f1731bf85d9a4183b03b3bb9af4fdc4fa4f9650eb94d65026750f6162967f108e81526020017f099bce19c84775c350ad8a1bcd53f440001bc02da2a80037b205ae4937698f45815250816080015160058151811061089a57610899611c28565b5b602002602001018190525060405180604001604052807f1112e9d1e10f9a1ba3b98c862b264740558ae588bd944b114081930c7f26220a81526020017f1ebf5fe8b704b23dccfeae8aeb9e5977051ded90131990657040622b644059eb815250816080015160068151811061091257610911611c28565b5b602002602001018190525060405180604001604052807f1ea8576573c0ee154af3efc45f1935f5f288f4574bdbb98c5954d39a16c1061081526020017f18763479ec6a9d5786f699691f76187345744dd4ebcee703a01d03af8d9dd4b4815250816080015160078151811061098a57610989611c28565b5b602002602001018190525060405180604001604052807f10d294d91239c6bb91ad313297ff81141eaafcdba3a8a3735a865c24310bb92a81526020017f1628a85adfb0e96970929aafa1a3fabbe6f44760f569b17c330582708a9b15588152508160800151600881518110610a0257610a01611c28565b5b602002602001018190525060405180604001604052807f1570aabac28e32c04311b5ce7fc11505d324c1c0f0c05d94e10f68563011c90a81526020017f21a1387fe7227dba3172c2abd9ad3a033f0c62bb68f7098298e4d9ffa097d3408152508160800151600981518110610a7a57610a79611c28565b5b602002602001018190525060405180604001604052807f05dba890e584578bdc741fdc5dae16f9aae07c4aaac36b69b689d55632338c3381526020017f11aa54352e2cdee2014e2b5201a41dd2d3a3cc4cfdda9d2fa376afecd58008fb8152508160800151600a81518110610af257610af1611c28565b5b602002602001018190525060405180604001604052807f1646945dfd05ed2200ec31a27d313ae1bd8884530a3aa98d94876ece3d8e188481526020017f125f39838f9b7b5327629b23f788704b0922d8b2cf065d425ca1f066b24961e18152508160800151600b81518110610b6a57610b69611c28565b5b602002602001018190525060405180604001604052807f2c3ec82dbe7638468b11955b2b33168f92d1b9d1350a27734e255646684591d681526020017f1f9dec0405324bbe9f1049c66c44e08d10ed58da77fe9b533d91f4cf4822549a8152508160800151600c81518110610be257610be1611c28565b5b602002602001018190525060405180604001604052807f046845fde692b3371527adac41ff366481d22575fb6e88607e11be1768a79a5181526020017f0c5a3b51230338c90c333f60e30ef3c9e56d5d4280f82eab36222a93255ecf638152508160800151600d81518110610c5a57610c59611c28565b5b602002602001018190525060405180604001604052807f21b12aa42f0fd92f0eff9a8e10198798b1a815a4e3df755403783a4df44642a481526020017f02f643434b83516a1baf666e11092b48227b60f63696f64805b43dec8451d0b98152508160800151600e81518110610cd257610cd1611c28565b5b602002602001018190525060405180604001604052807f1b139c62d1ad02e1c192443a4246ec32d7a2b09307d744e2b53d8d1d8cc3fd4481526020017f2786d1425fededea42cd69fdd1d0ab38095e03fbf754ff2a73a7577bd0385a1d8152508160800151600f81518110610d4a57610d49611c28565b5b602002602001018190525060405180604001604052807f07acfc08f3b917cc53e63ad954f88be30a06e60e620c2718397dcc808f5a989781526020017f301cac63e81044b01ee73c5be956e2b304fb12bbad83883f7605f3a8e7415e088152508160800151601081518110610dc257610dc1611c28565b5b602002602001018190525060405180604001604052807f2dc72c1735145de2e4f50490acc411acc3ee84d404813bf39ff3ebfbf6a737a481526020017f2ae449e89ad0fc7618746dbda4c3a14dd44a3c9c2bb666b3257bca59b4bb2e048152508160800151601181518110610e3a57610e39611c28565b5b602002602001018190525060405180604001604052807f06ab66c362c5c6e7cdb8a148cf9cd20d51c1c4136e30034b1c14c7af30d613a681526020017f1a249dfb9914de92043e84787c5417e1c4c938ae3243d757564b9baf2d48ad578152508160800151601281518110610eb257610eb1611c28565b5b602002602001018190525060405180604001604052807f169fd0b9c19a1b4dda0e4780d1f1bb80299e0142e2704e782bd4ecd128f2695e81526020017f2237d8ee46dbfefc42621c01e67106e1599b15e7780d3a762dcb58989c1728e08152508160800151601381518110610f2a57610f29611c28565b5b602002602001018190525060405180604001604052807f24e6b0b8be0423ebe8899554c022d754ab28e5959d9e36befecd58444fc9005081526020017f29f5712839f537453132d4a10c18180600a53c434ea8fa44a7dd430384c63ae58152508160800151601481518110610fa257610fa1611c28565b5b602002602001018190525060405180604001604052807f1ba1836b8a224ab94c7402cccc41e5834f91f2f5a9c17ce49f873d1427a9490a81526020017f2a35aac37d5954c1b4ab3ab9c4a39da8e3a72af67b5f75c30c1f7e4b02203123815250816080015160158151811061101a57611019611c28565b5b602002602001018190525090565b6110306117a1565b6110386117bb565b83600001518160006003811061105157611050611c28565b5b60200201818152505083602001518160016003811061107357611072611c28565b5b602002018181525050828160026003811061109157611090611c28565b5b602002018181525050600060608360808460076107d05a03fa905080600081036110b757fe5b50806110c257600080fd5b505092915050565b6110d26117a1565b6110da6117dd565b8360000151816000600481106110f3576110f2611c28565b5b60200201818152505083602001518160016004811061111557611114611c28565b5b60200201818152505082600001518160026004811061113757611136611c28565b5b60200201818152505082602001518160036004811061115957611158611c28565b5b602002018181525050600060608360c08460066107d05a03fa9050806000810361117f57fe5b508061118a57600080fd5b505092915050565b61119a6117a1565b60007f30644e72e131a029b85045b68181585d97816a916871ca8d3c208c16d87cfd479050600083600001511480156111d7575060008360200151145b156111fb576040518060400160405280600081526020016000815250915050611232565b6040518060400160405280846000015181526020018285602001516112209190611d31565b8361122b9190611d62565b8152509150505b919050565b600080600467ffffffffffffffff8111156112555761125461188e565b5b60405190808252806020026020018201604052801561128e57816020015b61127b6117a1565b8152602001906001900390816112735790505b5090506000600467ffffffffffffffff8111156112ae576112ad61188e565b5b6040519080825280602002602001820160405280156112e757816020015b6112d46117ff565b8152602001906001900390816112cc5790505b5090508a826000815181106112ff576112fe611c28565b5b6020026020010181905250888260018151811061131f5761131e611c28565b5b6020026020010181905250868260028151811061133f5761133e611c28565b5b6020026020010181905250848260038151811061135f5761135e611c28565b5b6020026020010181905250898160008151811061137f5761137e611c28565b5b6020026020010181905250878160018151811061139f5761139e611c28565b5b602002602001018190525085816002815181106113bf576113be611c28565b5b602002602001018190525083816003815181106113df576113de611c28565b5b60200260200101819052506113f48282611404565b9250505098975050505050505050565b6000815183511461141457600080fd5b60008351905060006006826114299190611d96565b905060008167ffffffffffffffff8111156114475761144661188e565b5b6040519080825280602002602001820160405280156114755781602001602082028036833780820191505090505b50905060005b838110156116fa5786818151811061149657611495611c28565b5b6020026020010151600001518260006006846114b29190611d96565b6114bc9190611cce565b815181106114cd576114cc611c28565b5b6020026020010181815250508681815181106114ec576114eb611c28565b5b6020026020010151602001518260016006846115089190611d96565b6115129190611cce565b8151811061152357611522611c28565b5b60200260200101818152505085818151811061154257611541611c28565b5b60200260200101516000015160016002811061156157611560611c28565b5b60200201518260026006846115769190611d96565b6115809190611cce565b8151811061159157611590611c28565b5b6020026020010181815250508581815181106115b0576115af611c28565b5b6020026020010151600001516000600281106115cf576115ce611c28565b5b60200201518260036006846115e49190611d96565b6115ee9190611cce565b815181106115ff576115fe611c28565b5b60200260200101818152505085818151811061161e5761161d611c28565b5b60200260200101516020015160016002811061163d5761163c611c28565b5b60200201518260046006846116529190611d96565b61165c9190611cce565b8151811061166d5761166c611c28565b5b60200260200101818152505085818151811061168c5761168b611c28565b5b6020026020010151602001516000600281106116ab576116aa611c28565b5b60200201518260056006846116c09190611d96565b6116ca9190611cce565b815181106116db576116da611c28565b5b60200260200101818152505080806116f290611c86565b91505061147b565b50611703611825565b6000602082602086026020860160086107d05a03fa9050806000810361172557fe5b508061173057600080fd5b60008260006001811061174657611745611c28565b5b602002015114159550505050505092915050565b6040518060a0016040528061176d6117a1565b815260200161177a6117ff565b81526020016117876117ff565b81526020016117946117ff565b8152602001606081525090565b604051806040016040528060008152602001600081525090565b6040518060600160405280600390602082028036833780820191505090505090565b6040518060800160405280600490602082028036833780820191505090505090565b6040518060400160405280611812611847565b815260200161181f611847565b81525090565b6040518060200160405280600190602082028036833780820191505090505090565b6040518060400160405280600290602082028036833780820191505090505090565b6000604051905090565b600080fd5b600080fd5b6000601f19601f8301169050919050565b7f4e487b7100000000000000000000000000000000000000000000000000000000600052604160045260246000fd5b6118c68261187d565b810181811067ffffffffffffffff821117156118e5576118e461188e565b5b80604052505050565b60006118f8611869565b905061190482826118bd565b919050565b6000819050919050565b61191c81611909565b811461192757600080fd5b50565b60008135905061193981611913565b92915050565b60006040828403121561195557611954611878565b5b61195f60406118ee565b9050600061196f8482850161192a565b60008301525060206119838482850161192a565b60208301525092915050565b600080fd5b600067ffffffffffffffff8211156119af576119ae61188e565b5b602082029050919050565b600080fd5b60006119d26119cd84611994565b6118ee565b905080602084028301858111156119ec576119eb6119ba565b5b835b81811015611a155780611a01888261192a565b8452602084019350506020810190506119ee565b5050509392505050565b600082601f830112611a3457611a3361198f565b5b6002611a418482856119bf565b91505092915050565b600060808284031215611a6057611a5f611878565b5b611a6a60406118ee565b90506000611a7a84828501611a1f565b6000830152506040611a8e84828501611a1f565b60208301525092915050565b60006101008284031215611ab157611ab0611878565b5b611abb60606118ee565b90506000611acb8482850161193f565b6000830152506040611adf84828501611a4a565b60208301525060c0611af38482850161193f565b60408301525092915050565b600067ffffffffffffffff821115611b1a57611b1961188e565b5b602082029050919050565b6000611b38611b3384611aff565b6118ee565b90508060208402830185811115611b5257611b516119ba565b5b835b81811015611b7b5780611b67888261192a565b845260208401935050602081019050611b54565b5050509392505050565b600082601f830112611b9a57611b9961198f565b5b6015611ba7848285611b25565b91505092915050565b6000806103a08385031215611bc857611bc7611873565b5b6000611bd685828601611a9a565b925050610100611be885828601611b85565b9150509250929050565b60008115159050919050565b611c0781611bf2565b82525050565b6000602082019050611c226000830184611bfe565b92915050565b7f4e487b7100000000000000000000000000000000000000000000000000000000600052603260045260246000fd5b7f4e487b7100000000000000000000000000000000000000000000000000000000600052601160045260246000fd5b6000611c9182611909565b91507fffffffffffffffffffffffffffffffffffffffffffffffffffffffffffffffff8203611cc357611cc2611c57565b5b600182019050919050565b6000611cd982611909565b9150611ce483611909565b9250828201905080821115611cfc57611cfb611c57565b5b92915050565b7f4e487b7100000000000000000000000000000000000000000000000000000000600052601260045260246000fd5b6000611d3c82611909565b9150611d4783611909565b925082611d5757611d56611d02565b5b828206905092915050565b6000611d6d82611909565b9150611d7883611909565b9250828203905081811115611d9057611d8f611c57565b5b92915050565b6000611da182611909565b9150611dac83611909565b9250828202611dba81611909565b91508282048414831517611dd157611dd0611c57565b5b509291505056fea26469706673582212200227e5ed7243ce0b1b260d95f365269a32c377b6ae6612bad10e7b1fefa30f2764736f6c63430008110033",
  "linkReferences": {},
  "deployedLinkReferences": {}
}